:020000040800F2
:100000000000022099390008CD470008CF470008BA
:10001000D1470008D3470008D5470008000000007A
:1000200000000000000000000000000091A900088E
:10003000D74700080000000031AA000895AA000870
:10004000E9390008E9390008E9390008E939000808
:10005000E9390008E9390008E9390008E9390008F8
:10006000E9390008E9390008E9390008E9390008E8
:10007000D9470008E9470008E9390008F9470008AE
:10008000E9390008E9390008E9390008E9390008C8
:1000900009480008E9390008E9390008E939000889
:1000A000E9390008E9390008E9390008E9390008A8
:1000B000E9390008E9390008E9390008E939000898
:1000C000E9390008E9390008E9390008E939000888
:1000D000E939000819480008E9390008E939000839
:1000E000E9390008E9390008E9390008E939000868
:1000F000E939000829480008E9390008E939000809
:10010000E939000839480008E9390008E9390008E8
:10011000E9390008E9390008E9390008E939000837
:10012000E939000849480008E93900085948000839
:10013000E93900080000000000000000E93900086B
:10014000E9390008E9390008E9390008E939000807
:10015000E93900086948000879480008E9390008C9
:10016000E9390008E9390008E9390008E9390008E7
:10017000E9390008E9390008E93900080000000001
:1001800000000000E9390008000000000000000045
:10019000E93900080000000000000000E93900080B
:1001A000000000000000000000000000E939000825
:1001B00089480008E9390008E9390008E9390008E8
:0401C000E939000811
:1001D00010B5054C237833B9044B13B10448AFF381
:1001E00000800123237010BDF001002000000000FA
:1001F0004CED000808B5034B1BB103490348AFF3AE
:10020000008008BD00000000F40100204CED000853
:1002100081F0004102E000BF83F0004330B54FEAB7
:1002200041044FEA430594EA050F08BF90EA020F24
:100230001FBF54EA000C55EA020C7FEA645C7FEAB7
:10024000655C00F0E2804FEA5454D4EB5555B8BFDA
:100250006D420CDD2C4480EA020281EA030382EA4B
:10026000000083EA010180EA020281EA0303362DDD
:1002700088BF30BD11F0004F4FEA01314FF4801CB0
:100280004CEA113102D0404261EB410113F0004FC2
:100290004FEA03334CEA133302D0524263EB430379
:1002A00094EA050F00F0A780A4F10104D5F1200E17
:1002B0000DDB02FA0EFC22FA05F2801841F1000172
:1002C00003FA0EF2801843FA05F359410EE0A5F146
:1002D00020050EF1200E012A03FA0EFC28BF4CF077
:1002E000020C43FA05F3C01851EBE37101F000452D
:1002F00007D54FF0000EDCF1000C7EEB00006EEB3A
:100300000101B1F5801F1BD3B1F5001F0CD34908C3
:100310005FEA30004FEA3C0C04F101044FEA44521A
:1003200012F5800F80F09A80BCF1004F08BF5FEAA1
:10033000500C50F1000041EB045141EA050130BD81
:100340005FEA4C0C404141EB010111F4801FA4F124
:100350000104E9D191F0000F04BF01460020B1FA79
:1003600081F308BF2033A3F10B03B3F120020CDAB1
:100370000C3208DD02F1140CC2F10C0201FA0CF08F
:1003800021FA02F10CE002F11402D8BFC2F1200CF4
:1003900001FA02F120FA0CFCDCBF41EA0C019040AA
:1003A000E41AA2BF01EB0451294330BD6FEA0404F3
:1003B0001F3C1CDA0C340EDC04F11404C4F12002DE
:1003C00020FA04F001FA02F340EA030021FA04F3F0
:1003D00045EA030130BDC4F10C04C4F1200220FA47
:1003E00002F001FA04F340EA0300294630BD21FA85
:1003F00004F0294630BD94F0000F83F4801306BF4B
:1004000081F480110134013D4EE77FEA645C18BF3E
:100410007FEA655C29D094EA050F08BF90EA020FD5
:1004200005D054EA000C04BF1946104630BD91EACD
:10043000030F1EBF0021002030BD5FEA545C05D1D0
:100440004000494128BF41F0004130BD14F580040F
:100450003CBF01F5801130BD01F0004545F0FE4183
:1004600041F470014FF0000030BD7FEA645C1ABFB8
:10047000194610467FEA655C1CBF0B46024650EAEF
:10048000013406BF52EA033591EA030F41F400211B
:1004900030BD00BF90F0000F04BF0021704730B5A1
:1004A0004FF4806404F132044FF000054FF0000176
:1004B00050E700BF90F0000F04BF0021704730B537
:1004C0004FF4806404F1320410F0004548BF40420C
:1004D0004FF000013EE700BF42004FEAE2014FEA61
:1004E00031014FEA02701FBF12F07F4393F07F4F3C
:1004F00081F06051704732F07F4208BF704793F03F
:100500007F4F04BF41F40021704730B54FF4607451
:1005100001F0004521F000411CE700BF50EA010254
:1005200008BF704730B54FF000050AE050EA0102FD
:1005300008BF704730B511F0004502D5404261EB6D
:1005400041014FF4806404F132045FEA915C3FF4AE
:10055000D8AE4FF003025FEADC0C18BF03325FEA4B
:10056000DC0C18BF033202EBDC02C2F1200300FAFC
:1005700003FC20FA02F001FA03FE40EA0E0021FA21
:1005800002F11444BDE600BF70B54FF0FF0C4CF40F
:10059000E06C1CEA11541DBF1CEA135594EA0C0FC1
:1005A00095EA0C0F00F0DEF82C4481EA030621EAFC
:1005B0004C5123EA4C5350EA013518BF52EA033537
:1005C00041F4801143F4801338D0A0FB02CE4FF0E9
:1005D0000005E1FB02E506F00042E0FB03E54FF019
:1005E0000006E1FB03569CF0000F18BF4EF0010E11
:1005F000A4F1FF04B6F5007F64F5407404D25FEA0D
:100600004E0E6D4146EB060642EAC62141EA5551BF
:100610004FEAC52040EA5E504FEACE2EB4F1FD0C01
:1006200088BFBCF5E06F1ED8BEF1004F08BF5FEA7F
:10063000500E50F1000041EB045170BD06F0004631
:1006400046EA010140EA020081EA0301B4EB5C04DE
:10065000C2BFD4EB0C0541EA045170BD41F48011D6
:100660004FF0000E013C00F3AB8014F1360FDEBFFB
:10067000002001F0004170BDC4F10004203C35DAD7
:100680000C341BDC04F11404C4F1200500FA05F35A
:1006900020FA04F001FA05F240EA020001F00042FB
:1006A00021F0004110EBD37021FA04F642EB060171
:1006B0005EEA430E08BF20EAD37070BDC4F10C049B
:1006C000C4F1200500FA04F320FA05F001FA04F25F
:1006D00040EA020001F0004110EBD37041F100014B
:1006E0005EEA430E08BF20EAD37070BDC4F1200556
:1006F00000FA05F24EEA020E20FA04F301FA05F2BE
:1007000043EA020321FA04F001F0004121FA04F265
:1007100020EA020000EBD3705EEA430E08BF20EA35
:10072000D37070BD94F0000F0FD101F0004640006F
:1007300041EB010111F4801F08BF013CF7D041EAF1
:10074000060195F0000F18BF704703F000465200F5
:1007500043EB030313F4801F08BF013DF7D043EAC6
:100760000603704794EA0C0F0CEA135518BF95EA7C
:100770000C0F0CD050EA410618BF52EA4306D1D103
:1007800081EA030101F000414FF0000070BD50EA22
:10079000410606BF1046194652EA430619D094EAAC
:1007A0000C0F02D150EA013613D195EA0C0F05D196
:1007B00052EA03361CBF104619460AD181EA0301EA
:1007C00001F0004141F0FE4141F470014FF00000A2
:1007D00070BD41F0FE4141F4780170BD70B54FF03D
:1007E000FF0C4CF4E06C1CEA11541DBF1CEA1355BD
:1007F00094EA0C0F95EA0C0F00F0A7F8A4EB05049F
:1008000081EA030E52EA03354FEA013100F0888095
:100810004FEA03334FF0805545EA131343EA12635E
:100820004FEA022245EA111545EA10654FEA002613
:100830000EF000419D4208BF964244F1FD0404F5CC
:10084000407402D25B084FEA3202B61A65EB030528
:100850005B084FEA32024FF480104FF4002CB6EBE5
:10086000020E75EB030E22BFB61A754640EA0C0065
:100870005B084FEA3202B6EB020E75EB030E22BFA5
:10088000B61A754640EA5C005B084FEA3202B6EBE6
:10089000020E75EB030E22BFB61A754640EA9C00A5
:1008A0005B084FEA3202B6EB020E75EB030E22BF75
:1008B000B61A754640EADC0055EA060E18D04FEA33
:1008C000051545EA16754FEA06164FEAC30343EAD3
:1008D00052734FEAC2025FEA1C1CC0D111F4801FA0
:1008E0000BD141EA00014FF000004FF0004CB6E799
:1008F00011F4801F04BF01430020B4F1FD0C88BF38
:10090000BCF5E06F3FF6AFAEB5EB030C04BFB6EB42
:10091000020C5FEA500C50F1000041EB045170BD35
:100920000EF0004E4EEA113114EB5C04C2BFD4EB62
:100930000C0541EA045170BD41F480114FF0000EE6
:10094000013C90E645EA060E8DE60CEA135594EA62
:100950000C0F08BF95EA0C0F3FF43BAF94EA0C0F65
:100960000AD150EA01347FF434AF95EA0C0F7FF4DA
:1009700025AF104619462CE795EA0C0F06D152EA2E
:1009800003353FF4FDAE1046194622E750EA410612
:1009900018BF52EA43067FF4C5AE50EA41047FF423
:1009A0000DAF52EA43057FF4EBAE12E74FF0FF3C88
:1009B00006E000BF4FF0010C02E000BF4FF0010C59
:1009C0004DF804CD4FEA410C7FEA6C5C4FEA430CD2
:1009D00018BF7FEA6C5C1BD001B050EA410C0CBF21
:1009E00052EA430C91EA030F02BF90EA020F002083
:1009F000704710F1000F91EA030F58BF994208BFEA
:100A000090422CBFD8176FEAE37040F001007047A6
:100A10004FEA410C7FEA6C5C02D150EA013C07D1FD
:100A20004FEA430C7FEA6C5CD6D152EA033CD3D048
:100A30005DF8040B704700BF8446104662468C4642
:100A40001946634600E000BF01B5FFF7B7FF002875
:100A500048BF10F1000F01BD4DF808EDFFF7F4FF9E
:100A60000CBF012000205DF808FB00BF4DF808ED29
:100A7000FFF7EAFF34BF012000205DF808FB00BF4C
:100A80004DF808EDFFF7E0FF94BF012000205DF86E
:100A900008FB00BF4DF808EDFFF7CEFF94BF012023
:100AA00000205DF808FB00BF4DF808EDFFF7C4FF1C
:100AB00034BF012000205DF808FB00BF4FEA410C65
:100AC0007FEA6C5C02D150EA013C0AD14FEA430C48
:100AD0007FEA6C5C02D152EA033C02D14FF0000085
:100AE00070474FF0010070474FEA410212F50012C3
:100AF00015D211D56FF47873B3EB625212D94FEA65
:100B0000C12343F0004343EA505311F0004F23FA4E
:100B100002F018BF404270474FF00000704750EAA3
:100B2000013005D111F0004008BF6FF00040704760
:100B30004FF00000704700BF4FEA4102B2F1E043BE
:100B400024BFB3F5001CDCF1FE5C0DD901F0004CB4
:100B50004FEAC0024CEA5070B2F1004F40EB830004
:100B600008BF20F00100704711F0804F21D113F130
:100B70003872BCBF01F00040704741F480114FEA69
:100B80005252C2F11802C2F1200C10FA0CF320FAF2
:100B900002F018BF40F001004FEAC1234FEAD3230F
:100BA00003FA0CFC40EA0C0023FA02F34FEA430379
:100BB000CCE77FEA625307D150EA01331EBF4FF002
:100BC000FE4040F44000704701F0004040F0FE401D
:100BD00040F40000704700BF53B94AB9002908BF6C
:100BE00000281CBF4FF0FF314FF0FF3000F072B90A
:100BF000ADF1080C6DE904CE00F006F8DDF804E074
:100C0000DDE9022304B070472DE9F047089E044651
:100C10008846002B4BD18A42154667D9B2FA82F238
:100C20004AB1C2F1200701FA02F320FA07F7954012
:100C300047EA030894404FEA154E230CB8FBFEF731
:100C40001FFA85FC0EFB178843EA084307FB0CF1EB
:100C5000994209D9EB1807F1FF3080F01B819942C6
:100C600040F21881023F2B445B1AA4B2B3FBFEF0A2
:100C70000EFB103344EA034400FB0CFCA44509D9E5
:100C80002C1900F1FF3380F00781A44540F2048164
:100C900002382C4440EA0740A4EB0C0400271EB1A4
:100CA000D4400023C6E900433946BDE8F0878B42B3
:100CB00009D9002E00F0EB800027C6E90001384674
:100CC0003946BDE8F087B3FA83F7002F47D18B424E
:100CD00002D3824200F2FA80841A61EB03030120FE
:100CE0009846002EE0D0C6E90048DDE702B9FFDEF5
:100CF000B2FA82F2002A40F08F80491B4FEA154E6B
:100D00001FFA85F80127B1FBFEFC230C0EFB1C111A
:100D100043EA014308FB0CF1994207D9EB180CF1A7
:100D2000FF3002D2994200F2CD808446591AA3B214
:100D3000B1FBFEF00EFB101443EA044408FB00F87C
:100D4000A04507D92C1900F1FF3302D2A04500F2CB
:100D5000B6801846A4EB080440EA0C409FE7C7F1B0
:100D6000200CBB4022FA0CFE4EEA030E01FA07F4F7
:100D700020FA0CF521FA0CF34FEA1E482543B3FB89
:100D8000F8F92C0C08FB19331FFA8EFA44EA0343D6
:100D900009FB0AF49C4202FA07F200FA07F10BD9A8
:100DA0001EEB030309F1FF3080F087809C4240F284
:100DB0008480A9F1020973441B1BADB2B3FBF8F0A8
:100DC00008FB103345EA034400FB0AFAA24508D9A0
:100DD0001EEB040400F1FF336BD2A24569D902383F
:100DE000744440EA0940A0FB0289A4EB0A044C4584
:100DF000C2464B4654D351D0002E69D0B1EB0A0500
:100E000064EB030404FA0CFCFD40FC404CEA0505CD
:100E1000C6E90054002747E7C2F1200320FA03F790
:100E2000954001FA02F021FA03F34FEA154E3843D8
:100E3000010CB3FBFEF71FFA85F80EFB173341EAEE
:100E4000034107FB08F38B4204FA02F407D969183F
:100E500007F1FF3C2FD28B422DD9023F2944CB1AF8
:100E600081B2B3FBFEF00EFB103341EA034100FBFD
:100E700008F38B4207D9691800F1FF3C17D28B4267
:100E800015D902382944C91A40EA07473BE73746D3
:100E9000304609E70746E7E61846FBE64145ABD290
:100EA000B8EB020A69EB0E0201381346A4E760466C
:100EB000E9E7184695E76746D1E781467CE70238BF
:100EC0002C4447E7ACF1020C2B442FE7384608E7E7
:100ED0003746E9E6704700BF10F8012B11F8013BD7
:100EE000012A28BF9A42F7D0D01A7047034613F858
:100EF000012B002AFBD1181A0138704700000000AE
:100F000001F0FF01102A2BDB10F0070F08D010F8BA
:100F1000013B013A8B422DD010F0070F42B3F6D1BE
:100F2000F0B441EA012141EA014122F007047FF0D7
:100F300000070023F0E80256083C85EA010586EA2E
:100F4000010685FA47F5A3FA87F586FA47F6A5FA6A
:100F500087F68EB9EED1F0BC01F0FF0102F0070276
:100F600032B110F8013B013A83EA010313B1F8D121
:100F70000020704701387047002D06BF3546033802
:100F8000073815F0010F07D1013015F4807F02BF3B
:100F9000013015F4C03F0130F0BC0138704700BF8C
:100FA000013000E0401A8842FCD2704770B584B02E
:100FB0006C4684E80F00104E3368104D05EB0315A6
:100FC00094E80F0085E80F0030684021FFF7E8FF44
:100FD0003060326873689A4201D004B070BD7068A6
:100FE0004021FFF7DDFF70603223002219460448DC
:100FF000006800F0BBFBF0E70C020020F047002087
:101000000000002070B58AB00646002405940694BE
:101010000123079300940194029403940494089389
:101020000E2309930E4D6946284604F04DFC2846D0
:1010300004F0E0FC0221284604F03EFE094B1E604D
:101040005E60DC609C6008221A611C7523460A22DF
:1010500021460548006800F089FB0AB070BD00BF5A
:10106000444F0020BC4700200000002070B586B02F
:1010700004460E461546030E8DF80030C0F30743B4
:101080008DF80130C0F307238DF802308DF803008E
:101090008DF80410C2F307438DF80530C2F307231F
:1010A0008DF806308DF807200E4B19680E4804F0B5
:1010B00044FD0028F8D10B4B6A460C490A4804F05D
:1010C000C7FC08B106B070BD02948DF80C600495A1
:1010D000064B1B68059306AB13E90F00FFF766FF8D
:1010E000F0E700BFB0470020444F0020BC4700207D
:1010F00010B5094B1C685B68E41A02D41CB1204689
:1011000010BD4034FAE700230A221946034800685C
:1011100000F02CFBF3E700BF0C02002000000020D1
:1011200038B504460023036043608360C360FFF763
:10113000DFFF08B9204638BD064D6A68064B03EB51
:1011400002130FCB84E80F0068684021FFF728FFE7
:101150006860EFE70C020020F047002070B5002126
:101160001C4804F096FD054608B9284670BD1A4C87
:101170001A4E234632460021164804F0F0FC184B64
:10118000002119601A68207802EB00621A601A6860
:10119000607802EB00421A601A68A07802EB002225
:1011A0001A601A68E07802441A6022791A7199600C
:1011B0009A68617902EB01429A609A68A17902EB20
:1011C00001229A609A68E1790A449A603268DA608A
:1011D000CBE700BF444F0020B4470020D447002095
:1011E000A047002008B5FFF7B9FF024B0FCBFFF770
:1011F000DDFE08BDA0470020062800D87047072064
:10120000FCE784B08DE80F00002004B070470000B8
:1012100084B030B402AC84E80F000B4A1368013389
:10122000136003F00703C3EBC3039A00074C144495
:1012300002AD0FCD0FC495E8070084E80700012038
:1012400030BC04B0704700BF24050020F04B0020E4
:1012500084B038B504AC84E80F000598FFF73CF97A
:101260002FA3D3E90023FFF7B9FA9FED291B41EC27
:10127000100B0AF035FE53EC102B00202A49FEF724
:10128000CBFF25A3D3E90023FFF77EF9FFF754FC3A
:101290000690DDED077AF5EEC07AF1EE10FA1CDD6E
:1012A00017EE900AFFF718F91DA3D3E90023FFF703
:1012B00095FA9FED171B41EC100B0AF011FE53EC51
:1012C000102B00201849FEF7A7FF13A3D3E9002332
:1012D000FFF75AF9FFF730FC0890144A13680133FE
:1012E000136003F0070303EB83039A00104C1444CC
:1012F00004AD0FCD0FC42B68236004F025FA0D4B0D
:1013000018600020BDE8384004B07047AFF300809B
:10131000EBE2361AC05BC83F0000000040A5E54084
:10132000CDCCCCCCCCD48F400000F03F20050020A9
:10133000D04C00201C050020014B93ED000A7047A3
:1013400014020020014B93ED010A704714020020A3
:10135000014B1878704700BF2C05002070B5ADF523
:10136000187DE02200215CA80DF01BF8A024224685
:10137000002134A80DF015F8224600210CA80DF02C
:1013800010F800250A950B9508950995069507957F
:10139000049505954FF4FA7009F08BF8A2E194A832
:1013A000FFF7BEFE9798FFF727FF9DF85432322BC8
:1013B00000F29881DFE813F03300660076008600C3
:1013C0009900A500B100BD00D600E600F600FE00C1
:1013D0004600560096019601960127019601960156
:1013E0009601960196019601960196019601960145
:1013F0009601960196019601960196019601960135
:101400009601960196019601960196010F019601AB
:1014100096011B0196019601960196010A01DDEDE8
:10142000947AF8EEE77ADFEDB36A87EEA67A00EBFE
:101430008002930034AA134483ED017A08AB0122A1
:101440001A544FE1DDED947AF8EEE77ADFEDA96A00
:1014500087EEA67A00EB8000830034AA134483ED64
:10146000007A3FE1DDED947AF8EEE77ADFEDA16AEC
:1014700087EEA67A00EB8000830034AA134483ED44
:10148000037A2FE1DDED947AF8EEE77ADFED9A6AE0
:1014900087EEA67AC0EBC000830098AA134403ED40
:1014A0003C7A1FE1DDED947AF8EEE77ADFED926A9F
:1014B00087EEA67AC0EBC000830098AA134403ED20
:1014C0003B7A0FE1DDED947AF8EEE77ADFED8A6A98
:1014D00087EEA67AC0EBC002930098AA134403EDEE
:1014E0003A7A06AB01221A54FCE0DDED947AF8EE6C
:1014F000E77AC0EBC000830098AA134443ED397A21
:10150000F0E0DDED947AF8EEE77AC0EBC0008300FE
:1015100098AA134443ED387AE4E0DDED947AF8EECE
:10152000E77AC0EBC000830098AA134443ED377AF2
:10153000D8E0DDED947AF8EEE77A00EB80029300D4
:101540000CAA1344DFED6C6A87EEA67A83ED007A6D
:101550000AAB1B5C002B40F0C5800AAB01221A5479
:101560001544BFE0DDED947AF8EEE77A00EB8000F9
:1015700083000CAA1344DFED616A87EEA67A83ED3F
:10158000017AAFE0DDED947AF8EEE77A00EB8000C7
:1015900083000CAA1344DFED596A87EEA67A83ED27
:1015A000027A9FE000EB800083000CAA1344949A17
:1015B000DA6097E09DF8501200EB800293000CAACD
:1015C0001344197404AB01221A548BE09DF8502285
:1015D0004B4B1A7086E0DDED947AF8EEE77ADFED9A
:1015E000466A87EEA67A474B83ED007A7AE0DDED16
:1015F000947AF8EEE77ADFED406A87EEA67A414BFF
:1016000083ED017A6EE0949A3F4B1A606AE004EB36
:10161000840293000CAA13441A6900920FCBFFF7BF
:10162000F0FD78B1A200224493000CAA1344374A7B
:101630001A605A609A604FF0FF32DA6000221A7422
:1016400004AB1A5508AB1B5D2BBB06AB1B5D002B17
:1016500030D10134072C42DC04AB1B5D002BF1D0F0
:1016600004EB840293000CAA1344D868FEF722FF0F
:101670000022274BFFF7F0F930B10AAB1B5D1BB11D
:10168000013D0AAB00221A550AAB1B5D002BBED1EF
:10169000002DD7DCBBE704EB8402930034AA13448B
:1016A0001A6900920FCBFFF7D3FD80F0010008AB61
:1016B0001855CAE7C4EBC402930098AA1344A3F1D7
:1016C000F006E03B93E807008DE8070096E80F007E
:1016D000FFF79EFD80F0010006AB1855B9E70A2020
:1016E00008F0E7FEFFF704FD00287FF458AE002461
:1016F000B0E700BF0000C84200007A4400247449EB
:101700002C0500201402002004000020000080BFEF
:101710000000F0BF10B5044600F06CFF844204D016
:1017200001F032F8844203D010BD00F047FFFBE720
:1017300001F014F8F8E700004FF0500383F311882C
:10174000BFF36F8FBFF34F8F074B1B68092B07DC6D
:10175000054B1868421C1A60002383F311887047F8
:101760004FF0FF30704700BFA002002000280DDBC3
:1017700010B4074C2468844205DD054C04EB40009E
:101780008180028383855DF8044B7047704700BFFA
:10179000A0020020024B58639963DA63704700BFD0
:1017A0000004014008B5134B1A6A42F004021A62A1
:1017B0001A6A42F040021A621A6A42F480621A629D
:1017C0005A6C42F480425A641A6842F001021A606C
:1017D00003F57C4380229A6103F580634FF48042D5
:1017E0009A614FF400429A61002211461046FFF7B9
:1017F000D1FF08BD0004014010B5FFF7D3FF002260
:1018000011464FF47A70FFF7C5FF4FF47A7008F075
:1018100050FE002211461046FFF7BCFF642008F07E
:1018200048FE1CE00F4B03EB44039888198B9A8DFC
:10183000FFF7B0FF4FF4967008F03BFE0022114610
:101840001046FFF7A7FF642008F033FE0134054B74
:101850001B68A342E6DC4FF4FA7008F02AFE00246D
:10186000F5E700BFA0020020F0B59BB000252C4694
:1018700002E00A2008F01DFE494B1B68002B42D1F4
:10188000484B1B68AB42F4D90134E4B2454F3B6886
:1018900003F0070303EB83039A0005AE424D1544A2
:1018A0000FCD0FC62B68336004F00703DDED077A18
:1018B0009DED097A77EEC77A1AAA02EBC30343EDCE
:1018C000107A3A4AD2ED007AF8EE677A43ED0F7A51
:1018D0003D68CEE71AAA02EBC30212ED107A77EE4A
:1018E000877A0133072BF5DDB4EE007A67EE877A4D
:1018F0002F4BC3ED007AC6EE867A2E4BC3ED007AED
:10190000032008F0D6FD274B1B68AB4224D90134D5
:10191000E4B2244F3B6803F0070303EB83039A0010
:101920006E46214D15440FCD0FC62B68336004F071
:101930000703DDED027A9DED047A77EEC77A1AAAE5
:1019400002EBC30343ED107A184AD2ED007AF8EEA9
:10195000677A43ED0F7A3D6804F007021AAB03EB98
:10196000C20252ED0F7A631C594203F0070301F0E3
:10197000070158BF4B421AA901EBC30313ED0F7ABD
:1019800077EEC77A9FED0C7A87EE876A52ED106A80
:1019900053ED107A76EEE76A0023DFED087AA1E7CF
:1019A0002805002020050020D04C00201C05002028
:1019B000704D0020744D002000007A4400000000AB
:1019C0002DE9F04F2DED048B83B04FF4FA6008F051
:1019D00070FD4FF0000ABA4B83F800A0CDF804A0C8
:1019E000DFEDB88ACDF800A0D346B0EE689AD046B5
:1019F00057461BE1F0EE478A18E14FF0000933E14A
:101A0000002642E103F0A0FEAF4B1B68C01AAF4BAB
:101A1000984240F23F81AA4B06221A703AE1002E0A
:101A200000F00481D4ED037AF5EE407AF1EE10FA7D
:101A300002D0A34B01221A70A14B01221A70F5E0CB
:101A4000B9F1000F00F0F28095ED028AB5EEC08A80
:101A5000F1EE10FA16DB9C4B1B6813B3F0EE007A24
:101A6000B4EEE78AF1EE10FA0FDCF0EE007AB4EE95
:101A7000E78AF1EE10FA00F3D9800023924A13604E
:101A80009A46D3E0B1EE488AE5E703F05DFE8E4B5F
:101A90001B68C31AB3F5FA7FE7D9894B02221A7083
:101AA000C4E0F0EE007AB4EEE78AF1EE10FA40F30B
:101AB000BD8003F049FE844B186003F045FE82466A
:101AC000B4E0834B0A221A6003F03EFEA0EB0A004A
:101AD000B0F5AF5F40F2AA80794B03221A70A5E0FF
:101AE0007B4B14221A60002E00F0A080D4ED027A05
:101AF00094ED047A37EEC77AF4EEC97AF1EE10FA73
:101B000011DC0BF1010BBBF1640F26D979EE677A7A
:101B1000F7EE006AF4EEE67AF1EE10FA01DD3346F4
:101B200006E0002304E0B0EE679A00231E469B46C1
:101B3000DFED687AB4EEE77AF1EE10FA76DD002E8A
:101B400074D0002B72D003F0FFFD82465C4B042260
:101B50001A705F4B1E221A6068E000231E46E7E7FA
:101B6000002E63D003F0F0FDA0EB0A00D4ED027A62
:101B700094ED047A77EEC77A9FED577AF4EEC77A40
:101B8000F1EE10FA06DC009B01330093052B03D81D
:101B9000002601E00026009641F28833984245D99C
:101BA000002E43D003F0D0FD8246454B05221A702B
:101BB000D4ED028A464B23221A6037E003F0C4FDBD
:101BC000A0EB0A0041F2883398422FD976B303F094
:101BD000BBFD824694ED027A77EE687AF5EEC07A24
:101BE000F1EE10FA0DDBF0EE006AF4EEE67AF1EEBB
:101BF00010FA09DC019B01330193052B06D800265E
:101C000004E0F1EE677AEEE700260196002E3FF43D
:101C1000F1AE2B4B06221A702D4B28221A60F0EEE3
:101C2000478A03E04FF4FA6008F043FC0A2008F00A
:101C300040FC234B1E78F6B203F086FD02463221AB
:101C40003046FFF713FA254B1B68BB427FF6D5AE33
:101C5000224A136803F00703C3EBC3039D00204B24
:101C60001D4417684FF001091E4B1B6843457FF662
:101C7000C7AE1C4A136803F0070303EB83039C0001
:101C8000194B1C44D2F8008001260F4B1B68002B17
:101C90007FF4B8AE0A4B1B78DBB2062BC6D801A284
:101CA00052F823F01F1A0008411A0008C31A00084E
:101CB000E11A0008611B0008BD1B0008251C000874
:101CC0002C050020000000002805002080A903004A
:101CD0003405002000009643000016432405002030
:101CE000F04B002020050020D04C00200022027084
:101CF0004270828082600273028242610276828335
:101D0000026280F824200285C26280F8302080F8C8
:101D1000382080F83920C26380F8482080F84920B4
:101D2000C26480F8582080F85920026680F8682044
:101D300080F86920026780F8782080F87920C0F860
:101D4000802080F8882080F88920C0F8902080F8D2
:101D5000982080F89920C0F8A02080F8A82080F86A
:101D6000A920022180F8B91080F8BA2080F8BB20A1
:101D700080F8BC20C0F8C020C0F8C420C0F8C8203B
:101D8000C0F8CC20C0F8D020C0F8D42080F8AA2019
:101D90007047A1F14103DBB2052B07D9A1F1610323
:101DA000DBB2052B05D9A1F130007047A1F1370056
:101DB0007047A1F15700704738B5044605782D2DBE
:101DC0000CD020460CF0B4FA642303FB00F0237817
:101DD000A3F13002092A03D80134F8E70134F0E70F
:101DE0002E2B02D02D2D10D038BD6378A3F13002F8
:101DF000092AF7D802EB82035A001044A378A3F112
:101E00003002092AEED81044ECE74042ECE700002B
:101E100038B504460D460CF08BFA184AA2FB003286
:101E20005309642101FB130399B2154B03FB01F322
:101E3000C2F34F122A802278A2F13001092901D879
:101E40000134F8E72E2A0AD003EB830301330D4A4D
:101E5000A2FB03235B086B6000232B7238BD08498B
:101E600014F8012FA2F130000928EDD80648A0FB94
:101E70000101C908303A01FB0233F1E71F85EB513C
:101E800080969800ABAAAAAACDCCCCCC10B50446BB
:101E9000034653F81C0F59686060A1601B7A2373D6
:101EA000234653F8280F5968206161611B7A237615
:101EB00003F04AFC606301236370237010BD08B512
:101EC0000B4600F11C011846FFF7A2FF08BD08B53C
:101ED0000B4600F128011846FFF79AFF08BD0000E5
:101EE000D0B50446002343708088FEF7E3FA064627
:101EF0000F46A068FEF7CEFA09A3D3E90023FEF748
:101F00006DFC02460B4630463946FEF787F9237BC7
:101F100013B101F10043194641EC100BD0BD00BFD5
:101F20000000000065CDCD41D0B5044600234370CC
:101F3000008AFEF7BFFA06460F466069FEF7AAFA66
:101F400009A3D3E90023FEF749FC02460B463046BD
:101F50003946FEF763F9237E13B101F100431946B8
:101F600041EC100BD0BD00BF0000000065CDCD419D
:101F700010B504468368436003F0E6FBE06001238C
:101F80006370237010BD10B504468368436003F08E
:101F9000DBFBE06001236370237010BD10B50446C5
:101FA0000846FFF709FFA06010BD10B504460846BB
:101FB0000CF0BEF9A06010BD10B50446C368836084
:101FC00003F0C2FB606001236370237010BD10B585
:101FD00004460846FFF7F0FEE06010BD10B5044669
:101FE000C368836003F0B0FB6060012363702370FB
:101FF00010BD10B5044608460CF09AF9E06010BD1B
:1020000010B50446014610300CF0F4F903F09CFBC7
:102010002062012384F8253084F8243010BD08B5EF
:1020200010220CF0EFF908BDF8B5044690F8A9604D
:10203000002E6AD090F8AA10FFF7ABFE0001C5B2DF
:1020400094F8AB102046FFF7A4FE55FA80F0C0B21A
:1020500094F8A830834207D0D4F8D0300133C4F8C4
:10206000D03000263046F8BDD4F8D4300133C4F85F
:10207000D43094F8BC3023B1D4F8CC300133C4F858
:10208000CC3094F8B930C3B1012B25D104F138001C
:10209000FFF76EFF04F14800FFF775FF94F8BC30BE
:1020A000D3B12046FFF7F2FE04F15800FFF784FF9A
:1020B00004F16800FFF780FF0EE004F14800FFF72D
:1020C00062FF94F8BC30C3B904F18800FFF786FFC3
:1020D00004F19800FFF770FFD4F8C450002DC1D070
:1020E000D4F8C430996AA86AFEF7F6FE0028B9D180
:1020F0002846FFF785FF2D6BF0E72046FFF7C6FE69
:1021000004F17800FFF758FFDEE790F8BA30002BB3
:102110003FD100F1AA0766493846FEF7DDFE20B13F
:1021200064493846FEF7D8FE98B9012384F8B930DF
:10213000D4F8C030C4F8C430D4F8C450DDB1394646
:10214000A86AFEF7C9FE002815DA2B6BC4F8C43064
:10215000F2E759493846FEF7BFFE20B157493846E5
:10216000FEF7BAFE18B9002384F8B930E0E702237D
:1021700084F8B930DCE7002D3FF474AF3946A86A23
:10218000FEF7AAFE00287FF76DAF0023C4F8C43025
:1021900068E790F8B920022A23D090F8AA1001B37A
:1021A00043EA4213013B282B1BD8DFE803F0152438
:1021B0002930354E555B611A1A1A1A1A1A1A1A1A48
:1021C0001A1A1A1A1A1A1A1A1A1A1A1A1A1A151D71
:1021D000242930353C42480000F1AA014830FFF77D
:1021E000DDFED4F8C4504AE0412914BF002101218A
:1021F00080F8BC10F5E700F1AA01FFF760FEF0E7F8
:10220000532914BF0021012180F82410E9E700F1CF
:10221000AA01FFF75CFEE4E7572914BF0021012162
:1022200080F83010DDE700F1AA015830FFF7CFFE4B
:10223000D7E700F1AA016830FFF7C9FED1E700F146
:10224000AA013830FFF7B1FECBE7302994BF002157
:10225000012180F8BC10C4E700F1AA018830FFF723
:10226000C8FEBEE700F1AA019830FFF7B0FEB8E75C
:1022700000F1AA017830FFF7AAFEB2E72D6B002D1E
:102280003FF4F0AED4F8C430996AA86AFEF724FE91
:1022900000287FF4E7AEEA6A94F8BA309A423FF732
:1022A000E1AEEBD104F1AA012846FFF7B8FEE5E75D
:1022B0001C1F0108241F01082C1F0108341F0108DE
:1022C00038B50446D0F8C8200132C0F8C820A1F1C2
:1022D0000A02222A44D8DFE802F017434317434397
:1022E00043434343434343434343434343434343BE
:1022F000434343433443434343431743120090F85B
:10230000A8204A4080F8A8200D4694F8BB300E2B38
:102310000FD9002094F8BA30013384F8BA30002382
:1023200084F8BB302A2D14BF0021012184F8A910A4
:1023300038BD2344002283F8AA202046FFF774FE0C
:10234000E8E7002084F8BB0084F8BA0084F8A8000D
:10235000022284F8B92084F8A90084F8BC00E7E7D9
:1023600090F8BB200D2A05D8501C84F8BB002244ED
:1023700082F8AA1094F8A90028B994F8A82051402E
:1023800084F8A810D4E70020D2E70000012800D08C
:10239000704708B54FF6FF73994200D008BD024858
:1023A000FFF7A4FCFAE700BFE002002010B5044CE0
:1023B000C4F8D800FFF7C0F9C4F8DC0010BD00BFB6
:1023C000E0020020000000002DE9F041544B93F89A
:1023D0008830002B00F08580514A002182F8891056
:1023E00092F890404E4A1278002A00F08A804C4BB6
:1023F00093F89830002B76D0494B002283F899202F
:10240000D3F8A000FEF756F80022464BFEF7E6F997
:10241000FEF792FB8046424D2846FFF761FD51ECE6
:10242000100BFEF789FB07462B78002B5ED14FF08F
:102430009F463B4B93F87830002B60D0384B0022FE
:1024400083F87920D3F880504046FEF745F8002203
:10245000354BFEF799F8FEF747FB804603F074F919
:10246000024607214046FEF701FE3846FEF734F8E3
:1024700029A3D3E90023FEF787F8FEF735FB0746CB
:1024800003F062F9024608213846FEF7EFFD3046B8
:10249000FEF722F820A3D3E90023FEF775F8FEF734
:1024A00023FB064603F050F9024609213046FEF7A9
:1024B000DDFD03F049F902460A212846FEF7D6FD64
:1024C0000023962219461648D0F8DC00FFF74EF993
:1024D00003F03AF902460B212046FEF7C7FDBDE89E
:1024E000F08100247EE74FF09F4894E72846FFF7ED
:1024F0001BFD51EC100BFEF71FFB064699E700256C
:10250000A2E7002BE4D09623002211460448D0F81D
:10251000DC00FFF72BF9DBE70000000080842E4190
:10252000E00200200000594000408F4038B503F021
:102530000BF90446204D962300223221D5F8DC0009
:10254000FFF714F94FF4807205F1E001D5F8D800D7
:1025500006F07EFF0CE003F0F7F8001B642804D9B6
:10256000154BD3F8D430012B1FD80A2007F0A1FF58
:10257000114AD2F8D8305B6B1B685B68C3F5807377
:10258000C2F8E0310C4BD3F8E421D3F8E0319A42A1
:10259000E1D20948D0F8E4315A1CC0F8E4210344E0
:1025A00093F8E010FFF78CFEECE7FFF70DFF03F068
:1025B000CBF80446D9E700BFE002002008B50C4B79
:1025C000D3F8E431FF2B0BD80948D0F8E4315A1C7A
:1025D000C0F8E421034493F8E010FFF771FEEEE742
:1025E000034B0022C3F8E021C3F8E42108BD00BF7B
:1025F000E0020020014BD3F8D8007047E002002031
:1026000008B54FF6FF710120FFF7C0FE08BD0000BE
:1026100008B5054B1B68834200D008BD034B186802
:1026200007F050FFF9E700BF104F00207C4D00205D
:1026300008B52DED028B314B00221A704FF4FA6071
:1026400007F037FFFFF778F82D4B18600BE00023F9
:1026500032224FF4FA712A480068FFF787F84FF4E6
:102660007A7007F026FF00F003F90028EFD000236E
:102670003222142122480068FFF778F800F076F93A
:102680004FF47A7007F015FF0BE000F065F90023B6
:102690000A2219461A480068FFF768F8322007F046
:1026A00008FF164B1B78DBB2022BEED9134B1B78BD
:1026B000DBB2032B0ED0114B1B78DBB2032BEDD911
:1026C00000F04AF90023322211460D480068FFF756
:1026D0004DF8E3E7FEF730FEB0EE408AFEF732FE3B
:1026E000F0EE400AB0EE480A00F010FA32231A4623
:1026F000194603480068FFF739F8CFE72C0500209A
:10270000144F0020014B1860704700BF184F002085
:10271000114B1A6801321A601B797BB90D280ED053
:102720000A280CD00C4B5B7943B10B4A93680133F8
:102730009360012B09D0084B00225A717047064B59
:1027400001225A7100229A6070474F28F6D1134631
:1027500001221A71704700BF3805002008B507E054
:10276000084BDA68511CD9601344187CFFF7D0FF7E
:10277000044BDB683F2BF3D9024B00221A65DA6069
:1027800008BD00BF38050020014B1868704700BF26
:10279000184F002038B50D46064C014620460BF078
:1027A00029FE6423AAB221460348006806F06EFDA4
:1027B00038BD00BF8C050020184F0020DFED067AE1
:1027C00020EE270A9FED057AC0EE077AFDEEE77A44
:1027D00017EE900A40427047007838460000B44334
:1027E00010B582B0054C00920B46024604492046C3
:1027F0000BF0E0FD204602B010BD00BFCC0500206C
:102800007C1F010830B585B0054603211448FFF749
:10281000C1FF2A4641214C20FFF7E2FF114C124B29
:1028200004F19402114968460BF0C4FD6846FEF7B6
:102830005DFB01466846FFF7ADFF02F085FF0246EB
:1028400011212846FEF712FC2479E4B202F07CFF45
:10285000024610212046FEF709FC05B030BD00BF3E
:10286000841F010838050020881F0108A81F0108DF
:1028700030B5A7B04022002106A80BF092FD9FEDD5
:10288000260AFFF79BFF02464C210846FFF7A8FFE8
:10289000224B0193224B0093224B234A234916A833
:1028A0000BF088FD16A8FEF721FB014616A8FFF7DE
:1028B00071FF1F4B04931F4B03931F4B02931F4B3E
:1028C00001931F4B00931F4B1F4A204916A80BF082
:1028D00071FD252116A8FFF75DFF03E09DF81800A4
:1028E000FFF716FF6423012206A91948006806F0C5
:1028F0003DFD0028F2D0642007F0DBFD154D2C795A
:10290000E4B202F021FF024610212046FEF7AEFBA2
:10291000287927B030BD00BF00005243B01F010826
:10292000CC050020981F0108A01F0108A41F010862
:10293000841F0108D81F0108E41F0108F01F0108C7
:10294000F81F0108B81F0108C01F0108C81F0108AF
:10295000184F00203805002008B59FED030AFFF747
:102960002DFFFFF74FFF08BD0000000010B5002449
:1029700010E0B0EE000AFFF721FFFFF743FF4FF42E
:10298000FA7007F096FDFFF7E7FF4FF4967007F037
:1029900090FD0134042CECDD10BD0000DFED567A13
:1029A000B4EEE70AF1EE10FA00F1A080DFED537A01
:1029B000B4EEE70AF1EE10FA00F39B80F0B58BB0AD
:1029C000002100E0053101EB41039A004C4B134418
:1029D000D3ED007AF4EEC07AF1EE10FAF2D44E1F85
:1029E00006EB46039A00464B134493ED007A30EE13
:1029F000470A77EEC77A80EE276A002235E0F7EEC5
:102A0000007A77EEC67A06EB020C3D4B4FEA4C0497
:102A100004EB0C05A800184490ED017A27EE877AA4
:102A20008F18780000EB070E4FEA8E051D44D5ED98
:102A3000016A66EE866A37EE267A0AAD05EB820EEB
:102A40000EED0A7A6444A5001D4495ED027A67EE06
:102A5000877A38448400234493ED027A27EE067A7D
:102A600077EE877A4EED057A0132042AC7DDDDED77
:102A7000007AF4EEE07AF1EE10FA30DCDDED047A63
:102A8000F4EEE07AF1EE10FA2DD4002300E00133E9
:102A90000AAA02EB830252ED0A7AF4EEE07AF1EE32
:102AA00010FAF4D45A1E0AA901EB820212ED0A7A36
:102AB00070EEC70A77EEC77A80EEA77AB7EE000A03
:102AC00030EE470A52ED057A20EE270A01EB830328
:102AD00053ED057A67EE877A30EE270A01E09FED25
:102AE000090A0BB0F0BD9FED080AFAE79FED050A51
:102AF00070479FED050A70471044504400803E45E2
:102B000068ED0008000000000000524308B5FFF720
:102B100045FFFFF753FEFFF775FE08BDF0B5DFB0C8
:102B200004464FF4A27226490DA80BF02FFC00209A
:102B30000EE000EBC00313440DA901EB830109680B
:102B40005C3304EB830319600132082AF1DD0130A4
:102B5000082806DC831C04EB830300221A60002291
:102B6000F3E7174F04AD07F5A2760FCE0FC50FCED2
:102B70000FC533682B606D4607F5B4730FCB85E83E
:102B80000F00002309E004AA02EB8302106801335E
:102B900003EB8301CA0022445060082BF3DD0022BE
:102BA000032A0ADC93000DEB030108681344990023
:102BB0002144C1F8B4020132F2E75FB0F0BD00BFBA
:102BC000481C0108000000002DE9F04F2DED0A8B94
:102BD000ADF66C5D0422092174A800F025FE74A8EE
:102BE000FFF79CFFFEF7B4FB00210BE001EBC102F5
:102BF0001A4423A800EB8202002010600133082B46
:102C0000F4DD0131082901DC0023F8E7002305E0A9
:102C1000054A02EB8302002111600133052BF7DD29
:102C200002F092FD804618E32C4F0020DFF864A6E6
:102C300000238AF80030DDED7CBA1BEE900AFDF728
:102C40004BFC41EC1A0B41EC100B09F0E9F855EC88
:102C5000104B9DED7DBA1BEE100AFDF73DFC41ECDB
:102C6000190B41EC100B09F0DBF88DED000B9DED1D
:102C70007ECA1CEE100AFDF72FFC41EC180B41EC4C
:102C8000100B09F0CDF88DED020BB0EE4A0AF0EE14
:102C90006A0A09F065F857EC106BB0EE490AF0EEDD
:102CA000690A09F05DF88DED040BB0EE480AF0EE0C
:102CB000680A09F055F853EC102B8DED060BDDE991
:102CC0000401FDF761FCCDE91401DFF8D495D9F8D2
:102CD0000000FDF701FCCDE9080102460B46DDE9E5
:102CE0001401FDF751FCCDE90E01DDE9002320467A
:102CF0002946FDF749FCDDE90623FDF745FCCDE952
:102D00000A0132463B46DDE90201FDF73DFC024681
:102D10000B46DDE90A01FDF781FACDE91601D9F884
:102D20000400FDF7D9FB83468C46CDE90ABC024678
:102D30000B46DDE91601FDF727FC02460B46DDE9EF
:102D40000E01FDF76BFACDE91A010C9607F100436D
:102D50000D93DDE90023DDE90C01FDF715FCDDE94C
:102D60000623FDF711FCCDE90E01DDE90223204623
:102D70002946FDF709FC02460B46DDE90E01FDF789
:102D80004DFACDE91801D9F80800FDF7A5FB8346F7
:102D90008C46CDE90EBC02460B46DDE91801FDF775
:102DA000F3FB02460B46DDE91A01FDF737FACDE9E0
:102DB0001A01DDE90412109102F100431193DDE9DB
:102DC0000223DDE91001FDF7DFFB02460B46CDE9EA
:102DD0001C23DDE90801FDF7D7FBCDE91E011294A4
:102DE00005F100431393DDE90023DDE91201FDF74E
:102DF000CBFBDDE90223FDF7C7FBCDE92001DDE9CF
:102E0000062330463946FDF7BFFB02460B46DDE997
:102E10002001FDF703FA0A460146CDE920121346C8
:102E20000246DDE90A01FDF7AFFB02460B46DDE98C
:102E30001E01FDF7F3F9CDE91E0132463B46DDE9FF
:102E40000001FDF7A1FBDDE90223FDF79DFBCDE9C4
:102E50000201DDE9062320462946FDF795FB0246DF
:102E60000B46DDE90201FDF7D9F902460B46CDE933
:102E70000623DDE90E01FDF787FB02460B46DDE97F
:102E80001E01FDF7CBF9CDE91E01DDE90023DDE9E7
:102E90000801FDF779FBCDE90201DDE904232046B5
:102EA0002946FDF771FB03460C46CDE9083402467E
:102EB0000B46DDE90A01FDF767FB02460B46DDE93B
:102EC0000201FDF7A9F904460D46DDE90423304669
:102ED0003946FDF759FB0A460146CDE90A12134669
:102EE0000246DDE90E01FDF74FFB02460B46204688
:102EF0002946FDF793F9CDE90E01D9F80C00FDF74D
:102F0000EBFA03460C46CDE9023402460B46DDE9F6
:102F10001401FDF739FB04460D46D9F81000FDF702
:102F2000DBFA0A460146CDE9041213460246DDE902
:102F30001601FDF729FB02460B4620462946FDF700
:102F40006DF904460D46D9F81400FDF7C5FA06469A
:102F50000F4602460B46DDE91801FDF715FB024658
:102F60000B4620462946FDF759F9CDE91401DDE964
:102F70000223DDE91C01FDF707FB04460D46DDE9F0
:102F80000423DDE92001FDF7FFFA02460B46204647
:102F90002946FDF743F904460D4632463B46DDE936
:102FA0000601FDF7F1FA02460B4620462946FDF7D9
:102FB00035F9CDE90601DDE90023DDE90201FDF780
:102FC000E3FA04460D46DDE90423DDE90801FDF7D7
:102FD000DBFA02460B4620462946FDF71DF904465A
:102FE0000D4632463B46DDE90A01FDF7CDFA0246C1
:102FF0000B4620462946FDF711F904460D46DDE94A
:103000001A01FDF799FD08EE900ADDE91E01FDF7B2
:1030100093FD08EE100ADDE90E01FDF78DFDFDF7C9
:103020005BFA9DA3D3E90023FDF7F6F8FDF784FDD5
:1030300009EE100ADDE91401FDF77EFD0AEE100A23
:10304000DDE90601FDF778FD09EE900A20462946E4
:10305000FDF772FDDFED8C7A2AEE27AA7BEE8ABAA5
:103060000DF65823C3ED00BA69EEA79A3BEE29BAD4
:103070000DF65C2383ED00BA07EE100A27EE277ADF
:103080003CEE07CA0DF5266383ED00CA9DED796A13
:1030900028EEA75A36EE057A0DF64C2383ED007A1A
:1030A000DDED7A6A28EE274A36EE847A0DF525633F
:1030B00083ED007A9DED7B7A69EE274A77EE245AFC
:1030C0000DF65423C3ED005ADDED765A26EE276A3D
:1030D00035EE866A0DF5246686ED006A9DED776A09
:1030E00066EEA76A76EE266A0DF64425C5ED006AFF
:1030F000DDED786A27EE277A36EE877A0DF64824DA
:1031000084ED007ACDED267ACDED307ACDED3A7AA8
:1031100029EE679A8DED459A8DED464ACDED4D4AE3
:1031200068EEE78ACDED4F8A68EE677ACDED567A84
:103130008DED575A09220DF2545123A800F0F4FAEC
:1031400032680DF664231A602A680DF668231A6047
:1031500023680DF66C2213600DF5276213609AF850
:10316000013013B19AF80230B3BB00230DF5D362DE
:1031700013600DF5D86213600DF5DD6213600DF27A
:103180000C734FF07E521A60404974A800F078FB2F
:10319000DDED788A9FED3E8A68EE888AFDEEE88A4A
:1031A00002F0D2FA02462A2118EE900AFDF75EFFDD
:1031B000DDED7B7A27EE888ABDEEC88A02F0C4FA7C
:1031C00002462D2118EE100AFDF750FF00237C93D4
:1031D0007D937E93012448E000228AF802204FF07C
:1031E0007E530DF5D36213600DF5D86213600DF5B3
:1031F000DD6213600DF20C72136000237C937D93EB
:103200007E93224CD4ED008A9FED218A68EE888A55
:10321000FDEEE88A02F098FA0246332118EE900A91
:10322000FDF724FFD4ED017A27EE888ABDEEC88A27
:1032300002F08AFA0246342118EE100AFDF716FF52
:10324000A2E7184607F035F908F1640802F07CFAA5
:10325000024626212046FDF709FFFEF779F80D4BBF
:103260001B78002B7FF4E2AC032402F06DFAA8EB8C
:103270000003643303D0032CE3D00124E1E780464C
:103280000224E3E7AFF30080CDCCCC3D1C4F0020FF
:1032900000007A44D80500201F85EB51B89E2340DA
:1032A0002C4F002030B4002304E000EB8304002501
:1032B0002560013302FB01F49C42F6DC30BC704710
:1032C0002DE9F041069FDDF81CE04FF0000824E0F6
:1032D00007FB084500EB8505D5ED007A0EFB04C51C
:1032E00001EB850595ED007A27EE877AD6ED007A19
:1032F00077EE877AC6ED007A0134BC42E8DB0CF148
:10330000010CF44507DA0EFB08C602EB8606002422
:1033100034600024F1E708F10108984502DA4FF023
:10332000000CEEE7BDE8F081F0B4049F4FF0000C14
:1033300016E001EB8405D5ED007A07FB0C4500EBA8
:10334000850595ED007A27EE877AD6ED007A77EE3F
:10335000877AC6ED007A0134BC42EADB0CF1010C3D
:103360009C4505DA02EB8C06002434600024F3E768
:10337000F0BC7047F0B400270DE003FB074602FBEA
:10338000047501EB850500EB860636682E60013476
:103390009C42F2DB0137974201DA0024F8E7F0BCE7
:1033A0007047F0B4002710E003FB0754A40006198F
:1033B0000C4494ED007AD6ED007A77EE877AC6ED6C
:1033C000007A01359D42EFDB0137974201DA002593
:1033D000F8E7F0BC704770B400250CE0AC000619AB
:1033E000D6ED007A0E1996ED007A144477EE877ABE
:1033F000C4ED007A01359D42F0DB70BC704770B4BB
:1034000000250CE0AC000619D6ED007A0E1996EDF9
:10341000007A144477EEC77AC4ED007A01359D42F4
:10342000F0DB70BC704730B400250DE002FB0543B3
:1034300000EB8303D3ED007AF1EE677AC3ED007AF7
:1034400001349442F2DB01358D4201DA0024F8E7C1
:1034500030BC704700230CE001FB033200EB82021A
:10346000D2ED007AB7EE007A77EE877AC2ED007A75
:1034700001338B42F0DB704770B40830086096006F
:103480003044486002FB02F5AD00284488602844BF
:10349000C86003FB03F4A4002044086103FB02F2AC
:1034A000920010444861284488611044C861104467
:1034B000086228444862284488623044C86200EBAD
:1034C00083030B632B444B6313448B631344CB6321
:1034D00023440B6423444B6470BC70472DE9F843CC
:1034E000044688461646002742E0CA1804EB8202CA
:1034F000D2ED007A06FB053204EB8202D2ED006ABF
:1035000067EEA67A37EE677A013B002BEDDAAF4221
:1035100017D008EB8703D3ED006A06FB057304EBB5
:103520008303C7EE267AC3ED007A0135B5421EDA71
:1035300006FB07F14B1904EB830393ED007A7B1E26
:10354000E3E7B5EEC07AF1EE10FA18D917EE100ADB
:10355000FCF7C2FF41EC100B08F05EFE08EB870998
:1035600051EC100BFDF7E8FAC9F80000DDE7013770
:10357000B74201DA3D46D9E70020BDE8F8830120D3
:10358000FBE70000F8B50D4616461C4600270AE08A
:1035900004FB07239B00E91803441B680B600132FE
:1035A000A242F5DB0137A74201DA0022F8E7224602
:1035B00031462846FFF792FF074648B301273846B1
:1035C000F8BD04FB013205EB8202D2ED007A04FB68
:1035D000030205EB8202D2ED006A67EEA67A37EEAF
:1035E000677A01339942ECDC06EB8103D3ED006A84
:1035F00004FB010305EB8303C7EE267AC3ED007AD3
:103600000131A14203DA03469FED0B7AEAE76046F7
:10361000A042D4DA06EB800393ED007A04FB0003AA
:1036200005EB8303F7EE006AC6EE877AC3ED007AF6
:1036300000F1010C6146E4E700000000F8B50D461A
:103640001C46FFF79FFF00286AD1844609E004FB6F
:10365000003205EB8202002111600133A342F6DB48
:103660003046A04202DA461C3346F7E7674633E0AD
:1036700004FB037205EB8202D2ED007A67EEA77AB3
:1036800091ED007A77EE277AC1ED007A0133A342FB
:10369000EEDB76461BE004FB076205EB820204FBCF
:1036A00001F3D81905EB8000D0ED007A334405EB27
:1036B000830393ED007A27EE877AD2ED007A77EED6
:1036C000877AC2ED007A0131A142E4DB0136A642DD
:1036D00001DA3146F8E77746A7420DDA04FB0771B5
:1036E00005EB8101D1ED007A67EEA77AC1ED007A92
:1036F00007F1010E7346CAE760460DE004FB0301C3
:1037000004FB003205EB820205EB810109681160C0
:1037100001339842F2DC0130A04203DA6346F8E755
:103720004FF0010C6046F8BD2DE9F04F85B006461C
:10373000039191464FF000083BE006EB090303EBD1
:10374000840393ED007A04EBC402930033444FEA00
:103750008A052B44D3ED007A67EE277A17EE900A9C
:10376000FCF7BAFE00222F4BFCF70EFFCDE900015B
:103770003D442868FCF7B0FEDDE90023FCF74EFD70
:10378000FDF7DAF9286001345C45D6DB0AF1010A5D
:10379000DA450BDA08EBC8039F00B946039B1F44C8
:1037A00007EB8A0300221A600024EDE7D94608F1EE
:1037B0000108C84503DA4FF0000ACB46E8E70024C9
:1037C000039D13E004EBC4029300EA18334488001D
:1037D0000344D3ED007A131893ED007A77EE277A3D
:1037E000C3ED007A01314945ECDB01344C4501DA87
:1037F0000021F8E7002203980EE002EBC2018B00E3
:10380000034403EB820393ED007AF7EE007A77EE40
:10381000277AC3ED007A01324A45EEDB05B0BDE8F8
:10382000F08F00BF0000E03F30B593B003460C4678
:10383000154619605A6013460A466946FFF71CFE92
:10384000224621460198FFF72DFD22462146029887
:10385000FFF728FD2A4629460398FFF723FD2A464D
:1038600021460498FFF71EFD224621460598FFF7E2
:1038700019FD224629460698FFF714FD13B030BD06
:10388000F0B595B00F46046845682B46224602A95C
:10389000FFF7F2FD0194009423460E9A03990798CE
:1038A000FFF70EFD234622460A990798FFF762FDAF
:1038B0000194009423460B9A0A990E98FFF700FD95
:1038C0002346224604990B98FFF76BFD23462A46B0
:1038D00009990898FFF74EFD0195009423460F9A29
:1038E00009990B98FFF7ECFC019400942B46109A71
:1038F0000B990898FFF7E4FC019500942B46119A68
:1039000009991098FFF7DCFC2B462A460599119877
:10391000FFF747FD2B46139A12991198FFF78EFE79
:1039200018B10126304615B0F0BD06460195009548
:103930002346069A12990F98FFF7C2FC2B46139A5A
:103940000D993846FFF75BFD00952346109A1399B1
:103950000698FFF7E9FC2346029A10990C98FFF7A6
:103960003AFD0194009523460E9A08990698FFF7B0
:10397000A7FC224621460E98FFF755FD21460E98DA
:10398000FFF768FD019400942346039A0B990E9863
:10399000FFF796FCC6E70000DFF834D0002103E013
:1039A0000C4B5B58435004310B480C4B42189A4265
:1039B000F6D30B4A02E0002342F8043B094B9A423B
:1039C000F9D301F075FE0AF0BDFC00F08BFC7047E6
:1039D00000000220C423010800000020F0010020A4
:1039E000F0010020245B0020FEE7000008B503463C
:1039F0000B4A126842B10A4A106803446A4693426D
:103A000006D8074A136008BD054A06491160F2E767
:103A10000AF092FC0C2303604FF0FF30F3E700BF85
:103A2000E4050020285B002030B597B000241394F3
:103A3000149415940E940F941094119412940A9463
:103A40000B940C940D9406940794089409943E4B9F
:103A50005A6C42F480725A645A6C02F48072039277
:103A6000039A1A6B42F001021A631A6B02F0010208
:103A70000292029A1A6B42F004021A631B6B03F063
:103A800004030193019B0C2304930325059504A9CA
:103A90002E4805F0EFFE10230493059508940DEBD6
:103AA00003012B4805F0E6FE139414941594294D58
:103AB00013A9284605F094FE0E940F9410941194C7
:103AC00012940EA9284605F0A7FEAB6843F4806364
:103AD000AB606B6823F020036B600A940B940AA917
:103AE0001D4805F04FFE1D494FF4407393FAA3F3B0
:103AF000B3FA83F34FF40072DA4051F8223023F026
:103B00001F0343F0020341F822300C354FF00073DD
:103B100093FAA3F2B2FA82F2D34055F823204FF081
:103B2000F87191FAA1F4B4FA84F44FF4C00020FAC9
:103B300004F40720A04022EA000291FAA1F145F81E
:103B4000232017B030BD00BF003802400000024003
:103B50000008024000200140002301402C200140C9
:103B600030B593B000240F94109411940A940B94E0
:103B70000C940D940E9406940794089409943A4B6F
:103B80005A6C42F400725A645A6C02F40072039246
:103B9000039A1A6B42F004021A631A6B02F00402D1
:103BA0000292029A1A6B42F001021A631B6B03F035
:103BB00001030193019B03250495059504A92B4856
:103BC00005F058FE302304930595089404A928486D
:103BD00005F050FE0F9410941194264D0FA928461D
:103BE00005F0FEFD0A940B940C940D940E940AA912
:103BF000284605F011FEAB6843F48063AB606B6848
:103C000023F020036B601C494FF4407393FAA3F335
:103C1000B3FA83F34FF40072DA4051F8223023F004
:103C20001F0343F0040341F822300C354FF00073BA
:103C300093FAA3F2B2FA82F2D34055F823204FF060
:103C4000F87191FAA1F4B4FA84F44FF4400020FA28
:103C500004F40720A04022EA000291FAA1F145F8FD
:103C6000232013B030BD00BF0038024000080240DE
:103C700000000240002101402C21014008B50E48FF
:103C80000E4B03600923436000238360C3604FF43D
:103C9000402202614FF480124261037643768376BC
:103CA0000122C2760377437701F068FD00B908BDB1
:103CB00000F05CFBFBE700BF444F002000640040C5
:103CC000F0B589B0002303930493059306930793FB
:103CD0000268234B9A4201D009B0F0BD0024009441
:103CE00003F5EA331A6C42F000721A641A6C02F09F
:103CF00000720092009A01941A6B42F001021A635A
:103D00001A6B02F001020192019A02941A6B42F0BE
:103D100002021A631B6B03F002030293029B4FF42F
:103D200080530393022704970326069609250795D7
:103D300003A90C4802F07CFB4FF4807303930497B3
:103D400005940696079503A9074802F071FB2246E1
:103D50000521142002F00CF9142002F03DF9BBE714
:103D600000640040000002400004024010B582B030
:103D700000240094264B1A6B42F480021A631A6BDB
:103D800002F480020092009A01941A6B42F400122D
:103D90001A631B6B03F400130193019B2246052158
:103DA0000C2002F0E5F80C2002F016F9224605215D
:103DB0000D2002F0DDF80D2002F00EF9224605215B
:103DC0000F2002F0D5F80F2002F006F92246052157
:103DD000392002F0CDF8392002F0FEF82246052104
:103DE0003B2002F0C5F83B2002F0F6F82246052100
:103DF000452002F0BDF8452002F0EEF822460521EC
:103E0000462002F0B5F8462002F0E6F802B010BDF8
:103E10000038024008B501F061FA012006F049FBC4
:103E2000FBE708B54FF47A7006F043FB4FF47A7065
:103E300006F03FFBFAE708B54FF47A7006F039FB5D
:103E4000FAE70000034B036054330B6080231360D8
:103E5000704700BFEC05002070B5C6B04E4C3FADBA
:103E600026460FCE0FC596E8070085E8070000211B
:103E70003FA806F0E8FA494B186038AD04F11C067B
:103E80000FCE0FC596E8070085E80700002138A887
:103E900006F0D9FA424B186031AD04F138060FCE66
:103EA0000FC596E8070085E80700002131A806F055
:103EB000CAFA3C4B18602AAD04F154060FCE0FC568
:103EC00096E8070085E8070000212AA806F0BBFA5B
:103ED000354B186023AD04F170060FCE0FC596E880
:103EE000070085E80700002123A806F0ACFA2F4B55
:103EF00018601CAD04F18C060FCE0FC596E80700C4
:103F000085E8070000211CA806F09DFA284B1860E0
:103F10002848FEF74BFA15AD04F1A8060FCE0FC5E1
:103F200096E8070085E80700002115A806F08BFA3F
:103F3000214B18602148FEF7E5FB0EAD04F1C406E5
:103F40000FCE0FC596E8070085E8070000210EA8F0
:103F500006F079FA1A4B186007AD04F1E0060FCEAF
:103F60000FC596E8070085E80700002107A806F0BE
:103F70006AFA144B18606D46FC340FCC0FC594E8F8
:103F8000070085E807000021684606F05CFA0E4B42
:103F9000186046B070BD00BFC01D01086C4F002006
:103FA000704F0020984F0020804F00207C4F002051
:103FB000944F002070560020784F0020305600208B
:103FC0009C4F00208C4F0020884F002086B000229C
:103FD00001921A4B196B41F004011963196B01F03E
:103FE0000401019101990292196B41F0800119635A
:103FF000196B01F08001029102990392196B41F053
:1040000001011963196B01F00101039103990492F5
:10401000196B41F002011963196B01F0020104915F
:10402000049905921A6B42F008021A631B6B03F0A5
:1040300008030593059B06B0704700BF0038024097
:1040400008B50B480B4B03600B4B436000238360A8
:10405000C3604FF48042026143618361C3610362C4
:1040600002F0C4FA00B908BD00F080F9FBE700BF18
:10407000A04F0020005C0040A08601002DE9F04721
:104080008CB0044600230793089309930A930B937B
:104090000268614B9A4206D02268604B9A425ED019
:1040A0000CB0BDE8F087002501955D4E336B43F001
:1040B00001033363336B03F001030193019B02950A
:1040C000336B43F002033363336B03F00203029359
:1040D000029B4FF4807307934FF0120ACDF820A093
:1040E0004FF00109CDF824904FF00308CDF8288057
:1040F00004270B9707A94B4802F09AF9102307935E
:10410000CDF820A0CDF82490CDF828800B9707A9F2
:10411000454802F08DF90395336C43F40003336492
:10412000336C03F400030393039B4048404B03604C
:104130004FF0C06343608560C5604FF480630361E6
:1041400045618561C5610562456201F0CFFF18B91F
:10415000364BA3639C639FE700F008F9F8E700255E
:1041600004952F4E336B43F001033363336B03F03D
:1041700001030493049B0595336B43F002033363FF
:10418000336B03F002030593059B4FF48073079391
:104190004FF0120ACDF820A04FF00109CDF824907D
:1041A0004FF00308CDF8288004270B9707A91D4876
:1041B00002F03EF910230793CDF820A0CDF824900B
:1041C000CDF828800B9707A9174802F031F906951A
:1041D000336C43F400033364336C03F4000306933D
:1041E000069B1248124B03604FF0C063436085602A
:1041F000C5604FF48063036145618561C5610562F7
:10420000456201F073FF18B9084BA3639C6347E74D
:1042100000F0ACF8F8E700BF005C0040005400403C
:10422000003802400000024000040240F44F002029
:104230004060024030B5ADB0342200211FA80AF022
:10424000B0F800241A941B941C941D941E945C22B4
:10425000214603A80AF0A5F80194204B1A6C42F0FD
:1042600080521A641B6C03F080530193019B0294EB
:104270001B4A136823F4404343F4804313601368DC
:1042800003F440430293029B02251F9501232293CE
:1042900010232393259526940823279348232893B6
:1042A000299503232A932B951FA803F06BF80F235E
:1042B0001A931B951C944FF480531D931E9429460A
:1042C0001AA802F06FFC4FF44073039318941494EF
:1042D00003A802F057FD2DB030BD00BF00380240EA
:1042E0000070004008B501F009FAFFF7A3FFFFF7DF
:1042F0006DFEFFF73BFDFFF797FBFFF731FCFFF784
:10430000BDFCFFF79DFE00F033F800F0B5F800F0BB
:104310008FF900F0F5FC00F063FD00F0BDFA00F04D
:10432000B1FD00F005FE00F00BFB00F055FE00F0C3
:104330006DFE00F085FEFDF735FA00221146FF20E4
:10434000FDF728FA0720FCF75DFEFFF785FD06F074
:1043500062F8FEE708B50268034B9A4200D008BD38
:1043600001F0E6F9FBE700BF0020004070470000C5
:1043700008B50B480B4B0360FF23436001238360A8
:104380000023C3601A22026143618361C361036237
:1043900002F0A4FB00B908BDFFF7E8FFFBE700BF90
:1043A00008510020001000A02DE9F04188B0002342
:1043B0000393049305930693079302682A4B9A424A
:1043C00002D008B0BDE8F08100240094274B9A6B1E
:1043D00042F002029A639A6B02F002020092009A83
:1043E00001941A6B42F002021A631A6B02F0020285
:1043F0000192019A02941A6B42F004021A631B6B39
:1044000003F004030293029B042303930226049601
:10441000032506954FF00908CDF81C80144F03A919
:10442000384602F005F84FF4C063039304960594F0
:104430000695CDF81C8003A90E4801F0F9FF402332
:1044400003930496059406950A23079303A9384617
:1044500001F0EEFF224605215C2001F089FD5C2081
:1044600001F0BAFDADE700BF001000A00038024027
:104470000004024000080240054B064A1A60002270
:104480005A609A60DA601A615A619A61704700BF97
:1044900014520020002C01402DE9F0438BB0002382
:1044A000059306930793089309930268584B9A4221
:1044B00002D00BB0BDE8F08304460025019503F55A
:1044C00086335A6C42F400625A645A6C02F40062F9
:1044D0000192019A02951A6B42F002021A631A6B5A
:1044E00002F002020292029A03951A6B42F0040251
:1044F0001A631A6B02F004020392039A04951A6B72
:1045000042F008021A631B6B03F008030493049B38
:10451000032605964FF00208CDF8188008960C2760
:10452000099705A93B4801F083FF4FF4C853059351
:10453000CDF8188007950896099705A9364801F027
:1045400077FF4FF00409CDF81490CDF81880079547
:104550000896099705A9314801F06AFF3048314BA8
:1045600003604FF0006343608560C5604FF4806373
:1045700003614FF4805343614FF4804383612023F0
:10458000C3610562C0F8249086624FF40003C362E1
:104590004FF40013036301F0A9FD002831D1204B33
:1045A000E3639C632048214B03604FF0006343604A
:1045B000402383600023C3604FF4806202614FF4A4
:1045C000805242614FF4804282612022C2610362C4
:1045D00004234362032383624FF40003C3624FF456
:1045E0000013036301F082FD70B90F4B23649C63D9
:1045F00000220521312001F0BBFC312001F0ECFC50
:1046000057E7FFF7B3FECAE7FFF7B0FEEDE700BFDD
:10461000002C01400004024000080240000C02404F
:1046200054510020A0640240B4510020586402405C
:1046300008B50D480D4B03604FF4827343600023AF
:104640008360C360036143614FF400728261C361A0
:104650000362436283620A23C36203F0C1FE00B9AE
:1046600008BDFFF783FEFBE79852002000380040AA
:10467000F0B589B000230393049305930693079341
:1046800002681F4B9A4201D009B0F0BD002400948B
:1046900003F500331A6C42F480421A641A6C02F477
:1046A00080420092009A01941A6B42F004021A634D
:1046B0001A6B02F004020192019A02941A6B42F002
:1046C00002021A631B6B03F002030293029B0C238A
:1046D00003930227049703260696052507950DEBFD
:1046E0000301084801F0A4FE4FF40053039304971C
:1046F00005940696079503A9034801F099FEC3E7C0
:1047000000380040000802400004024000B583B0B9
:10471000002200920D4B596C41F480415964596C50
:1047200001F48041009100990192196C41F080518F
:1047300019641B6C03F080530193019B0F216FF0F0
:10474000010001F015FC03B05DF804FB00380240E5
:1047500010B588B0002201462D2001F009FC2D2063
:1047600001F03AFC00240194144B1A6C42F480725C
:104770001A641B6C03F480730193019B02A903A8C4
:1047800002F0E2FA02F0C0FA43000D48A0FB032356
:104790009B0C013B0B480C4A026040F2E732C260BE
:1047A00043600461846004F0A3F810B1012008B0F4
:1047B00010BD044803F064FFF9E700BF0038024071
:1047C00083DE1B43F0520020002000407047FEE7CC
:1047D000FEE7FEE7FEE7704708B5024801F03AFD44
:1047E00008BD00BFD054002008B5024801F032FDDA
:1047F00008BD00BFF44F002008B5024801F02AFDB3
:1048000008BD00BF7055002008B5024801F072FADB
:1048100008BD00BF444F002008B5024804F01AFF4D
:1048200008BD00BF3056002008B5024803F03FFF26
:1048300008BD00BFF052002008B5024803F0F0FCAC
:1048400008BD00BF1452002008B5024801F002FD67
:1048500008BD00BF7054002008B5024801F0FAFC02
:1048600008BD00BFB451002008B5024801F0F2FCB9
:1048700008BD00BF5451002008B5024801F0EAFC11
:1048800008BD00BFD055002008B5024802F006F868
:1048900008BD00BF0851002000B58DB0002307936C
:1048A000089309930A930B9305930693019302933C
:1048B000039304932048214A026043608360C360ED
:1048C0000361836104F014F838BB1B4804F042F81C
:1048D00030BB0723079350230893002309930B93BE
:1048E00007A9154804F012FAE8B9002305930693C6
:1048F00005A9114804F036FAC0B90023019301223A
:1049000002920393049304220DEB02010A4804F07F
:10491000DFF870B90DB05DF804FBFFF727FDD4E7B1
:10492000FFF724FDD5E7FFF721FDDEE7FFF71EFDCA
:10493000E3E7FFF71BFDEDE7B05300200004004064
:104940002DE9F0439DB000241794189419941A94FB
:104950001B94202221460FA809F023FD09940A94F4
:104960000B940C940D940E94039404940594069463
:1049700007940894534E736C43F002037364736C92
:1049800003F002030293029B4F4BDB684F4B83F80B
:104990002D434FF40058C3F804804FF00109ADF8DF
:1049A0005C9018944FF47A7319931A948DF86C40B4
:1049B000474D17A9284605F059FC2B6823F08003C2
:1049C0002B60AB6823F4804323F00703AB60414FB7
:1049D000AB6943F00803AB6170230F9310941194FB
:1049E000129413941494159416940FAA49462846C9
:1049F00005F0A0FCAB6923F00403AB61AB6943F4A1
:104A00000063AB61109411940FAA1021284605F0A1
:104A100091FCAB6923F48063AB617B6843F00803CE
:104A20007B60109411940FAA4FF48071284605F012
:104A300081FC7B6823F004037B606B6823F07003C8
:104A40006B60AB6823F08003AB6009940A940B940D
:104A50008DF83040ADF83240CDF834800E9409A97D
:104A6000284605F085FC336B43EA09033363336B57
:104A700003EA09030193019B336B43F002033363A1
:104A8000336B03F002030093009B80230393022601
:104A900004960594069407940325089503A90E48E7
:104AA00004F0E8FE4FF44043039304960594069403
:104AB0000794089503A9094804F0DCFE1DB0BDE881
:104AC000F08300BF0038024000ED00E000E100E0AC
:104AD00000040140180401400000024000040240AC
:104AE00030B58DB000230793089309930A930B9375
:104AF00003683C4A934218D0B3F1804F23D03A4A1E
:104B000093422DD0394A93425ED0394A934218D10C
:104B100000230693374B1A6C42F008021A641B6C90
:104B200003F008030693069B0BE000230093314B30
:104B30005A6C42F001025A645B6C03F0010300936B
:104B4000009B0DB030BD002301932A4B1A6C42F03C
:104B500001021A641B6C03F001030193019BF0E74F
:104B600000240294234B1A6C42F002021A641A6C5D
:104B700002F002020292029A03941A6B42F00102BE
:104B80001A631A6B02F001020392039A04941A6BDF
:104B900042F002021A631B6B03F002030493049BAE
:104BA00040230793022508950B9507A9124801F0A9
:104BB0003FFC20230793089509940A940B9507A9B5
:104BC0000E4801F035FCBCE700230593094B1A6C35
:104BD00042F004021A641B6C03F004030593059B66
:104BE000AFE700BF000001400004004000080040A3
:104BF000000C004000380240000002400004024067
:104C000000B58BB00023059306930793089309938F
:104C10000368354A93420BD0B3F1804F20D0334A1A
:104C2000934235D0324A934248D00BB05DF804FB32
:104C3000002301932F4B1A6B42F001021A631B6B86
:104C400003F001030193019B4FF4006305930223DA
:104C500006930123099305A9274801F0E9FBE4E73E
:104C600000230293234B1A6B42F001021A631B6B61
:104C700003F001030293029B4FF4004305930223C8
:104C800006930123099305A91B4801F0D1FBCCE74A
:104C900000230393174B1A6B42F002021A631B6B3B
:104CA00003F002030393039B8023059302230693DF
:104CB000099305A9114801F0BBFBB6E70023049353
:104CC0000C4B1A6B42F001021A631B6B03F00103D9
:104CD0000493049B0123059302230693099305A9DA
:104CE000054801F0A5FBA0E70000014000080040D6
:104CF000000C004000380240000002400004024066
:104D000010B596B000241294139414941594109432
:104D1000119409940A940B940C940D940E940F948E
:104D20002022214601A809F03CFB2B482B4B0360B5
:104D300044608460C46004614461846103F0D8FD10
:104D4000002837D116A94FF4805341F8103D22486E
:104D500003F02AFF002830D11F4803F0E2FD0028AD
:104D60002ED100231093119310A91B4803F0FAFFD2
:104D700048BB002309930A930B930D930E930F9353
:104D80000C2209A9144803F037FEF8B90023019357
:104D900002930393049305934FF4005206920893F1
:104DA00001A90D4804F001F898B90B48FFF728FF56
:104DB00016B010BDFFF7DAFAC4E7FFF7D7FACBE772
:104DC000FFF7D4FACDE7FFF7D1FAD2E7FFF7CEFA33
:104DD000DCE7FFF7CBFAE8E7F053002000000140E2
:104DE00000B58FB000230A930B930C930D93089397
:104DF00009930193029303930493059306930793F6
:104E00001F484FF08042026043608360C3600361CB
:104E1000836103F06DFD20BB0EA94FF4805341F870
:104E2000103D174803F0C0FEF0B9154803F079FDB6
:104E3000E8B900230893099308A9114803F092FFE9
:104E4000C0B90022019202920392059201A90C4876
:104E500003F0D2FD88B90A48FFF7D2FE0FB05DF823
:104E600004FBFFF783FAD7E7FFF780FADDE7FFF7E8
:104E70007DFADEE7FFF77AFAE3E7FFF777FAEAE78A
:104E80003054002000B58FB000230A930B930C938D
:104E90000D9308930993019302930393049305934D
:104EA000069307932048214A026043608360C360F1
:104EB0000361836103F01CFD30BB0EA94FF48053E6
:104EC00041F8103D184803F06FFE00BB164803F090
:104ED00028FDF8B900230893099308A9124803F0A4
:104EE00041FFD0B900230193029303930593042259
:104EF0000DEB02010C4803F07FFD88B90A48FFF76B
:104F00007FFE0FB05DF804FBFFF730FAD5E7FFF73F
:104F10002DFADBE7FFF72AFADCE7FFF727FAE1E7EC
:104F2000FFF724FAEAE700BF3053002000080040F2
:104F300000B58FB000230A930B930C930D93089345
:104F400009930193029303930493059306930793A4
:104F50001F48204A026043608360C360036183612D
:104F600003F0C6FC20BB0EA94FF4805341F8103D5E
:104F7000174803F019FEF0B9154803F0D2FCE8B960
:104F800000230893099308A9114803F0EBFEC0B968
:104F90000022019202920392059201A90C4803F0AB
:104FA0002BFD88B90A48FFF72BFE0FB05DF804FB14
:104FB000FFF7DCF9D7E7FFF7D9F9DDE7FFF7D6F917
:104FC000DEE7FFF7D3F9E3E7FFF7D0F9EAE700BF41
:104FD00070530020000C004008B50A480A4B0360DB
:104FE0004FF41653436000238360C36003610C22B7
:104FF00042618361C36104F01AF900B908BDFFF78B
:10500000B5F9FBE7305600200010014008B50A480A
:105010000A4B03604FF41653436000238360C36060
:1050200003610C2242618361C36104F000F900B99D
:1050300008BDFFF79BF9FBE7305500200048004012
:1050400008B50A480A4B03604FF416534360002327
:105050008360C36003610C2242618361C36104F019
:10506000E6F800B908BDFFF781F9FBE770560020AC
:10507000001401402DE9F0478CB00446002307934B
:10508000089309930A930B930368854A934209D0C6
:10509000844A93424ED0844A934200F0C0800CB0C0
:1050A000BDE8F08700250095804B5A6C42F0100255
:1050B0005A645A6C02F010020092009A01951A6B21
:1050C00042F001021A631B6B03F001030193019B81
:1050D0004FF4C0630793022308930123099303232A
:1050E0000A9307230B9307A9714801F0A1F97148AE
:1050F000714B03604FF00063436040238360C560E1
:105100004FF48063036145618561C5610562456255
:1051100000F0ECFF58B9674B23639C630022052124
:10512000252000F025FF252000F056FFB7E7FFF708
:105130001DF9F0E7002502955C4B1A6C42F48022C1
:105140001A641A6C02F480220292029A03951A6B76
:1051500042F004021A631A6B02F004020392039AEB
:1051600004951A6B42F002021A631B6B03F00203F0
:105170000493049B202307934FF0020ACDF820A04C
:105180004FF00109CDF824904FF00308CDF82880A6
:1051900007270B9707A9494801F04AF94FF48066A1
:1051A0000796CDF820A0CDF82490CDF828800B9755
:1051B00007A9434801F03CF94248434B03604FF0D4
:1051C000006343608560C560066145618561C561B6
:1051D0000562456200F08AFFD8B93A4B63639C636D
:1051E0003A483B4B03604FF0606343604023836069
:1051F0000023C3604FF48062026143618361C36135
:105200000362436200F072FF30B9304B23639C634A
:1052100045E7FFF7ABF8E0E7FFF7A8F8F5E700256B
:105220000595224B5A6C42F020025A645A6C02F0E7
:1052300020020592059A06951A6B42F004021A6341
:105240001B6B03F004030693069BC0230793022302
:1052500008930123099303230A9308230B9307A9B7
:10526000164801F0E5F81B481B4B03604FF0206324
:1052700043608560C5604FF480630361456185616B
:105280004FF48073C3610562456200F02FFF18B9C7
:10529000104B63639C6302E7FFF768F8F8E700BF11
:1052A0000010014000480040001401400038024056
:1052B00000000240D0550020B864024000080240BF
:1052C00000040240D05400202860024070550020A5
:1052D00070600240705400202864024008B5034901
:1052E000034805F087F8034B187008BDB45600203A
:1052F000E81E0108B056002008B513460A460146CC
:10530000024802F0A9FB00B1012008BD14520020A0
:1053100008B513460A460146024802F025FC00B1D2
:10532000012008BD1452002008B5034802F0EFFE2A
:10533000043818BF012008BD1452002008B50146EA
:10534000014802F082FE08BD14520020704708B5E3
:10535000FFF7FCFF08BD08B500F092F908BD08B5DD
:1053600000F09AF908BD82B001238DF807309DF84E
:10537000070002B07047000010B5FFF7F4FF0128E6
:1053800002D00124204610BD074802F045FE044625
:105390000028F7D14FF40061034802F068FE0028AE
:1053A000F0D00124EEE700BF1452002008B5074BEF
:1053B00001221A70FFF7B8FF20B9044A137803F0EE
:1053C000FE031370014B187808BD00BF08000020D1
:1053D00010B584B00446144B01221A7005F020F871
:1053E00018B9114B187804B010BDFFF7C5FFA0B174
:1053F0000D4B1B78DBB2012BF3D00C4B1B68002B41
:10540000EFD10B4B6C460FCB84E80F0000212046F8
:1054100005F086F8054B1860E3E72046FFF7C6FF66
:10542000014B1870E4E700BF08000020400800208E
:10543000D81E010808B5FFF7B9FF08BD38B5054605
:1054400004F0F7FF044604F0F4FF001BA84205D265
:10545000FFF76AFF0028F6D1002001E04FF0FF308F
:1054600038BD00002DE9F04788B0894614461F4634
:1054700047F23050FFF7E2FF002851DB19F0030F2D
:1054800001D000251AE03A4621464846FFF734FF8E
:1054900008B1012045E047F23052244B196805A8B5
:1054A00005F086F8059B102B01D0012039E0069B02
:1054B000012B39D0012034E001353446AA46BD42E3
:1054C00023D2661C012221461948FFF715FF8046AA
:1054D000D8B96C4647F23052144B1968204605F093
:1054E00067F894E8070008AB03E90700059B102B59
:1054F000E2D1069B012BDFD14FF400720C494846E4
:1055000008F044FF09F50079D6E7BA4501D001203B
:1055100007E0B8F1000F01D1002002E0012000E017
:10552000012008B0BDE8F0870020FAE7400800201D
:10553000440800202DE9F04788B0894614461F46EC
:1055400047F23050FFF77AFF002862DB19F0030FB3
:1055500001D000252BE03A4621464846FFF7D8FE09
:1055600008B1012056E047F230522C4B196805A8CB
:1055700005F01EF8059B102B01D001204AE0069B88
:10558000022B01D0012045E004F053FF00F5EA446E
:10559000303404F04EFFA04205D2FFF7C5FE0028CC
:1055A000F7D1002036E0012034E001353446AA4628
:1055B000BD4223D2661C012221461948FFF7A8FEEE
:1055C0008046D8B96C4647F23052144B19682046D1
:1055D00004F0EEFF94E8070008AB03E90700059B21
:1055E000102BE2D1069B022BDFD14FF400720C4945
:1055F000484608F0CBFE09F50079D6E7BA4501D058
:10560000012007E0B8F1000F01D1002002E00120E5
:1056100000E0012008B0BDE8F08700BF400800208E
:1056200044080020154B1B7813F0010F21D110B551
:1056300088B0144603291ED8DFE801F002050C13D8
:10564000002008B010BD6846FFF778FE069B236077
:105650000020F6E76846FFF771FE079B23800020D5
:10566000EFE76846FFF76AFE079B5B0A23600020AE
:10567000E7E7032070470420E3E700BF08000020AD
:1056800008B54FF0FF320221024B186804F05CFFAE
:1056900008BD00BF4008002008B54FF0FF320121CF
:1056A000024B186804F050FF08BD00BF40080020FE
:1056B0000F49D1F8883043F47003C1F888300D4B9E
:1056C0001A6842F001021A60002098601A6822F0FD
:1056D000847222F480321A60074A5A601A6822F4EF
:1056E00080221A60D8604FF000638B60704700BF63
:1056F00000ED00E0003802401030002408B50B4BEC
:105700001A6842F400721A601A6842F480621A60E1
:105710001A6842F480721A60032000F017FC00201F
:10572000FFF716F8FEF7F2FF002008BD003C02402C
:10573000034A1168034B1B780B441360704700BF8A
:105740001C5B002010000020014B1868704700BF50
:105750001C5B002038B50446FFF7F6FF0546B4F1A0
:10576000FF3F02D0044B1B781C44FFF7EDFF401BAA
:10577000A042FAD338BD00BF10000020002800F07E
:10578000A18038B5044690F82030D3B12268136860
:1057900023F002031360FFF7D7FF054623685A681A
:1057A00012F0020F10D0FFF7CFFF401B0A28F5D9E7
:1057B000636A43F400336362052384F820300120D8
:1057C00038BDFEF77DFAE1E71A6842F001021A607F
:1057D000FFF7BAFF054623685A6812F0010F0DD192
:1057E000FFF7B2FF401B0A28F5D9636A43F4003380
:1057F0006362052384F820300120E1E7227E012A3C
:105800003DD01A6822F080021A60637E012B3BD0E3
:105810002268136823F040031360A37E012B39D064
:105820002268136823F020031360E37E012B37D036
:105830002268136843F010031360237F012B35D0D7
:105840002268136823F008031360637F012B33D0B1
:105850002268136823F004031360A368E26813430B
:1058600022691343626913436268013A2168134352
:10587000CB6100206062012384F82030A0E71A6821
:1058800042F080021A60C0E72268136843F04003C8
:105890001360C2E72268136843F020031360C4E773
:1058A0002268136823F010031360C6E722681368A8
:1058B00043F008031360C8E72268136843F0040349
:1058C0001360CAE70120704790F82030013BDBB23B
:1058D000012B05D9436A43F48023436201207047BA
:1058E00070B4434BD3F8002242F00102C3F8002207
:1058F000D3F8002222F47C52C3F80022D3F800220D
:10590000486A42EA0022C3F800224A6902F01F02F4
:10591000012000FA02F2D3F81C42D0430440C3F83D
:105920001C42CB69B3B9324BD3F80C420440C3F8E4
:105930000C42CE688D884C6945EA0645483443F8E8
:1059400034508E680C884D6944EA0644483503EBB0
:10595000C5035C60CB69012B1DD08B69002B32D154
:10596000234CD4F804320340C4F804320B698BBBD7
:105970001F4BD3F814422040C3F814020B6A012BCA
:105980002FD01B4AD2F8003223F00103C2F80032B4
:10599000002070BC7047164BD3F80C421443C3F878
:1059A0000C420E688D884C6945EA0645483443F838
:1059B00034508E688C894D6944EA0644483503EBBF
:1059C000C5035C60C9E70A4CD4F804321343C4F839
:1059D0000432CBE70648D0F814321343C0F814322F
:1059E000CCE70349D1F81C321A43C1F81C22C8E79E
:1059F0000064004038B590F82030DBB2012B05D0B0
:105A0000436A43F400234362012038BD0446022365
:105A100080F820300268136823F001031360FFF759
:105A200093FE054623685B6813F0010F0DD0FFF766
:105A30008BFE401B0A28F5D9636A43F40033636286
:105A4000052384F820300120DFE700206062DCE7D6
:105A500070B490F820400568AD68013CE4B2012CB8
:105A600006D9436A43F480234362012070BC704727
:105A700015F0E05F5BD0C5F30165022D3ED801242F
:105A8000AC401C608B68002B3ED10E68CB6804686C
:105A900043EA465605F118031B01E65003680C69FA
:105AA00005F1180603EB06135C600B7D012B36D065
:105AB000D17993791B0443EA0163517943EA0123C5
:105AC0001479016823432C012144C1F88C31D17829
:105AD00093781B0443EA0163517843EA0123117868
