:020000040800F2
:100000000000022061740008458000084780000855
:10001000498000084B8000084D8000080000000067
:1000200000000000000000000000000041F3000894
:100030004F80000800000000E1F3000845F40008CC
:10004000B1740008B1740008B1740008B1740008FC
:10005000B1740008B1740008B1740008B1740008EC
:10006000B1740008B1740008B1740008B1740008DC
:100070005180000861800008B17400087180000898
:10008000B1740008B1740008B1740008B1740008BC
:1000900081800008B1740008B1740008B1740008D0
:1000A000B1740008B1740008B1740008B17400089C
:1000B000B1740008B1740008B1740008B17400088C
:1000C000B1740008B1740008B1740008B17400087C
:1000D000B174000891800008B1740008B174000880
:1000E000B1740008B1740008B1740008B17400085C
:1000F000B1740008A1800008B1740008B174000850
:10010000B1740008B1800008B1740008B17400082F
:10011000B1740008B1740008B1740008B17400082B
:10012000B1740008C1800008B1740008D1800008D3
:10013000B17400080000000000000000B174000865
:10014000B1740008B1740008B1740008B1740008FB
:10015000B1740008E1800008F1800008B174000863
:10016000B1740008B1740008B1740008B1740008DB
:10017000B1740008B1740008B174000800000000F8
:1001800000000000B1740008000000000000000042
:10019000B17400080000000000000000B174000805
:1001A000000000000000000000000000B174000822
:1001B00001810008B1740008B1740008B17400082E
:0401C000B17400080E
:1001D00010B5054C237833B9044B13B10448AFF381
:1001E00000800123237010BD0C02002000000000DD
:1001F000885F010808B5034B1BB103490348AFF3FF
:10020000008008BD0000000010020020885F010887
:1002100010F8012B11F8013B012A28BF9A42F7D0B0
:10022000D01A7047034613F8012B002AFBD1181A85
:1002300001387047000000000000000000000000CE
:1002400001F0FF01102A2BDB10F0070F08D010F887
:10025000013B013A8B422DD010F0070F42B3F6D18B
:10026000F0B441EA012141EA014122F007047FF0A4
:1002700000070023F0E80256083C85EA010586EAFB
:10028000010685FA47F5A3FA87F586FA47F6A5FA37
:1002900087F68EB9EED1F0BC01F0FF0102F0070243
:1002A00032B110F8013B013A83EA010313B1F8D1EE
:1002B0000020704701387047002D06BF35460338CF
:1002C000073815F0010F07D1013015F4807F02BF08
:1002D000013015F4C03F0130F0BC0138704700BF59
:1002E00081F0004102E000BF83F0004330B54FEAE7
:1002F00041044FEA430594EA050F08BF90EA020F54
:100300001FBF54EA000C55EA020C7FEA645C7FEAE6
:10031000655C00F0E2804FEA5454D4EB5555B8BF09
:100320006D420CDD2C4480EA020281EA030382EA7A
:10033000000083EA010180EA020281EA0303362D0C
:1003400088BF30BD11F0004F4FEA01314FF4801CDF
:100350004CEA113102D0404261EB410113F0004FF1
:100360004FEA03334CEA133302D0524263EB4303A8
:1003700094EA050F00F0A780A4F10104D5F1200E46
:100380000DDB02FA0EFC22FA05F2801841F10001A1
:1003900003FA0EF2801843FA05F359410EE0A5F175
:1003A00020050EF1200E012A03FA0EFC28BF4CF0A6
:1003B000020C43FA05F3C01851EBE37101F000455C
:1003C00007D54FF0000EDCF1000C7EEB00006EEB69
:1003D0000101B1F5801F1BD3B1F5001F0CD34908F3
:1003E0005FEA30004FEA3C0C04F101044FEA44524A
:1003F00012F5800F80F09A80BCF1004F08BF5FEAD1
:10040000500C50F1000041EB045141EA050130BDB0
:100410005FEA4C0C404141EB010111F4801FA4F153
:100420000104E9D191F0000F04BF01460020B1FAA8
:1004300081F308BF2033A3F10B03B3F120020CDAE0
:100440000C3208DD02F1140CC2F10C0201FA0CF0BE
:1004500021FA02F10CE002F11402D8BFC2F1200C23
:1004600001FA02F120FA0CFCDCBF41EA0C019040D9
:10047000E41AA2BF01EB0451294330BD6FEA040422
:100480001F3C1CDA0C340EDC04F11404C4F120020D
:1004900020FA04F001FA02F340EA030021FA04F31F
:1004A00045EA030130BDC4F10C04C4F1200220FA76
:1004B00002F001FA04F340EA0300294630BD21FAB4
:1004C00004F0294630BD94F0000F83F4801306BF7A
:1004D00081F480110134013D4EE77FEA645C18BF6E
:1004E0007FEA655C29D094EA050F08BF90EA020F05
:1004F00005D054EA000C04BF1946104630BD91EAFD
:10050000030F1EBF0021002030BD5FEA545C05D1FF
:100510004000494128BF41F0004130BD14F580043E
:100520003CBF01F5801130BD01F0004545F0FE41B2
:1005300041F470014FF0000030BD7FEA645C1ABFE7
:10054000194610467FEA655C1CBF0B46024650EA1E
:10055000013406BF52EA033591EA030F41F400214A
:1005600030BD00BF90F0000F04BF0021704730B5D0
:100570004FF4806404F132044FF000054FF00001A5
:1005800050E700BF90F0000F04BF0021704730B566
:100590004FF4806404F1320410F0004548BF40423B
:1005A0004FF000013EE700BF42004FEAE2014FEA90
:1005B00031014FEA02701FBF12F07F4393F07F4F6B
:1005C00081F06051704732F07F4208BF704793F06E
:1005D0007F4F04BF41F40021704730B54FF4607481
:1005E00001F0004521F000411CE700BF50EA010284
:1005F00008BF704730B54FF000050AE050EA01022D
:1006000008BF704730B511F0004502D5404261EB9C
:1006100041014FF4806404F132045FEA915C3FF4DD
:10062000D8AE4FF003025FEADC0C18BF03325FEA7A
:10063000DC0C18BF033202EBDC02C2F1200300FA2B
:1006400003FC20FA02F001FA03FE40EA0E0021FA50
:1006500002F11444BDE600BF70B54FF0FF0C4CF43E
:10066000E06C1CEA11541DBF1CEA135594EA0C0FF0
:1006700095EA0C0F00F0DEF82C4481EA030621EA2B
:100680004C5123EA4C5350EA013518BF52EA033566
:1006900041F4801143F4801338D0A0FB02CE4FF018
:1006A0000005E1FB02E506F00042E0FB03E54FF048
:1006B0000006E1FB03569CF0000F18BF4EF0010E40
:1006C000A4F1FF04B6F5007F64F5407404D25FEA3C
:1006D0004E0E6D4146EB060642EAC62141EA5551EF
:1006E0004FEAC52040EA5E504FEACE2EB4F1FD0C31
:1006F00088BFBCF5E06F1ED8BEF1004F08BF5FEAAF
:10070000500E50F1000041EB045170BD06F0004660
:1007100046EA010140EA020081EA0301B4EB5C040D
:10072000C2BFD4EB0C0541EA045170BD41F4801105
:100730004FF0000E013C00F3AB8014F1360FDEBF2A
:10074000002001F0004170BDC4F10004203C35DA06
:100750000C341BDC04F11404C4F1200500FA05F389
:1007600020FA04F001FA05F240EA020001F000422A
:1007700021F0004110EBD37021FA04F642EB0601A0
:100780005EEA430E08BF20EAD37070BDC4F10C04CA
:10079000C4F1200500FA04F320FA05F001FA04F28E
:1007A00040EA020001F0004110EBD37041F100017A
:1007B0005EEA430E08BF20EAD37070BDC4F1200585
:1007C00000FA05F24EEA020E20FA04F301FA05F2ED
:1007D00043EA020321FA04F001F0004121FA04F295
:1007E00020EA020000EBD3705EEA430E08BF20EA65
:1007F000D37070BD94F0000F0FD101F0004640009F
:1008000041EB010111F4801F08BF013CF7D041EA20
:10081000060195F0000F18BF704703F00046520024
:1008200043EB030313F4801F08BF013DF7D043EAF5
:100830000603704794EA0C0F0CEA135518BF95EAAB
:100840000C0F0CD050EA410618BF52EA4306D1D132
:1008500081EA030101F000414FF0000070BD50EA51
:10086000410606BF1046194652EA430619D094EADB
:100870000C0F02D150EA013613D195EA0C0F05D1C5
:1008800052EA03361CBF104619460AD181EA030119
:1008900001F0004141F0FE4141F470014FF00000D1
:1008A00070BD41F0FE4141F4780170BD70B54FF06C
:1008B000FF0C4CF4E06C1CEA11541DBF1CEA1355EC
:1008C00094EA0C0F95EA0C0F00F0A7F8A4EB0504CE
:1008D00081EA030E52EA03354FEA013100F08880C5
:1008E0004FEA03334FF0805545EA131343EA12638E
:1008F0004FEA022245EA111545EA10654FEA002643
:100900000EF000419D4208BF964244F1FD0404F5FB
:10091000407402D25B084FEA3202B61A65EB030557
:100920005B084FEA32024FF480104FF4002CB6EB14
:10093000020E75EB030E22BFB61A754640EA0C0094
:100940005B084FEA3202B6EB020E75EB030E22BFD4
:10095000B61A754640EA5C005B084FEA3202B6EB15
:10096000020E75EB030E22BFB61A754640EA9C00D4
:100970005B084FEA3202B6EB020E75EB030E22BFA4
:10098000B61A754640EADC0055EA060E18D04FEA62
:10099000051545EA16754FEA06164FEAC30343EA02
:1009A00052734FEAC2025FEA1C1CC0D111F4801FCF
:1009B0000BD141EA00014FF000004FF0004CB6E7C8
:1009C00011F4801F04BF01430020B4F1FD0C88BF67
:1009D000BCF5E06F3FF6AFAEB5EB030C04BFB6EB72
:1009E000020C5FEA500C50F1000041EB045170BD65
:1009F0000EF0004E4EEA113114EB5C04C2BFD4EB92
:100A00000C0541EA045170BD41F480114FF0000E15
:100A1000013C90E645EA060E8DE60CEA135594EA91
:100A20000C0F08BF95EA0C0F3FF43BAF94EA0C0F94
:100A30000AD150EA01347FF434AF95EA0C0F7FF409
:100A400025AF104619462CE795EA0C0F06D152EA5D
:100A500003353FF4FDAE1046194622E750EA410641
:100A600018BF52EA43067FF4C5AE50EA41047FF452
:100A70000DAF52EA43057FF4EBAE12E74FF0FF3CB7
:100A800006E000BF4FF0010C02E000BF4FF0010C88
:100A90004DF804CD4FEA410C7FEA6C5C4FEA430C01
:100AA00018BF7FEA6C5C1BD001B050EA410C0CBF50
:100AB00052EA430C91EA030F02BF90EA020F0020B2
:100AC000704710F1000F91EA030F58BF994208BF19
:100AD00090422CBFD8176FEAE37040F001007047D6
:100AE0004FEA410C7FEA6C5C02D150EA013C07D12D
:100AF0004FEA430C7FEA6C5CD6D152EA033CD3D078
:100B00005DF8040B704700BF8446104662468C4671
:100B10001946634600E000BF01B5FFF7B7FF0028A4
:100B200048BF10F1000F01BD4DF808EDFFF7F4FFCD
:100B30000CBF012000205DF808FB00BF4DF808ED58
:100B4000FFF7EAFF34BF012000205DF808FB00BF7B
:100B50004DF808EDFFF7E0FF94BF012000205DF89D
:100B600008FB00BF4DF808EDFFF7CEFF94BF012052
:100B700000205DF808FB00BF4DF808EDFFF7C4FF4B
:100B800034BF012000205DF808FB00BF4FEA410C94
:100B90007FEA6C5C02D150EA013C0AD14FEA430C77
:100BA0007FEA6C5C02D152EA033C02D14FF00000B4
:100BB00070474FF0010070474FEA410212F50012F2
:100BC00015D211D56FF47873B3EB625212D94FEA94
:100BD000C12343F0004343EA505311F0004F23FA7E
:100BE00002F018BF404270474FF00000704750EAD3
:100BF000013005D111F0004008BF6FF00040704790
:100C00004FF00000704700BF4FEA4102B2F1E043ED
:100C100024BFB3F5001CDCF1FE5C0DD901F0004CE3
:100C20004FEAC0024CEA5070B2F1004F40EB830033
:100C300008BF20F00100704711F0804F21D113F15F
:100C40003872BCBF01F00040704741F480114FEA98
:100C50005252C2F11802C2F1200C10FA0CF320FA21
:100C600002F018BF40F001004FEAC1234FEAD3233E
:100C700003FA0CFC40EA0C0023FA02F34FEA4303A8
:100C8000CCE77FEA625307D150EA01331EBF4FF031
:100C9000FE4040F44000704701F0004040F0FE404C
:100CA00040F40000704700BF7BB972B90029BEBF95
:100CB00000204FF0004106E008BF00281CBF6FF085
:100CC00000414FF0FF3001F043B9ADF1080C6DE980
:100CD00004CE002909DB002B1ADB00F04DF8DDF80B
:100CE00004E0DDE9022304B07047404261EB4101BA
:100CF000002B1BDB00F040F8DDF804E0DDE9022307
:100D000004B0404261EB4101524263EB4303704740
:100D1000524263EB430300F02FF8DDF804E0DDE915
:100D2000022304B0404261EB41017047524263EB41
:100D3000430300F021F8DDF804E0DDE9022304B00C
:100D4000524263EB4303704753B94AB9002908BFC5
:100D500000281CBF4FF0FF314FF0FF3001F0F8B812
:100D6000ADF1080C6DE904CE00F006F8DDF804E002
:100D7000DDE9022304B070472DE9F047089E0446E0
:100D80008846002B4BD18A42154667D9B2FA82F2C7
:100D90004AB1C2F1200701FA02F320FA07F79540A1
:100DA00047EA030894404FEA154E230CB8FBFEF7C0
:100DB0001FFA85FC0EFB178843EA084307FB0CF17A
:100DC000994209D9EB1807F1FF3080F01B81994255
:100DD00040F21881023F2B445B1AA4B2B3FBFEF031
:100DE0000EFB103344EA034400FB0CFCA44509D974
:100DF0002C1900F1FF3380F00781A44540F20481F3
:100E000002382C4440EA0740A4EB0C0400271EB132
:100E1000D4400023C6E900433946BDE8F0878B4241
:100E200009D9002E00F0EB800027C6E90001384602
:100E30003946BDE8F087B3FA83F7002F47D18B42DC
:100E400002D3824200F2FA80841A61EB030301208C
:100E50009846002EE0D0C6E90048DDE702B9FFDE83
:100E6000B2FA82F2002A40F08F80491B4FEA154EF9
:100E70001FFA85F80127B1FBFEFC230C0EFB1C11A9
:100E800043EA014308FB0CF1994207D9EB180CF136
:100E9000FF3002D2994200F2CD808446591AA3B2A3
:100EA000B1FBFEF00EFB101443EA044408FB00F80B
:100EB000A04507D92C1900F1FF3302D2A04500F25A
:100EC000B6801846A4EB080440EA0C409FE7C7F13F
:100ED000200CBB4022FA0CFE4EEA030E01FA07F486
:100EE00020FA0CF521FA0CF34FEA1E482543B3FB18
:100EF000F8F92C0C08FB19331FFA8EFA44EA034365
:100F000009FB0AF49C4202FA07F200FA07F10BD936
:100F10001EEB030309F1FF3080F087809C4240F212
:100F20008480A9F1020973441B1BADB2B3FBF8F036
:100F300008FB103345EA034400FB0AFAA24508D92E
:100F40001EEB040400F1FF336BD2A24569D90238CD
:100F5000744440EA0940A0FB0289A4EB0A044C4512
:100F6000C2464B4654D351D0002E69D0B1EB0A058E
:100F700064EB030404FA0CFCFD40FC404CEA05055C
:100F8000C6E90054002747E7C2F1200320FA03F71F
:100F9000954001FA02F021FA03F34FEA154E384367
:100FA000010CB3FBFEF71FFA85F80EFB173341EA7D
:100FB000034107FB08F38B4204FA02F407D96918CE
:100FC00007F1FF3C2FD28B422DD9023F2944CB1A87
:100FD00081B2B3FBFEF00EFB103341EA034100FB8C
:100FE00008F38B4207D9691800F1FF3C17D28B42F6
:100FF00015D902382944C91A40EA07473BE7374662
:10100000304609E70746E7E61846FBE64145ABD21E
:10101000B8EB020A69EB0E0201381346A4E76046FA
:10102000E9E7184695E76746D1E781467CE702384D
:101030002C4447E7ACF1020C2B442FE7384608E775
:101040003746E9E603685A004CBF43F0004323F0FB
:1010500000431844704700BF61B32DE9F84F01F118
:10106000FF3A90460646D146002707EB090404EBF9
:10107000D4746410E50071190846FFF7E3FFA24538
:10108000834605F10800304409D0FFF7DBFFC34574
:1010900000F1FF3005D8404509D2671CE5E7C3459C
:1010A00005D9A74202D004F1FF39DEE70021084646
:1010B000BDE8F88F08467047012807D0022807D0FE
:1010C000044B00280CBF18460020704702487047A8
:1010D00002487047A5170008A9170008AD170008B7
:1010E00030B5254B83B004468D1E4BB301A928466D
:1010F000AFF30080F0B101992A46FFF7ADFF01463A
:10110000C0B1FFF79FFF4B68A064012B2ED0002BCE
:1011100001F1040026DBFFF795FF0023C4E9130368
:101120000368002B12DBFFF78DFF002320611846B8
:1011300003B030BD002323610923184603B030BD3E
:101140000E490F48091AC9100191D5E7C3F303608E
:10115000FFF7B2FF002814BF0023092320611846BF
:1011600003B030BD0123C4E91303D9E70023236191
:101170000523184603B030BD00000000886F010849
:10118000586E01080368DA0710B5044606D49B07B9
:1011900000F1480009D500F05FFC2368590709D524
:1011A0001A070ED5DB0613D510BD00F04DFC2368E1
:1011B0005907F5D404F1D00000F056FC23681A0753
:1011C000F0D404F5A87000F057FC2368DB06EBD4DC
:1011D00004F5E870BDE8104000F092BC036803B16C
:1011E00003441846704700BF09207047704700BF8E
:1011F00070B504460D4608E02B6C63612A462369EE
:10120000214601209847082808D1296C2046FFF77D
:1012100067FF06460028EFD013F092FD0728FBD1A8
:101220003046296CFFF7E2FF281D00F001FC00BFEB
:101230002DE9F0470C1D054617460FCCADF5727D24
:1012400003AE0FC60FCC0FC60FCC0FC694E80F002D
:1012500002ACD5F80C80D5F8189086E80F00002372
:10126000236021E0236C6B614FF4F07221467AA871
:1012700013F076FE2B697AAA294630469847889B58
:10128000CDE900498246636431462B462A46012057
:10129000C0470746F8B94FF4F0727AA9204613F018
:1012A0005FFEBAF1080F1CD1216C2846FFF718FF2A
:1012B000002F08BF0926074618BF0A260028D1D0EC
:1012C000A36B46F01001CDE900492A466364012072
:1012D0002B46C04700B1092738460DF5727DBDE8A1
:1012E000F087BAF1070FF6D13846216CFFF77EFF81
:1012F00003A800F09DFB00BF406C7047F0B5CB6BBE
:101300000B640D1D0F4606460FCDF9B001AC0FC49E
:101310000FCD0FC40FCD0FC495E80F004FF0FF3570
:1013200084E80F00009506E033696A463146984725
:101330000828044608D110993046FFF7D1FE00284E
:10134000F2D0092079B0F0BD6846FFF71BFF062CEC
:10135000F7D139463046FFF74BFF00BF30B4DD6BA5
:10136000C160826119461D64002230BC60E700BF85
:1013700070B5C66843690B64BEB903690A46044682
:101380000D46014602209847072807D0082803D1B8
:1013900029462046FFF72CFF13F0D2FC3046296C7B
:1013A000FFF724FF281D00F043FB0122FFF740FF59
:1013B00013F0C6FCC2681AB1CA6B0A64002237E790
:1013C0009CE700BF704700BF836813B1014601204E
:1013D00018477047042907D8DFE801F0030806081A
:1013E00008000BB90F2A03D902207047012070476B
:1013F00000EB820218465368009A1360704700BFE2
:1014000010B584B0002303AC0A4600941946FFF7D8
:10141000E1FF039804B010BD042907D8DFE801F00C
:101420000308060808000BB90F2A03D902207047E9
:101430000120704700EB8200009A12684260184653
:10144000704700BF10B584B004AC002344F8042DED
:101450000A4600941946FFF7DFFF04B010BD00BF35
:10146000F0B5D36B1364151D07460E460FCDADF5D1
:101470000F7D17AC0FC40FCD0FC40FCD0FC495E86F
:101480000F004FF0FF3584E80F00169510E016A806
:10149000FFF7D8FF314616A8B84716AA694678B9AB
:1014A000049B08209847052804460AD0092807D03D
:1014B00026996846FFF714FE6A460C210028E6D0FC
:1014C000092416A8FFF75EFE20460DF50F7DF0BD3E
:1014D0002DE9F04F0D46C96C89B00C1D164600F081
:1014E000030B0A6806941F46002B68D0130CD9B270
:1014F00012048DF81D30022304EB810405928DF84F
:101500001C302B6DBBF1020F08BFAC6B13F0010355
:1015100046D1019300F008030093D4F80090B9F18C
:10152000000F00F0F380022F45D0B4F80090B4F81B
:1015300002800434AB6C28F0010A0F2130469A4433
:10154000FFF75EFF824534D829F0010353448342FC
:1015500094BF002001204FEA480808F0020809F073
:10156000010948EA0908B8F1010F3AD031D3B8F1BE
:10157000020F1AD1236823F0004ABBF1000F66D195
:1015800030B1009A002A6CD0BAF1000F00F09080C0
:10159000002B00DA04340AF1010304EB8304BCE7F6
:1015A000304605A900F046FB78B1092009B0BDE836
:1015B000F08F0020CFE7D4F804800834BAE7120295
:1015C00003230592ADF81C309BE7082009B0BDE865
:1015D000F08FBBF1000F02D0002840F0B48004343B
:1015E0009BE7BBF1000F18D1A8B1D4E90023991CE7
:1015F0004FEAD272D9D005F158010133049100F0BD
:10160000B580201DFFF7EAFD04AB0146284610F027
:10161000F9FE002867D108347FE70D213046D5F860
:101620002080FFF7EDFE8045F5D1AB6A9C42F2D1F8
:101630002046FFF707FD0F2102463046FFF702FF65
:1016400030462A460021FFF7FDFE0720AEE70D21B8
:101650003046D5F82080FFF7D3FE804532D023688E
:1016600096E7BAF1000F23D005F1580304F10408FE
:10167000CDF808B0DDF800900397A3461C4602E0C1
:101680005745B94640D040460494FFF7A7FD04AB48
:1016900001460022284610F0B5FE09F1010708F1C5
:1016A00004080028ECD0D1455C46DDE902B7D6D16C
:1016B00030460D21FFF7A4FE049B2862C5E90934DA
:1016C000062073E7AB6A9C42C9D104224FF00008A0
:1016D000A318C5E90AA8C5E90C23236843454DDBD7
:1016E0000123019357E780460D213046FFF788FE1E
:1016F000B8F1020F28623ED12B46049A43F82C2FF2
:101700006B62AC62062051E75C46D1E705A9304622
:1017100000F090FA00287FF448AF019B002B3FF4C3
:1017200054AF0F213046FFF76BFE0E2102463046C4
:10173000FFF788FE30461A4A0F21FFF783FE072085
:1017400009B0BDE8F08F2046FFF77CFC0434074663
:10175000AC63284610F0B4FE00283FF426AF3046B4
:101760003A460F21FFF76EFE07201FE730460D2196
:10177000FFF746FE2862049B6B62C2E70AF1010094
:1017800004EB8000FFF75EFC0F2102463046FFF7B6
:1017900059FE30462A464146FFF754FE072005E72A
:1017A000BB260108002393E6012391E602238FE67E
:1017B0002DE9F0410546C4B0042906D8DFE801F060
:1017C0004D2B05030900032B5FD0022044B0BDE878
:1017D000F081002BF9D1102AF7D82B68DC0600F134
:1017E000F48022AC2046019200F094F9A86B019A93
:1017F0000023012606FA03F1114203D0016844F8E0
:10180000231004300133042BF4D1A863204600F0E8
:1018100077F90020DAE7012B4FEA124697B252D04F
:10182000052BD2D106EB0708B8F1200FCDD80F2E2B
:1018300040F29980B846002F40F0DB80AA6BAA6383
:101840000F2E40F2BE80B8F1000F02D002A800F0C7
:101850000BF9002044B0BDE8F081002BB5D1AC6B92
:1018600097B2281D012606FA03F1394203F101035C
:1018700002D0216801600434102B00F10400F2D181
:1018800012F40050E5D1AC63A0E7160C97B2F3193F
:10189000102B9AD82B681A075DD422AC204600F092
:1018A0000DF904EBC601AB6B3FB103EBC70218683F
:1018B00041F8040B04339342F9D12046AB6300F0A6
:1018C000DBF8002082E7F219102A3FF67EAF0F2ED8
:1018D0003FF67BAF2A68D10708D5284622F00302DD
:1018E00040F8482B019300F0B3F8019B019322AC20
:1018F000204600F0ADF8A96B019B002F00F0958009
:101900007F0004EBC6044FF00008043C01EB8702A3
:1019100051F8040B44F8040F9142F9D1B8F1000FCB
:101920000FD002AC102E314638BF102104EBC1019C
:10193000843902EBC80452F8040B41F8040F9442B6
:10194000F9D1012B7FF47BAF22AC0432AA6320468D
:1019500000F07AF87DE723F008032B6005F5A87006
:1019600000F0ACF899E7B8F1100F2A6843D9D00716
:10197000A8F110080BD5284622F0010242F002021D
:1019800040F8482B019300F06BF82A68019B51073F
:1019900025D40F2E04D822A8019300F061F8019BF2
:1019A000019302AC204600F063F8C6F11001002953
:1019B000AA6B019BB6DD22AC4F0004EBC6041146B6
:1019C000A3E722A800F048F83DE723F010032B60BE
:1019D00005F5E870019200F09DF8019A01E72846AC
:1019E00022F0040240F8D02B019300F041F8019B53
:1019F000CFE72A68CBE7D0070AD5284622F00102B4
:101A000042F0020240F8482B019300F029F8019BB4
:101A1000019322AC204600F023F8B846A96B019B45
:101A2000002F7FF46DAF0A4609E70A468DE700BF35
:101A300000F1340191E838009C46A6464CF8045D5C
:101A400090E8FF0FE54600BD90EC210B704700BF0A
:101A500080EC210B704700BF90EC200B704700BF5B
:101A600080EC200B704700BFD0EC200B704700BF0C
:101A7000C0EC200B704700BFF0EC0201F0EC02114B
:101A8000F0EC0221F0EC0231F0EC0241F0EC0251FA
:101A9000F0EC0261F0EC0271F0EC0281F0EC0291EA
:101AA000F0EC02A1F0EC02B1F0EC02C1F0EC02D1DA
:101AB000F0EC02E1F0EC02F1704700BFE0EC020153
:101AC000E0EC0211E0EC0221E0EC0231E0EC02413A
:101AD000E0EC0251E0EC0261E0EC0271E0EC02812A
:101AE000E0EC0291E0EC02A1E0EC02B1E0EC02C11A
:101AF000E0EC02D1E0EC02E1E0EC02F1704700BF63
:101B0000B0FC0181B0FC0191B0FC01A1B0FC01B1BD
:101B1000704700BFA0FC0181A0FC0191A0FC01A1C5
:101B2000A0FC01B1704700BFEC4600B52DE90050A4
:101B30002DE9FF1F4FF000032DE90C0001A9FFF76D
:101B4000DDFBDDF840E012B0704700BFEC4600B5A9
:101B50002DE900502DE9FF1F4FF000032DE90C0087
:101B600001A9FFF705FCDDF840E012B0704700BFA7
:101B7000EC4600B52DE900502DE9FF1F4FF00003A2
:101B80002DE90C0001A9FFF715FCDDF840E012B0CB
:101B9000704700BFEC4600B52DE900502DE9FF1F4E
:101BA0004FF000032DE90C0001ABFFF7D7FBDDF888
:101BB00040E012B0704700BFEC4600B52DE9005080
:101BC0002DE9FF1F4FF000032DE90C0001AAFFF7DC
:101BD00047FCDDF840E012B0704700BF027A82B9DE
:101BE000437AABB14268013B10B4437213680321DE
:101BF000141D01721A02446002605DF8044B180E55
:101C000070470368013A02721A020260180E7047A8
:101C1000B020704700B585B003AA00230092194692
:101C20000C22FFF7D7FB039805B05DF804FB00BF5B
:101C3000F0E700BF2DE9F043054685B00E464FF0B2
:101C400000083046FFF7CAFFB028044600F0B18014
:101C5000070620D500F0F003802B65D0902B36D0FE
:101C6000A02B78D0B02B47D0C02B00F08A8000F09A
:101C7000F803D02B0BD100F00702013242F400220E
:101C8000052301212846FFF793FD0028D9D009201C
:101C900005B0BDE8F0830DF10C090023194687005B
:101CA000CDF800900D222846FFF794FBFFB2039B6E
:101CB000CDF80090043760064CBFDF1BFF180023EF
:101CC00019460D2228460397FFF7A6FBB9E700F057
:101CD0000D030D2BDBD003AF002300F00F021946DC
:101CE00000972846FFF776FB0023009719460D2240
:101CF0002846FFF791FBA4E7B1285FD0B22800F097
:101D0000CC80B3287ED000F0FC03B42BBFD000F011
:101D100007020132012342F4002219462846FFF748
:101D200047FD00288DD0B2E73046FFF757FF240269
:101D30000443B4F5004FAAD024010023A2B21946EF
:101D40002846FFF735FD0028A1D114F4004F18BF35
:101D50004FF0010875E7C24302F007034FF47F62BA
:101D60001A41010702F47F624FF0000348BF42F4BA
:101D7000804219462846FFF71BFD00283FF461AF5B
:101D800085E7C62851D0C7285AD000F0F803C02BE9
:101D900069D0C82875D0C9287FF479AF3046FFF7DD
:101DA0001DFF020300F00F0002F470220130024315
:101DB00066E7B8F1000F14D0002069E73046FFF75E
:101DC0000DFF00283FF463AF10F0F0037FF45FAF26
:101DD000024619462846FFF7EBFC00283FF431AFD6
:101DE00055E703AC43460E22414600942846FFF7D0
:101DF000F1FA0094284643460F224146FFF70CFBB8
:101E0000404645E73046FFF7E9FE010300F00F00CA
:101E100001F47021421C01230A4328461946FFF7AA
:101E2000C7FC00283FF40DAF31E73046FFF7D6FE80
:101E3000010300F00F0001F47021421C0323EBE7C3
:101E40003046FFF7CBFE024600283FF420AF10F0EB
:101E5000F0037FF41CAF04212846FFF7A9FC0028FB
:101E60003FF4EFAE13E700F00F020132032342F418
:101E7000202219462846FFF79BFC00283FF4E1AEDC
:101E800005E73046FFF7AAFE00F0F00200F00F036E
:101E90001032013343EA0232F2E600230DF10C095D
:101EA0000D221946CDF800902846FFF793FA3046E8
:101EB000FFF794FE02064FF002070CD5039B00F0DB
:101EC0007F00B840034430460393FFF787FE0306C4
:101ED00007F10707F2D4039BCDF8009000F07F04D0
:101EE00003F50172BC400023144419460D22284614
:101EF0000394FFF791FAA4E610B5C36C84B05A6856
:101F000003208DF80C00DC798DF80D4012020833A7
:101F1000084601A901920293FFF78CFE04B010BDA0
:101F200008B5FFF785FE806C08BD00BF08B5FFF758
:101F30007FFEC06CC37900EB8300083008BD00BF92
:101F400008B512F0FDFE00BF08B5FFF7F9FF00BFAE
:101F5000704700BF0A4B10B50446186818B1836972
:101F60000BB912F03FFF132C07D8064850F8343055
:101F7000013302D000EBC40010BD0020FCE700BF1D
:101F80003C0000208C4E0120F8B5431C054609D1C9
:101F900012F0E2FE13240646002720463946ABBE67
:101FA000044634602846F8BDF8B5054612F0D4FE64
:101FB00013240646002720463946ABBE044634604B
:101FC0002846F8BD30B585B0CDE90101039206245D
:101FD00001AD20462946ABBE04462046FFF7D4FF9C
:101FE00005B030BD70B50E461546FFF7B3FF044689
:101FF00030B912F0B1FE092303604FF0FF3070BD1D
:102000002A4631460068FFF7DDFF431C1FBF6368A7
:10201000281A1B186360F2E7F7B50C461646FFF75F
:1020200099FF054640B912F097FE092303604FF06F
:10203000FF34204603B0F0BD022E03D912F08CFE0F
:102040001623F3E7012E12D14368E418F6D42B6867
:102050000A26CDE900346F4630463946ABBE064607
:102060003046FFF791FF0028E1DB6C60E1E7022ECC
:10207000EDD102AF036847F8083D0C2630463946DB
:10208000ABBE06463046FFF77FFF431CCFD004446B
:10209000DDE7FFF7C1BF30B585B0CDE9010103929F
:1020A000052401AD20462946ABBE04462046FFF775
:1020B0006BFF05B030BD70B50E461546FFF74AFF01
:1020C000044630B912F048FE092303604FF0FF3098
:1020D00070BD2A4631460068FFF7DDFF021EF5DBC2
:1020E0006368A81A0344AA426360F1D10020BDE8E6
:1020F0007040FFF759BF37B502AD022445F8040D13
:1021000020462946ABBE04462046FFF73DFF03B0FC
:1021100030BD000038B50546FFF71CFF044630B956
:1021200012F01AFE092303604FF0FF3038BD013D65
:10213000012D09D8094B9A681B699A4204D14FF0C6
:10214000FF3303600020F1E72068FFF7D4FF002889
:10215000ECD14FF0FF332360E8E700BF8C4E012045
:10216000012070470D4B196810B5024609B90C499A
:1021700019601868694602448A4206D809490A4C1F
:102180000968A14208D08A4206D912F0E5FD0C2365
:1021900003604FF0FF3010BD1A60FCE77C4E012059
:1021A000C868012024000020ADDEFECA70B50C46D0
:1021B000FFF7D0FE064630B912F0CEFD09230360CA
:1021C0004FF0FF3070BD636843F4005363604FF419
:1021D000806363640C2528463146ABBE054628461D
:1021E000FFF7D2FE431C1CBF20610020EAE70B462C
:1021F00010B5002104465822184612F0BCFE0146D4
:102200002046BDE81040FFF7D1BF38B50D46044663
:1022100058220021284612F0AEFE2046002100F090
:1022200011F8431C04460BD06B6843F401436B6008
:102230002946FFF7BBFF05462046FFF76BFF2C46FC
:10224000204638BD2DE9F0472B4B96B082460E460E
:102250000025984653F83540611C4FEAC50736D033
:102260000135142DF6D112F077FD182303604FF0DD
:10227000FF343CE0C6F3004440F20163B20748BFBC
:1022800044F002041E4218BF44F00404330748BF60
:1022900024F00404504648BF44F00804CDF800A0E0
:1022A000FDF7C0FFCDE90140012420464946ABBE01
:1022B0000446002C06DB4744002348F835407B6089
:1022C0002C4614E02046FFF76FFE04460FE006F4AC
:1022D0002063B3F5206FE946CCD149465046FFF75D
:1022E00094FF0130C6D012F037FD11230360204661
:1022F00016B0BDE8F08700BF8C4E01202DE9F743F2
:1023000007468846294800211546FFF79BFF2A46C5
:1023100004460021384612F02EFE631C15D02046DC
:10232000FFF718FE0C26814630464946ABBE0646EE
:102330003046FFF729FE032802DD0338A84208DCF7
:102340002046FFF7E7FE4FF0FF34204603B0BDE81C
:10235000F08304220DEB02012046FFF743FE032821
:10236000EEDD9DF80430532BEAD19DF80530482B63
:10237000E6D19DF80630462BE2D19DF80730422B7E
:10238000DED1012241462046FFF746FE0028D7DB7A
:102390002A4639462046FFF725FE05462046FFF728
:1023A000B9FE2846FFF7F0FD0446CEE73C6201087F
:1023B00037B50A4D0A4C0021012201A8296022608C
:1023C000FFF79CFF002807DD9DF8043003F00102B1
:1023D00003F002032A60236003B030BD2800002010
:1023E0002C00002010B5044C2268002A01DAFFF707
:1023F000DFFF206810BD00BF2C0000202DE9F04F4A
:1024000085B0DFF8B090CDF8049003230024039347
:102410000DF104080294012528464146ABBE05464D
:10242000204E214A356023464FF0FF31144642F8D2
:1024300033100133142BFAD1FFF7D4FF1B4DD0B169
:102440004FF0030A0423CDF804900127CDF80CA027
:10245000029338464146ABBE8346154BCDF80490F7
:10246000C3F800B00823CDF80CA0029338464146CB
:10247000ABBE07462F602B68013302BF0C4B1B68B5
:102480002B603368236000266660FFF7ABFF30B136
:10249000074B1B68C4E902362B68C4E9043605B053
:1024A000BDE8F08F844E01208C4E0120804E01202B
:1024B000884E01205262010870B5FFF74BFD0925D7
:1024C000044620B912F048FC0560204670BD28463D
:1024D0002146ABBE0446012CF7D012F03DFC00248F
:1024E0000646132528462146ABBE05463560ECE777
:1024F000024B58639963DA63704700BF00040140E0
:1025000038B50546002407E0002211461046FFF7C3
:10251000EFFF642006F076FD640801D14FF000441F
:102520002C42F1D000221146FF20FFF7E1FFF0E737
:1025300000B591B002A800F02EF9012102A800F028
:102540003DF9702102A800F03FF948B10DF10700F4
:1025500000F074F948B19DF8070011B05DF804FB74
:102560004FF2FF20FFF7CCFFF0E74FF2FD20FFF71F
:10257000C7FFF0E730B59DB00EA800F00CF90621BA
:102580000EA800F021F9034610B918461DB030BD61
:10259000684600F000F90EAD6C460FCC0FC50FCCAD
:1025A0000FC50FCC0FC594E8030085E80300012197
:1025B0000EA800F003F901231A4605210EA800F029
:1025C00011F90346E1E700B58FB0684600F0E3F883
:1025D0000621684600F0F8F80FB05DF804FB70B50E
:1025E0008EB006460C461546684600F0D4F83146D3
:1025F000684600F0DBF82946684600F0DFF8032162
:10260000684600F0E1F828B1204600F017F930B133
:102610000EB070BD4FF2FF20FFF772FFF4E74FF2EC
:10262000FD20FFF76DFFF3E770B59CB006460C4642
:102630001546FFF79FFF0EA800F0ADF831460EA833
:1026400000F0B4F829460EA800F0B8F802210EA850
:1026500000F0BAF820B3204600F0E2F828B368464C
:1026600000F099F80EAD6C460FCC0FC50FCC0FC51E
:102670000FCC0FC594E8030085E8030001210EA8E4
:1026800000F09CF80123072270210EA800F0AAF8A0
:1026900080B1FFF74DFF10F0100F10D11CB070BDCE
:1026A00044F6FF70FFF72CFFD5E744F6BF70FFF745
:1026B00027FFD4E74EF2BD70FFF722FFE9E7FFF7EF
:1026C00082FF44F6BD70FFF71BFFE7E7F8B505464C
:1026D0000F461646C4B20AE0C4F580742246394655
:1026E0002846FFF7A1FF27442544361B0024331951
:1026F000B3F5807FF0D8324639462846FFF794FF7D
:10270000F8BD30B59DB004460D46FFF733FF0EA867
:1027100000F041F829460EA800F048F821460EA81E
:1027200000F052F800B3684600F035F80EAD6C4684
:102730000FCC0FC50FCC0FC50FCC0FC594E803000D
:1027400085E8030001210EA800F038F801230722D4
:1027500070210EA800F046F858B1FFF7E9FE10F01E
:10276000200F0BD11DB030BD4EF2FF70FFF7C8FE39
:10277000D9E74EF2BD70FFF7C3FEEEE7FFF723FF88
:102780004EF2BD70FFF7BCFEECE708B50146202015
:10279000FFF7B7FF08BD10B504463822002112F03C
:1027A000EAFB4FF48073A361204610BD4FF48063B1
:1027B000C3614FF40053C360416070474FF08073B2
:1027C000436281627047000008B501604FF4FA620D
:1027D0000146034808F0DAFCB0FA80F0400908BD71
:1027E000485E012030B587B000240494012403948E
:1027F000102502954FF48005059593400093944071
:10280000019401604FF4FA636A460146034808F0F8
:1028100009FDB0FA80F0400907B030BD485E0120E4
:1028200008B54FF4FA620146034808F0C2FDB0FA59
:1028300080F0400908BD00BF485E012008B54FF494
:10284000FA620146034808F01CFEB0FA80F0400925
:1028500008BD00BF485E01200130B0FBF1F301FB71
:102860001300704770B584B06C4684E80F00104EBA
:102870003368104D05EB031594E80F0085E80F0051
:1028800030684021FFF7E8FF3060326873689A4291
:1028900001D004B070BD70684021FFF7DDFF7060AB
:1028A0003223002219460448006800F0C7FCF0E714
:1028B00028020020A04F01200000002070B58AB03F
:1028C000064600240594069401230793009401947E
:1028D00002940394049408930E2309930F4D6946C0
:1028E000284606F049FC284606F0DCFC0221284672
:1028F00006F03AFE0A4B1E605E60DC609C600822B7
:102900001A611C7500F080FC064B186023460A22F1
:10291000214600F093FC0AB070BD00BF1C5D012091
:102920006C4F01200000002070B586B004460E46B2
:102930001546030E8DF81030C0F307438DF81130A3
:10294000C0F307238DF812308DF813008DF81410A2
:10295000C2F307438DF81530C2F307238DF8163004
:102960008DF817200F4B19680F4806F03EFD002820
:10297000F8D100948DF8046002950C490B6803931C
:10298000084B04AA084806F0BBFC08B106B070BDAD
:102990006C4694E80F0004F0F7FB94E80F00FFF793
:1029A00061FFF3E7604F01201C5D01206C4F0120A7
:1029B00010B5094B1C685B68E41A02D41CB12046B0
:1029C00010BD4034FAE700230A2219460348006884
:1029D00000F034FCF3E700BF2802002000000020D4
:1029E00038B504460023036043608360C360FFF78B
:1029F000DFFF60B1074D6A68074B03EB02130FCB93
:102A000084E80F0068684021FFF726FF68602046D1
:102A100038BD00BF28020020A04F012070B5002162
:102A20001C4806F08EFD054608B9284670BD1A4CB4
:102A30001A4E234632460021164806F0E8FC184B91
:102A4000002119601A68207802EB00621A601A6887
:102A5000607802EB00421A601A68A07802EB00224C
:102A60001A601A68E07802441A6022791A71996033
:102A70009A68617902EB01429A609A68A17902EB47
:102A800001229A609A68E1790A449A603268DA60B1
:102A9000CBE700BF1C5D0120644F0120844F012063
:102AA000504F012008B5FFF7B9FF024B0FCBFFF7DE
:102AB000D9FE08BD504F0120062800D870470720D6
:102AC000FCE7000084B000B583B00DF1100C8CE879
:102AD0000F009DED057ADFED0A7AB4EEE77AF1EEAC
:102AE00010FA05D4002003B05DF804EB04B0704781
:102AF000089B00939CE80F0000F074FCF3E700BF14
:102B000000007A4484B030B585B008AC84E80F008A
:102B10000F4A13680133136003F00703C3EBC303C9
:102B20009A000C4C144408AD0FCD0FC495E8070073
:102B300084E807000CAB93E807008DE8070008ABBA
:102B40000FCB00F055FC05B0BDE8304004B0704735
:102B5000F84C0020A053012084B030B583B006ACFF
:102B600084E80F000798FDF71FFD33A3D3E9002386
:102B7000FDF79CFE9FED2C1B41EC100B0FF0B8FEF7
:102B800053EC102B00202E49FDF7AEFB28A3D3E910
:102B90000023FDF761FDFEF737F80890DDED097AB7
:102BA000F5EEC07AF1EE10FA1CDD17EE900AFDF793
:102BB000FBFC21A3D3E90023FDF778FE9FED1A1B50
:102BC00041EC100B0FF094FE53EC102B00201C492D
:102BD000FDF78AFB16A3D3E90023FDF73DFDFEF7C1
:102BE00013F80A90174A13680133136003F00703C0
:102BF00003EB83039A00144C144406AD0FCD0FC4AD
:102C00002B68236006F0F8F9104B18600A9B0093BC
:102C100006AB0FCB00F03AFC03B0BDE8304004B087
:102C2000704700BFAFF30080EBE2361AC05BC83FCD
:102C30000000000040A5E540CDCCCCCCCCD48F40EA
:102C40000000F03FF44C002080540120F04C0020A4
:102C5000014B1878704700BF004D002070B5ADF5EE
:102C6000187DE02200215CA812F085F9A0242246FC
:102C7000002134A812F07FF9224600210CA812F09E
:102C80007AF900250A950B950895099506950795FB
:102C9000049505954FF4FA700CF0E5F8AEE194A8B0
:102CA000FFF79EFE9798FFF707FF9DF85432372BEA
:102CB00000F2A481DFE813F038006B007B008B008A
:102CC0009E00AA00B600C200DB00EB00FB0003017F
:102CD0004B005B00A201A201A2012701A201A201F7
:102CE000A201A201A201A201A201A201A201A201CC
:102CF000A201A201A201A201A201A201A201A201BC
:102D0000A201A201A201A201A201A2010F01A2013E
:102D1000A2011B01A201A201A201A201A201A20122
:102D2000A201A201A2012B01DDED947AF8EEE77A6F
:102D3000DFEDB66A87EEA67A00EB8002930034AA34
:102D4000134483ED017A08AB01221A5456E1DDEDFC
:102D5000947AF8EEE77ADFEDAD6A87EEA67A00EBBB
:102D60008000830034AA134483ED007A46E1DDED50
:102D7000947AF8EEE77ADFEDA56A87EEA67A00EBA3
:102D80008000830034AA134483ED037A36E1DDED3D
:102D9000947AF8EEE77ADFED9E6A87EEA67AC0EBCA
:102DA000C000830098AA134403ED3C7A26E1DDEDD0
:102DB000947AF8EEE77ADFED966A87EEA67AC0EBB2
:102DC000C000830098AA134403ED3B7A16E1DDEDC1
:102DD000947AF8EEE77ADFED8E6A87EEA67AC0EB9A
:102DE000C002930098AA134403ED3A7A06AB01227D
:102DF0001A5403E1DDED947AF8EEE77AC0EBC000F7
:102E0000830098AA134443ED397AF7E0DDED947A14
:102E1000F8EEE77AC0EBC000830098AA134443EDB4
:102E2000387AEBE0DDED947AF8EEE77AC0EBC0009B
:102E3000830098AA134443ED377ADFE0DDED947AFE
:102E4000F8EEE77A00EB800293000CAA1344DFED62
:102E5000706A87EEA67A83ED007A0AAB1B5C002BC2
:102E600040F0CC800AAB01221A541544C6E0DDEDD7
:102E7000947AF8EEE77A00EB800083000CAA134402
:102E8000DFED646A87EEA67A83ED017AB6E0DDEDC8
:102E9000947AF8EEE77A00EB800083000CAA1344E2
:102EA000DFED5C6A87EEA67A83ED027AA6E000EB9E
:102EB000800083000CAA1344949ADA609EE09DF887
:102EC000501200EB800293000CAA1344197404AB57
:102ED00001221A5492E0DDED947AF8EEE77ADFED04
:102EE0004C6A87EEA67A4C4B83ED007A86E0DDEDE6
:102EF000947AF8EEE77ADFED466A87EEA67A464BDB
:102F000083ED017A7AE0949A444B1A6076E0DDED25
:102F1000947AF8EE677A404BC3ED237A6EE00AAB01
:102F20001B5D3BBB002D25DD08AB1B5D002B3ED19F
:102F300006AB1B5D002B49D10134072C5BDC04ABD5
:102F40001B5D002BF0D004EB840293000CAA134409
:102F5000D868FDF717FB0022314BFDF7E5FD00288F
:102F6000DDD00AAB1B5D002BD9D0013D0AAB00229E
:102F70001A55D4E704EB840293000CAA13441A698F
:102F800000920FCBFFF79EFD0028CDD0A200224477
:102F900093000CAA1344234A1A605A609A604FF0B7
:102FA000FF32DA6000221A7404AB1A55BCE704EB56
:102FB0008402930034AA13441A6900920FCBFFF7DE
:102FC000CBFD80F0010008AB1855B1E7C4EBC4029B
:102FD000930098AA1344A3F1F006E03B93E807009E
:102FE0008DE8070096E80F00FFF78CFD80F00100E8
:102FF00006AB1855A0E70A200BF035FFFFF7D8FC09
:1030000000287FF44CAE002497E700BF0000C842C0
:1030100000007A440024744930020020040000209B
:103020000000F0BF000080BF10B5044603F066F852
:10303000844204D000F0DAF8844203D010BD03F0DB
:1030400041F8FBE700F0BCF8F8E7000038B50446AB
:1030500005F0D2FF0546064B53F82400401B3230E2
:10306000002801DD0BF0FFFE014B43F8245038BD72
:10307000C002002008B504F0B1F904F067F808BDFB
:10308000F0B5B3B0344C2BAD26460FCE0FC596E845
:10309000070085E8070000212BA80BF0AEFE2F4BA0
:1030A000186024AD04F11C060FCE0FC596E807008A
:1030B00085E80700002124A80BF09FFE284F386008
:1030C0001DAD04F138060FCE0FC596E8070085E860
:1030D000070000211DA80BF090FE386016AD04F12A
:1030E00054060FCE0FC596E8070085E807000021BB
:1030F00016A80BF082FE1B4B18600FAD04F1700692
:103100000FCE0FC596E8070085E8070000210FA83D
:103110000BF073FE144B186008AD04F18C060FCE53
:103120000FC596E8070085E80700002108A80BF006
:1031300064FE0E4B186001ADA8340FCC0FC594E8A7
:10314000070085E80700002101A80BF056FE084B98
:10315000186033B0F0BD00BFA05F01082C550120FE
:1031600028550120345501202055012040550120CB
:103170003C550120114B1A6801321A601B797BB94A
:103180000D280ED00A280CD00C4B5B7943B10B4AAA
:10319000936801339360012B09D0084B00225A71C8
:1031A0007047064B01225A7100229A6070474F28DF
:1031B000F6D1134601221A71704700BFE0020020C9
:1031C00008B507E0084BDA68511CD9601344187C35
:1031D000FFF7D0FF044BDB683F2BF3D9024B0022F3
:1031E0001A65DA6008BD00BFE0020020014B1868D4
:1031F000704700BF545501200FB4002004B0704741
:1032000008B5FFF7FBF808BD4FF0500383F31188B2
:10321000BFF36F8FBFF34F8F074B1B681F2B07DC6C
:10322000054B1868421C1A60002383F3118870470D
:103230004FF0FF30704700BF8003002000280FDBF5
:1032400010B4084C2468844207DD064C04EB4000AF
:103250008180A0F84420A0F884305DF8044B7047CA
:10326000704700BF80030020024B58639963DA6304
:10327000704700BF0004014008B5134B1A6A42F0C2
:1032800004021A621A6A42F040021A621A6A42F48E
:1032900080621A625A6C42F480425A641A6842F0A0
:1032A00001021A6003F57C4380229A6103F5806372
:1032B0004FF480429A614FF400429A610022114615
:1032C0001046FFF7D1FF08BD0004014010B5FFF71D
:1032D000D3FF002264211046FFF7C6FF4FF47A7037
:1032E0000BF0C1FD002211461046FFF7BDFF642020
:1032F0000BF0B9FD1EE0104B03EB44039888B3F8C4
:103300004410B3F88420FFF7AFFF4FF496700BF032
:10331000AAFD002211461046FFF7A6FF64200BF01D
:10332000A2FD0134044B1B68A342E4DC4FF4FA70A5
:103330000BF099FD0024F5E780030020F0B5DFB025
:1033400004464FF4A27226490DA811F009FE002090
:103350000EE000EBC00313440DA901EB83010968E3
:103360005C3304EB830319600132082AF1DD01307C
:10337000082806DC831C04EB830300221A60002269
:10338000F3E7174F04AD07F5A2760FCE0FC50FCEAA
:103390000FC533682B606D4607F5B4730FCB85E816
:1033A0000F00002309E004AA02EB83021068013336
:1033B00003EB8301CA0022445060082BF3DD002296
:1033C000032A0ADC93000DEB0301086813449900FB
:1033D0002144C1F8B4020132F2E75FB0F0BD00BF92
:1033E0006460010884B08DE80F00012004B07047CC
:1033F00084B010B502AC84E80F000298FDF7D4F851
:103400001DA3D3E90023FDF727F9FDF7FDFB1C4CB5
:1034100020600398FDF7C8F817A3D3E90023FDF750
:103420001BF9FDF7F1FB60600498FDF7BDF812A3EE
:10343000D3E90023FDF710F9FDF7E6FBA0609FED4F
:10344000117ADDED057A67EE877AC4ED037ADDED5A
:10345000067A67EE877AC4ED047ADDED077A67EEC7
:10346000877AC4ED057A0120074B1870BDE810403B
:1034700004B07047AFF300801F85EB51B89E234026
:1034800068550120000000004404002084B08DE84D
:103490000F00DDED027A9DED047A77EEC77A034BDB
:1034A000C3ED037A012004B0704700BF58550120D6
:1034B0002DE9F04F2DED0A8BADF66C5D042209214C
:1034C00074A800F025FE74A8FFF738FFFFF7C0FBD3
:1034D00000210BE001EBC1021A4423A800EB820299
:1034E000002010600133082BF4DD0131082901DCD4
:1034F0000023F8E7002305E0054A02EB83020021E0
:1035000011600133052BF7DD05F076FD804618E3E9
:1035100068550120DFF864A600238AF80030DDED4D
:103520007CBA1BEE900AFDF73FF841EC1A0B41EC18
:10353000100B0FF07DF955EC104B9DED7DBA1BEE95
:10354000100AFDF731F841EC190B41EC100B0FF0AC
:103550006FF98DED000B9DED7ECA1CEE100AFDF794
:1035600023F841EC180B41EC100B0FF061F98DEDD5
:10357000020BB0EE4A0AF0EE6A0A0FF0F9F857ECC7
:10358000106BB0EE490AF0EE690A0FF0F1F88DED1C
:10359000040BB0EE480AF0EE680A0FF0E9F853ECBD
:1035A000102B8DED060BDDE90401FDF755F8CDE993
:1035B0001401DFF8D495D9F80000FCF7F5FFCDE948
:1035C000080102460B46DDE91401FDF745F8CDE997
:1035D0000E01DDE9002320462946FDF73DF8DDE92F
:1035E0000623FDF739F8CDE90A0132463B46DDE90D
:1035F0000201FDF731F802460B46DDE90A01FCF74E
:1036000075FECDE91601D9F80400FCF7CDFF83461D
:103610008C46CDE90ABC02460B46DDE91601FDF7F2
:103620001BF802460B46DDE90E01FCF75FFECDE913
:103630001A010C9607F100430D93DDE90023DDE943
:103640000C01FDF709F8DDE90623FDF705F8CDE9E2
:103650000E01DDE9022320462946FCF7FDFF024664
:103660000B46DDE90E01FCF741FECDE91801D9F862
:103670000800FCF799FF83468C46CDE90EBC024654
:103680000B46DDE91801FCF7E7FF02460B46DDE9D2
:103690001A01FCF72BFECDE91A01DDE904121091A5
:1036A00002F100431193DDE90223DDE91001FCF78B
:1036B000D3FF02460B46CDE91C23DDE90801FCF7E8
:1036C000CBFFCDE91E01129405F100431393DDE910
:1036D0000023DDE91201FCF7BFFFDDE90223FCF75F
:1036E000BBFFCDE92001DDE9062330463946FCF772
:1036F000B3FF02460B46DDE92001FCF7F7FD0A4661
:103700000146CDE9201213460246DDE90A01FCF725
:10371000A3FF02460B46DDE91E01FCF7E7FDCDE9FC
:103720001E0132463B46DDE90001FCF795FFDDE96D
:103730000223FCF791FFCDE90201DDE906232046D3
:103740002946FCF789FF02460B46DDE90201FCF73A
:10375000CDFD02460B46CDE90623DDE90E01FCF75F
:103760007BFF02460B46DDE91E01FCF7BFFDCDE9FC
:103770001E01DDE90023DDE90801FCF76DFFCDE95D
:103780000201DDE9042320462946FCF765FF0346D4
:103790000C46CDE9083402460B46DDE90A01FCF788
:1037A0005BFF02460B46DDE90201FCF79DFD044686
:1037B0000D46DDE9042330463946FCF74DFF0A4645
:1037C0000146CDE90A1213460246DDE90E01FCF777
:1037D00043FF02460B4620462946FCF787FDCDE90C
:1037E0000E01D9F80C00FCF7DFFE03460C46CDE9CC
:1037F000023402460B46DDE91401FCF72DFF0446B6
:103800000D46D9F81000FCF7CFFE0A460146CDE977
:10381000041213460246DDE91601FCF71DFF0246BD
:103820000B4620462946FCF761FD04460D46D9F8B3
:103830001400FCF7B9FE06460F4602460B46DDE9CA
:103840001801FCF709FF02460B4620462946FCF703
:103850004DFDCDE91401DDE90223DDE91C01FCF792
:10386000FBFE04460D46DDE90423DDE92001FCF7FB
:10387000F3FE02460B4620462946FCF737FD044678
:103880000D4632463B46DDE90601FCF7E5FE024601
:103890000B4620462946FCF729FDCDE90601DDE966
:1038A0000023DDE90201FCF7D7FE04460D46DDE901
:1038B0000423DDE90801FCF7CFFE02460B46204653
:1038C0002946FCF711FD04460D4632463B46DDE92C
:1038D0000A01FCF7C1FE02460B4620462946FCF7CA
:1038E00005FD04460D46DDE91A01FDF78DF908EEE8
:1038F000900ADDE91E01FDF787F908EE100ADDE9FF
:103900000E01FDF781F9FCF74FFE9DA3D3E90023DB
:10391000FCF7EAFCFDF778F909EE100ADDE914017D
:10392000FDF772F90AEE100ADDE90601FDF76CF900
:1039300009EE900A20462946FDF766F9DFED8C7AFC
:103940002AEE27AA7BEE8ABA0DF65823C3ED00BAF9
:1039500069EEA79A3BEE29BA0DF65C2383ED00BA17
:1039600007EE100A27EE277A3CEE07CA0DF526630C
:1039700083ED00CA9DED796A28EEA75A36EE057AE6
:103980000DF64C2383ED007ADDED7A6A28EE274AA6
:1039900036EE847A0DF5256383ED007A9DED7B7A12
:1039A00069EE274A77EE245A0DF65423C3ED005AE8
:1039B000DDED765A26EE276A35EE866A0DF5246629
:1039C00086ED006A9DED776A66EEA76A76EE266A56
:1039D0000DF64425C5ED006ADDED786A27EE277AFD
:1039E00036EE877A0DF6482484ED007ACDED267AFE
:1039F000CDED307ACDED3A7A29EE679A8DED459A84
:103A00008DED464ACDED4D4A68EEE78ACDED4F8A01
:103A100068EE677ACDED567A8DED575A09220DF290
:103A2000545123A800F0F4FA32680DF664231A60AA
:103A30002A680DF668231A6023680DF66C2213605D
:103A40000DF5276213609AF8013013B19AF802302D
:103A5000B3BB00230DF5D36213600DF5D86213607C
:103A60000DF5DD6213600DF20C734FF07E521A609B
:103A7000404974A800F078FBDDED788A9FED3E8A1E
:103A800068EE888AFDEEE88A05F0B6FA02462A2139
:103A900018EE900AFEF748FFDDED7B7A27EE888A64
:103AA000BDEEC88A05F0A8FA02462D2118EE100ACC
:103AB000FEF73AFF00237C937D937E93012448E038
:103AC00000228AF802204FF07E530DF5D362136076
:103AD0000DF5D86213600DF5DD6213600DF20C7206
:103AE000136000237C937D937E93224CD4ED008A57
:103AF0009FED218A68EE888AFDEEE88A05F07CFA5F
:103B00000246332118EE900AFEF70EFFD4ED017A3B
:103B100027EE888ABDEEC88A05F06EFA0246342187
:103B200018EE100AFEF700FFA2E718460BF09BF90B
:103B300008F1640805F060FA024626212046FEF7E7
:103B4000F3FEFFF785F80D4B1B78002B7FF4E2ACFA
:103B5000032405F051FAA8EB0003643303D0032CCF
:103B6000E3D00124E1E780460224E3E7AFF30080DD
:103B7000CDCCCC3D5855012000007A4444040020AF
:103B80001F85EB51B89E23406855012030B40023B7
:103B900004E000EB830400252560013302FB01F4FF
:103BA0009C42F6DC30BC70472DE9F041069FDDF801
:103BB0001CE04FF0000824E007FB084500EB8505FA
:103BC000D5ED007A0EFB04C501EB850595ED007A75
:103BD00027EE877AD6ED007A77EE877AC6ED007AFF
:103BE0000134BC42E8DB0CF1010CF44507DA0EFBB2
:103BF00008C602EB8606002434600024F1E708F1D1
:103C00000108984502DA4FF0000CEEE7BDE8F081BC
:103C1000F0B4049F4FF0000C16E001EB8405D5EDE5
:103C2000007A07FB0C4500EB850595ED007A27EE41
:103C3000877AD6ED007A77EE877AC6ED007A01347E
:103C4000BC42EADB0CF1010C9C4505DA02EB8C0668
:103C5000002434600024F3E7F0BC7047F0B4002780
:103C60000DE003FB074602FB047501EB850500EB45
:103C7000860636682E6001349C42F2DB013797429B
:103C800001DA0024F8E7F0BC7047F0B4002710E038
:103C900003FB0754A40006190C4494ED007AD6EDFA
:103CA000007A77EE877AC6ED007A01359D42EFDB28
:103CB0000137974201DA0025F8E7F0BC704770B48D
:103CC00000250CE0AC000619D6ED007A0E1996ED31
:103CD000007A144477EE877AC4ED007A01359D426C
:103CE000F0DB70BC704770B400250CE0AC00061926
:103CF000D6ED007A0E1996ED007A144477EEC77A65
:103D0000C4ED007A01359D42F0DB70BC704730B4E1
:103D100000250DE002FB054300EB8303D3ED007AA1
:103D2000F1EE677AC3ED007A01349442F2DB01359B
:103D30008D4201DA0024F8E730BC704700230CE024
:103D400001FB033200EB8202D2ED007AB7EE007A7B
:103D500077EE877AC2ED007A01338B42F0DB704751
:103D600070B40830086096003044486002FB02F5E9
:103D7000AD00284488602844C86003FB03F4A40015
:103D80002044086103FB02F2920010444861284479
:103D900088611044C861104408622844486228447D
:103DA00088623044C86200EB83030B632B444B638F
:103DB00013448B631344CB6323440B6423444B644D
:103DC00070BC70472DE9F843044688461646002724
:103DD00042E0CA1804EB8202D2ED007A06FB0532FB
:103DE00004EB8202D2ED006A67EEA67A37EE677ABC
:103DF000013B002BEDDAAF4217D008EB8703D3ED80
:103E0000006A06FB057304EB8303C7EE267AC3ED55
:103E1000007A0135B5421EDA06FB07F14B1904EBB7
:103E2000830393ED007A7B1EE3E7B5EEC07AF1EEF3
:103E300010FA18D917EE100AFCF7B6FB41EC100B7C
:103E40000EF0F2FE08EB870951EC100BFCF7DCFEDC
:103E5000C9F80000DDE70137B74201DA3D46D9E78E
:103E60000020BDE8F8830120FBE70000F8B50D460F
:103E700016461C4600270AE004FB07239B00E918AE
:103E800003441B680B600132A242F5DB0137A742F5
:103E900001DA0022F8E7224631462846FFF792FF72
:103EA000074648B301273846F8BD04FB013205EB4D
:103EB0008202D2ED007A04FB030205EB8202D2ED0E
:103EC000006A67EEA67A37EE677A01339942ECDC36
:103ED00006EB8103D3ED006A04FB010305EB8303CA
:103EE000C7EE267AC3ED007A0131A14203DA034618
:103EF0009FED0B7AEAE76046A042D4DA06EB800336
:103F000093ED007A04FB000305EB8303F7EE006AF0
:103F1000C6EE877AC3ED007A00F1010C6146E4E752
:103F200000000000F8B50D461C46FFF79FFF002873
:103F30006AD1844609E004FB003205EB82020021CD
:103F400011600133A342F6DB3046A04202DA461C80
:103F50003346F7E7674633E004FB037205EB820262
:103F6000D2ED007A67EEA77A91ED007A77EE277AA4
:103F7000C1ED007A0133A342EEDB76461BE004FB81
:103F8000076205EB820204FB01F3D81905EB800000
:103F9000D0ED007A334405EB830393ED007A27EEEE
:103FA000877AD2ED007A77EE877AC2ED007A013116
:103FB000A142E4DB0136A64201DA3146F8E7774652
:103FC000A7420DDA04FB077105EB8101D1ED007A00
:103FD00067EEA77AC1ED007A07F1010E7346CAE7D2
:103FE00060460DE004FB030104FB003205EB820296
:103FF00005EB81010968116001339842F2DC013060
:10400000A04203DA6346F8E74FF0010C6046F8BDC2
:104010002DE9F04F85B00646039191464FF0000818
:104020003BE006EB090303EB840393ED007A04EB1A
:10403000C402930033444FEA8A052B44D3ED007A3F
:1040400067EE277A17EE900AFCF7AEFA00222F4BA4
:10405000FCF702FBCDE900013D442868FCF7A4FA17
:10406000DDE90023FCF742F9FCF7CEFD28600134BE
:104070005C45D6DB0AF1010ADA450BDA08EBC80326
:104080009F00B946039B1F4407EB8A0300221A6076
:104090000024EDE7D94608F10108C84503DA4FF0DE
:1040A000000ACB46E8E70024039D13E004EBC402BA
:1040B0009300EA18334488000344D3ED007A1318C0
:1040C00093ED007A77EE277AC3ED007A0131494506
:1040D000ECDB01344C4501DA0021F8E700220398BB
:1040E0000EE002EBC2018B00034403EB820393ED6D
:1040F000007AF7EE007A77EE277AC3ED007A013284
:104100004A45EEDB05B0BDE8F08F00BF0000E03FA0
:1041100030B593B003460C46154619605A601346F5
:104120000A466946FFF71CFE224621460198FFF722
:104130002DFD224621460298FFF728FD2A462946F2
:104140000398FFF723FD2A4621460498FFF71EFD3A
:10415000224621460598FFF719FD22462946069872
:10416000FFF714FD13B030BDF0B595B00F460468ED
:1041700045682B46224602A9FFF7F2FD0194009400
:1041800023460E9A03990798FFF70EFD2346224611
:104190000A990798FFF762FD0194009423460B9A51
:1041A0000A990E98FFF700FD2346224604990B98C2
:1041B000FFF76BFD23462A4609990898FFF74EFD45
:1041C0000195009423460F9A09990B98FFF7ECFC90
:1041D000019400942B46109A0B990898FFF7E4FC81
:1041E000019500942B46119A09991098FFF7DCFC71
:1041F0002B462A4605991198FFF747FD2B46139A3F
:1042000012991198FFF78EFE18B10126304615B0AD
:10421000F0BD0646019500952346069A12990F981F
:10422000FFF7C2FC2B46139A0D993846FFF75BFD4A
:1042300000952346109A13990698FFF7E9FC234648
:10424000029A10990C98FFF73AFD019400952346C5
:104250000E9A08990698FFF7A7FC224621460E9869
:10426000FFF755FD21460E98FFF768FD0194009475
:104270002346039A0B990E98FFF796FCC6E70000B9
:104280002DE9F04F2DED048B83B04FF4FA600AF066
:10429000EAFDBE4B01221A7000230193DFEDBC8AB8
:1042A00000939B46B0EE689A98461F469A461BE1DB
:1042B000F0EE478A18E14FF0000933E1002642E1B1
:1042C00004F09AFEB34B1B68C01AB34B984240F2FD
:1042D0003F81AE4B0B221A703AE1002E00F00481B0
:1042E000D4ED037AF5EE407AF1EE10FA02D0A74B46
:1042F00002221A70A54B02221A70F5E0B9F1000FE4
:1043000000F0F28095ED028AB5EEC08AF1EE10FA67
:1043100016DBA04B1B6813B3F0EE007AB4EEE78A0D
:10432000F1EE10FA0FDCF0EE007AB4EEE78AF1EE6F
:1043300010FA00F3D9800023964A13609A46D3E01E
:10434000B1EE488AE5E704F057FE924B1B68C31AAA
:10435000B3F5FA7FE7D98D4B07221A70C4E0F0EE6F
:10436000007AB4EEE78AF1EE10FA40F3BD8004F073
:1043700043FE884B186004F03FFE8246B4E0874B52
:104380000A221A6004F038FEA0EB0A00B0F5AF5F15
:1043900040F2AA807D4B08221A70A5E07F4B1422C0
:1043A0001A60002E00F0A080D4ED027A94ED047A19
:1043B00037EEC77AF4EEC97AF1EE10FA11DC0BF1A0
:1043C000010BBBF1640F26D979EE677AF7EE006A2C
:1043D000F4EEE67AF1EE10FA01DD334606E0002352
:1043E00004E0B0EE679A00231E469B46DFED6C7A30
:1043F000B4EEE77AF1EE10FA76DD002E74D0002BE1
:1044000072D004F0F9FD8246604B09221A70634BAA
:104410001E221A6068E000231E46E7E7002E63D0E4
:1044200004F0EAFDA0EB0A00D4ED027A94ED047AE0
:1044300077EEC77A9FED5B7AF4EEC77AF1EE10FA69
:1044400006DC009B01330093052B03D8002601E016
:104450000026009641F28833984245D9002E43D079
:1044600004F0CAFD8246494B0A221A70D4ED028A32
:104470004A4B23221A6037E004F0BEFDA0EB0A008D
:1044800041F2883398422FD976B304F0B5FD8246C5
:1044900094ED027A77EE687AF5EEC07AF1EE10FAD2
:1044A0000DDBF0EE006AF4EEE67AF1EE10FA09DCCC
:1044B000019B01330193052B06D8002604E0F1EEA1
:1044C000677AEEE700260196002E3FF4F1AE2F4BFF
:1044D0000B221A70314B28221A60F0EE478A03E053
:1044E0004FF4FA600AF0BFFC0120FEF7AFFD274B46
:1044F0001E78F6B204F080FD024632213046FEF707
:1045000013FA294B1B68BB427FF6D5AE264A1368C7
:1045100003F00703C3EBC3039D00244B1D4417683E
:104520004FF00109224B1B6843457FF6C7AE204A76
:10453000136803F0070303EB83039C001D4B1C442B
:10454000D2F800800126134B1B68002B7FF4B8AE15
:104550000E4B1B78013B0A2BC6D801A252F823F060
:10456000DB420008FD420008E9440008E944000875
:10457000E9440008E94400087F4300089D4300081F
:104580001D44000879440008E1440008004D002063
:1045900000000000FC4C002080A90300084D002012
:1045A0000000964300001643F84C0020A053012061
:1045B000F44C00208054012090F9003023F01C03BB
:1045C000CA78920002F01C0213430370704790F9FE
:1045D000003003F01F030A7943EA42130370704767
:1045E00090F9003023F01C030A78920002F01C02BC
:1045F00013430370704790F9003003F01F034A78AB
:1046000043EA421303707047037803F007038B708B
:104610008378C3F382030B7083785B094B70C37894
:10462000C3F38203CB70C3785B090B717047000042
:1046300010B442680B885800C0EBD200B1F90240B8
:1046400000FB04F000281FDBC012C3EB121303FBB6
:1046500003F3002B1BDB1B13B1F9042002FB03F354
:10466000002B17DB00EBA330486200EB80008030AA
:1046700014D4001210F57A6F12DB42F23413984210
:1046800010DC5DF8044B704700F2FF70DCE703F6C6
:10469000FF73E0E703F57F533F33E3E7FF30E8E7DD
:1046A0000248EEE742F23410EBE700BF60F0FFFF94
:1046B0002DE9F04F83B086468C464A6AD317B2F58F
:1046C000FA3A43F1FF3B0AFB0BF1AAFB0A4505EB63
:1046D0004105BCF910804FEAE87904FB09F108FBB9
:1046E0000511A4FB08898944BCF90E00C11700FB21
:1046F0000BF60AFB0166A0FB0A0131444F0447EAAE
:10470000D037460416EB080247EB0903BCF90C80CE
:1047100000204FEAC801161843EB0107BCF90A2034
:10472000D31704FB03F102FB0511A4FB02450D4462
:10473000A046A946002C75F10003C0F2DE804FEAC6
:10474000182444EA096300934FEA29230193BCF932
:104750000810CA1701FB0BF30AFB0235A1FB0A2361
:104760002B441D0345EA12551403DDE9000100192D
:10477000694110F1000841F50049BCF80620A8FB8A
:10478000024502FB09552946002C75F10003C0F2D1
:10479000B9804A10CB1752EA030100F0D980E146F4
:1047A000DEF80010C1F580114D08CC07A41B65EBA5
:1047B0000705A246AB4624196D4114EB0A0045EBF0
:1047C0000B0105460E46B10141EA9561A801374645
:1047D0002E184F41B90041EA9671B00010EB0A045F
:1047E00041EB0B05A90041EA9471A00010EB0A000F
:1047F00041EB0B01FCF758FA82468B46B9F916409B
:10480000E51701465A46BAF1000F7BF100037EDB43
:104810004B0B43EAC243521304FB02F603FB05664B
:10482000A4FB0301314403FB01F502FB0055A3FB8C
:1048300000232B4414461D46002A73F100016EDB51
:10484000630E43EAC5166F16B9F91440E51704FB69
:104850000BF30AFB0533A4FB0A451D4420462946F9
:10486000002C75F1000363DBC20C42EA4134CD1425
:104870001AEB06004BEB0701061941EB050734461E
:104880003D46002E77F1000358DB210A41EA05621C
:104890002B12B9F91240E517290141EA14712001E0
:1048A000141843EB0105E90F621845F10003591094
:1048B0004FEA3200021841EB0103161843EB0107DF
:1048C0007D0145EAD6657401321947EB05031418DA
:1048D00043EB010520462946002C75F1000332DB2D
:1048E000C30943EA416318461C4A934232D91C4A21
:1048F000934231D803B0BDE8F08F14F1FF0845F1C1
:1049000000091CE714F1FF3045F1010141E741F6D0
:10491000FF76002716EB0A0147EB0B0278E76FF0F2
:104920007E440025A01845EB030104460D4687E7A9
:104930000C4A0023101943EB050195E716F1FF041B
:1049400047F10005A1E714F17F0045F10001C7E739
:104950000548CFE70448CDE70148CBE7BFC62D00A7
:10496000C0D8A700FFFF0700C0C62D0010B44C6AD6
:10497000A4F596348268B1F91E000005B1F9203023
:10498000C0EB823004FB130313F5804342D4D813E9
:1049900091F9222004FB02F2002A3FDB92120B7FE6
:1049A00004FB03F4002C3CDBE41204F5004402FB9E
:1049B00004F2002A38DB931203F50013B1F91A2030
:1049C00003FB02F313F5005331D49B1303FB00F3F5
:1049D0001A46002B2FDBD21302FB02F2002A2EDB39
:1049E000D211097E02FB01F2002A2ADBA3EB22137B
:1049F00023EAE373B3F1C85FA8BF4FF0C8531A4668
:104A0000002B20DB13131846B3F5C83F1ED85DF802
:104A1000044B704703F5FF437F33B8E702F2FF32E0
:104A2000BCE704F2FF74BFE702F2FF32C3E703F50D
:104A30007F533F33C9E703F5FF427F32CBE77F3235
:104A4000CEE70F32D2E703F6FF72DBE74FF4C83050
:104A5000DDE770B4012408E06500013D065D4E55B8
:104A6000155D01F814500134E4B29C42F4D370BCDB
:104A700070474278037843EA02230B82C278837836
:104A800043EA02234B824279037943EA02238B8271
:104A9000C279837943EA0223CB82427A037A43EADA
:104AA00002230B83C27A837A43EA02234B83427B3D
:104AB000037B43EA02238B83C27B837B43EA02238B
:104AC000CB83427C037C43EA02230B84C27C837C3D
:104AD00043EA02234B84427D037D43EA02238B8415
:104AE000C27D837D43EA0223CB84437E81F8283054
:104AF00070474278037843EA02234B85837881F834
:104B00002C3090F903309BB21B011BB2027902F0EA
:104B10000F021343CB8590F905309BB21B011BB2EA
:104B2000027943EA12130B8690F9063081F832308D
:104B30007047084201D1002070470120704750B1F2
:104B400042685AB1826862B1C3680BB100207047F5
:104B50004FF0FF3070474FF0FF3070474FF0FF309D
:104B600070474FF0FF3070472DE9F0410546884609
:104B700017461C461846FFF7E2FF034660B9A378C4
:104B8000012B01D045F0800566683B464246294628
:104B90006078B047034610B91846BDE8F0816FF061
:104BA0000303F9E730B589B004460023019302936B
:104BB0000393049305930693ADF81C3003461A2221
:104BC00001A98820FFF7D0FF054610B1284609B09B
:104BD00030BD214601A8FFF74CFF2346072201A95B
:104BE000E120FFF7C1FF05460028EFD1214601A8CB
:104BF000FFF77FFFEAE7F0B587B005460F4614469A
:104C00001E460A2A00D90A243046FFF798FF48BBFF
:104C10005DB36FB37CB33B788DF80430B378012B70
:104C200009D0002205E0A95C01F07F01A9540132FE
:104C3000D2B29442F7D8012C0AD8A3B2B46801AA20
:104C400029787078A0470346C0B9184607B0F0BD70
:104C500023463A4601A92846FFF7FBFE6400013CC3
:104C6000A3B2EBE74FF0FF33EFE74FF0FF33ECE792
:104C70004FF0FF33E9E76FF00203E6E76FF003035D
:104C8000E3E710B582B00C46F2238DF80530837847
:104C900003F0070302A901F8013D234601220DF1AB
:104CA0000500FFF7A8FF034610B1184602B010BD7B
:104CB000F4208DF80500234601220DF10601FFF7CF
:104CC00053FF03460028F0D1234601220DF10601CF
:104CD0000DF10500FFF78FFF0346E6E770B582B0E0
:104CE00005460E461446F4208DF8070013460122AF
:104CF0000DF10601FFF738FF034670B915F0010FFB
:104D00000ED115F0020F11D1234601220DF106013B
:104D10000DF10700FFF76FFF0346184602B070BDA4
:104D200031460DF10600FFF75BFCEAE731460DF175
:104D30000600FFF760FCE7E770B504460D4616462F
:104D400010F0040F04D1012014F0030F05D170BD41
:104D500011462846FFF795FFF6E7324629462046DA
:104D6000FFF7BCFFF3E770B582B005460E46144668
:104D7000F5208DF80700134601220DF10601FFF71B
:104D8000F3FE034670B915F0080F0ED115F0100FA1
:104D900011D1234601220DF106010DF10700FFF7A5
:104DA0002AFF0346184602B070BD31460DF10600D9
:104DB000FFF702FCEAE731460DF10600FFF707FCBA
:104DC000E7E738B504460D460A4601461F20FFF7BF
:104DD000B3FF034608B1184638BD2A4621461F20B6
:104DE000FFF7C1FF0346F6E730B583B005460C4632
:104DF000F4208DF807000B4601220DF10601FFF7A4
:104E0000B3FE034610B1184603B030BD9DF806004E
:104E100020F0030040B205F00305284302A901F881
:104E2000020D234601220DF10700FFF7E4FE0346C1
:104E3000E9E730B583B00546FFF781FE044610B1BF
:104E4000204603B030BD2B4604220DEB0201F220B8
:104E5000FFF78AFE04460028F2D105F1380101A8C7
:104E6000FFF7D2FBECE738B505460C460846FFF7DE
:104E700066FE034608B1184638BD2346012229467E
:104E8000F420FFF771FE03462A7802F003022A702D
:104E9000F1E730B583B00546E0238DF80730B6233F
:104EA0008DF80630FFF74BFE044610B1204603B0E4
:104EB00030BD2B4601220DF106010DF10700FFF771
:104EC0009AFE0446EB6802209847EFE770B582B07F
:104ED000054600238DF80730FFF731FE064620BB5C
:104EE000052409E02846FFF75DFE06461CE0EB6856
:104EF00001209847013CE4B2B4B12B4601220DF1E8
:104F00000701D020FFF730FE06460028EFD19DF8BC
:104F10000730602B01D0582BE9D12B702846FFF7C2
:104F2000B8FF06460028DDD014B1304602B070BD8F
:104F30006FF00106F9E710B584B004460346042279
:104F400003A9F220FFF710FE034610B1184604B083
:104F500010BD01A903A8FFF757FB2046FFF799FFF3
:104F600003460028F2D1214601A8FFF72AFF034695
:104F7000ECE770B582B006460D460846FFF7DFFD48
:104F8000044610B1204602B070BD29460DF107005D
:104F9000FFF769FF044610B99DF80730B3B9002C3C
:104FA000F0D131460720FFF7C4FDA0B9002CE9D1AC
:104FB00031461820FFF7BDFD0028E3D02A4605F151
:104FC00038013046FFF7CFFE0446DBE72846FFF7FF
:104FD000B2FF0446E3E72A4605F138013046FFF701
:104FE000ABFE0446E2E730B583B005460C46084602
:104FF000FFF7A5FD034610B1184603B030BD2146AA
:105000000DF10700FFF72FFF034610B99DF80720A9
:105010003AB9002BF0D121462846FFF7E5FE0346BA
:10502000EAE72046FFF787FF0346F2E710B404786B
:1050300043781B01827843EA043343EA12130B607E
:10504000C47803791B01427943EA043343EA12131B
:105050004B608279C37943EA02238B605DF8044B8D
:10506000704729B3F8B50F462AB33BB31E46144622
:105070000546002353601360936010F0070F11D1B1
:1050800015F0010F04D031463846FFF711FB2060C0
:1050900015F0040F15D031463846FFF767FCA060C5
:1050A0000020F8BD31463846FFF7C2FA6060E7E7F6
:1050B0004FF0FF3070474FF0FF30F2E74FF0FF3016
:1050C000EFE70020EDE770B586B006460D461446C2
:1050D0000023049305930193029303931046FFF773
:1050E0002EFDC0B9D5B12346082204A9F720FFF749
:1050F0003BFD034610B1184606B070BD01A904A8D7
:10510000FFF794FF04F110032A4601A93046FFF788
:10511000A8FF0346EFE74FF0FF33ECE74FF0FF3314
:10512000E9E70000F0B583B000268DF807608DF840
:1051300006608DF804608DF80560394D2860C468FC
:1051400001230DF106020721407AA0470446286892
:10515000076901230DF107023146407AB84754FA36
:1051600080F4E4B228689DF80730037006690123D3
:105170000DF107021946407AB04754FA80F4E4B2C0
:1051800028689DF807304371066901230DF1070275
:105190000221407AB04754FA80F4E4B228689DF8BE
:1051A00007308371066901230DF107020321407A5C
:1051B000B04754FA80F4E4B228689DF80730C37110
:1051C000066901230DF107020621407AB04754FA1F
:1051D00080F4E4B228689DF8073003720669022360
:1051E00001AA0421407AB04754FA80F4E4B29DF851
:1051F00005209DF80430286843EA022343800669AD
:1052000001230DF107020721407AB04754FA80F0DC
:105210002B689DF807201A7140B203B0F0BD00BFA3
:105220005004002038B5064B1C6834B113460A46BA
:105230000146E568607AA84738BD6FF07E00FBE75D
:105240005004002070B582B000238DF80730134B56
:105250001C68E4B10546266901230DF10702072108
:10526000607AB0470446A8B902AA02F8015D0B4B68
:105270001868C66801230721407AB04754FA80F0C5
:1052800040B210B9054B1B681D7102B070BD6FF0C4
:105290007E00FAE74FF0FF30F7E700BF5004002030
:1052A00030B583B000230093ADF804301A4B1B686F
:1052B0005BB304461B7913BB174B1B681B793BBBC5
:1052C000154B1868056906236A460821407AA847E5
:1052D0009DF901209DF8003043EA022323809DF9C7
:1052E00003209DF8023043EA022363809DF90520E4
:1052F0009DF8043043EA0223A38003B030BD0020B0
:10530000FFF7A0FF0028DBD0D6E76FF07E00F4E7C0
:105310004FF0FF30F1E700BF5004002030B583B0FC
:1053200000230093ADF804301A4B1B685BB30446AE
:105330001B7913BB174B1B681B793BBB154B1868BC
:10534000056906236A460E21407AA8479DF9012087
:105350009DF8003043EA022323809DF903209DF845
:10536000023043EA022363809DF905209DF8043052
:1053700043EA0223A38003B030BD0020FFF762FFA1
:105380000028DBD0D6E76FF07E00F4E74FF0FF3067
:10539000F1E700BF5004002030B583B00023009334
:1053A000ADF804301A4B1B685BB304461B7913BB82
:1053B000174B1B681B793BBB154B18680569062307
:1053C0006A461421407AA8479DF901209DF80030D3
:1053D00043EA022323809DF903209DF8023043EA2B
:1053E000022363809DF905209DF8043043EA0223DF
:1053F000A38003B030BD0020FFF724FF0028DBD0DE
:10540000D6E76FF07E00F4E74FF0FF30F1E700BF22
:105410005004002030B583B004460023ADF80030BE
:10542000ADF80230ADF804306846FFF777FF20BBD7
:105430000546BDF90000FBF7A5F80022104BFBF76D
:105440000BF9FBF7E1FB2060BDF90200FBF79AF8CE
:1054500000220B4BFBF700F9FBF7D6FB6060BDF9B0
:105460000400FBF78FF80022054BFBF7F5F8FBF77C
:10547000CBFBA060284603B030BD4FF0FF35F9E705
:105480000000B03F70B582B000238DF80730134B99
:105490001B68E3B105461B799BB9104B1B681B7950
:1054A000C3B90E4B1C68266901230DF107023B218D
:1054B000607AB0479DF8073003F001032B7002B00B
:1054C00070BD0020FFF7BEFE0028EAD0E5E76FF0D0
:1054D0007E00F4E74FF0FF30F1E700BF50040020FA
:1054E00070B582B000238DF80730134B1B68E3B111
:1054F00005461B799BB9104B1B681B79C3B90E4B32
:105500001C68266901230DF107023B21607AB04730
:105510009DF80730C3F340032B7002B070BD00202C
:10552000FFF790FE0028EAD0E5E76FF07E00F4E791
:105530004FF0FF30F1E700BF5004002070B582B09B
:1055400000238DF80730134B1B68E3B105461B7928
:105550009BB9104B1B681B79C3B90E4B1C6826699D
:1055600001230DF107023D21607AB0479DF8073015
:1055700003F00F032B7002B070BD0020FFF762FE36
:105580000028EAD0E5E76FF07E00F4E74FF0FF3047
:10559000F1E700BF5004002070B582B000238DF801
:1055A00007308DF80630424B1B68002B79D005463A
:1055B0000DF10600FFF7C2FF002875D19DF80630F7
:1055C0003BBB3B4B1868046901230DF107023D21E9
:1055D000407AA0470446C8B99DF8073023F00F036E
:1055E0005BB205F00F051D4302AA02F8015D304DC4
:1055F0002868C66801233D21407AB04754FA80F4F8
:1056000064B22B685B694FF416709847204602B06D
:1056100070BD274B1868046901230DF107023D2175
:10562000407AA047044640B3002DEFD0204B1868C5
:10563000046901230DF107023D21407AA047044689
:105640000028E3D19DF8070020F00F0040B205F0DC
:105650000F05054302AA02F8015D154D2868C668CA
:1056600001233D21407AB04754FA80F464B22B689C
:105670005B694FF416709847C8E79DF8073003F050
:10568000F00302A901F8013D01223D20FFF7CAFD08
:1056900054FA80F464B2064B1B685B691420984787
:1056A000C2E76FF07E04B1E74FF0FF34AEE700BF12
:1056B0005004002030B583B000238DF807308DF8FA
:1056C0000630254B1B68002B42D005460DF1060025
:1056D000FFF734FF044650BB9DF806300BBB74BB8C
:1056E0001D4B1868046901230DF107023B21407A24
:1056F000A0470446E8B99DF8073023F001035BB2E8
:1057000005F00100184302AA02F8010D124B1868B7
:10571000C56801233B21407AA84754FA80F464B25B
:1057200007E0FFF739FF54FA80F464B2D7E74FF08F
:10573000FF349DF8060028B9204603B030BD4FF075
:10574000FF34F6E7FFF728FF54FA80F464B2F3E77A
:105750006FF07E04F0E700BF5004002030B585B044
:1057600005460023ADF80830ADF80A30ADF80C302E
:1057700004A800F8093DFFF785FE04469DF80730B0
:10578000012B21D13CBB02A8FFF78AFD54FA80F01F
:1057900040B218BBBDF9083007EE903AF8EEE77A50
:1057A000C5ED007ABDF90A3007EE903AF8EEE77AD7
:1057B000C5ED017ABDF90C3007EE903AF8EEE77AC4
:1057C000C5ED027A05B030BD0120FFF773FF54FA32
:1057D00080F464B2D6E74FF0FF30F3E74FF0FF30CC
:1057E000F0E7000030B583B000228DF807208DF877
:1057F0000620254A1268002A43D005460DF106000E
:10580000FFF79CFE044658BB9DF8063013BB7CBBDB
:105810001D4B1868046901230DF107023B21407AF2
:10582000A0470446F0B99DF8072022F0020252B2C8
:105830006B0003F00203134302AA02F8013D124B6E
:105840001868C56801233B21407AA84754FA80F4C0
:1058500064B207E0FFF7A0FE54FA80F464B2D6E722
:105860004FF0FF349DF8060028B9204603B030BD44
:105870004FF0FF34F6E7FFF78FFE54FA80F464B27E
:10588000F3E76FF07E04F0E75004002030B585B0F8
:1058900005460023ADF80830ADF80A30ADF80C30FD
:1058A00004A800F8093DFFF71BFE04469DF80730E9
:1058B000012B2BD18CBB02A8FFF76EFD54FA80F4AC
:1058C00064B26CBBBDF90800FAF75CFE0022164B0F
:1058D000FAF7ECFFFBF798F92860BDF90A00FAF730
:1058E00051FE0022104BFAF7E1FFFBF78DF96860DB
:1058F000BDF90C00FAF746FE00220B4BFAF7D6FF73
:10590000FBF782F9A860204605B030BD0120FFF703
:1059100069FF54FA80F464B2CCE74FF0FF34F2E749
:105920004FF0FF34EFE700BF00208C4030B583B06C
:1059300000238DF807308DF80630254B1B68002BAF
:1059400042D005460DF10600FFF7F8FD044650BBB6
:105950009DF806300BBB74BB1D4B1868046901230E
:105960000DF107023E21407AA0470446E8B99DF8B0
:10597000073023F003035BB205F00300184302AACB
:1059800002F8010D124B1868C56801233E21407AC8
:10599000A84754FA80F464B207E0FFF7FDFD54FA1B
:1059A00080F464B2D7E74FF0FF349DF8060028B9C1
:1059B000204603B030BD4FF0FF34F6E7FFF7ECFDB3
:1059C00054FA80F464B2F3E76FF07E04F0E700BFAE
:1059D0005004002030B583B000238DF807308DF8D7
:1059E00006302B4B1B68002B4FD005460DF10600EF
:1059F000FFF7A4FD0446002833D19DF806301BB9FB
:105A000044B14FF0FF342EE0FFF7C6FD54FA80F4A6
:105A100064B2F5E70120FFF715FC50BB042D2BD82D
:105A20001B4B1868046901230DF107020821407A15
:105A3000A0470446B8B99DF8070020F0030043B220
:105A400005F00300184302AA02F8010D104B186874
:105A5000C56801230821407AA84754FA80F464B24B
:105A600001E04FF0FF349DF8060040B9204603B036
:105A700030BD4FF0FF34F6E76FF00104F3E7FFF7B6
:105A80008BFD54FA80F464B2F0E76FF07E04EDE72A
:105A900050040020002202704270828082600273F3
:105AA0000282426102768283026280F824200285AB
:105AB000C26280F8302080F8382080F83920C26334
:105AC00080F8482080F84920C26480F8582080F887
:105AD0005920026680F8682080F86920026780F803
