:020000040800F2
:100000000000022055420008394E00083B4E00080F
:100010003D4E00083F4E0008414E00080000000021
:1000200000000000000000000000000081B4000893
:10003000434E00080000000021B5000885B5000807
:10004000A5420008A5420008A5420008A5420008F4
:10005000A5420008A5420008A5420008A5420008E4
:10006000A5420008A5420008A5420008A5420008D4
:10007000454E0008554E0008A5420008654E000890
:10008000A5420008A5420008A5420008A5420008B4
:10009000754E0008A5420008A5420008A5420008C8
:1000A000A5420008A5420008A5420008A542000894
:1000B000A5420008A5420008A5420008A542000884
:1000C000A5420008A5420008A5420008A542000874
:1000D000A5420008854E0008A5420008A542000878
:1000E000A5420008A5420008A5420008A542000854
:1000F000A5420008954E0008A5420008A542000848
:10010000A5420008A54E0008A5420008A542000827
:10011000A5420008A5420008A5420008A542000823
:10012000A5420008B54E0008A5420008C54E0008CB
:10013000A54200080000000000000000A5420008E1
:10014000A5420008A5420008A5420008A5420008F3
:10015000A5420008D54E0008E54E0008A54200085B
:10016000A5420008A5420008A5420008A5420008D3
:10017000A5420008A5420008A542000800000000B2
:1001800000000000A5420008000000000000000080
:10019000A54200080000000000000000A542000881
:1001A000000000000000000000000000A542000860
:1001B000F54E0008A5420008A5420008A542000827
:0401C000A54200084C
:1001D00010B5054C237833B9044B13B10448AFF381
:1001E00000800123237010BD1002002000000000D9
:1001F0003402010808B5034B1BB103490348AFF3B0
:10020000008008BD00000000140200203402010834
:1002100010F8012B11F8013B012A28BF9A42F7D0B0
:10022000D01A7047034613F8012B002AFBD1181A85
:100230000138704781F0004102E000BF83F00043C5
:1002400030B54FEA41044FEA430594EA050F08BF71
:1002500090EA020F1FBF54EA000C55EA020C7FEA35
:10026000645C7FEA655C00F0E2804FEA5454D4EBB2
:100270005555B8BF6D420CDD2C4480EA020281EA7C
:10028000030382EA000083EA010180EA020281EAB4
:100290000303362D88BF30BD11F0004F4FEA013106
:1002A0004FF4801C4CEA113102D0404261EB410115
:1002B00013F0004F4FEA03334CEA133302D052429B
:1002C00063EB430394EA050F00F0A780A4F1010457
:1002D000D5F1200E0DDB02FA0EFC22FA05F2801891
:1002E00041F1000103FA0EF2801843FA05F3594177
:1002F0000EE0A5F120050EF1200E012A03FA0EFCF6
:1003000028BF4CF0020C43FA05F3C01851EBE3711F
:1003100001F0004507D54FF0000EDCF1000C7EEB3C
:1003200000006EEB0101B1F5801F1BD3B1F5001F7A
:100330000CD349085FEA30004FEA3C0C04F1010499
:100340004FEA445212F5800F80F09A80BCF1004FC2
:1003500008BF5FEA500C50F1000041EB045141EA44
:10036000050130BD5FEA4C0C404141EB010111F445
:10037000801FA4F10104E9D191F0000F04BF0146F0
:100380000020B1FA81F308BF2033A3F10B03B3F1CE
:1003900020020CDA0C3208DD02F1140CC2F10C025E
:1003A00001FA0CF021FA02F10CE002F11402D8BFBC
:1003B000C2F1200C01FA02F120FA0CFCDCBF41EA88
:1003C0000C019040E41AA2BF01EB0451294330BD57
:1003D0006FEA04041F3C1CDA0C340EDC04F1140434
:1003E000C4F1200220FA04F001FA02F340EA03000B
:1003F00021FA04F345EA030130BDC4F10C04C4F151
:10040000200220FA02F001FA04F340EA0300294630
:1004100030BD21FA04F0294630BD94F0000F83F47A
:10042000801306BF81F480110134013D4EE77FEA5D
:10043000645C18BF7FEA655C29D094EA050F08BFA9
:1004400090EA020F05D054EA000C04BF194610468A
:1004500030BD91EA030F1EBF0021002030BD5FEACE
:10046000545C05D14000494128BF41F0004130BDF6
:1004700014F580043CBF01F5801130BD01F000454A
:1004800045F0FE4141F470014FF0000030BD7FEABD
:10049000645C1ABF194610467FEA655C1CBF0B46B8
:1004A000024650EA013406BF52EA033591EA030FCF
:1004B00041F4002130BD00BF90F0000F04BF0021C7
:1004C000704730B54FF4806404F132044FF00005FA
:1004D0004FF0000150E700BF90F0000F04BF002173
:1004E000704730B54FF4806404F1320410F00045D9
:1004F00048BF40424FF000013EE700BF42004FEAD4
:10050000E2014FEA31014FEA02701FBF12F07F4350
:1005100093F07F4F81F06051704732F07F4208BF07
:10052000704793F07F4F04BF41F40021704730B50E
:100530004FF4607401F0004521F000411CE700BF5A
:1005400050EA010208BF704730B54FF000050AE0DD
:1005500050EA010208BF704730B511F0004502D5DE
:10056000404261EB41014FF4806404F132045FEAE0
:10057000915C3FF4D8AE4FF003025FEADC0C18BF89
:1005800003325FEADC0C18BF033202EBDC02C2F17B
:10059000200300FA03FC20FA02F001FA03FE40EA0D
:1005A0000E0021FA02F11444BDE600BF70B54FF011
:1005B000FF0C4CF4E06C1CEA11541DBF1CEA1355EF
:1005C00094EA0C0F95EA0C0F00F0DEF82C4481EA57
:1005D000030621EA4C5123EA4C5350EA013518BF77
:1005E00052EA033541F4801143F4801338D0A0FB64
:1005F00002CE4FF00005E1FB02E506F00042E0FB11
:1006000003E54FF00006E1FB03569CF0000F18BF16
:100610004EF0010EA4F1FF04B6F5007F64F54074BE
:1006200004D25FEA4E0E6D4146EB060642EAC62151
:1006300041EA55514FEAC52040EA5E504FEACE2EBE
:10064000B4F1FD0C88BFBCF5E06F1ED8BEF1004FC1
:1006500008BF5FEA500E50F1000041EB045170BD3D
:1006600006F0004646EA010140EA020081EA030181
:10067000B4EB5C04C2BFD4EB0C0541EA045170BD7D
:1006800041F480114FF0000E013C00F3AB8014F1F7
:10069000360FDEBF002001F0004170BDC4F1000440
:1006A000203C35DA0C341BDC04F11404C4F12005C1
:1006B00000FA05F320FA04F001FA05F240EA02001C
:1006C00001F0004221F0004110EBD37021FA04F652
:1006D00042EB06015EEA430E08BF20EAD37070BD0C
:1006E000C4F10C04C4F1200500FA04F320FA05F06B
:1006F00001FA04F240EA020001F0004110EBD3706D
:1007000041F100015EEA430E08BF20EAD37070BDDC
:10071000C4F1200500FA05F24EEA020E20FA04F3B5
:1007200001FA05F243EA020321FA04F001F0004164
:1007300021FA04F220EA020000EBD3705EEA430ED5
:1007400008BF20EAD37070BD94F0000F0FD101F004
:100750000046400041EB010111F4801F08BF013C3D
:10076000F7D041EA060195F0000F18BF704703F07B
:100770000046520043EB030313F4801F08BF013D02
:10078000F7D043EA0603704794EA0C0F0CEA1355BE
:1007900018BF95EA0C0F0CD050EA410618BF52EA78
:1007A0004306D1D181EA030101F000414FF000007E
:1007B00070BD50EA410606BF1046194652EA43068C
:1007C00019D094EA0C0F02D150EA013613D195EA00
:1007D0000C0F05D152EA03361CBF104619460AD148
:1007E00081EA030101F0004141F0FE4141F4700152
:1007F0004FF0000070BD41F0FE4141F4780170BD42
:1008000070B54FF0FF0C4CF4E06C1CEA11541DBFA6
:100810001CEA135594EA0C0F95EA0C0F00F0A7F8A8
:10082000A4EB050481EA030E52EA03354FEA0131D5
:1008300000F088804FEA03334FF0805545EA1313E8
:1008400043EA12634FEA022245EA111545EA1065B0
:100850004FEA00260EF000419D4208BF964244F147
:10086000FD0404F5407402D25B084FEA3202B61A66
:1008700065EB03055B084FEA32024FF480104FF43A
:10088000002CB6EB020E75EB030E22BFB61A7546AE
:1008900040EA0C005B084FEA3202B6EB020E75EB41
:1008A000030E22BFB61A754640EA5C005B084FEAA9
:1008B0003202B6EB020E75EB030E22BFB61A754676
:1008C00040EA9C005B084FEA3202B6EB020E75EB81
:1008D000030E22BFB61A754640EADC0055EA060E42
:1008E00018D04FEA051545EA16754FEA06164FEA85
:1008F000C30343EA52734FEAC2025FEA1C1CC0D131
:1009000011F4801F0BD141EA00014FF000004FF0BD
:10091000004CB6E711F4801F04BF01430020B4F17E
:10092000FD0C88BFBCF5E06F3FF6AFAEB5EB030C36
:1009300004BFB6EB020C5FEA500C50F1000041EB33
:10094000045170BD0EF0004E4EEA113114EB5C0400
:10095000C2BFD4EB0C0541EA045170BD41F48011D3
:100960004FF0000E013C90E645EA060E8DE60CEADB
:10097000135594EA0C0F08BF95EA0C0F3FF43BAFF8
:1009800094EA0C0F0AD150EA01347FF434AF95EAAF
:100990000C0F7FF425AF104619462CE795EA0C0F93
:1009A00006D152EA03353FF4FDAE1046194622E760
:1009B00050EA410618BF52EA43067FF4C5AE50EA3A
:1009C00041047FF40DAF52EA43057FF4EBAE12E72A
:1009D0004FF0FF3C06E000BF4FF0010C02E000BF0B
:1009E0004FF0010C4DF804CD4FEA410C7FEA6C5CEE
:1009F0004FEA430C18BF7FEA6C5C1BD001B050EA91
:100A0000410C0CBF52EA430C91EA030F02BF90EA7B
:100A1000020F0020704710F1000F91EA030F58BF3A
:100A2000994208BF90422CBFD8176FEAE37040F09C
:100A3000010070474FEA410C7FEA6C5C02D150EA3A
:100A4000013C07D14FEA430C7FEA6C5CD6D152EAF5
:100A5000033CD3D05DF8040B704700BF84461046BA
:100A600062468C461946634600E000BF01B5FFF7B9
:100A7000B7FF002848BF10F1000F01BD4DF808ED89
:100A8000FFF7F4FF0CBF012000205DF808FB00BF5A
:100A90004DF808EDFFF7EAFF34BF012000205DF8B4
:100AA00008FB00BF4DF808EDFFF7E0FF94BF012001
:100AB00000205DF808FB00BF4DF808EDFFF7CEFF02
:100AC00094BF012000205DF808FB00BF4DF808ED41
:100AD000FFF7C4FF34BF012000205DF808FB00BF12
:100AE0004FEA410C7FEA6C5C02D150EA013C0AD12A
:100AF0004FEA430C7FEA6C5C02D152EA033C02D11C
:100B00004FF0000070474FF0010070474FEA41027C
:100B1000B2F1E04324BFB3F5001CDCF1FE5C0DD95B
:100B200001F0004C4FEAC0024CEA5070B2F1004FA5
:100B300040EB830008BF20F00100704711F0804FA8
:100B400021D113F13872BCBF01F00040704741F46D
:100B500080114FEA5252C2F11802C2F1200C10FA71
:100B60000CF320FA02F018BF40F001004FEAC12355
:100B70004FEAD32303FA0CFC40EA0C0023FA02F3F9
:100B80004FEA4303CCE77FEA625307D150EA0133CF
:100B90001EBF4FF0FE4040F44000704701F000409F
:100BA00040F0FE4040F40000704700BF53B94AB91E
:100BB000002908BF00281CBF4FF0FF314FF0FF3065
:100BC00001F0F8B8ADF1080C6DE904CE00F006F8BC
:100BD000DDF804E0DDE9022304B070472DE9F047B9
:100BE000089E04468846002B4BD18A42154667D999
:100BF000B2FA82F24AB1C2F1200701FA02F320FAF6
:100C000007F7954047EA030894404FEA154E230C36
:100C1000B8FBFEF71FFA85FC0EFB178843EA084372
:100C200007FB0CF1994209D9EB1807F1FF3080F06E
:100C30001B81994240F21881023F2B445B1AA4B2F7
:100C4000B3FBFEF00EFB103344EA034400FB0CFC44
:100C5000A44509D92C1900F1FF3380F00781A44580
:100C600040F2048102382C4440EA0740A4EB0C0413
:100C700000271EB1D4400023C6E900433946BDE831
:100C8000F0878B4209D9002E00F0EB800027C6E9DF
:100C9000000138463946BDE8F087B3FA83F7002FE4
:100CA00047D18B4202D3824200F2FA80841A61EB70
:100CB000030301209846002EE0D0C6E90048DDE796
:100CC00002B9FFDEB2FA82F2002A40F08F80491B9F
:100CD0004FEA154E1FFA85F80127B1FBFEFC230CE5
:100CE0000EFB1C1143EA014308FB0CF1994207D9A2
:100CF000EB180CF1FF3002D2994200F2CD8084460D
:100D0000591AA3B2B1FBFEF00EFB101443EA0444DF
:100D100008FB00F8A04507D92C1900F1FF3302D2D7
:100D2000A04500F2B6801846A4EB080440EA0C4047
:100D30009FE7C7F1200CBB4022FA0CFE4EEA030EDF
:100D400001FA07F420FA0CF521FA0CF34FEA1E48D9
:100D50002543B3FBF8F92C0C08FB19331FFA8EFA64
:100D600044EA034309FB0AF49C4202FA07F200FA40
:100D700007F10BD91EEB030309F1FF3080F08780E8
:100D80009C4240F28480A9F1020973441B1BADB25E
:100D9000B3FBF8F008FB103345EA034400FB0AFA02
:100DA000A24508D91EEB040400F1FF336BD2A24523
:100DB00069D90238744440EA0940A0FB0289A4EBD7
:100DC0000A044C45C2464B4654D351D0002E69D03C
:100DD000B1EB0A0564EB030404FA0CFCFD40FC4093
:100DE0004CEA0505C6E90054002747E7C2F1200395
:100DF00020FA03F7954001FA02F021FA03F34FEAD3
:100E0000154E3843010CB3FBFEF71FFA85F80EFBB5
:100E1000173341EA034107FB08F38B4204FA02F45B
:100E200007D9691807F1FF3C2FD28B422DD9023F19
:100E30002944CB1A81B2B3FBFEF00EFB103341EA1A
:100E4000034100FB08F38B4207D9691800F1FF3C0E
:100E500017D28B4215D902382944C91A40EA0747EC
:100E60003BE73746304609E70746E7E61846FBE624
:100E70004145ABD2B8EB020A69EB0E0201381346CA
:100E8000A4E76046E9E7184695E76746D1E781465B
:100E90007CE702382C4447E7ACF1020C2B442FE7E7
:100EA000384608E73746E9E603685A004CBF43F086
:100EB000004323F000431844704700BF61B32DE99D
:100EC000F84F01F1FF3A90460646D146002707EB5E
:100ED000090404EBD4746410E50071190846FFF7A7
:100EE000E3FFA245834605F10800304409D0FFF72F
:100EF000DBFFC34500F1FF3005D8404509D2671C30
:100F0000E5E7C34505D9A74202D004F1FF39DEE782
:100F100000210846BDE8F88F08467047012807D031
:100F2000022807D0044B00280CBF18460020704749
:100F30000248704702487047091600080D1600085D
:100F40001116000830B5254B83B004468D1E4BB3F7
:100F500001A92846AFF30080F0B101992A46FFF7B6
:100F6000ADFF0146C0B1FFF79FFF4B68A064012BA6
:100F70002ED0002B01F1040026DBFFF795FF0023A4
:100F8000C4E913030368002B12DBFFF78DFF002376
:100F90002061184603B030BD0023236109231846A1
:100FA00003B030BD0E490F48091AC9100191D5E7A9
:100FB000C3F30360FFF7B2FF002814BF0023092327
:100FC0002061184603B030BD0123C4E91303D9E7FB
:100FD000002323610523184603B030BD0000000044
:100FE0008C0F01080C0E01080368DA0710B50446DF
:100FF00006D49B0700F1480009D500F05FFC236888
:10100000590709D51A070ED5DB0613D510BD00F018
:101010004DFC23685907F5D404F1D00000F056FCCC
:1010200023681A07F0D404F5A87000F057FC236871
:10103000DB06EBD404F5E870BDE8104000F092BC8C
:10104000036803B103441846704700BF0920704786
:10105000704700BF70B504460D4608E02B6C636115
:101060002A462369214601209847082808D1296C7F
:101070002046FFF767FF06460028EFD00EF0F8FA8B
:101080000728FBD13046296CFFF7E2FF281D00F04E
:1010900001FC00BF2DE9F0470C1D054617460FCC9B
:1010A000ADF5727D03AE0FC60FCC0FC60FCC0FC6C9
:1010B00094E80F0002ACD5F80C80D5F8189086E8BB
:1010C0000F000023236021E0236C6B614FF4F0726A
:1010D00021467AA80EF0DCFB2B697AAA2946304615
:1010E0009847889BCDE900498246636431462B4688
:1010F0002A460120C0470746F8B94FF4F0727AA992
:1011000020460EF0C5FBBAF1080F1CD1216C284611
:10111000FFF718FF002F08BF0926074618BF0A2649
:101120000028D1D0A36B46F01001CDE900492A4632
:10113000636401202B46C04700B1092738460DF5EE
:10114000727DBDE8F087BAF1070FF6D13846216C01
:10115000FFF77EFF03A800F09DFB00BF406C7047C7
:10116000F0B5CB6B0B640D1D0F4606460FCDF9B0E5
:1011700001AC0FC40FCD0FC40FCD0FC495E80F0005
:101180004FF0FF3584E80F00009506E033696A46AA
:10119000314698470828044608D110993046FFF791
:1011A000D1FE0028F2D0092079B0F0BD6846FFF7E3
:1011B0001BFF062CF7D139463046FFF74BFF00BF27
:1011C00030B4DD6BC160826119461D64002230BC01
:1011D00060E700BF70B5C66843690B64BEB90369B8
:1011E0000A4604460D46014602209847072807D0C4
:1011F000082803D129462046FFF72CFF0EF038FAC5
:101200003046296CFFF724FF281D00F043FB012224
:10121000FFF740FF0EF02CFAC2681AB1CA6B0A64DD
:10122000002237E79CE700BF704700BF836813B117
:101230000146012018477047042907D8DFE801F06C
:101240000308060808000BB90F2A03D902207047CB
:101250000120704700EB820218465368009A136021
:10126000704700BF10B584B0002303AC0A46009459
:101270001946FFF7E1FF039804B010BD042907D811
:10128000DFE801F00308060808000BB90F2A03D9AC
:10129000022070470120704700EB8200009A12681C
:1012A00042601846704700BF10B584B004AC0023FC
:1012B00044F8042D0A4600941946FFF7DFFF04B0F6
:1012C00010BD00BFF0B5D36B1364151D07460E4665
:1012D0000FCDADF50F7D17AC0FC40FCD0FC40FCDE3
:1012E0000FC495E80F004FF0FF3584E80F00169506
:1012F00010E016A8FFF7D8FF314616A8B84716AA7F
:10130000694678B9049B08209847052804460AD006
:10131000092807D026996846FFF714FE6A460C2173
:101320000028E6D0092416A8FFF75EFE20460DF53A
:101330000F7DF0BD2DE9F04F0D46C96C89B00C1D35
:10134000164600F0030B0A6806941F46002B68D06F
:10135000130CD9B212048DF81D30022304EB810462
:1013600005928DF81C302B6DBBF1020F08BFAC6BE2
:1013700013F0010346D1019300F008030093D4F861
:101380000090B9F1000F00F0F380022F45D0B4F8BF
:101390000090B4F802800434AB6C28F0010A0F21ED
:1013A00030469A44FFF75EFF824534D829F00103A6
:1013B0005344834294BF002001204FEA480808F0BC
:1013C000020809F0010948EA0908B8F1010F3AD00A
:1013D00031D3B8F1020F1AD1236823F0004ABBF1D0
:1013E000000F66D130B1009A002A6CD0BAF1000F1C
:1013F00000F09080002B00DA04340AF1010304EBC2
:101400008304BCE7304605A900F046FB78B109200B
:1014100009B0BDE8F08F0020CFE7D4F8048008348D
:10142000BAE7120203230592ADF81C309BE70820AF
:1014300009B0BDE8F08FBBF1000F02D0002840F0EA
:10144000B48004349BE7BBF1000F18D1A8B1D4E9F4
:101450000023991C4FEAD272D9D005F1580101330B
:10146000049100F0B580201DFFF7EAFD04AB0146B2
:1014700028460CF045FE002867D108347FE70D218F
:101480003046D5F82080FFF7EDFE8045F5D1AB6AF8
:101490009C42F2D12046FFF707FD0F21024630465D
:1014A000FFF702FF30462A460021FFF7FDFE072026
:1014B000AEE70D213046D5F82080FFF7D3FE8045FA
:1014C00032D0236896E7BAF1000F23D005F1580314
:1014D00004F10408CDF808B0DDF800900397A346A6
:1014E0001C4602E05745B94640D040460494FFF7F9
:1014F000A7FD04AB0146002228460CF001FE09F1CD
:10150000010708F104080028ECD0D1455C46DDE96C
:1015100002B7D6D130460D21FFF7A4FE049B286206
:10152000C5E90934062073E7AB6A9C42C9D104229D
:101530004FF00008A318C5E90AA8C5E90C232368E1
:1015400043454DDB0123019357E780460D2130468B
:10155000FFF788FEB8F1020F28623ED12B46049AAD
:1015600043F82C2F6B62AC62062051E75C46D1E752
:1015700005A9304600F090FA00287FF448AF019B9F
:10158000002B3FF454AF0F213046FFF76BFE0E21C6
:1015900002463046FFF788FE30461A4A0F21FFF711
:1015A00083FE072009B0BDE8F08F2046FFF77CFCE2
:1015B00004340746AC6328460CF000FE00283FF4D4
:1015C00026AF30463A460F21FFF76EFE07201FE791
:1015D00030460D21FFF746FE2862049B6B62C2E78E
:1015E0000AF1010004EB8000FFF75EFC0F210246C8
:1015F0003046FFF759FE30462A464146FFF754FE73
:10160000072005E7B7E30008002393E6012391E6EE
:1016100002238FE62DE9F0410546C4B0042906D81F
:10162000DFE801F04D2B05030900032B5FD00220FA
:1016300044B0BDE8F081002BF9D1102AF7D82B680F
:10164000DC0600F1F48022AC2046019200F094F90F
:10165000A86B019A0023012606FA03F1114203D078
:10166000016844F8231004300133042BF4D1A8633B
:10167000204600F077F90020DAE7012B4FEA124606
:1016800097B252D0052BD2D106EB0708B8F1200F44
:10169000CDD80F2E40F29980B846002F40F0DB8065
:1016A000AA6BAA630F2E40F2BE80B8F1000F02D0E1
:1016B00002A800F00BF9002044B0BDE8F081002B37
:1016C000B5D1AC6B97B2281D012606FA03F1394259
:1016D00003F1010302D0216801600434102B00F1F2
:1016E0000400F2D112F40050E5D1AC63A0E7160C6F
:1016F00097B2F319102B9AD82B681A075DD422AC35
:10170000204600F00DF904EBC601AB6B3FB103EBD3
:10171000C702186841F8040B04339342F9D12046FC
:10172000AB6300F0DBF8002082E7F219102A3FF6E5
:101730007EAF0F2E3FF67BAF2A68D10708D528462B
:1017400022F0030240F8482B019300F0B3F8019B0C
:10175000019322AC204600F0ADF8A96B019B002F4D
:1017600000F095807F0004EBC6044FF00008043CB5
:1017700001EB870251F8040B44F8040F9142F9D1B0
:10178000B8F1000F0FD002AC102E314638BF102137
:1017900004EBC101843902EBC80452F8040B41F890
:1017A000040F9442F9D1012B7FF47BAF22AC0432B9
:1017B000AA63204600F07AF87DE723F008032B6047
:1017C00005F5A87000F0ACF899E7B8F1100F2A6899
:1017D00043D9D007A8F110080BD5284622F0010202
:1017E00042F0020240F8482B019300F06BF82A689F
:1017F000019B510725D40F2E04D822A8019300F095
:1018000061F8019B019302AC204600F063F8C6F139
:1018100010010029AA6B019BB6DD22AC4F0004EB3E
:10182000C6041146A3E722A800F048F83DE723F0DC
:1018300010032B6005F5E870019200F09DF8019A05
:1018400001E7284622F0040240F8D02B019300F073
:1018500041F8019BCFE72A68CBE7D0070AD5284695
:1018600022F0010242F0020240F8482B019300F0FE
:1018700029F8019B019322AC204600F023F8B846DA
:10188000A96B019B002F7FF46DAF0A4609E70A465A
:101890008DE700BF00F1340191E838009C46A64670
:1018A0004CF8045D90E8FF0FE54600BD90EC210B7D
:1018B000704700BF80EC210B704700BF90EC200BFD
:1018C000704700BF80EC200B704700BFD0EC200BAE
:1018D000704700BFC0EC200B704700BFF0EC020166
:1018E000F0EC0211F0EC0221F0EC0231F0EC0241DC
:1018F000F0EC0251F0EC0261F0EC0271F0EC0281CC
:10190000F0EC0291F0EC02A1F0EC02B1F0EC02C1BB
:10191000F0EC02D1F0EC02E1F0EC02F1704700BF14
:10192000E0EC0201E0EC0211E0EC0221E0EC02311B
:10193000E0EC0241E0EC0251E0EC0261E0EC02710B
:10194000E0EC0281E0EC0291E0EC02A1E0EC02B1FB
:10195000E0EC02C1E0EC02D1E0EC02E1E0EC02F1EB
:10196000704700BFB0FC0181B0FC0191B0FC01A147
:10197000B0FC01B1704700BFA0FC0181A0FC019147
:10198000A0FC01A1A0FC01B1704700BFEC4600B56E
:101990002DE900502DE9FF1F4FF000032DE90C0049
:1019A00001A9FFF7DDFBDDF840E012B0704700BF92
:1019B000EC4600B52DE900502DE9FF1F4FF0000364
:1019C0002DE90C0001A9FFF705FCDDF840E012B09D
:1019D000704700BFEC4600B52DE900502DE9FF1F10
:1019E0004FF000032DE90C0001A9FFF715FCDDF80D
:1019F00040E012B0704700BFEC4600B52DE9005042
:101A00002DE9FF1F4FF000032DE90C0001ABFFF79C
:101A1000D7FBDDF840E012B0704700BFEC4600B5E0
:101A20002DE900502DE9FF1F4FF000032DE90C00B8
:101A300001AAFFF747FCDDF840E012B0704700BF95
:101A4000027A82B9437AABB14268013B10B4437267
:101A500013680321141D01721A02446002605DF8CC
:101A6000044B180E70470368013A02721A020260B2
:101A7000180E7047B020704700B585B003AA002348
:101A8000009219460C22FFF7D7FB039805B05DF8CA
:101A900004FB00BFF0E700BF2DE9F043054685B029
:101AA0000E464FF000083046FFF7CAFFB028044644
:101AB00000F0B180070620D500F0F003802B65D040
:101AC000902B36D0A02B78D0B02B47D0C02B00F075
:101AD0008A8000F0F803D02B0BD100F0070201320E
:101AE00042F40022052301212846FFF793FD002838
:101AF000D9D0092005B0BDE8F0830DF10C09002311
:101B000019468700CDF800900D222846FFF794FB78
:101B1000FFB2039BCDF80090043760064CBFDF1B7B
:101B2000FF18002319460D2228460397FFF7A6FB4E
:101B3000B9E700F00D030D2BDBD003AF002300F05D
:101B40000F02194600972846FFF776FB00230097FF
:101B500019460D222846FFF791FBA4E7B1285FD074
:101B6000B22800F0CC80B3287ED000F0FC03B42B68
:101B7000BFD000F007020132012342F400221946CF
:101B80002846FFF747FD00288DD0B2E73046FFF723
:101B900057FF24020443B4F5004FAAD024010023C8
:101BA000A2B219462846FFF735FD0028A1D114F44A
:101BB000004F18BF4FF0010875E7C24302F007035A
:101BC0004FF47F621A41010702F47F624FF0000375
:101BD00048BF42F4804219462846FFF71BFD002803
:101BE0003FF461AF85E7C62851D0C7285AD000F02E
:101BF000F803C02B69D0C82875D0C9287FF479AF05
:101C00003046FFF71DFF020300F00F0002F47022C0
:101C10000130024366E7B8F1000F14D0002069E7F5
:101C20003046FFF70DFF00283FF463AF10F0F003DC
:101C30007FF45FAF024619462846FFF7EBFC002809
:101C40003FF431AF55E703AC43460E2241460094C2
:101C50002846FFF7F1FA0094284643460F224146F2
:101C6000FFF70CFB404645E73046FFF7E9FE01036E
:101C700000F00F0001F47021421C01230A432846A2
:101C80001946FFF7C7FC00283FF40DAF31E7304697
:101C9000FFF7D6FE010300F00F0001F47021421C93
:101CA0000323EBE73046FFF7CBFE024600283FF464
:101CB00020AF10F0F0037FF41CAF04212846FFF79B
:101CC000A9FC00283FF4EFAE13E700F00F02013249
:101CD000032342F4202219462846FFF79BFC0028E4
:101CE0003FF4E1AE05E73046FFF7AAFE00F0F00250
:101CF00000F00F031032013343EA0232F2E6002310
:101D00000DF10C090D221946CDF800902846FFF779
:101D100093FA3046FFF794FE02064FF002070CD507
:101D2000039B00F07F00B840034430460393FFF765
:101D300087FE030607F10707F2D4039BCDF8009056
:101D400000F07F0403F50172BC40002314441946DF
:101D50000D2228460394FFF791FAA4E610B5C36C50
:101D600084B05A6803208DF80C00DC798DF80D40A2
:101D700012020833084601A901920293FFF78CFE74
:101D800004B010BD08B5FFF785FE806C08BD00BF2C
:101D900008B5FFF77FFEC06CC37900EB8300083005
:101DA00008BD00BF08B50DF063FC00BF08B5FFF724
:101DB000F9FF00BF704700BF0A4B10B50446186812
:101DC00018B183690BB90DF0A5FC132C07D8064890
:101DD00050F83430013302D000EBC40010BD0020B5
:101DE000FCE700BF40000020484E0120F8B5431C2E
:101DF000054609D10DF048FC13240646002720466D
:101E00003946ABBE044634602846F8BDF8B50546F1
:101E10000DF03AFC13240646002720463946ABBE97
:101E2000044634602846F8BD30B585B0CDE90101DF
:101E30000392062401AD20462946ABBE0446204647
:101E4000FFF7D4FF05B030BD70B50E461546FFF75D
:101E5000B3FF044630B90DF017FC092303604FF0BF
:101E6000FF3070BD2A4631460068FFF7DDFF431C96
:101E70001FBF6368281A1B186360F2E7F7B50C46AA
:101E80001646FFF799FF054640B90DF0FDFB092303
:101E900003604FF0FF34204603B0F0BD022E03D99B
:101EA0000DF0F2FB1623F3E7012E12D14368E4187C
:101EB000F6D42B680A26CDE900346F463046394601
:101EC000ABBE06463046FFF791FF0028E1DB6C60B1
:101ED000E1E7022EEDD102AF036847F8083D0C267A
:101EE00030463946ABBE06463046FFF77FFF431CFF
:101EF000CFD00444DDE7FFF7C1BF30B585B0CDE9F1
:101F000001010392052401AD20462946ABBE0446DB
:101F10002046FFF76BFF05B030BD70B50E46154685
:101F2000FFF74AFF044630B90DF0AEFB092303600A
:101F30004FF0FF3070BD2A4631460068FFF7DDFFE5
:101F4000021EF5DB6368A81A0344AA426360F1D15C
:101F50000020BDE87040FFF759BF37B502AD02243D
:101F600045F8040D20462946ABBE04462046FFF73F
:101F70003DFF03B030BD000038B50546FFF71CFF3C
:101F8000044630B90DF080FB092303604FF0FF30A9
:101F900038BD013D012D09D8094B9A681B699A4249
:101FA00004D14FF0FF3303600020F1E72068FFF712
:101FB000D4FF0028ECD14FF0FF332360E8E700BFE7
:101FC000484E0120012070470D4B196810B502469C
:101FD00009B90C4919601868694602448A4206D852
:101FE00009490A4C0968A14208D08A4206D90DF075
:101FF0004BFB0C2303604FF0FF3010BD1A60FCE771
:10200000384E01209864012028000020ADDEFECA71
:1020100070B50C46FFF7D0FE064630B90DF034FB24
:10202000092303604FF0FF3070BD636843F4005331
:1020300063604FF4806363640C2528463146ABBE71
:1020400005462846FFF7D2FE431C1CBF2061002036
:10205000EAE70B4610B500210446582218460DF059
:1020600022FC01462046BDE81040FFF7D1BF38B53D
:102070000D4604465822002128460DF014FC204647
:10208000002100F011F8431C04460BD06B6843F4A8
:1020900001436B602946FFF7BBFF05462046FFF76B
:1020A0006BFF2C46204638BD2DE9F0472B4B96B0F0
:1020B00082460E460025984653F83540611C4FEA8B
:1020C000C50736D00135142DF6D10DF0DDFA1823F1
:1020D00003604FF0FF343CE0C6F3004440F201637C
:1020E000B20748BF44F002041E4218BF44F0040483
:1020F000330748BF24F00404504648BF44F00804A6
:10210000CDF800A0FEF78EF8CDE90140012420466D
:102110004946ABBE0446002C06DB4744002348F882
:1021200035407B602C4614E02046FFF76FFE0446E6
:102130000FE006F42063B3F5206FE946CCD14946A1
:102140005046FFF794FF0130C6D00DF09DFA1123E1
:102150000360204616B0BDE8F08700BF484E01205E
:102160002DE9F74307468846294800211546FFF721
:102170009BFF2A460446002138460DF094FB631C61
:1021800015D02046FFF718FE0C26814630464946FA
:10219000ABBE06463046FFF729FE032802DD0338B2
:1021A000A84208DC2046FFF7E7FE4FF0FF34204648
:1021B00003B0BDE8F08304220DEB02012046FFF7D7
:1021C00043FE0328EEDD9DF80430532BEAD19DF841
:1021D0000530482BE6D19DF80630462BE2D19DF81C
:1021E0000730422BDED1012241462046FFF746FE52
:1021F0000028D7DB2A4639462046FFF725FE05464C
:102200002046FFF7B9FE2846FFF7F0FD0446CEE76B
:102210007805010837B50A4D0A4C0021012201A8B2
:1022200029602260FFF79CFF002807DD9DF804303D
:1022300003F0010203F002032A60236003B030BD03
:102240002C0000203000002010B5044C2268002A29
:1022500001DAFFF7DFFF206810BD00BF300000206B
:102260002DE9F04F85B0DFF8B090CDF8049003234E
:10227000002403930DF104080294012528464146E9
:10228000ABBE0546204E214A356023464FF0FF3154
:10229000144642F833100133142BFAD1FFF7D4FF60
:1022A0001B4DD0B14FF0030A0423CDF80490012751
:1022B000CDF80CA0029338464146ABBE8346154B81
:1022C000CDF80490C3F800B00823CDF80CA0029319
:1022D00038464146ABBE07462F602B68013302BF2C
:1022E0000C4B1B682B603368236000266660FFF789
:1022F000ABFF30B1074B1B68C4E902362B68C4E959
:10230000043605B0BDE8F08F404E0120484E012054
:102310003C4E0120444E01208E05010870B5FFF7A8
:102320004BFD0925044620B90DF0AEF905602046A5
:1023300070BD28462146ABBE0446012CF7D00DF0F7
:10234000A3F900240646132528462146ABBE0546C0
:102350003560ECE7024B58639963DA63704700BF5E
:102360000004014038B50546002407E0002211466C
:102370001046FFF7EFFF642003F03EFD640801D133
:102380004FF000442C42F1D000221146FF20FFF70D
:10239000E1FFF0E700B591B002A800F02EF90121AD
:1023A00002A800F03DF9702102A800F03FF948B101
:1023B0000DF1070000F074F948B19DF8070011B065
:1023C0005DF804FB4FF2FF20FFF7CCFFF0E74FF280
:1023D000FD20FFF7C7FFF0E730B59DB00EA800F075
:1023E0000CF906210EA800F021F9034610B9184691
:1023F0001DB030BD684600F000F90EAD6C460FCC44
:102400000FC50FCC0FC50FCC0FC594E8030085E8AE
:10241000030001210EA800F003F901231A4605214B
:102420000EA800F011F90346E1E700B58FB0684649
:1024300000F0E3F80621684600F0F8F80FB05DF808
:1024400004FB70B58EB006460C461546684600F093
:10245000D4F83146684600F0DBF82946684600F0BB
:10246000DFF80321684600F0E1F828B1204600F0CB
:1024700017F930B10EB070BD4FF2FF20FFF772FFB9
:10248000F4E74FF2FD20FFF76DFFF3E770B59CB066
:1024900006460C461546FFF79FFF0EA800F0ADF864
:1024A00031460EA800F0B4F829460EA800F0B8F89E
:1024B00002210EA800F0BAF820B3204600F0E2F89E
:1024C00028B3684600F099F80EAD6C460FCC0FC5E6
:1024D0000FCC0FC50FCC0FC594E8030085E80300AF
:1024E00001210EA800F09CF80123072270210EA8FC
:1024F00000F0AAF880B1FFF74DFF10F0100F10D1D7
:102500001CB070BD44F6FF70FFF72CFFD5E744F612
:10251000BF70FFF727FFD4E74EF2BD70FFF722FF31
:10252000E9E7FFF782FF44F6BD70FFF71BFFE7E71F
:10253000F8B505460F461646C4B20AE0C4F58074E5
:10254000224639462846FFF7A1FF27442544361B7B
:1025500000243319B3F5807FF0D832463946284637
:10256000FFF794FFF8BD30B59DB004460D46FFF768
:1025700033FF0EA800F041F829460EA800F048F8F5
:1025800021460EA800F052F800B3684600F035F876
:102590000EAD6C460FCC0FC50FCC0FC50FCC0FC5C1
:1025A00094E8030085E8030001210EA800F038F844
:1025B0000123072270210EA800F046F858B1FFF75A
:1025C000E9FE10F0200F0BD11DB030BD4EF2FF70B0
:1025D000FFF7C8FED9E74EF2BD70FFF7C3FEEEE786
:1025E000FFF723FF4EF2BD70FFF7BCFEECE708B526
:1025F00001462020FFF7B7FF08BD10B5044638227A
:1026000000210DF050F94FF48073A361204610BDF6
:102610004FF48063C3614FF40053C360416070475F
:102620004FF08073436281627047000008B501601B
:102630004FF4FA620146034804F0CCFCB0FA80F093
:10264000400908BDD859012030B587B00024049452
:1026500001240394102502954FF4800505959340BD
:1026600000939440019401604FF4FA636A46014676
:10267000034804F0FBFCB0FA80F0400907B030BD1D
:10268000D859012008B54FF4FA620146034804F016
:10269000B4FDB0FA80F0400908BD00BFD859012050
:1026A00008B54FF4FA620146034804F00EFEB0FA92
:1026B00080F0400908BD00BFD85901200130B0FBAF
:1026C000F1F301FB1300704770B584B06C4684E8E9
:1026D0000F00104E3368104D05EB031594E80F0002
:1026E00085E80F0030684021FFF7E8FF306032686E
:1026F00073689A4201D004B070BD70684021FFF742
:10270000DDFF70603223002219460448006800F0A3
:1027100045FCF0E72C0200205C4F01200000002067
:1027200070B58AB0064600240594069401230793E9
:102730000094019402940394049408930E23099343
:102740000F4D6946284603F011FC284603F0A4FC0F
:102750000221284603F07BFD0A4B1E605E60DC60B0
:102760009C6008221A611C7500F0FEFB064B186085
:1027700023460A22214600F011FC0AB070BD00BFBA
:10278000F8580120284F01200000002010B5094B07
:102790001C685B68E41A02D41CB1204610BD4034AA
:1027A000FAE700230A2219460348006800F0F6FB06
:1027B000F3E700BF2C0200200000002038B50446DB
:1027C0000023036043608360C360FFF7DFFF60B1F5
:1027D000074D6A68074B03EB02130FCB84E80F0029
:1027E00068684021FFF76AFF6860204638BD00BF77
:1027F0002C0200205C4F012070B500211C4803F022
:1028000013FD054608B9284670BD1A4C1A4E2346DA
:1028100032460021164803F06DFC184B0021196068
:102820001A68207802EB00621A601A68607802EB7E
:1028300000421A601A68A07802EB00221A601A6837
:10284000E07802441A6022791A7199609A68617975
:1028500002EB01429A609A68A17902EB01229A6028
:102860009A68E1790A449A603268DA60CBE700BF7F
:10287000F8580120204F0120404F01200C4F01202B
:1028800008B5FFF7B9FF024B0FCBFFF71DFF08BDDF
:102890000C4F0120062800D870470720FCE784B0C1
:1028A00000B583B00DF1100C8CE80F00089B00936D
:1028B0009CE80F0001F0E0F903B05DF804EB04B010
:1028C0007047000084B030B585B008AC84E80F00D4
:1028D0000F4A13680133136003F00703C3EBC3030C
:1028E0009A000C4C144408AD0FCD0FC495E80700B6
:1028F00084E807000CAB93E807008DE8070008ABFD
:102900000FCB01F0F7F905B0BDE8304004B07047D7
:10291000B44C00205C53012084B030B583B006ACC9
:1029200084E80F000798FDF7E9FD33A3D3E90023FE
:10293000FDF766FF9FED2C1B41EC100B0BF098FD93
:1029400053EC102B00202E49FDF778FC28A3D3E987
:102950000023FDF72BFEFEF7D9F80890DDED097A8C
:10296000F5EEC07AF1EE10FA1CDD17EE900AFDF7D5
:10297000C5FD21A3D3E90023FDF742FF9FED1A1BFC
:1029800041EC100B0BF074FD53EC102B00201C4994
:10299000FDF754FC16A3D3E90023FDF707FEFEF76D
:1029A000B5F80A90174A13680133136003F0070360
:1029B00003EB83039A00144C144406AD0FCD0FC4EF
:1029C0002B68236003F012FA104B18600A9B0093E7
:1029D00006AB0FCB01F0D2F903B0BDE8304004B034
:1029E000704700BFAFF30080EBE2361AC05BC83F10
:1029F0000000000040A5E540CDCCCCCCCCD48F402D
:102A00000000F03FB04C00203C540120AC4C0020B2
:102A1000014B93ED000A704734020020014B93ED07
:102A2000010A70473402002070B5ADF5187DE02230
:102A300000215CA80CF037FFA0242246002134A816
:102A40000CF031FF224600210CA80CF02CFF0025D1
:102A50000A950B9508950995069507950495059592
:102A60004FF4FA7008F037FAABE194A8FFF7A6FE2E
:102A70009798FFF70FFF9DF85432322B00F2A18197
:102A8000DFE813F033006600760086009900A500A9
:102A9000B100BD00D600E600F600FE00460056007C
:102AA0009F019F019F012C019F019F019F019F0199
:102AB0009F019F019F019F019F019F019F019F0116
:102AC0009F019F019F019F019F019F019F019F0106
:102AD0009F019F019F019F0114019F019F01200100
:102AE0009F019F019F019F010A01DDED947AF8EE9D
:102AF000E77ADFEDB76A87EEA67A00EB80029300F3
:102B000034AA134483ED017A08AB01221A5458E128
:102B1000DDED947AF8EEE77ADFEDAD6A87EEA67A1E
:102B200000EB8000830034AA134483ED007A48E16F
:102B3000DDED947AF8EEE77ADFEDA56A87EEA67A06
:102B400000EB8000830034AA134483ED037A38E15C
:102B5000DDED947AF8EEE77ADFED9E6A87EEA67AED
:102B6000C0EBC000830098AA134403ED3C7A28E12F
:102B7000DDED947AF8EEE77ADFED966A87EEA67AD5
:102B8000C0EBC000830098AA134403ED3B7A18E120
:102B9000DDED947AF8EEE77ADFED8E6A87EEA67ABD
:102BA000C0EBC002930098AA134403ED3A7A06AB37
:102BB00001221A5405E1DDED947AF8EEE77AC0EBD4
:102BC000C000830098AA134443ED397AF9E0DDEDA3
:102BD000947AF8EEE77AC0EBC000830098AA134419
:102BE00043ED387AEDE0DDED947AF8EEE77AC0EB6C
:102BF000C000830098AA134443ED377AE1E0DDED8D
:102C0000947AF8EEE77A00EB800293000CAA134462
:102C1000DFED706A87EEA67A83ED007A0AAB1B5C63
:102C2000002B40F0CE800AAB01221A541544C8E0B4
:102C3000DDED947AF8EEE77A00EB800083000CAAD1
:102C40001344DFED656A87EEA67A83ED017AB8E07A
:102C5000DDED947AF8EEE77A00EB800083000CAAB1
:102C60001344DFED5D6A87EEA67A83ED027AA8E071
:102C700000EB800083000CAA1344949ADA60A0E071
:102C80009DF8501200EB800293000CAA13441974B3
:102C900004AB01221A5494E09DF850124F4B197066
:102CA0009FED4F0A002001F0ABF88AE0DDED947A49
:102CB000F8EEE77ADFED476A87EEA67A494B83EDB7
:102CC000007A7EE0DDED947AF8EEE77ADFED416A96
:102CD00087EEA67A434B83ED017A72E0949A424BD9
:102CE0001A606EE00AAB1B5D3BBB002D25DD08AB17
:102CF0001B5D002B3ED106AB1B5D002B49D101347F
:102D0000072C5BDC04AB1B5D002BF0D004EB8402D2
:102D100093000CAA1344D868FDF7DEFB0022334B66
:102D2000FDF7ACFE0028DDD00AAB1B5D002BD9D02F
:102D3000013D0AAB00221A55D4E704EB840293004C
:102D40000CAA13441A6900920FCBFFF7A8FD0028C4
:102D5000CDD0A200224493000CAA1344244A1A6046
:102D60005A609A604FF0FF32DA6000221A7404ABA6
:102D70001A55BCE704EB8402930034AA13441A6981
:102D800000920FCBFFF7C8FD80F0010008AB18558B
:102D9000B1E7C4EBC402930098AA1344A3F1F00670
:102DA000E03B93E807008DE8070096E80F00FFF787
:102DB00089FD80F0010006AB1855A0E70A2008F055
:102DC0008AF8FFF7E3FC00287FF44FAE002497E772
:102DD0000000C84200007A4400247449BC4C002022
:102DE0000000000034020020040000200000F0BFBA
:102DF000000080BF10B5044600F084FC844204D07B
:102E000000F0A8F8844203D010BD00F05FFCFBE79F
:102E100000F08AF8F8E708B500F0CEFC00F080FC7E
:102E200008BD0000F0B5A5B0264C1DAD26460FCE5E
:102E30000FC596E8070085E8070000211DA808F0E7
:102E400014F8214B186016AD04F11C060FCE0FC507
:102E500096E8070085E80700002116A808F005F8A5
:102E60001A4F38600FAD04F138060FCE0FC596E843
:102E7000070085E8070000210FA807F0F6FF38607B
:102E8000134801F007F808AD04F154060FCE0FC542
:102E900096E8070085E80700002108A807F0E5FF8D
:102EA0000C4B186001AD70340FCC0FC594E80700CF
:102EB00085E80700002101A807F0D7FF064B18603E
:102EC00025B0F0BD50020108E8540120E45401206F
:102ED000605F0120EC54012004550120114B1A6859
:102EE00001321A601B797BB90D280ED00A280CD04C
:102EF0000C4B5B7943B10B4A936801339360012B10
:102F000009D0084B00225A717047064B01225A71B2
:102F100000229A6070474F28F6D1134601221A7199
:102F2000704700BFC402002008B507E0084BDA680C
:102F3000511CD9601344187CFFF7D0FF044BDB68A9
:102F40003F2BF3D9024B00221A65DA6008BD00BF9F
:102F5000C4020020014B1868704700BF0C550120C7
:102F600008B5FFF77DF908BD4FF0500383F31188D2
:102F7000BFF36F8FBFF34F8F074B1B681F2B07DC0F
:102F8000054B1868421C1A60002383F311887047B0
:102F90004FF0FF30704700BF6403002000280FDBB4
:102FA00010B4084C2468844207DD064C04EB400052
:102FB0008180A0F84420A0F884305DF8044B70476D
:102FC000704700BF64030020024B58639963DA63C3
:102FD000704700BF0004014008B5134B1A6A42F065
:102FE00004021A621A6A42F040021A621A6A42F431
:102FF00080621A625A6C42F480425A641A6842F043
:1030000001021A6003F57C4380229A6103F5806314
:103010004FF480429A614FF400429A6100221146B7
:103020001046FFF7D1FF08BD0004014010B5FFF7BF
:10303000D3FF002232215020FFF7C6FF4FF47A70F1
:1030400007F049FF002211461046FFF7BDFF64203C
:1030500007F041FF1EE0104B03EB44039888B3F8E0
:103060004410B3F88420FFF7AFFF4FF4967007F0D9
:1030700032FF002211461046FFF7A6FF642007F03A
:103080002AFF0134044B1B68A342E4DC4FF4FA70BE
:1030900007F021FF0024F5E76403002000220270FE
:1030A0004270828082600273028242610276828371
:1030B000026280F824200285C26280F8302080F805
:1030C000382080F83920C26380F8482080F84920F1
:1030D000C26480F8582080F85920026680F8682081
:1030E00080F86920026780F8782080F87920C0F89D
:1030F000802080F8882080F88920C0F8902080F80F
:10310000982080F89920C0F8A02080F8A82080F8A6
:10311000A920022180F8B91080F8BA2080F8BB20DD
:1031200080F8BC20C0F8C020C0F8C420C0F8C82077
:10313000C0F8CC20C0F8D020C0F8D42080F8AA2055
:103140007047A1F14103DBB2052B07D9A1F161035F
:10315000DBB2052B05D9A1F130007047A1F1370092
:103160007047A1F15700704738B5044605782D2DFA
:103170000CD020460CF083FA642303FB00F0237884
:10318000A3F13002092A03D80134F8E70134F0E74B
:103190002E2B02D02D2D10D038BD6378A3F1300234
:1031A000092AF7D802EB82035A001044A378A3F14E
:1031B0003002092AEED81044ECE74042ECE7000068
:1031C00038B504460D460CF05AFA184AA2FB0032F4
:1031D0005309642101FB130399B2154B03FB01F35F
:1031E000C2F34F122A802278A2F13001092901D8B6
:1031F0000134F8E72E2A0AD003EB830301330D4A8A
:10320000A2FB03235B086B6000232B7238BD0849C7
:1032100014F8012FA2F130000928EDD80648A0FBD0
:103220000101C908303A01FB0233F1E71F85EB5178
:1032300080969800ABAAAAAACDCCCCCC10B50446F7
:10324000034653F81C0F59686060A1601B7A237312
:10325000234653F8280F5968206161611B7A237651
:1032600002F0C4FD606301236370237010BD08B5D4
:103270000B4600F11C011846FFF7A2FF08BD08B578
:103280000B4600F128011846FFF79AFF08BD10B55C
:1032900004468368436002F0A9FDE0600123637087
:1032A000237010BD10B504468368436002F09EFD94
:1032B000E06001236370237010BD10B5044608461A
:1032C000FFF752FFA06010BD10B5044608460CF091
:1032D000D6F9A06010BD10B50446C368836002F043
:1032E00085FD606001236370237010BD10B5044636
:1032F0000846FFF739FFE06010BD10B50446C3680B
:10330000836002F073FD606001236370237010BD61
:1033100010B5044608460CF0B2F9E06010BD10B5D7
:103320000446014610300CF06AFC02F05FFD20629A
:10333000012384F8253084F8243010BD08B510220C
:103340000CF065FC08BD0000F8B5044690F8A960D3
:10335000002E6AD090F8AA10FFF7F3FE0001C5B264
:1033600094F8AB102046FFF7ECFE55FA80F0C0B29F
:1033700094F8A830834207D0D4F8D0300133C4F891
:10338000D03000263046F8BDD4F8D4300133C4F82C
:10339000D43094F8BC3023B1D4F8CC300133C4F825
:1033A000CC3094F8B930C3B1012B25D104F13800E9
:1033B000FFF76DFF04F14800FFF774FF94F8BC308D
:1033C000D3B12046FFF73AFF04F15800FFF783FF1F
:1033D00004F16800FFF77FFF0EE004F14800FFF7FB
:1033E00061FF94F8BC30C3B904F18800FFF785FF92
:1033F00004F19800FFF76FFFD4F8C450002DC1D03E
:10340000D4F8C430996AA86AFCF702FF0028B9D141
:103410002846FFF784FF2D6BF0E72046FFF70EFFED
:1034200004F17800FFF757FFDEE790F8BA30002B81
:103430003FD100F1AA0766493846FCF7E9FE20B102
:1034400064493846FCF7E4FE98B9012384F8B930A2
:10345000D4F8C030C4F8C430D4F8C450DDB1394613
:10346000A86AFCF7D5FE002815DA2B6BC4F8C43027
:10347000F2E759493846FCF7CBFE20B157493846A8
:10348000FCF7C6FE18B9002384F8B930E0E7022340
:1034900084F8B930DCE7002D3FF474AF3946A86AF0
:1034A000FCF7B6FE00287FF76DAF0023C4F8C430E8
:1034B00068E790F8B920022A23D090F8AA1001B347
:1034C00043EA4213013B282B1BD8DFE803F0152405
:1034D0002930354E555B611A1A1A1A1A1A1A1A1A15
:1034E0001A1A1A1A1A1A1A1A1A1A1A1A1A1A151D3E
:1034F000242930353C42480000F1AA014830FFF74A
:10350000DCFED4F8C4504AE0412914BF0021012157
:1035100080F8BC10F5E700F1AA01FFF7A8FEF0E77C
:10352000532914BF0021012180F82410E9E700F19C
:10353000AA01FFF7A4FEE4E7572914BF00210121E7
:1035400080F83010DDE700F1AA015830FFF7CEFE19
:10355000D7E700F1AA016830FFF7C8FED1E700F114
:10356000AA013830FFF7B0FECBE7302994BF002125
:10357000012180F8BC10C4E700F1AA018830FFF7F0
:10358000C7FEBEE700F1AA019830FFF7AFFEB8E72B
:1035900000F1AA017830FFF7A9FEB2E72D6B002DEC
:1035A0003FF4F0AED4F8C430996AA86AFCF730FE54
:1035B00000287FF4E7AEEA6A94F8BA309A423FF7FF
:1035C000E1AEEBD104F1AA012846FFF7B7FEE5E72B
:1035D000DC050108E4050108EC050108F405010813
:1035E00038B50446D0F8C8200132C0F8C820A1F18F
:1035F0000A02222A44D8DFE802F017434317434364
:10360000434343434343434343434343434343438A
:10361000434343433443434343431743120090F827
:10362000A8204A4080F8A8200D4694F8BB300E2B05
:103630000FD9002094F8BA30013384F8BA3000234F
:1036400084F8BB302A2D14BF0021012184F8A91071
:1036500038BD2344002283F8AA202046FFF774FED9
:10366000E8E7002084F8BB0084F8BA0084F8A800DA
:10367000022284F8B92084F8A90084F8BC00E7E7A6
:1036800090F8BB200D2A05D8501C84F8BB002244BA
:1036900082F8AA1094F8A90028B994F8A8205140FB
:1036A00084F8A810D4E70020D2E70000012800D059
:1036B000704708B54FF6FF73994200D008BD024825
:1036C000FFF7ECFCFAE700BF2804002008B50C4B1C
:1036D000D3F8E431FF2B0BD80948D0F8E4315A1C59
:1036E000C0F8E421034493F8E010FFF779FFEEE718
:1036F000034B0022C3F8E021C3F8E42108BD00BF5A
:1037000028040020014BD3F8D8007047280400207B
:1037100008B54FF6FF710120FFF7C8FF08BD000094
:1037200010B503220021012008F050F90A4C206056
:1037300003220021012008F049F9606003220021E2
:10374000012008F043F9A06003220021012008F0C5
:103750003DF9E06010BD00BF1006002008B50CF078
:10376000AFF908BD10B50D4C0D49204609F076FAA9
:103770004FF480534FF080720A49204609F08EFAC8
:10378000094B0A4A0A49204609F072FA204609F014
:1037900037FB084B01221A7010BD00BF300A002011
:1037A0005D3700083C060108EF25000831250008B8
:1037B000432400082C0A002008B500214FF4807033
:1037C00008F050F9014B186008BD00BF1C4C0020E8
:1037D00070B5FFF7C9FB064605E00023AA22FF21CA
:1037E0003046FFF7DBFB0B4C20684FF0FF3108F051
:1037F00083FB09480CF064F96368DA6862609D68CD
:103800005A6818689047A8476368002BE5D1A268FA
:103810006260E2E71C4C00204806010880EA212093
:10382000034B33F9100080EA012080B2704700BFDB
:10383000DC020108C04380B2704710B403895C1CED
:103840008288944202DC02680481D1545DF8044B02
:10385000704770B50546144617318180402007F047
:10386000BFFC286030B300232B8121462846FFF798
:10387000E4FF45212846FFF7E0FF50212846FFF7E7
:10388000DCFF46212846FFF7D8FF4C212846FFF7EA
:10389000D4FF4FF6FF73EB802E89741F24B2B4421D
:1038A0000ADA2B68E988185DFFF7B8FFE880013471
:1038B00024B2F4E7AB882B81284670BD2DE9F04196
:1038C00080460D4617242E893746B44208DA2B6805
:1038D000E988185DFFF7A2FFE880013424B2F2E71F
:1038E000E888FFF7A7FFE8800237AB889F4205DC36
:1038F0002B6840BA98532B8902332B812B68C8F868
:103900000030AB88A8F804304046BDE8F0810000E4
:10391000F0B585B005460C4616461F460A9B0322A5
:10392000282101A8FFF795FFBDF80C20111DBDF857
:103930000830994207DC3FBA019B9F50BDF80C301C
:103940000433ADF80C30604A1368591C1160BDF89F
:103950000C20101DBDF80810884207DC1BBA019925
:103960008B50BDF80C300433ADF80C302268BDF834
:103970000C30181DBDF80810884207DC12BA0199F6
:10398000CA50BDF80C300433ADF80C306268BDF895
:103990000C30181DBDF80810884207DC12BA0199D6
:1039A000CA50BDF80C300433ADF80C30A268BDF835
:1039B0000C30181DBDF80810884207DC12BA0199B6
:1039C000CA50BDF80C300433ADF80C30E268BDF8D5
:1039D0000C30181DBDF80810884207DC12BA019996
:1039E000CA50BDF80C300433ADF80C302269BDF874
:1039F0000C30181DBDF80810884207DC12BA019976
:103A0000CA50BDF80C300433ADF80C306269BDF813
:103A10000C30181DBDF80810884207DC12BA019955
:103A2000CA50BDF80C300433ADF80C303268BDF824
:103A30000C30181DBDF80810884207DC12BA019935
:103A4000CA50BDF80C300433ADF80C307268BDF8C4
:103A50000C30181DBDF80810884207DC12BA019915
:103A6000CA50BDF80C300433ADF80C30FEF7D6FF69
:103A700010EE102ABDF80C30181DBDF80810884251
:103A800007DC12BA0199CA50BDF80C300433ADF806
:103A90000C30FEF7BDFF10EE103ABDF80C20101DE3
:103AA000BDF80810884207DC1BBA01998B50BDF89D
:103AB0000C300433ADF80C3001A92846FFF7FEFEA8
:103AC000284605B0F0BD00BF284C002082B010B5DC
:103AD00084B0044606A880E80C000B4601221121A0
:103AE00001A8FFF7B6FE02F081F9BDF80C30191DF0
:103AF000BDF80820914207DC00BA019AD050BDF809
:103B00000C300433ADF80C30304A1368591C116086
:103B1000BDF80C20101DBDF80810884207DC1BBA48
:103B200001998B50BDF80C300433ADF80C309DF882
:103B3000281001A8FFF781FE069ABDF80C30181D69
:103B4000BDF80810884207DC12BA0199CA50BDF8C6
:103B50000C300433ADF80C30079ABDF80C30181D4A
:103B6000BDF80810884207DC12BA0199CA50BDF8A6
:103B70000C300433ADF80C30089ABDF80C30181D29
:103B8000BDF80810884207DC12BA0199CA50BDF886
:103B90000C300433ADF80C30099BBDF80C20101D1F
:103BA000BDF80810884207DC1BBA01998B50BDF89C
:103BB0000C300433ADF80C3001A92046FFF77EFE2F
:103BC000204604B0BDE8104002B07047284C0020E9
:103BD0002DE9F04184B004468846174610EE105A8D
:103BE0001E460A9B0222062101A8FFF732FEBDF8FD
:103BF0000C30191DBDF80820914208DC98FA88F2B3
:103C00000199CA50BDF80C300433ADF80C30194A94
:103C10001368591C1160BDF80C20101DBDF8081068
:103C2000884207DC1BBA01998B50BDF80C30043375
:103C3000ADF80C30394601A8FFF7FFFDBDF80C3098
:103C4000191DBDF80820914207DC2DBA019AD55004
:103C5000BDF80C300433ADF80C30314601A8FFF745
:103C6000ECFD01A92046FFF729FE204604B0BDE87F
:103C7000F08100BF284C002084B0F0B587B00CACB8
:103C800084E80F0002F0B2F8184B5B68C31A642B8B
:103C900005D8002007B0BDE8F04004B070470546E5
:103CA000124CA7687B1CA36004AE0EAB93E8070020
:103CB0008DE807000CAB0CCB39463046FFF706FF0A
:103CC0000C3496E8030084E803000A222146084BDE
:103CD000186807F0AFF918B9044B5D600120D9E707
:103CE000A4F10C03D86807F0F5FAF5E7284C00209A
:103CF0005855012084B0F0B585B00AAC84E80F00B7
:103D000002F074F807461B4E06F114040AAD0FCDFD
:103D10000FC495E8070084E80700336BFB1A142BE7
:103D200005D8002005B0BDE8F04004B07047344627
:103D3000B3685A1CB26002AD00933B4606F13C02E8
:103D400006F114012846FFF7E3FD343495E803003B
:103D500084E803000A222146074B186807F06AF935
:103D600018B9044B1F630120DCE7706B07F0B2FA4F
:103D7000F7E700BF284C00205855012084B0F0B56B
:103D800085B00AAC84E80F0002F030F807461A4EFE
:103D900006F13C040AAD0FCD0FC42B682360336BD2
:103DA000FB1A142B05D8002005B0BDE8F04004B084
:103DB00070473446B3685A1CB26002AD00933B466C
:103DC00006F13C0206F114012846FFF7A1FD50342C
:103DD00095E8030084E803000A222146074B18688F
:103DE00007F028F918B9044B1F630120DCE7306D98
:103DF00007F070FAF7E700BF284C00205855012063
:103E00002DE9F0412DED028B84B00746B0EE408ADB
:103E1000884601F0EBFF184B5B6EC31A322B05D8B6
:103E2000002004B0BDEC028BBDE8F0810546124CC9
:103E3000A3685A1CA26002AE00934346B0EE480A43
:103E40003A4601463046FFF7C3FE683496E8030061
:103E500084E803000A222146084B186807F0EAF8B4
:103E600018B9054B5D660120DBE7A4F16803986E85
:103E700007F030FAF5E700BF284C00205855012024
:103E800008B5EE2282211046FFF79EF8002008BDFB
:103E90000020704770B586B006460025049505954C
:103EA000012104A807F020F8094B1860094B6C4663
:103EB0000FCB84E80F002946204607F0A7F8064BF1
:103EC0001860064908F03CF9054B1E6006B070BD4D
:103ED00054550120DC0401085855012058060108FA
:103EE000EC58012038B51E21344B186807F028F82B
:103EF00060B9334B1B880E339BB2324A7E2111705E
:103F0000190A51709370002203230FE000231A4610
:103F100032212D480068FFF741F84DE0581C2B492D
:103F200011440C7C2749CC54013283B20D2AF5D9B7
:103F3000234A51689170002211E011291ED13125C8
:103F4000591C89B21F487D24C45402339BB2455486
:103F50001F49895C1A4884782144817001321849CC
:103F60000988914213DD1A49895C13290DD0E4D9DF
:103F70007D2908D07E2901D15E25E1E7581C114C2E
:103F8000E15483B2E4E75D25DAE73325D8E70C4C4A
:103F9000A078C043C0B2A0705A1C0A49C85492B25B
:103FA0000C4B186805F002FF002121800B463222DD
:103FB00005480068FEF7F2FF38BD00BF54550120E8
:103FC000C84C0020E457012010550120DC040108F2
:103FD00060570120EC580120812928D8F8B50C46FB
:103FE0000746134B1B880B44812B0CDC104B1988A4
:103FF00008466318812B15DD0D4B1B88C3F1820326
:10400000132B11DDF8BDFFF76DFFEFE71A18FE5C0B
:10401000084DAE5401339BB29C42F7D82144044B67
:104020001980E9E70023F7E7FFF75CFFEAE770474D
:10403000C84C00206057012008B5054B1B6883421F
:1040400000D008BD034B186806F0B2FFF9E700BFC7
:10405000EC5801205455012000231A4605E005497B
:104060001944097C0A44D2B201330D2BF7D9024B13
:104070005A607047DC040108C84C0020F0B58FB0CE
:10408000FEF772FF274B1860002332226421FEF7EF
:1040900085FFFFF7E1FF01F0A9FE074601F0A6FE4C
:1040A000C61B214B1B881BB1204A1288B24215D374
:1040B00023BBB6F57A7F21D907AC1D4D0FCD0FC4B8
:1040C00095E8070084E807000EAB13E907008DE8C8
:1040D000070007AB0FCBFFF70DFE0FE0FFF702FF66
:1040E00001F084FE074609E0059DA9882868FFF7CE
:1040F00073FF286807F0EEF8102CCFD105220D4B86
:10410000196804A806F0CAFF049C102CF4D1064BD1
:104110001B88002BE8D1002EE6D001F067FE074691
:10412000E2E700BF10550120C84C00200800002025
:10413000FC040108585501200023034A9370034AE8
:104140001360034A1360704708000020F0580120F4
:104150005C55012008B5074B1B7C072B02D0092BAF
:1041600004D008BD0448FFF78BFEFAE70248FFF7CA
:104170008FFEF6E71455012029550120072802D0AB
:10418000092804D07047044B1F22DA707047024B95
:104190001F22DA70704700BF0800002008B54FF4F6
:1041A00000722549254B186805F046FE39E0244881
:1041B00001684B1C036023484254022B03D9224858
:1041C00001680A440260102B0AD0204BDB78013BC7
:1041D0001B4A126893420AD11C4B02229A7006E0D5
:1041E000184AD05CFFF7CAFFEFE7FFF7A5FF184AB0
:1041F0009368D268934211D2591C154A91600E4AB5
:10420000D25C124B9B78012BD1D0022BEFD10E4BFD
:104210001B689A42E9D1FFF79DFFE6E70A2006F006
:104220005AFE064B1B685B6B1B685B68C3F500732B
:10423000074AD360DBE700BF60550120EC5801203E
:10424000F0580120145501205C5501200800002081
:10425000C84C0020DFF834D0002103E00C4B5B5841
:10426000435004310B480C4B42189A42F6D30B4A88
:1042700002E0002342F8043B094B9A42F9D301F0D3
:1042800069FD0BF0D1FA00F059FB704700000220E5
:104290009C0F0108000000201002002010020020E6
:1042A00094640120FEE7000030B597B00024139419
:1042B000149415940E940F941094119412940A94DB
:1042C0000B940C940D9406940794089409943E4B17
:1042D0005A6C42F480725A645A6C02F480720392EF
:1042E000039A1A6B42F001021A631A6B02F0010280
:1042F0000292029A1A6B42F004021A631B6B03F0DB
:1043000004030193019B0C2304930325059504A941
:104310002E4805F0C1FF10230493059508940DEB7A
:1043200003012B4805F0B8FF139414941594294DFC
:1043300013A9284605F066FF0E940F94109411946B
:1043400012940EA9284605F079FFAB6843F4806308
:10435000AB606B6823F020036B600A940B940AA98E
:104360001D4805F021FF1D494FF4407393FAA3F354
:10437000B3FA83F34FF40072DA4051F8223023F09D
:104380001F0343F0020341F822300C354FF0007355
:1043900093FAA3F2B2FA82F2D34055F823204FF0F9
:1043A000F87191FAA1F4B4FA84F44FF4C00020FA41
:1043B00004F40720A04022EA000291FAA1F145F896
:1043C000232017B030BD00BF00380240000002407B
:1043D0000008024000200140002301402C20014041
:1043E00030B593B000240F94109411940A940B9458
:1043F0000C940D940E9406940794089409943A4BE7
:104400005A6C42F400725A645A6C02F400720392BD
:10441000039A1A6B42F004021A631A6B02F0040248
:104420000292029A1A6B42F001021A631B6B03F0AC
:1044300001030193019B03250495059504A92B48CD
:1044400005F02AFF302304930595089404A9284811
:1044500005F022FF0F9410941194264D0FA92846C1
:1044600005F0D0FE0A940B940C940D940E940AA9B6
:10447000284605F0E3FEAB6843F48063AB606B68ED
:1044800023F020036B601C494FF4407393FAA3F3AD
:10449000B3FA83F34FF40072DA4051F8223023F07C
:1044A0001F0343F0040341F822300C354FF0007332
:1044B00093FAA3F2B2FA82F2D34055F823204FF0D8
:1044C000F87191FAA1F4B4FA84F44FF4400020FAA0
:1044D00004F40720A04022EA000291FAA1F145F875
:1044E000232013B030BD00BF003802400008024056
:1044F00000000240002101402C21014008B50D4878
:104500000D4B03600923436000238360C3604FF4B5
:10451000402202614FF48012426103764376837633
:10452000C3760377437701F07BFC00B908BD00F048
:1045300053FAFBE7F858012000640040F0B589B059
:104540000023039304930593069307930268234B78
:104550009A4201D009B0F0BD0024009403F5EA337B
:104560001A6C42F000721A641A6C02F00072009227
:10457000009A01941A6B42F001021A631A6B02F05E
:1045800001020192019A02941A6B42F002021A632C
:104590001B6B03F002030293029B4FF480530393BF
:1045A00002270497032606960925079503A90C48B8
:1045B00002F054FA4FF4807303930497059406961F
:1045C000079503A9074802F049FA2246052114205D
:1045D00001F09AFF142001F0CBFFBBE7006400401C
:1045E000000002400004024010B582B00024009494
:1045F000264B1A6B42F480021A631A6B02F4800293
:104600000092009A01941A6B42F400121A631B6B19
:1046100003F400130193019B224605210C2001F0B5
:1046200073FF0C2001F0A4FF224605210D2001F0AC
:104630006BFF0D2001F09CFF224605210F2001F0A9
:1046400063FF0F2001F094FF22460521392001F07D
:104650005BFF392001F08CFF224605213B2001F051
:1046600053FF3B2001F084FF22460521452001F045
:104670004BFF452001F07CFF22460521462001F03A
:1046800043FF462001F074FF02B010BD0038024025
:1046900008B501F075F9012006F01DFCFBE70000EC
:1046A000034B036054330B6080231360704700BFDB
:1046B000D84C002030B589B0FEF7ADFB01AC084DF9
:1046C0000FCD0FC495E8070084E80700002101A87A
:1046D00006F0CBFB034B1860FEF7A4FB09B030BD1E
:1046E000180501082059012086B0002201921A4BBA
:1046F000196B41F004011963196B01F00401019178
:1047000001990292196B41F080011963196B01F054
:104710008001029102990392196B41F00101196322
:10472000196B01F00101039103990492196B41F097
:1047300002011963196B01F00201049104990592B9
:104740001A6B42F008021A631B6B03F0080305930F
:10475000059B06B0704700BF0038024008B50B4803
:104760000B4B03600B4B436000238360C3604FF42B
:104770008042026143618361C361036202F04CFACB
:1047800000B908BD00F028F9FBE700BF245901205B
:10479000005C0040A08601002DE9F04788B00023AE
:1047A000039304930593069307930268314B9A424F
:1047B00002D008B0BDE8F0870446002500952E4ED3
:1047C000336B43F001033363336B03F00103009356
:1047D000009B0195336B43F002033363336B03F0AB
:1047E00002030193019B4FF4807303934FF0120A6D
:1047F000CDF810A04FF00109CDF814904FF0030848
:10480000CDF818800427079703A91C4802F026F961
:1048100010230393CDF810A0CDF81490CDF8188094
:10482000079703A9164802F019F90295336C43F46F
:1048300000033364336C03F400030293029B1148BA
:10484000114B03604FF0C06343608560C5604FF457
:104850008063036145618561C5610562456201F060
:1048600011FF18B9074BA3639C63A2E700F0B4F8EB
:10487000F8E700BF005C0040003802400000024042
:1048800000040240785901204060024030B5ADB0CC
:10489000342200211FA80BF006F800241A941B9460
:1048A0001C941D941E945C22214603A80AF0FBFF71
:1048B0000194204B1A6C42F080521A641B6C03F076
:1048C00080530193019B02941B4A136823F44043D5
:1048D00043F480431360136803F440430293029B44
:1048E00002251F95012322931023239325952694B7
:1048F0000823279348232893299503232A932B954C
:104900001FA803F0FFFA0F231A931B951C944FF472
:1049100080531D931E9429461AA802F003FF4FF4FA
:10492000407303931894149403A802F0EBFF2DB086
:1049300030BD00BF003802400070004008B5FEF7EF
:104940000FFB1E480BF0BCF801F02AFAFFF79EFFA0
:10495000FFF7CAFEFFF748FEFFF7A6FCFFF740FD92
:10496000FFF7CCFDFFF7FAFE00F038F800F0BAF8D8
:1049700000F094F900F0FAFC00F068FD00F0C2FAD3
:1049800000F0B6FD00F00AFE00F010FB00F05AFE49
:1049900000F072FE00F08AFEFEF71EFBFF221146B9
:1049A0007F20FEF711FB0220FDF7BAFEFEF7DAFECC
:1049B000FFF780FE06F041FAFEE700BF7806010827
:1049C00008B50268034B9A4200D008BD01F002FA14
:1049D000FBE700BF002000407047000008B50B480F
:1049E0000B4B0360FF234360012383600023C360FC
:1049F0001A22026143618361C361036202F02EFEE9
:104A000000B908BDFFF7E8FFFBE700BFD859012058
:104A1000001000A02DE9F04188B000230393049317
:104A200005930693079302682A4B9A4202D008B076
:104A3000BDE8F08100240094274B9A6B42F00202FB
:104A40009A639A6B02F002020092009A01941A6B28
:104A500042F002021A631A6B02F002020192019AFA
:104A600002941A6B42F004021A631B6B03F00403F6
:104A70000293029B042303930226049603250695C2
:104A80004FF00908CDF81C80144F03A9384601F0F7
:104A9000E5FF4FF4C0630393049605940695CDF8A3
:104AA0001C8003A90E4801F0D9FF4023039304960C
:104AB000059406950A23079303A9384601F0CEFF13
:104AC000224605215C2001F01FFD5C2001F050FD15
:104AD000ADE700BF001000A0003802400004024013
:104AE00000080240054B064A1A6000225A609A608C
:104AF000DA601A615A619A61704700BFE45A012076
:104B0000002C01402DE9F0438BB000230593069360
:104B10000793089309930268584B9A4202D00BB04E
:104B2000BDE8F08304460025019503F586335A6CF1
:104B300042F400625A645A6C02F400620192019AD3
:104B400002951A6B42F002021A631A6B02F002021B
:104B50000292029A03951A6B42F004021A631A6BCE
:104B600002F004020392039A04951A6B42F00802C1
:104B70001A631B6B03F008030493049B032605963A
:104B80004FF00208CDF8188008960C27099705A960
:104B90003B4801F063FF4FF4C8530593CDF81880EC
:104BA00007950896099705A9364801F057FF4FF079
:104BB0000409CDF81490CDF8188007950896099748
:104BC00005A9314801F04AFF3048314B03604FF0EE
:104BD000006343608560C5604FF4806303614FF4F8
:104BE000805343614FF4804383612023C361056296
:104BF000C0F8249086624FF40003C3624FF40013A0
:104C0000036301F03FFD002831D1204BE3639C6337
:104C10002048214B03604FF00063436040238360D2
:104C20000023C3604FF4806202614FF480524261FE
:104C30004FF4804282612022C261036204234362F6
:104C4000032383624FF40003C3624FF40013036332
:104C500001F018FD70B90F4B23649C6300220521FD
:104C6000312001F051FC312001F082FC57E7FFF7C1
:104C7000B3FECAE7FFF7B0FEEDE700BF002C01402E
:104C80000004024000080240000C0240245A0120A7
:104C9000A0640240845A01205864024008B50D48BF
:104CA0000D4B03604FF48273436000238360C36045
:104CB000036143614FF400728261C3610362436226
:104CC00083620A23C36204F04BF900B908BDFFF701
:104CD00083FEFBE7685B012000380040F0B589B037
:104CE00000230393049305930693079302681F4BD5
:104CF0009A4201D009B0F0BD0024009403F50033BE
:104D00001A6C42F480421A641A6C02F480420092D7
:104D1000009A01941A6B42F004021A631A6B02F0B3
:104D200004020192019A02941A6B42F002021A6381
:104D30001B6B03F002030293029B0C2303930227D5
:104D4000049703260696052507950DEB03010848F1
:104D500001F084FE4FF400530393049705940696E4
:104D6000079503A9034801F079FEC3E70038004026
:104D7000000802400004024000B583B00022009207
:104D80000D4B596C41F480415964596C01F48041D8
:104D9000009100990192196C41F0805119641B6CCB
:104DA00003F080530193019B0F216FF0010001F08C
:104DB000ABFB03B05DF804FB0038024010B588B0CF
:104DC000002201462D2001F09FFB2D2001F0D0FB99
:104DD00000240194144B1A6C42F480721A641B6C08
:104DE00003F480730193019B02A903A802F06CFDF8
:104DF00002F04AFD43000D48A0FB03239B0C013B3E
:104E00000B480C4A026040F2E732C2604360046122
:104E1000846004F02DFB10B1012008B010BD0448DF
:104E200004F0EEF9F9E700BF0038024083DE1B43CF
:104E3000C05B0120002000407047FEE7FEE7FEE770
:104E4000FEE7704708B5024801F01AFD08BD00BF33
:104E5000A05D012008B5024801F012FD08BD00BFA9
:104E60007859012008B5024801F00AFD08BD00BFCD
:104E7000405E012008B5024801F007FA08BD00BFF6
:104E8000F858012008B5024805F0F6F808BD00BF43
:104E9000605F012008B5024804F0C9F908BD00BFF1
:104EA000C05B012008B5024803F07AFF08BD00BFCF
:104EB000E45A012008B5024801F0E2FC08BD00BF39
:104EC000405D012008B5024801F0DAFC08BD00BFD2
:104ED000845A012008B5024801F0D2FC08BD00BF89
:104EE000245A012008B5024801F0CAFC08BD00BFE1
:104EF000A05E012008B5024802F090FA08BD00BF8C
:104F0000D859012000B58DB0002307930893099369
:104F10000A930B93059306930193029303930493CF
:104F20002048214A026043608360C360036183615B
:104F300004F09EFA38BB1B4804F0CCFA30BB0723C0
:104F4000079350230893002309930B9307A915484F
:104F500004F09CFCE8B900230593069305A91148C9
:104F600004F0C0FCC0B90023019301220292039314
:104F7000049304220DEB02010A4804F069FB70B9A6
:104F80000DB05DF804FBFFF727FDD4E7FFF724FD24
:104F9000D5E7FFF721FDDEE7FFF71EFDE3E7FFF7AB
:104FA0001BFDEDE7805C0120000400402DE9F0438B
:104FB0009DB000241794189419941A941B942022DD
:104FC00021460FA80AF06FFC09940A940B940C94E4
:104FD0000D940E94039404940594069407940894F5
:104FE000534E736C43F002037364736C03F002035B
:104FF0000293029B4F4BDB684F4B83F82D434FF4DA
:105000000058C3F804804FF00109ADF85C90189483
:105010004FF47A7319931A948DF86C40474D17A981
:10502000284605F035FE2B6823F080032B60AB6823
:1050300023F4804323F00703AB60414FAB6943F097
:105040000803AB6170230F9310941194129413947E
:105050001494159416940FAA4946284605F07CFE30
:10506000AB6923F00403AB61AB6943F40063AB614C
:10507000109411940FAA1021284605F06DFEAB691B
:1050800023F48063AB617B6843F008037B6010947A
:1050900011940FAA4FF48071284605F05DFE7B68DD
:1050A00023F004037B606B6823F070036B60AB68D4
:1050B00023F08003AB6009940A940B948DF8304080
:1050C000ADF83240CDF834800E9409A9284605F099
:1050D00061FE336B43EA09033363336B03EA09036D
:1050E0000193019B336B43F002033363336B03F093
:1050F00002030093009B80230393022604960594E9
:10510000069407940325089503A90E4805F0C4F8F2
:105110004FF440430393049605940694079408952E
:1051200003A9094805F0B8F81DB0BDE8F08300BF39
:105130000038024000ED00E000E100E00004014022
:1051400018040140000002400004024030B58DB058
:1051500000230793089309930A930B9303683C4A2F
:10516000934218D0B3F1804F23D03A4A93422DD0C6
:10517000394A93425ED0394A934218D100230693AC
:10518000374B1A6C42F008021A641B6C03F00803D8
:105190000693069B0BE000230093314B5A6C42F0C0
:1051A00001025A645B6C03F001030093009B0DB095
:1051B00030BD002301932A4B1A6C42F001021A649D
:1051C0001B6C03F001030193019BF0E700240294A0
:1051D000234B1A6C42F002021A641A6C02F00202AB
:1051E0000292029A03941A6B42F001021A631A6B3C
:1051F00002F001020392039A04941A6B42F0020235
:105200001A631B6B03F002030493049B4023079370
:10521000022508950B9507A9124801F01FFC2023D1
:105220000793089509940A940B9507A90E4801F075
:1052300015FCBCE700230593094B1A6C42F00402ED
:105240001A641B6C03F004030593059BAFE700BFD2
:10525000000001400004004000080040000C004035
:1052600000380240000002400004024000B58BB04C
:105270000023059306930793089309930368354A1F
:1052800093420BD0B3F1804F20D0334A934235D0B4
:10529000324A934248D00BB05DF804FB00230193DF
:1052A0002F4B1A6B42F001021A631B6B03F00103D0
:1052B0000193019B4FF4006305930223069301239E
:1052C000099305A9274801F0C9FBE4E700230293ED
:1052D000234B1A6B42F001021A631B6B03F00103AC
:1052E0000293029B4FF4004305930223069301238C
:1052F000099305A91B4801F0B1FBCCE700230393F8
:10530000174B1A6B42F002021A631B6B03F0020385
:105310000393039B8023059302230693099305A916
:10532000114801F09BFBB6E7002304930C4B1A6B6A
:1053300042F001021A631B6B03F001030493049B08
:105340000123059302230693099305A9054801F05B
:1053500085FBA0E70000014000080040000C004071
:1053600000380240000002400004024010B596B030
:105370000024129413941494159410941194099485
:105380000A940B940C940D940E940F9420222146B1
:1053900001A80AF088FA2B482B4B03604460846014
:1053A000C46004614461846104F062F8002837D16C
:1053B00016A94FF4805341F8103D224804F0B4F987
:1053C000002830D11F4804F06CF800282ED10023AB
:1053D0001093119310A91B4804F084FA48BB0023D2
:1053E00009930A930B930D930E930F930C2209A923
:1053F000144804F0C1F8F8B9002301930293039311
:10540000049305934FF400520692089301A90D48A6
:1054100004F08BFA98B90B48FFF728FF16B010BDBF
:10542000FFF7DAFAC4E7FFF7D7FACBE7FFF7D4FACA
:10543000CDE7FFF7D1FAD2E7FFF7CEFADCE7FFF7C7
:10544000CBFAE8E7C05C01200000014000B58FB056
:1054500000230A930B930C930D93089309930193E4
:105460000293039304930593069307931F484FF009
:105470008042026043608360C3600361836103F024
:10548000F7FF20BB0EA94FF4805341F8103D174899
:1054900004F04AF9F0B9154804F003F8E8B900231C
:1054A0000893099308A9114804F01CFAC0B9002216
:1054B000019202920392059201A90C4804F05CF853
:1054C00088B90A48FFF7D2FE0FB05DF804FBFFF77A
:1054D00083FAD7E7FFF780FADDE7FFF77DFADEE72B
:1054E000FFF77AFAE3E7FFF777FAEAE7005D0120D2
:1054F00000B58FB000230A930B930C930D93089380
:1055000009930193029303930493059306930793DE
:105510002048214A026043608360C3600361836165
:1055200003F0A6FF30BB0EA94FF4805341F8103DA5
:10553000184804F0F9F800BB164803F0B2FFF8B9B8
:1055400000230893099308A9124804F0CBF9D0B9B5
:105550000023019302930393059304220DEB0201B0
:105560000C4804F009F888B90A48FFF77FFE0FB02D
:105570005DF804FBFFF730FAD5E7FFF72DFADBE71C
:10558000FFF72AFADCE7FFF727FAE1E7FFF724FA4B
:10559000EAE700BF005C01200008004000B58FB0C2
:1055A00000230A930B930C930D9308930993019393
:1055B0000293039304930593069307931F48204A8D
:1055C000026043608360C3600361836103F050FF46
:1055D00020BB0EA94FF4805341F8103D174804F04A
:1055E000A3F8F0B9154803F05CFFE8B9002308936D
:1055F000099308A9114804F075F9C0B90022019275
:1056000002920392059201A90C4803F0B5FF88B9F4
:105610000A48FFF72BFE0FB05DF804FBFFF7DCF93B
:10562000D7E7FFF7D9F9DDE7FFF7D6F9DEE7FFF7B0
:10563000D3F9E3E7FFF7D0F9EAE700BF405C0120C8
:10564000000C004008B50A480A4B03604FF4E133F0
:10565000436000238360C36003610C224261836165
:10566000C36104F073FB00B908BDFFF7B5F9FBE7B0
:10567000605F01200010014008B50A480A4B036032
:105680004FF4E133436000238360C36003610C2265
:1056900042618361C36104F059FB00B908BDFFF7A3
:1056A0009BF9FBE7005E01200048004008B50A486E
:1056B0000A4B03604FF4E133436000238360C3600F
:1056C00003610C2242618361C36104F03FFB00B9B6
:1056D00008BDFFF781F9FBE7A05F0120001401403E
:1056E0002DE9F0478CB004460023079308930993F3
:1056F0000A930B930368924A934209D0914A9342CA
:1057000068D0914A934200F0DA800CB0BDE8F0878F
:10571000002500958D4B5A6C42F010025A645A6C69
:1057200002F010020092009A01951A6B42F00102F9
:105730001A631B6B03F001030193019B4FF4C063D9
:105740000793022308930123099303230A93072352
:105750000B9307A97E4801F081F97E487E4B0360D8
:105760004FF0006343608560C5604FF48063036160
:1057700045618561C5610562456200F083FF18BB24
:10578000744B63639C637548754B03604FF06063B3
:105790004360402383600023C3604FF48062026152
:1057A00043618361C3610362436200F06BFF70B9C0
:1057B0006A4B23639C6300220521252000F0A4FE90
:1057C000252000F0D5FEA0E7FFF706F9D8E7FFF7A0
:1057D00003F9EDE7002502955C4B1A6C42F4802238
:1057E0001A641A6C02F480220292029A03951A6BD0
:1057F00042F004021A631A6B02F004020392039A45
:1058000004951A6B42F002021A631B6B03F0020349
:105810000493049B202307934FF0020ACDF820A0A5
:105820004FF00109CDF824904FF00308CDF82880FF
:1058300007270B9707A94B4801F010F94FF4806632
:105840000796CDF820A0CDF82490CDF828800B97AE
:1058500007A9454801F002F94448454B03604FF061
:10586000006343608560C560066145618561C5610F
:105870000562456200F006FFD8B93C4B63639C6348
:105880003C48374B03604FF06063436040238360C4
:105890000023C3604FF48062026143618361C3618E
:1058A0000362436200F0EEFE30B9324B23639C6327
:1058B0002BE7FFF791F8E0E7FFF78EF8F5E7002513
:1058C0000595224B5A6C42F020025A645A6C02F041
:1058D00020020592059A06951A6B42F004021A639B
:1058E0001B6B03F004030693069BC023079302235C
:1058F00008930123099303230A9308230B9307A911
:10590000184801F0ABF81C481C4B03604FF02063B3
:1059100043608560C5604FF48063036145618561C4
:105920004FF48073C3610562456200F0ABFE18B9A5
:10593000114B63639C63E8E6FFF74EF8F8E700BF9E
:1059400000100140004800400014014000380240AF
:1059500000000240005F012040640240A05E012080
:10596000706002400008024000040240A05D012077
:1059700028600240405E0120405D01202864024012
:1059800008B50349034805F047FA034B187008BDF2
:10599000E45F012044050108E05F012008B51346DB
:1059A0000A460146024802F017FE00B1012008BD78
:1059B000E45A012008B513460A460146024802F09F
:1059C00093FE00B1012008BDE45A012008B5034848
:1059D00003F05DF9043818BF012008BDE45A012026
:1059E00008B50146014803F0F0F808BDE45A01206B
:1059F000704708B5FFF7FCFF08BD08B500F092F945
:105A000008BD08B500F09AF908BD82B001238DF8F1
:105A100007309DF8070002B07047000010B5FFF78F
:105A2000F4FF012802D00124204610BD074803F0EE
:105A3000B3F804460028F7D14FF40061034803F09F
:105A4000D6F80028F0D00124EEE700BFE45A012088
:105A500008B5074B01221A70FFF7B8FF20B9044AB6
:105A6000137803F0FE031370014B187808BD00BFD4
:105A70000C00002010B584B00446144B01221A70AB
:105A800005F0E0F918B9114B187804B010BDFFF714
:105A9000C5FFA0B10D4B1B78DBB2012BF3D00C4B33
:105AA0001B68002BEFD10B4B6C460FCB84E80F002B
:105AB0000021204605F0AAFA054B1860E3E72046CE
:105AC000FFF7C6FF014B1870E4E700BF0C00002091
:105AD0002C4F00203405010808B5FFF7B9FF08BDB9
