:020000040800F2
:1000000000000220655600083562000837620008CB
:10001000396200083B6200083D62000800000000F1
:10002000000000000000000000000000A1CE000859
:100030003F6200080000000041CF0008A5CF000883
:10004000B5560008B5560008B5560008B556000864
:10005000B5560008B5560008B5560008B556000854
:10006000B5560008B5560008B5560008B556000844
:100070004162000851620008B5560008616200083C
:10008000B5560008B5560008B5560008B556000824
:1000900071620008B5560008B5560008B55600084C
:1000A000B5560008B5560008B5560008B556000804
:1000B000B5560008B5560008B5560008B5560008F4
:1000C000B5560008B5560008B5560008B5560008E4
:1000D000B556000881620008B5560008B5560008FC
:1000E000B5560008B5560008B5560008B5560008C4
:1000F000B556000891620008B5560008B5560008CC
:10010000B5560008A1620008B5560008B5560008AB
:10011000B5560008B5560008B5560008B556000893
:10012000B5560008B1620008B5560008B56200086F
:10013000B55600080000000000000000B556000899
:10014000B5560008B5560008B5560008B556000863
:10015000B5560008C5620008D5620008B55600080B
:10016000B5560008B5560008B5560008B556000843
:10017000B5560008B5560008B55600080000000046
:1001800000000000B556000800000000000000005C
:10019000B55600080000000000000000B556000839
:1001A000000000000000000000000000B55600083C
:1001B000E5620008B5560008B5560008B5560008B7
:0401C000B556000828
:1001D00010B5054C237833B9044B13B10448AFF381
:1001E00000800123237010BD0C02002000000000DD
:1001F0001827010808B5034B1BB103490348AFF3A7
:10020000008008BD0000000010020020182701082F
:1002100010F8012B11F8013B012A28BF9A42F7D0B0
:10022000D01A7047034613F8012B002AFBD1181A85
:1002300001387047000000000000000000000000CE
:1002400001F0FF01102A2BDB10F0070F08D010F887
:10025000013B013A8B422DD010F0070F42B3F6D18B
:10026000F0B441EA012141EA014122F007047FF0A4
:1002700000070023F0E80256083C85EA010586EAFB
:10028000010685FA47F5A3FA87F586FA47F6A5FA37
:1002900087F68EB9EED1F0BC01F0FF0102F0070243
:1002A00032B110F8013B013A83EA010313B1F8D1EE
:1002B0000020704701387047002D06BF35460338CF
:1002C000073815F0010F07D1013015F4807F02BF08
:1002D000013015F4C03F0130F0BC0138704700BF59
:1002E00081F0004102E000BF83F0004330B54FEAE7
:1002F00041044FEA430594EA050F08BF90EA020F54
:100300001FBF54EA000C55EA020C7FEA645C7FEAE6
:10031000655C00F0E2804FEA5454D4EB5555B8BF09
:100320006D420CDD2C4480EA020281EA030382EA7A
:10033000000083EA010180EA020281EA0303362D0C
:1003400088BF30BD11F0004F4FEA01314FF4801CDF
:100350004CEA113102D0404261EB410113F0004FF1
:100360004FEA03334CEA133302D0524263EB4303A8
:1003700094EA050F00F0A780A4F10104D5F1200E46
:100380000DDB02FA0EFC22FA05F2801841F10001A1
:1003900003FA0EF2801843FA05F359410EE0A5F175
:1003A00020050EF1200E012A03FA0EFC28BF4CF0A6
:1003B000020C43FA05F3C01851EBE37101F000455C
:1003C00007D54FF0000EDCF1000C7EEB00006EEB69
:1003D0000101B1F5801F1BD3B1F5001F0CD34908F3
:1003E0005FEA30004FEA3C0C04F101044FEA44524A
:1003F00012F5800F80F09A80BCF1004F08BF5FEAD1
:10040000500C50F1000041EB045141EA050130BDB0
:100410005FEA4C0C404141EB010111F4801FA4F153
:100420000104E9D191F0000F04BF01460020B1FAA8
:1004300081F308BF2033A3F10B03B3F120020CDAE0
:100440000C3208DD02F1140CC2F10C0201FA0CF0BE
:1004500021FA02F10CE002F11402D8BFC2F1200C23
:1004600001FA02F120FA0CFCDCBF41EA0C019040D9
:10047000E41AA2BF01EB0451294330BD6FEA040422
:100480001F3C1CDA0C340EDC04F11404C4F120020D
:1004900020FA04F001FA02F340EA030021FA04F31F
:1004A00045EA030130BDC4F10C04C4F1200220FA76
:1004B00002F001FA04F340EA0300294630BD21FAB4
:1004C00004F0294630BD94F0000F83F4801306BF7A
:1004D00081F480110134013D4EE77FEA645C18BF6E
:1004E0007FEA655C29D094EA050F08BF90EA020F05
:1004F00005D054EA000C04BF1946104630BD91EAFD
:10050000030F1EBF0021002030BD5FEA545C05D1FF
:100510004000494128BF41F0004130BD14F580043E
:100520003CBF01F5801130BD01F0004545F0FE41B2
:1005300041F470014FF0000030BD7FEA645C1ABFE7
:10054000194610467FEA655C1CBF0B46024650EA1E
:10055000013406BF52EA033591EA030F41F400214A
:1005600030BD00BF90F0000F04BF0021704730B5D0
:100570004FF4806404F132044FF000054FF00001A5
:1005800050E700BF90F0000F04BF0021704730B566
:100590004FF4806404F1320410F0004548BF40423B
:1005A0004FF000013EE700BF42004FEAE2014FEA90
:1005B00031014FEA02701FBF12F07F4393F07F4F6B
:1005C00081F06051704732F07F4208BF704793F06E
:1005D0007F4F04BF41F40021704730B54FF4607481
:1005E00001F0004521F000411CE700BF50EA010284
:1005F00008BF704730B54FF000050AE050EA01022D
:1006000008BF704730B511F0004502D5404261EB9C
:1006100041014FF4806404F132045FEA915C3FF4DD
:10062000D8AE4FF003025FEADC0C18BF03325FEA7A
:10063000DC0C18BF033202EBDC02C2F1200300FA2B
:1006400003FC20FA02F001FA03FE40EA0E0021FA50
:1006500002F11444BDE600BF70B54FF0FF0C4CF43E
:10066000E06C1CEA11541DBF1CEA135594EA0C0FF0
:1006700095EA0C0F00F0DEF82C4481EA030621EA2B
:100680004C5123EA4C5350EA013518BF52EA033566
:1006900041F4801143F4801338D0A0FB02CE4FF018
:1006A0000005E1FB02E506F00042E0FB03E54FF048
:1006B0000006E1FB03569CF0000F18BF4EF0010E40
:1006C000A4F1FF04B6F5007F64F5407404D25FEA3C
:1006D0004E0E6D4146EB060642EAC62141EA5551EF
:1006E0004FEAC52040EA5E504FEACE2EB4F1FD0C31
:1006F00088BFBCF5E06F1ED8BEF1004F08BF5FEAAF
:10070000500E50F1000041EB045170BD06F0004660
:1007100046EA010140EA020081EA0301B4EB5C040D
:10072000C2BFD4EB0C0541EA045170BD41F4801105
:100730004FF0000E013C00F3AB8014F1360FDEBF2A
:10074000002001F0004170BDC4F10004203C35DA06
:100750000C341BDC04F11404C4F1200500FA05F389
:1007600020FA04F001FA05F240EA020001F000422A
:1007700021F0004110EBD37021FA04F642EB0601A0
:100780005EEA430E08BF20EAD37070BDC4F10C04CA
:10079000C4F1200500FA04F320FA05F001FA04F28E
:1007A00040EA020001F0004110EBD37041F100017A
:1007B0005EEA430E08BF20EAD37070BDC4F1200585
:1007C00000FA05F24EEA020E20FA04F301FA05F2ED
:1007D00043EA020321FA04F001F0004121FA04F295
:1007E00020EA020000EBD3705EEA430E08BF20EA65
:1007F000D37070BD94F0000F0FD101F0004640009F
:1008000041EB010111F4801F08BF013CF7D041EA20
:10081000060195F0000F18BF704703F00046520024
:1008200043EB030313F4801F08BF013DF7D043EAF5
:100830000603704794EA0C0F0CEA135518BF95EAAB
:100840000C0F0CD050EA410618BF52EA4306D1D132
:1008500081EA030101F000414FF0000070BD50EA51
:10086000410606BF1046194652EA430619D094EADB
:100870000C0F02D150EA013613D195EA0C0F05D1C5
:1008800052EA03361CBF104619460AD181EA030119
:1008900001F0004141F0FE4141F470014FF00000D1
:1008A00070BD41F0FE4141F4780170BD70B54FF06C
:1008B000FF0C4CF4E06C1CEA11541DBF1CEA1355EC
:1008C00094EA0C0F95EA0C0F00F0A7F8A4EB0504CE
:1008D00081EA030E52EA03354FEA013100F08880C5
:1008E0004FEA03334FF0805545EA131343EA12638E
:1008F0004FEA022245EA111545EA10654FEA002643
:100900000EF000419D4208BF964244F1FD0404F5FB
:10091000407402D25B084FEA3202B61A65EB030557
:100920005B084FEA32024FF480104FF4002CB6EB14
:10093000020E75EB030E22BFB61A754640EA0C0094
:100940005B084FEA3202B6EB020E75EB030E22BFD4
:10095000B61A754640EA5C005B084FEA3202B6EB15
:10096000020E75EB030E22BFB61A754640EA9C00D4
:100970005B084FEA3202B6EB020E75EB030E22BFA4
:10098000B61A754640EADC0055EA060E18D04FEA62
:10099000051545EA16754FEA06164FEAC30343EA02
:1009A00052734FEAC2025FEA1C1CC0D111F4801FCF
:1009B0000BD141EA00014FF000004FF0004CB6E7C8
:1009C00011F4801F04BF01430020B4F1FD0C88BF67
:1009D000BCF5E06F3FF6AFAEB5EB030C04BFB6EB72
:1009E000020C5FEA500C50F1000041EB045170BD65
:1009F0000EF0004E4EEA113114EB5C04C2BFD4EB92
:100A00000C0541EA045170BD41F480114FF0000E15
:100A1000013C90E645EA060E8DE60CEA135594EA91
:100A20000C0F08BF95EA0C0F3FF43BAF94EA0C0F94
:100A30000AD150EA01347FF434AF95EA0C0F7FF409
:100A400025AF104619462CE795EA0C0F06D152EA5D
:100A500003353FF4FDAE1046194622E750EA410641
:100A600018BF52EA43067FF4C5AE50EA41047FF452
:100A70000DAF52EA43057FF4EBAE12E74FF0FF3CB7
:100A800006E000BF4FF0010C02E000BF4FF0010C88
:100A90004DF804CD4FEA410C7FEA6C5C4FEA430C01
:100AA00018BF7FEA6C5C1BD001B050EA410C0CBF50
:100AB00052EA430C91EA030F02BF90EA020F0020B2
:100AC000704710F1000F91EA030F58BF994208BF19
:100AD00090422CBFD8176FEAE37040F001007047D6
:100AE0004FEA410C7FEA6C5C02D150EA013C07D12D
:100AF0004FEA430C7FEA6C5CD6D152EA033CD3D078
:100B00005DF8040B704700BF8446104662468C4671
:100B10001946634600E000BF01B5FFF7B7FF0028A4
:100B200048BF10F1000F01BD4DF808EDFFF7F4FFCD
:100B30000CBF012000205DF808FB00BF4DF808ED58
:100B4000FFF7EAFF34BF012000205DF808FB00BF7B
:100B50004DF808EDFFF7E0FF94BF012000205DF89D
:100B600008FB00BF4DF808EDFFF7CEFF94BF012052
:100B700000205DF808FB00BF4DF808EDFFF7C4FF4B
:100B800034BF012000205DF808FB00BF4FEA410C94
:100B90007FEA6C5C02D150EA013C0AD14FEA430C77
:100BA0007FEA6C5C02D152EA033C02D14FF00000B4
:100BB00070474FF0010070474FEA4102B2F1E04345
:100BC00024BFB3F5001CDCF1FE5C0DD901F0004C34
:100BD0004FEAC0024CEA5070B2F1004F40EB830084
:100BE00008BF20F00100704711F0804F21D113F1B0
:100BF0003872BCBF01F00040704741F480114FEAE9
:100C00005252C2F11802C2F1200C10FA0CF320FA71
:100C100002F018BF40F001004FEAC1234FEAD3238E
:100C200003FA0CFC40EA0C0023FA02F34FEA4303F8
:100C3000CCE77FEA625307D150EA01331EBF4FF081
:100C4000FE4040F44000704701F0004040F0FE409C
:100C500040F40000704700BF7BB972B90029BEBFE5
:100C600000204FF0004106E008BF00281CBF6FF0D5
:100C700000414FF0FF3001F043B9ADF1080C6DE9D0
:100C800004CE002909DB002B1ADB00F04DF8DDF85B
:100C900004E0DDE9022304B07047404261EB41010A
:100CA000002B1BDB00F040F8DDF804E0DDE9022357
:100CB00004B0404261EB4101524263EB4303704791
:100CC000524263EB430300F02FF8DDF804E0DDE966
:100CD000022304B0404261EB41017047524263EB92
:100CE000430300F021F8DDF804E0DDE9022304B05D
:100CF000524263EB4303704753B94AB9002908BF16
:100D000000281CBF4FF0FF314FF0FF3001F0F8B862
:100D1000ADF1080C6DE904CE00F006F8DDF804E052
:100D2000DDE9022304B070472DE9F047089E044630
:100D30008846002B4BD18A42154667D9B2FA82F217
:100D40004AB1C2F1200701FA02F320FA07F79540F1
:100D500047EA030894404FEA154E230CB8FBFEF710
:100D60001FFA85FC0EFB178843EA084307FB0CF1CA
:100D7000994209D9EB1807F1FF3080F01B819942A5
:100D800040F21881023F2B445B1AA4B2B3FBFEF081
:100D90000EFB103344EA034400FB0CFCA44509D9C4
:100DA0002C1900F1FF3380F00781A44540F2048143
:100DB00002382C4440EA0740A4EB0C0400271EB183
:100DC000D4400023C6E900433946BDE8F0878B4292
:100DD00009D9002E00F0EB800027C6E90001384653
:100DE0003946BDE8F087B3FA83F7002F47D18B422D
:100DF00002D3824200F2FA80841A61EB03030120DD
:100E00009846002EE0D0C6E90048DDE702B9FFDED3
:100E1000B2FA82F2002A40F08F80491B4FEA154E49
:100E20001FFA85F80127B1FBFEFC230C0EFB1C11F9
:100E300043EA014308FB0CF1994207D9EB180CF186
:100E4000FF3002D2994200F2CD808446591AA3B2F3
:100E5000B1FBFEF00EFB101443EA044408FB00F85B
:100E6000A04507D92C1900F1FF3302D2A04500F2AA
:100E7000B6801846A4EB080440EA0C409FE7C7F18F
:100E8000200CBB4022FA0CFE4EEA030E01FA07F4D6
:100E900020FA0CF521FA0CF34FEA1E482543B3FB68
:100EA000F8F92C0C08FB19331FFA8EFA44EA0343B5
:100EB00009FB0AF49C4202FA07F200FA07F10BD987
:100EC0001EEB030309F1FF3080F087809C4240F263
:100ED0008480A9F1020973441B1BADB2B3FBF8F087
:100EE00008FB103345EA034400FB0AFAA24508D97F
:100EF0001EEB040400F1FF336BD2A24569D902381E
:100F0000744440EA0940A0FB0289A4EB0A044C4562
:100F1000C2464B4654D351D0002E69D0B1EB0A05DE
:100F200064EB030404FA0CFCFD40FC404CEA0505AC
:100F3000C6E90054002747E7C2F1200320FA03F76F
:100F4000954001FA02F021FA03F34FEA154E3843B7
:100F5000010CB3FBFEF71FFA85F80EFB173341EACD
:100F6000034107FB08F38B4204FA02F407D969181E
:100F700007F1FF3C2FD28B422DD9023F2944CB1AD7
:100F800081B2B3FBFEF00EFB103341EA034100FBDC
:100F900008F38B4207D9691800F1FF3C17D28B4246
:100FA00015D902382944C91A40EA07473BE73746B2
:100FB000304609E70746E7E61846FBE64145ABD26F
:100FC000B8EB020A69EB0E0201381346A4E760464B
:100FD000E9E7184695E76746D1E781467CE702389E
:100FE0002C4447E7ACF1020C2B442FE7384608E7C6
:100FF0003746E9E603685A004CBF43F0004323F04C
:1010000000431844704700BF61B32DE9F84F01F168
:10101000FF3A90460646D146002707EB090404EB49
:10102000D4746410E50071190846FFF7E3FFA24588
:10103000834605F10800304409D0FFF7DBFFC345C4
:1010400000F1FF3005D8404509D2671CE5E7C345EC
:1010500005D9A74202D004F1FF39DEE70021084696
:10106000BDE8F88F08467047012807D0022807D04E
:10107000044B00280CBF18460020704702487047F8
:101080000248704755170008591700085D170008F7
:1010900030B5254B83B004468D1E4BB301A92846BD
:1010A000AFF30080F0B101992A46FFF7ADFF01468A
:1010B000C0B1FFF79FFF4B68A064012B2ED0002B1F
:1010C00001F1040026DBFFF795FF0023C4E91303B9
:1010D0000368002B12DBFFF78DFF00232061184609
:1010E00003B030BD002323610923184603B030BD8F
:1010F0000E490F48091AC9100191D5E7C3F30360DF
:10110000FFF7B2FF002814BF00230923206118460F
:1011100003B030BD0123C4E91303D9E700232361E1
:101120000523184603B030BD00000000403501081B
:10113000E83301080368DA0710B5044606D49B07B4
:1011400000F1480009D500F05FFC2368590709D574
:101150001A070ED5DB0613D510BD00F04DFC236831
:101160005907F5D404F1D00000F056FC23681A07A3
:10117000F0D404F5A87000F057FC2368DB06EBD42C
:1011800004F5E870BDE8104000F092BC036803B1BC
:1011900003441846704700BF09207047704700BFDE
:1011A00070B504460D4608E02B6C63612A4623693E
:1011B000214601209847082808D1296C2046FFF7CE
:1011C00067FF06460028EFD010F082F90728FBD110
:1011D0003046296CFFF7E2FF281D00F001FC00BF3C
:1011E0002DE9F0470C1D054617460FCCADF5727D75
:1011F00003AE0FC60FCC0FC60FCC0FC694E80F007E
:1012000002ACD5F80C80D5F8189086E80F000023C2
:10121000236021E0236C6B614FF4F07221467AA8C1
:1012200010F066FA2B697AAA294630469847889BBF
:10123000CDE900498246636431462B462A460120A7
:10124000C0470746F8B94FF4F0727AA9204610F06B
:101250004FFABAF1080F1CD1216C2846FFF718FF8E
:10126000002F08BF0926074618BF0A260028D1D03C
:10127000A36B46F01001CDE900492A4663640120C2
:101280002B46C04700B1092738460DF5727DBDE8F1
:10129000F087BAF1070FF6D13846216CFFF77EFFD1
:1012A00003A800F09DFB00BF406C7047F0B5CB6B0E
:1012B0000B640D1D0F4606460FCDF9B001AC0FC4EF
:1012C0000FCD0FC40FCD0FC495E80F004FF0FF35C1
:1012D00084E80F00009506E033696A463146984776
:1012E0000828044608D110993046FFF7D1FE00289F
:1012F000F2D0092079B0F0BD6846FFF71BFF062C3D
:10130000F7D139463046FFF74BFF00BF30B4DD6BF5
:10131000C160826119461D64002230BC60E700BFD5
:1013200070B5C66843690B64BEB903690A460446D2
:101330000D46014602209847072807D0082803D108
:1013400029462046FFF72CFF10F0C2F83046296CE2
:10135000FFF724FF281D00F043FB0122FFF740FFA9
:1013600010F0B6F8C2681AB1CA6B0A64002237E7F7
:101370009CE700BF704700BF836813B1014601209E
:1013800018477047042907D8DFE801F0030806086A
:1013900008000BB90F2A03D90220704701207047BB
:1013A00000EB820218465368009A1360704700BF32
:1013B00010B584B0002303AC0A4600941946FFF729
:1013C000E1FF039804B010BD042907D8DFE801F05D
:1013D0000308060808000BB90F2A03D9022070473A
:1013E0000120704700EB8200009A126842601846A4
:1013F000704700BF10B584B004AC002344F8042D3E
:101400000A4600941946FFF7DFFF04B010BD00BF85
:10141000F0B5D36B1364151D07460E460FCDADF521
:101420000F7D17AC0FC40FCD0FC40FCD0FC495E8BF
:101430000F004FF0FF3584E80F00169510E016A856
:10144000FFF7D8FF314616A8B84716AA694678B9FB
:10145000049B08209847052804460AD0092807D08D
:1014600026996846FFF714FE6A460C210028E6D04C
:10147000092416A8FFF75EFE20460DF50F7DF0BD8E
:101480002DE9F04F0D46C96C89B00C1D164600F0D1
:10149000030B0A6806941F46002B68D0130CD9B2C0
:1014A00012048DF81D30022304EB810405928DF89F
:1014B0001C302B6DBBF1020F08BFAC6B13F00103A6
:1014C00046D1019300F008030093D4F80090B9F1DD
:1014D000000F00F0F380022F45D0B4F80090B4F86C
:1014E00002800434AB6C28F0010A0F2130469A4484
:1014F000FFF75EFF824534D829F00103534483424D
:1015000094BF002001204FEA480808F0020809F0C3
:10151000010948EA0908B8F1010F3AD031D3B8F10E
:10152000020F1AD1236823F0004ABBF1000F66D1E5
:1015300030B1009A002A6CD0BAF1000F00F0908010
:10154000002B00DA04340AF1010304EB8304BCE746
:10155000304605A900F046FB78B1092009B0BDE886
:10156000F08F0020CFE7D4F804800834BAE71202E5
:1015700003230592ADF81C309BE7082009B0BDE8B5
:10158000F08FBBF1000F02D0002840F0B48004348B
:101590009BE7BBF1000F18D1A8B1D4E90023991C37
:1015A0004FEAD272D9D005F158010133049100F00D
:1015B000B580201DFFF7EAFD04AB014628460EF07A
:1015C000D1FC002867D108347FE70D213046D5F8DB
:1015D0002080FFF7EDFE8045F5D1AB6A9C42F2D149
:1015E0002046FFF707FD0F2102463046FFF702FFB6
:1015F00030462A460021FFF7FDFE0720AEE70D2109
:101600003046D5F82080FFF7D3FE804532D02368DE
:1016100096E7BAF1000F23D005F1580304F104084E
:10162000CDF808B0DDF800900397A3461C4602E011
:101630005745B94640D040460494FFF7A7FD04AB98
:101640000146002228460EF08DFC09F1010708F141
:1016500004080028ECD0D1455C46DDE902B7D6D1BC
:1016600030460D21FFF7A4FE049B2862C5E909342A
:10167000062073E7AB6A9C42C9D104224FF00008F0
:10168000A318C5E90AA8C5E90C23236843454DDB27
:101690000123019357E780460D213046FFF788FE6E
:1016A000B8F1020F28623ED12B46049A43F82C2F42
:1016B0006B62AC62062051E75C46D1E705A9304673
:1016C00000F090FA00287FF448AF019B002B3FF414
:1016D00054AF0F213046FFF76BFE0E210246304615
:1016E000FFF788FE30461A4A0F21FFF783FE0720D6
:1016F00009B0BDE8F08F2046FFF77CFC04340746B4
:10170000AC6328460EF08CFC00283FF426AF304630
:101710003A460F21FFF76EFE07201FE730460D21E6
:10172000FFF746FE2862049B6B62C2E70AF10100E4
:1017300004EB8000FFF75EFC0F2102463046FFF706
:1017400059FE30462A464146FFF754FE072005E77A
:101750001B020108002393E6012391E602238FE692
:101760002DE9F0410546C4B0042906D8DFE801F0B0
:101770004D2B05030900032B5FD0022044B0BDE8C8
:10178000F081002BF9D1102AF7D82B68DC0600F184
:10179000F48022AC2046019200F094F9A86B019AE3
:1017A0000023012606FA03F1114203D0016844F830
:1017B000231004300133042BF4D1A863204600F039
:1017C00077F90020DAE7012B4FEA124697B252D0A0
:1017D000052BD2D106EB0708B8F1200FCDD80F2E7C
:1017E00040F29980B846002F40F0DB80AA6BAA63D4
:1017F0000F2E40F2BE80B8F1000F02D002A800F018
:101800000BF9002044B0BDE8F081002BB5D1AC6BE2
:1018100097B2281D012606FA03F1394203F10103AC
:1018200002D0216801600434102B00F10400F2D1D1
:1018300012F40050E5D1AC63A0E7160C97B2F3198F
:10184000102B9AD82B681A075DD422AC204600F0E2
:101850000DF904EBC601AB6B3FB103EBC70218688F
:1018600041F8040B04339342F9D12046AB6300F0F6
:10187000DBF8002082E7F219102A3FF67EAF0F2E28
:101880003FF67BAF2A68D10708D5284622F003022D
:1018900040F8482B019300F0B3F8019B019322AC70
:1018A000204600F0ADF8A96B019B002F00F0958059
:1018B0007F0004EBC6044FF00008043C01EB8702F4
:1018C00051F8040B44F8040F9142F9D1B8F1000F1C
:1018D0000FD002AC102E314638BF102104EBC101ED
:1018E000843902EBC80452F8040B41F8040F944207
:1018F000F9D1012B7FF47BAF22AC0432AA632046DE
:1019000000F07AF87DE723F008032B6005F5A87056
:1019100000F0ACF899E7B8F1100F2A6843D9D00766
:10192000A8F110080BD5284622F0010242F002026D
:1019300040F8482B019300F06BF82A68019B51078F
:1019400025D40F2E04D822A8019300F061F8019B42
:10195000019302AC204600F063F8C6F110010029A3
:10196000AA6B019BB6DD22AC4F0004EBC604114606
:10197000A3E722A800F048F83DE723F010032B600E
:1019800005F5E870019200F09DF8019A01E72846FC
:1019900022F0040240F8D02B019300F041F8019BA3
:1019A000CFE72A68CBE7D0070AD5284622F0010204
:1019B00042F0020240F8482B019300F029F8019B05
:1019C000019322AC204600F023F8B846A96B019B96
:1019D000002F7FF46DAF0A4609E70A468DE700BF86
:1019E00000F1340191E838009C46A6464CF8045DAD
:1019F00090E8FF0FE54600BD90EC210B704700BF5B
:101A000080EC210B704700BF90EC200B704700BFAB
:101A100080EC200B704700BFD0EC200B704700BF5C
:101A2000C0EC200B704700BFF0EC0201F0EC02119B
:101A3000F0EC0221F0EC0231F0EC0241F0EC02514A
:101A4000F0EC0261F0EC0271F0EC0281F0EC02913A
:101A5000F0EC02A1F0EC02B1F0EC02C1F0EC02D12A
:101A6000F0EC02E1F0EC02F1704700BFE0EC0201A3
:101A7000E0EC0211E0EC0221E0EC0231E0EC02418A
:101A8000E0EC0251E0EC0261E0EC0271E0EC02817A
:101A9000E0EC0291E0EC02A1E0EC02B1E0EC02C16A
:101AA000E0EC02D1E0EC02E1E0EC02F1704700BFB3
:101AB000B0FC0181B0FC0191B0FC01A1B0FC01B10E
:101AC000704700BFA0FC0181A0FC0191A0FC01A116
:101AD000A0FC01B1704700BFEC4600B52DE90050F5
:101AE0002DE9FF1F4FF000032DE90C0001A9FFF7BE
:101AF000DDFBDDF840E012B0704700BFEC4600B5FA
:101B00002DE900502DE9FF1F4FF000032DE90C00D7
:101B100001A9FFF705FCDDF840E012B0704700BFF7
:101B2000EC4600B52DE900502DE9FF1F4FF00003F2
:101B30002DE90C0001A9FFF715FCDDF840E012B01B
:101B4000704700BFEC4600B52DE900502DE9FF1F9E
:101B50004FF000032DE90C0001ABFFF7D7FBDDF8D8
:101B600040E012B0704700BFEC4600B52DE90050D0
:101B70002DE9FF1F4FF000032DE90C0001AAFFF72C
:101B800047FCDDF840E012B0704700BF027A82B92E
:101B9000437AABB14268013B10B44372136803212E
:101BA000141D01721A02446002605DF8044B180EA5
:101BB00070470368013A02721A020260180E7047F9
:101BC000B020704700B585B003AA002300921946E3
:101BD0000C22FFF7D7FB039805B05DF804FB00BFAC
:101BE000F0E700BF2DE9F043054685B00E464FF003
:101BF00000083046FFF7CAFFB028044600F0B18065
:101C0000070620D500F0F003802B65D0902B36D04E
:101C1000A02B78D0B02B47D0C02B00F08A8000F0EA
:101C2000F803D02B0BD100F00702013242F400225E
:101C3000052301212846FFF793FD0028D9D009206C
:101C400005B0BDE8F0830DF10C09002319468700AB
:101C5000CDF800900D222846FFF794FBFFB2039BBE
:101C6000CDF80090043760064CBFDF1BFF1800233F
:101C700019460D2228460397FFF7A6FBB9E700F0A7
:101C80000D030D2BDBD003AF002300F00F0219462C
:101C900000972846FFF776FB0023009719460D2290
:101CA0002846FFF791FBA4E7B1285FD0B22800F0E7
:101CB000CC80B3287ED000F0FC03B42BBFD000F062
:101CC00007020132012342F4002219462846FFF799
:101CD00047FD00288DD0B2E73046FFF757FF2402BA
:101CE0000443B4F5004FAAD024010023A2B2194640
:101CF0002846FFF735FD0028A1D114F4004F18BF86
:101D00004FF0010875E7C24302F007034FF47F620A
:101D10001A41010702F47F624FF0000348BF42F40A
:101D2000804219462846FFF71BFD00283FF461AFAB
:101D300085E7C62851D0C7285AD000F0F803C02B39
:101D400069D0C82875D0C9287FF479AF3046FFF72D
:101D50001DFF020300F00F0002F470220130024365
:101D600066E7B8F1000F14D0002069E73046FFF7AE
:101D70000DFF00283FF463AF10F0F0037FF45FAF76
:101D8000024619462846FFF7EBFC00283FF431AF26
:101D900055E703AC43460E22414600942846FFF720
:101DA000F1FA0094284643460F224146FFF70CFB08
:101DB000404645E73046FFF7E9FE010300F00F001B
:101DC00001F47021421C01230A4328461946FFF7FB
:101DD000C7FC00283FF40DAF31E73046FFF7D6FED1
:101DE000010300F00F0001F47021421C0323EBE714
:101DF0003046FFF7CBFE024600283FF420AF10F03C
:101E0000F0037FF41CAF04212846FFF7A9FC00284B
:101E10003FF4EFAE13E700F00F020132032342F468
:101E2000202219462846FFF79BFC00283FF4E1AE2C
:101E300005E73046FFF7AAFE00F0F00200F00F03BE
:101E40001032013343EA0232F2E600230DF10C09AD
:101E50000D221946CDF800902846FFF793FA304638
:101E6000FFF794FE02064FF002070CD5039B00F02B
:101E70007F00B840034430460393FFF787FE030614
:101E800007F10707F2D4039BCDF8009000F07F0420
:101E900003F50172BC400023144419460D22284664
:101EA0000394FFF791FAA4E610B5C36C84B05A68A6
:101EB00003208DF80C00DC798DF80D4012020833F8
:101EC000084601A901920293FFF78CFE04B010BDF1
:101ED00008B5FFF785FE806C08BD00BF08B5FFF7A9
:101EE0007FFEC06CC37900EB8300083008BD00BFE3
:101EF00008B50FF0EDFA00BF08B5FFF7F9FF00BF16
:101F0000704700BF0A4B10B50446186818B18369C2
:101F10000BB90FF02FFB132C07D8064850F83430BC
:101F2000013302D000EBC40010BD0020FCE700BF6D
:101F30003C00002078520120F8B5431C054609D129
:101F40000FF0D2FA13240646002720463946ABBECE
:101F5000044634602846F8BDF8B505460FF0C4FACB
:101F600013240646002720463946ABBE044634609B
:101F70002846F8BD30B585B0CDE9010103920624AD
:101F800001AD20462946ABBE04462046FFF7D4FFEC
:101F900005B030BD70B50E461546FFF7B3FF0446D9
:101FA00030B90FF0A1FA092303604FF0FF3070BD84
:101FB0002A4631460068FFF7DDFF431C1FBF6368F8
:101FC000281A1B186360F2E7F7B50C461646FFF7B0
:101FD00099FF054640B90FF087FA092303604FF0D7
:101FE000FF34204603B0F0BD022E03D90FF07CFA77
:101FF0001623F3E7012E12D14368E418F6D42B68B8
:102000000A26CDE900346F4630463946ABBE064657
:102010003046FFF791FF0028E1DB6C60E1E7022E1C
:10202000EDD102AF036847F8083D0C26304639462B
:10203000ABBE06463046FFF77FFF431CCFD00444BB
:10204000DDE7FFF7C1BF30B585B0CDE901010392EF
:10205000052401AD20462946ABBE04462046FFF7C5
:102060006BFF05B030BD70B50E461546FFF74AFF51
:10207000044630B90FF038FA092303604FF0FF30FF
:1020800070BD2A4631460068FFF7DDFF021EF5DB12
:102090006368A81A0344AA426360F1D10020BDE836
:1020A0007040FFF759BF37B502AD022445F8040D63
:1020B00020462946ABBE04462046FFF73DFF03B04D
:1020C00030BD000038B50546FFF71CFF044630B9A7
:1020D0000FF00AFA092303604FF0FF3038BD013DCD
:1020E000012D09D8094B9A681B699A4204D14FF017
:1020F000FF3303600020F1E72068FFF7D4FF0028DA
:10210000ECD14FF0FF332360E8E700BF78520120A5
:10211000012070470D4B196810B5024609B90C49EA
:1021200019601868694602448A4206D809490A4C6F
:102130000968A14208D08A4206D90FF0D5F90C23CC
:1021400003604FF0FF3010BD1A60FCE774520120AD
:10215000706601202C000020ADDEFECA70B50C4672
:10216000FFF7D0FE064630B90FF0BEF90923036031
:102170004FF0FF3070BD636843F4005363604FF469
:10218000806363640C2528463146ABBE054628466D
:10219000FFF7D2FE431C1CBF20610020EAE70B467C
:1021A00010B500210446582218460FF0ACFA01463B
:1021B0002046BDE81040FFF7D1BF70B5FFF7A2FE83
:1021C0000925044620B90FF08FF90560204670BD3F
:1021D00028462146ABBE0446012CF7D00FF084F907
:1021E00000240646132528462146ABBE0546356029
:1021F000ECE7704700B591B002A800F02EF901217C
:1022000002A800F03DF9702102A800F03FF948B1A2
:102210000DF1070000F074F948B19DF8070011B006
:102220005DF804FB4FF2FF20FFF7E3FFF0E74FF20A
:10223000FD20FFF7DEFFF0E730B59DB00EA800F0FF
:102240000CF906210EA800F021F9034610B9184632
:102250001DB030BD684600F000F90EAD6C460FCCE5
:102260000FC50FCC0FC50FCC0FC594E8030085E850
:10227000030001210EA800F003F901231A460521ED
:102280000EA800F011F90346E1E700B58FB06846EB
:1022900000F0E3F80621684600F0F8F80FB05DF8AA
:1022A00004FB70B58EB006460C461546684600F035
:1022B000D4F83146684600F0DBF82946684600F05D
:1022C000DFF80321684600F0E1F828B1204600F06D
:1022D00017F930B10EB070BD4FF2FF20FFF789FF44
:1022E000F4E74FF2FD20FFF784FFF3E770B59CB0F1
:1022F00006460C461546FFF79FFF0EA800F0ADF806
:1023000031460EA800F0B4F829460EA800F0B8F83F
:1023100002210EA800F0BAF820B3204600F0E2F83F
:1023200028B3684600F099F80EAD6C460FCC0FC587
:102330000FCC0FC50FCC0FC594E8030085E8030050
:1023400001210EA800F09CF80123072270210EA89D
:1023500000F0AAF880B1FFF74DFF10F0100F10D178
:102360001CB070BD44F6FF70FFF743FFD5E744F69D
:10237000BF70FFF73EFFD4E74EF2BD70FFF739FFA5
:10238000E9E7FFF782FF44F6BD70FFF732FFE7E7AA
:10239000F8B505460F461646C4B20AE0C4F5807487
:1023A000224639462846FFF7A1FF27442544361B1D
:1023B00000243319B3F5807FF0D8324639462846D9
:1023C000FFF794FFF8BD30B59DB004460D46FFF70A
:1023D00033FF0EA800F041F829460EA800F048F897
:1023E00021460EA800F052F800B3684600F035F818
:1023F0000EAD6C460FCC0FC50FCC0FC50FCC0FC563
:1024000094E8030085E8030001210EA800F038F8E5
:102410000123072270210EA800F046F858B1FFF7FB
:10242000E9FE10F0200F0BD11DB030BD4EF2FF7051
:10243000FFF7DFFED9E74EF2BD70FFF7DAFEEEE7F9
:10244000FFF723FF4EF2BD70FFF7D3FEECE708B5B0
:1024500001462020FFF7B7FF08BD10B5044638221B
:1024600000210FF050F94FF48073A361204610BD96
:102470004FF48063C3614FF40053C3604160704701
:102480004FF08073436281627047000008B50160BD
:102490004FF4FA620146034806F026FCB0FA80F0D9
:1024A000400908BDB05C012030B587B00024049419
:1024B00001240394102502954FF48005059593405F
:1024C00000939440019401604FF4FA636A46014618
:1024D000034806F055FCB0FA80F0400907B030BD63
:1024E000B05C012008B54FF4FA620146034806F0DB
:1024F0000EFDB0FA80F0400908BD00BFB05C0120BD
:1025000008B54FF4FA620146034806F068FDB0FAD8
:1025100080F0400908BD00BFB05C0120013000E040
:10252000401A8842FCD2704770B584B06C4684E88B
:102530000F00104E3368104D05EB031594E80F00A3
:1025400085E80F0030684021FFF7E8FF306032680F
:1025500073689A4201D004B070BD70684021FFF7E3
:10256000DDFF70603223002219460448006800F045
:102570008BFCF0E7280200208C5301200000002093
:1025800070B58AB00646002405940694012307938B
:102590000094019402940394049408930E230993E5
:1025A0000E4D6946284604F09DFE284604F030FF93
:1025B0000221284605F08EF8094B1E605E60DC6043
:1025C0009C6008221A611C7523460A222146054890
:1025D000006800F059FC0AB070BD00BF1C5B012010
:1025E000585301200000002070B586B004460E4606
:1025F0001546030E8DF81030C0F307438DF81130E7
:10260000C0F307238DF812308DF813008DF81410E5
:10261000C2F307438DF81530C2F307238DF8163047
:102620008DF81720114B1968114804F094FF002809
:10263000F8D100948DF8046002950E4C2368039342
:1026400000F062FB094B04AA2146094804F00EFF82
:1026500008B106B070BD6C4694E80F0002F08AFC29
:1026600094E80F00FFF760FFF3E700BF4C53012031
:102670001C5B01205853012010B5094B1C685B6896
:10268000E41A02D41CB1204610BD4034FAE70023FE
:102690000A2219460348006800F0F6FBF3E700BF82
:1026A000280200200000002038B504460023036003
:1026B00043608360C360FFF7DFFF08B9204638BD81
:1026C000064D6A68064B03EB02130FCB84E80F003C
:1026D00068684021FFF722FF6860EFE728020020CA
:1026E0008C53012070B500211C4804F0E0FF054622
:1026F00008B9284670BD1A4C1A4E234632460021AE
:10270000164804F03AFF184B002119601A68207827
:1027100002EB00621A601A68607802EB00421A60ED
:102720001A68A07802EB00221A601A68E078024466
:102730001A6022791A7199609A68617902EB0142F4
:102740009A609A68A17902EB01229A609A68E1790D
:102750000A449A603268DA60CBE700BF1C5B012054
:1027600050530120705301203C53012008B5FFF75E
:10277000B9FF024B0FCBFFF7D7FE08BD3C5301203A
:10278000062800D870470720FCE7000084B000B599
:1027900083B00DF1100C8CE80F009DED057ADFED94
:1027A0000A7AB4EEE77AF1EE10FA05D4002003B00D
:1027B0005DF804EB04B07047089B00939CE80F00A1
:1027C00000F0AAFBF3E700BF00007A4484B000B534
:1027D00085B00DF1180C8CE80F000AAB93E80700E8
:1027E0008DE807009CE80F0002F0A6FE05B05DF83A
:1027F00004EB04B07047000084B000B583B00DF165
:10280000100C8CE80F000598FDF7CEFE28A3D3E945
:102810000023FEF74BF89FED221B41EC100B0DF04F
:1028200057FD53EC102B00202349FDF75DFD1EA33F
:10283000D3E90023FDF710FFFEF7BEF90690DDEDAA
:10284000077AF5EEC07AF1EE10FA1CDD17EE900A69
:10285000FDF7AAFE16A3D3E90023FEF727F89FEDA4
:10286000101B41EC100B0DF033FD53EC102B00202E
:102870001149FDF739FD0CA3D3E90023FDF7ECFE68
:10288000FEF79AF90890089B009304AB0FCB02F077
:1028900097FE03B05DF804EB04B07047AFF300801F
:1028A000EBE2361AC05BC83F0000000040A5E540DF
:1028B000CDCCCCCCCCD48F400000F03F014B93ED7D
:1028C000000A704730020020014B93ED010A704767
:1028D00030020020F0B587B006AC04E90F000D4CC3
:1028E000A5680135A5609DF80C60029F04F03AFCD4
:1028F0000C340197009603462A46074920460FF0FC
:102900006BF82046FDF78EFC0146204602F08CFC59
:1029100007B0F0BD30020020002A010870B5ADF507
:10292000187DE02200215CA80EF0EDFEA0242246D6
:10293000002134A80EF0E7FE224600210CA80EF07C
:10294000E2FE00250A950B950895099506950795D1
:10295000049505954FF4FA700AF033F8ABE194ACA6
:102960002046FFF7A1FE94E80F00FFF7B3FF97980A
:10297000FFF706FF9DF85432322B00F29C81DFE80E
:1029800013F033006600760086009900A500B100C0
:10299000BD00D600E600F600FE00460056009A0193
:1029A0009A019A0127019A019A019A019A019A01C2
:1029B0009A019A019A019A019A019A019A019A013F
:1029C0009A019A019A019A019A019A019A019A012F
:1029D0009A019A019A010F019A019A011B019A0129
:1029E0009A019A019A010A01DDED947AF8EEE77AEC
:1029F000DFEDB46A87EEA67A00EB8002930034AA7A
:102A0000134483ED017A08AB01221A5453E1DDED42
:102A1000947AF8EEE77ADFEDAB6A87EEA67A00EB00
:102A20008000830034AA134483ED007A43E1DDED96
:102A3000947AF8EEE77ADFEDA36A87EEA67A00EBE8
:102A40008000830034AA134483ED037A33E1DDED83
:102A5000947AF8EEE77ADFED9C6A87EEA67AC0EB0F
:102A6000C000830098AA134403ED3C7A23E1DDED16
:102A7000947AF8EEE77ADFED946A87EEA67AC0EBF7
:102A8000C000830098AA134403ED3B7A13E1DDED07
:102A9000947AF8EEE77ADFED8C6A87EEA67AC0EBDF
:102AA000C002930098AA134403ED3A7A06AB0122C0
:102AB0001A5400E1DDED947AF8EEE77AC0EBC0003D
:102AC000830098AA134443ED397AF4E0DDED947A5B
:102AD000F8EEE77AC0EBC000830098AA134443EDF8
:102AE000387AE8E0DDED947AF8EEE77AC0EBC000E2
:102AF000830098AA134443ED377ADCE0DDED947A45
:102B0000F8EEE77A00EB800293000CAA1344DFEDA5
:102B10006E6A87EEA67A83ED007A0AAB1B5C002B07
:102B200040F0C9800AAB01221A541544C3E0DDED20
:102B3000947AF8EEE77A00EB800083000CAA134445
:102B4000DFED626A87EEA67A83ED017AB3E0DDED10
:102B5000947AF8EEE77A00EB800083000CAA134425
:102B6000DFED5A6A87EEA67A83ED027AA3E000EBE6
:102B7000800083000CAA1344949ADA609BE09DF8CD
:102B8000501200EB800293000CAA1344197404AB9A
:102B900001221A548FE09DF850224D4B1A708AE0A2
:102BA000DDED947AF8EEE77ADFED476A87EEA67AF4
:102BB000484B83ED007A7EE0DDED947AF8EEE77A1B
:102BC000DFED416A87EEA67A424B83ED017A72E02F
:102BD000949A414B1A606EE00AAB1B5D3BBB002D23
:102BE00025DD08AB1B5D002B3ED106AB1B5D002B2A
:102BF00049D10134072C5BDC04AB1B5D002BF0D00A
:102C000004EB840293000CAA1344D868FDF7BAFCC5
:102C10000022324BFDF788FF0028DDD00AAB1B5D98
:102C2000002BD9D0013D0AAB00221A55D4E704EBA2
:102C3000840293000CAA13441A6900920FCBFFF789
:102C4000A5FD0028CDD0A200224493000CAA134475
:102C5000234A1A605A609A604FF0FF32DA6000220D
:102C60001A7404AB1A55BCE704EB8402930034AA2F
:102C700013441A6900920FCBFFF7BEFD80F00100EC
:102C800008AB1855B1E7C4EBC402930098AA1344EB
:102C9000A3F1F006E03B93E807008DE8070096E813
:102CA0000F00FFF793FD80F0010006AB1855A0E779
:102CB0000A2009F086FEFFF7DFFC00287FF44FAE04
:102CC000002497E70000C84200007A4400247449B9
:102CD000F850002030020020040000200000F0BF67
:102CE000000080BF10B5044601F0BEFE844204D04F
:102CF00000F0A6F8844203D010BD01F099FEFBE776
:102D000000F088F8F8E7000010B5044604F02AFA4D
:102D1000064B53F824301B1A3233002B05DD034ACF
:102D200042F82400184609F04CFE10BDC0020020F5
:102D300008B502F047FA02F0FFF808BDF0B59DB003
:102D40001D4C15AD26460FCE0FC596E8070085E849
:102D50000700002115A809F0FEFD184F38600EADE0
:102D600004F11C060FCE0FC596E8070085E80700A2
:102D700000210EA809F0EFFD386007AD04F1380618
:102D80000FCE0FC596E8070085E80700002107A8C9
:102D900009F0E1FD0A4B18606D4654340FCC0FC5A5
:102DA00094E8070085E807000021684609F0D3FD94
:102DB000044B18601DB0F0BD302701089457012066
:102DC000A05701208C570120114B1A6801321A605C
:102DD0001B797BB90D280ED00A280CD00C4B5B79DF
:102DE00043B10B4A936801339360012B09D0084B20
:102DF00000225A717047064B01225A7100229A60D4
:102E000070474F28F6D1134601221A71704700BF50
:102E1000E002002008B507E0084BDA68511CD960D1
:102E20001344187CFFF7D0FF044BDB683F2BF3D92A
:102E3000024B00221A65DA6008BD00BFE0020020E4
:102E4000014B1868704700BFB85701200FB400202D
:102E500004B070474FF0500383F31188BFF36F8FB6
:102E6000BFF34F8F074B1B681F2B07DC054B186800
:102E7000421C1A60002383F3118870474FF0FF3023
:102E8000704700BF8003002000280FDB10B4084CFF
:102E90002468844207DD064C04EB40008180A0F8E2
:102EA0004420A0F884305DF8044B7047704700BFA1
:102EB00080030020024B58639963DA63704700BFB8
:102EC0000004014008B5134B1A6A42F004021A626A
:102ED0001A6A42F040021A621A6A42F480621A6266
:102EE0005A6C42F480425A641A6842F001021A6035
:102EF00003F57C4380229A6103F580634FF480429E
:102F00009A614FF400429A61002211461046FFF781
:102F1000D1FF08BD0004014084B08DE80F000120FE
:102F200004B0704790F9003023F01C03CA78920077
:102F300002F01C0213430370704790F9003003F055
:102F40001F030A7943EA42130370704790F9003077
:102F500023F01C030A78920002F01C021343037052
:102F6000704790F9003003F01F034A7843EA421398
:102F700003707047037803F007038B708378C3F303
:102F800082030B7083785B094B70C378C3F38203B1
:102F9000CB70C3785B090B717047000010B44268B6
:102FA0000B885800C0EBD200B1F9024000FB04F0DE
:102FB00000281FDBC012C3EB121303FB03F3002B2B
:102FC0001BDB1B13B1F9042002FB03F3002B17DBFF
:102FD00000EBA330486200EB8000803014D4001274
:102FE00010F57A6F12DB42F23413984210DC5DF870
:102FF000044B704700F2FF70DCE703F6FF73E0E775
:1030000003F57F533F33E3E7FF30E8E70248EEE79D
:1030100042F23410EBE700BF60F0FFFF2DE9F04F04
:1030200083B086468C464A6AD317B2F5FA3A43F122
:10303000FF3B0AFB0BF1AAFB0A4505EB4105BCF976
:1030400010804FEAE87904FB09F108FB0511A4FBA5
:1030500008898944BCF90E00C11700FB0BF60AFB76
:103060000166A0FB0A0131444F0447EAD037460409
:1030700016EB080247EB0903BCF90C8000204FEA6D
:10308000C801161843EB0107BCF90A20D31704FB4B
:1030900003F102FB0511A4FB02450D44A046A9461D
:1030A000002C75F10003C0F2DE804FEA182444EAD8
:1030B000096300934FEA29230193BCF90810CA174A
:1030C00001FB0BF30AFB0235A1FB0A232B441D0372
:1030D00045EA12551403DDE900010019694110F1B8
:1030E000000841F50049BCF80620A8FB024502FB98
:1030F00009552946002C75F10003C0F2B9804A1029
:10310000CB1752EA030100F0D980E146DEF8001047
:10311000C1F580114D08CC07A41B65EB0705A2463D
:10312000AB4624196D4114EB0A0045EB0B01054633
:103130000E46B10141EA9561A80137462E184F416C
:10314000B90041EA9671B00010EB0A0441EB0B059F
:10315000A90041EA9471A00010EB0A0041EB0B01B9
:10316000FDF77AFD82468B46B9F91640E517014610
:103170005A46BAF1000F7BF100037EDB4B0B43EAAA
:10318000C243521304FB02F603FB0566A4FB0301D2
:10319000314403FB01F502FB0055A3FB00232B4444
:1031A00014461D46002A73F100016EDB630E43EAEC
:1031B000C5166F16B9F91440E51704FB0BF30AFBAB
:1031C0000533A4FB0A451D4420462946002C75F111
:1031D000000363DBC20C42EA4134CD141AEB060053
:1031E0004BEB0701061941EB050734463D46002E1F
:1031F00077F1000358DB210A41EA05622B12B9F985
:103200001240E517290141EA14712001141843EB1B
:103210000105E90F621845F1000359104FEA320029
:10322000021841EB0103161843EB01077D0145EA43
:10323000D6657401321947EB0503141843EB0105F9
:1032400020462946002C75F1000332DBC30943EA0E
:10325000416318461C4A934232D91C4A934231D8E2
:1032600003B0BDE8F08F14F1FF0845F100091CE739
:1032700014F1FF3045F1010141E741F6FF760027E7
:1032800016EB0A0147EB0B0278E76FF07E4400254E
:10329000A01845EB030104460D4687E70C4A0023BE
:1032A000101943EB050195E716F1FF0447F10005FE
:1032B000A1E714F17F0045F10001C7E70548CFE71A
:1032C0000448CDE70148CBE7BFC62D00C0D8A70012
:1032D000FFFF0700C0C62D0010B44C6AA4F5963459
:1032E0008268B1F91E000005B1F92030C0EB8230D0
:1032F00004FB130313F5804342D4D81391F9222021
:1033000004FB02F2002A3FDB92120B7F04FB03F462
:10331000002C3CDBE41204F5004402FB04F2002A1A
:1033200038DB931203F50013B1F91A2003FB02F303
:1033300013F5005331D49B1303FB00F31A46002B03
:103340002FDBD21302FB02F2002A2EDBD211097E00
:1033500002FB01F2002A2ADBA3EB221323EAE37328
:10336000B3F1C85FA8BF4FF0C8531A46002B20DB4B
:1033700013131846B3F5C83F1ED85DF8044B7047C9
:1033800003F5FF437F33B8E702F2FF32BCE704F2F4
:10339000FF74BFE702F2FF32C3E703F57F533F3309
:1033A000C9E703F5FF427F32CBE77F32CEE70F322A
:1033B000D2E703F6FF72DBE74FF4C830DDE770B405
:1033C000012408E06500013D065D4E55155D01F8DC
:1033D00014500134E4B29C42F4D370BC704742787C
:1033E000037843EA02230B82C278837843EA0223FC
:1033F0004B824279037943EA02238B82C279837933
:1034000043EA0223CB82427A037A43EA02230B8304
:10341000C27A837A43EA02234B83427B037B43EAEB
:1034200002238B83C27B837B43EA0223CB83427CD0
:10343000037C43EA02230B84C27C837C43EA02239D
:103440004B84427D037D43EA02238B84C27D837DCE
:1034500043EA0223CB84437E81F8283070474278C8
:10346000037843EA02234B85837881F82C3090F966
:1034700003309BB21B011BB2027902F00F0213430F
:10348000CB8590F905309BB21B011BB2027943EA50
:1034900012130B8690F9063081F8323070470842DB
:1034A00001D1002070470120704750B142685AB1E5
:1034B000826862B1C3680BB1002070474FF0FF30E3
:1034C00070474FF0FF3070474FF0FF3070474FF0BC
:1034D000FF3070472DE9F0410546884617461C46E7
:1034E0001846FFF7E2FF034660B9A378012B01D02D
:1034F00045F0800566683B46424629466078B047FD
:10350000034610B91846BDE8F0816FF00303F9E7F0
:1035100030B589B0044600230193029303930493CA
:1035200005930693ADF81C3003461A2201A98820A2
:10353000FFF7D0FF054610B1284609B030BD21463F
:1035400001A8FFF74CFF2346072201A9E120FFF75E
:10355000C1FF05460028EFD1214601A8FFF77FFFF4
:10356000EAE7F0B587B005460F4614461E460A2A1C
:1035700000D90A243046FFF798FF48BB5DB36FB30C
:103580007CB33B788DF80430B378012B09D000224E
:1035900005E0A95C01F07F01A9540132D2B2944246
:1035A000F7D8012C0AD8A3B2B46801AA2978707898
:1035B000A0470346C0B9184607B0F0BD23463A46B7
:1035C00001A92846FFF7FBFE6400013CA3B2EBE72C
:1035D0004FF0FF33EFE74FF0FF33ECE74FF0FF33EF
:1035E000E9E76FF00203E6E76FF00303E3E710B5E6
:1035F00082B00C46F2238DF80530837803F0070380
:1036000002A901F8013D234601220DF10500FFF753
:10361000A8FF034610B1184602B010BDF4208DF883
:103620000500234601220DF10601FFF753FF034673
:103630000028F0D1234601220DF106010DF105000D
:10364000FFF78FFF0346E6E770B582B005460E46EA
:103650001446F4208DF80700134601220DF10601EF
:10366000FFF738FF034670B915F0010F0ED115F0C2
:10367000020F11D1234601220DF106010DF10700C1
:10368000FFF76FFF0346184602B070BD31460DF1DB
:103690000600FFF75BFCEAE731460DF10600FFF795
:1036A00060FCE7E770B504460D46164610F0040FBF
:1036B00004D1012014F0030F05D170BD1146284636
:1036C000FFF795FFF6E7324629462046FFF7BCFF95
:1036D000F3E770B582B005460E461446F5208DF826
:1036E0000700134601220DF10601FFF7F3FE034622
:1036F00070B915F0080F0ED115F0100F11D1234637
:1037000001220DF106010DF10700FFF72AFF034624
:10371000184602B070BD31460DF10600FFF702FCFD
:10372000EAE731460DF10600FFF707FCE7E738B599
:1037300004460D460A4601461F20FFF7B3FF034625
:1037400008B1184638BD2A4621461F20FFF7C1FFA1
:103750000346F6E730B583B005460C46F4208DF8F5
:1037600007000B4601220DF10601FFF7B3FE0346E9
:1037700010B1184603B030BD9DF8060020F00300DC
:1037800040B205F00305284302A901F8020D2346C3
:1037900001220DF10700FFF7E4FE0346E9E730B52B
:1037A00083B00546FFF781FE044610B1204603B002
:1037B00030BD2B4604220DEB0201F220FFF78AFEFA
:1037C00004460028F2D105F1380101A8FFF7D2FB29
:1037D000ECE738B505460C460846FFF766FE03469B
:1037E00008B1184638BD234601222946F420FFF7C8
:1037F00071FE03462A7802F003022A70F1E730B521
:1038000083B00546E0238DF80730B6238DF80630E7
:10381000FFF74BFE044610B1204603B030BD2B46E7
:1038200001220DF106010DF10700FFF79AFE044693
:10383000EB6802209847EFE770B582B00546002399
:103840008DF80730FFF731FE064620BB052409E05E
:103850002846FFF75DFE06461CE0EB68012098470E
:10386000013CE4B2B4B12B4601220DF10701D02096
:10387000FFF730FE06460028EFD19DF80730602B99
:1038800001D0582BE9D12B702846FFF7B8FF064628
:103890000028DDD014B1304602B070BD6FF00106D3
:1038A000F9E710B584B004460346042203A9F220C8
:1038B000FFF710FE034610B1184604B010BD01A971
:1038C00003A8FFF757FB2046FFF799FF03460028A0
:1038D000F2D1214601A8FFF72AFF0346ECE770B5B5
:1038E00082B006460D460846FFF7DFFD044610B1DC
:1038F000204602B070BD29460DF10700FFF769FFB1
:10390000044610B99DF80730B3B9002CF0D1314608
:103910000720FFF7C4FDA0B9002CE9D131461820DB
:10392000FFF7BDFD0028E3D02A4605F138013046F7
:10393000FFF7CFFE0446DBE72846FFF7B2FF044659
:10394000E3E72A4605F138013046FFF7ABFE0446AF
:10395000E2E730B583B005460C460846FFF7A5FD03
:10396000034610B1184603B030BD21460DF10700E3
:10397000FFF72FFF034610B99DF807203AB9002B37
:10398000F0D121462846FFF7E5FE0346EAE7204648
:10399000FFF787FF0346F2E710B4047843781B0172
:1039A000827843EA043343EA12130B60C478037944
:1039B0001B01427943EA043343EA12134B608279D4
:1039C000C37943EA02238B605DF8044B704729B347
:1039D000F8B50F462AB33BB31E46144605460023EE
:1039E00053601360936010F0070F11D115F0010FB1
:1039F00004D031463846FFF711FB206015F0040F64
:103A000015D031463846FFF767FCA0600020F8BDAE
:103A100031463846FFF7C2FA6060E7E74FF0FF3003
:103A200070474FF0FF30F2E74FF0FF30EFE7002034
:103A3000EDE770B586B006460D46144600230493A4
:103A400005930193029303931046FFF72EFDC0B92F
:103A5000D5B12346082204A9F720FFF73BFD034612
:103A600010B1184606B070BD01A904A8FFF794FF75
:103A700004F110032A4601A93046FFF7A8FF0346C8
:103A8000EFE74FF0FF33ECE74FF0FF33E9E70000DB
:103A9000F0B583B000268DF807608DF806608DF8CC
:103AA00004608DF80560394D2860C46801230DF16C
:103AB00006020721407AA0470446286807690123C7
:103AC0000DF107023146407AB84754FA80F4E4B267
:103AD00028689DF807300370066901230DF107027D
:103AE0001946407AB04754FA80F4E4B228689DF849
:103AF00007304371066901230DF107020221407A64
:103B0000B04754FA80F4E4B228689DF80730837116
:103B1000066901230DF107020321407AB04754FAE8
:103B200080F4E4B228689DF80730C3710669012368
:103B30000DF107020621407AB04754FA80F4E4B24E
:103B400028689DF8073003720669022301AA042140
:103B5000407AB04754FA80F4E4B29DF805209DF80D
:103B60000430286843EA02234380066901230DF1EB
:103B700007020721407AB04754FA80F02B689DF87D
:103B800007201A7140B203B0F0BD00BF440400200A
:103B900038B5064B1C6834B113460A460146E56841
:103BA000607AA84738BD6FF07E00FBE74404002030
:103BB00070B582B000238DF80730134B1C68E4B158
:103BC0000546266901230DF107020721607AB047F7
:103BD0000446A8B902AA02F8015D0B4B1868C66832
:103BE00001230721407AB04754FA80F040B210B95F
:103BF000054B1B681D7102B070BD6FF07E00FAE7C7
:103C00004FF0FF30F7E700BF4404002030B583B029
:103C100000230093ADF804301A4B1B685BB30446D5
:103C20001B7913BB174B1B681B793BBB154B1868E3
:103C3000056906236A460821407AA8479DF90120B4
:103C40009DF8003043EA022323809DF903209DF86C
:103C5000023043EA022363809DF905209DF8043079
:103C600043EA0223A38003B030BD0020FFF7A0FF8A
:103C70000028DBD0D6E76FF07E00F4E74FF0FF308E
:103C8000F1E700BF4404002030B583B00023009367
:103C9000ADF804301A4B1B685BB304461B7913BBA9
:103CA000174B1B681B793BBB154B1868056906232E
:103CB0006A460E21407AA8479DF901209DF8003000
:103CC00043EA022323809DF903209DF8023043EA52
:103CD000022363809DF905209DF8043043EA022306
:103CE000A38003B030BD0020FFF762FF0028DBD0C7
:103CF000D6E76FF07E00F4E74FF0FF30F1E700BF4A
:103D00004404002030B583B000230093ADF80430A4
:103D10001A4B1B685BB304461B7913BB174B1B681C
:103D20001B793BBB154B1868056906236A461421AD
:103D3000407AA8479DF901209DF8003043EA02230C
:103D400023809DF903209DF8023043EA022363801B
:103D50009DF905209DF8043043EA0223A38003B0B7
:103D600030BD0020FFF724FF0028DBD0D6E76FF03E
:103D70007E00F4E74FF0FF30F1E700BF440400207D
:103D800030B583B004460023ADF80030ADF8023002
:103D9000ADF804306846FFF777FF20BB0546BDF954
:103DA0000000FCF7EFFB0022104BFCF755FCFCF782
:103DB00003FF2060BDF90200FCF7E4FB00220B4B7F
:103DC000FCF74AFCFCF7F8FE6060BDF90400FCF764
:103DD000D9FB0022054BFCF73FFCFCF7EDFEA06091
:103DE000284603B030BD4FF0FF35F9E70000B03F83
:103DF00070B582B000238DF80730134B1B68E3B118
:103E000005461B799BB9104B1B681B79C3B90E4B38
:103E10001C68266901230DF107023B21607AB04737
:103E20009DF8073003F001032B7002B070BD002035
:103E3000FFF7BEFE0028EAD0E5E76FF07E00F4E76A
:103E40004FF0FF30F1E700BF4404002070B582B0AE
:103E500000238DF80730134B1B68E3B105461B792F
:103E60009BB9104B1B681B79C3B90E4B1C682669A4
:103E700001230DF107023B21607AB0479DF807301E
:103E8000C3F340032B7002B070BD0020FFF790FE1B
:103E90000028EAD0E5E76FF07E00F4E74FF0FF304E
:103EA000F1E700BF4404002070B582B000238DF814
:103EB0000730134B1B68E3B105461B799BB9104BC8
:103EC0001B681B79C3B90E4B1C68266901230DF1D1
:103ED00007023D21607AB0479DF8073003F00F03D9
:103EE0002B7002B070BD0020FFF762FE0028EAD000
:103EF000E5E76FF07E00F4E74FF0FF30F1E700BF39
:103F00004404002070B582B000238DF807308DF88E
:103F10000630424B1B68002B79D005460DF1060098
:103F2000FFF7C2FF002875D19DF806303BBB3B4B25
:103F30001868046901230DF107023D21407AA0476A
:103F40000446C8B99DF8073023F00F035BB205F0B3
:103F50000F051D4302AA02F8015D304D2868C668AE
:103F600001233D21407AB04754FA80F464B22B68B3
:103F70005B694FF416709847204602B070BD274B1E
:103F80001868046901230DF107023D21407AA0471A
:103F9000044640B3002DEFD0204B1868046901237C
:103FA0000DF107023D21407AA04704460028E3D1E5
:103FB0009DF8070020F00F0040B205F00F05054303
:103FC00002AA02F8015D154D2868C66801233D214B
:103FD000407AB04754FA80F464B22B685B694FF4BE
:103FE00016709847C8E79DF8073003F0F00302A960
:103FF00001F8013D01223D20FFF7CAFD54FA80F48B
:1040000064B2064B1B685B6914209847C2E76FF0E7
:104010007E04B1E74FF0FF34AEE700BF4404002058
:1040200030B583B000238DF807308DF80630254B6E
:104030001B68002B42D005460DF10600FFF734FF48
:10404000044650BB9DF806300BBB74BB1D4B186873
:10405000046901230DF107023B21407AA047044681
:10406000E8B99DF8073023F001035BB205F00100C9
:10407000184302AA02F8010D124B1868C568012303
:104080003B21407AA84754FA80F464B207E0FFF776
:1040900039FF54FA80F464B2D7E74FF0FF349DF84B
:1040A000060028B9204603B030BD4FF0FF34F6E7D4
:1040B000FFF728FF54FA80F464B2F3E76FF07E0450
:1040C000F0E700BF4404002030B585B0054600236A
:1040D000ADF80830ADF80A30ADF80C3004A800F89F
:1040E000093DFFF785FE04469DF80730012B21D1DD
:1040F0003CBB02A8FFF78AFD54FA80F040B218BB1F
:10410000BDF9083007EE903AF8EEE77AC5ED007A8F
:10411000BDF90A3007EE903AF8EEE77AC5ED017A7C
:10412000BDF90C3007EE903AF8EEE77AC5ED027A69
:1041300005B030BD0120FFF773FF54FA80F464B27C
:10414000D6E74FF0FF30F3E74FF0FF30F0E7000025
:1041500030B583B000228DF807208DF80620254A5F
:104160001268002A43D005460DF10600FFF79CFEB9
:10417000044658BB9DF8063013BB7CBB1D4B18682A
:10418000046901230DF107023B21407AA047044650
:10419000F0B99DF8072022F0020252B26B0003F042
:1041A0000203134302AA02F8013D124B1868C568C6
:1041B00001233B21407AA84754FA80F464B207E017
:1041C000FFF7A0FE54FA80F464B2D6E74FF0FF3454
:1041D0009DF8060028B9204603B030BD4FF0FF34EB
:1041E000F6E7FFF78FFE54FA80F464B2F3E76FF05E
:1041F0007E04F0E74404002030B585B00546002376
:10420000ADF80830ADF80A30ADF80C3004A800F86D
:10421000093DFFF71BFE04469DF80730012B2BD10B
:104220008CBB02A8FFF76EFD54FA80F464B26CBB3D
:10423000BDF90800FCF7A6F90022164BFCF736FB87
:10424000FCF7BAFC2860BDF90A00FCF79BF90022D4
:10425000104BFCF72BFBFCF7AFFC6860BDF90C00C2
:10426000FCF790F900220B4BFCF720FBFCF7A4FCB9
:10427000A860204605B030BD0120FFF769FF54FA61
:1042800080F464B2CCE74FF0FF34F2E74FF0FF3434
:10429000EFE700BF00208C4030B583B000238DF8DD
:1042A00007308DF80630254B1B68002B42D00546A1
:1042B0000DF10600FFF7F8FD044650BB9DF80630EF
:1042C0000BBB74BB1D4B1868046901230DF1070279
:1042D0003E21407AA0470446E8B99DF8073023F014
:1042E00003035BB205F00300184302AA02F8010DB4
:1042F000124B1868C56801233E21407AA84754FA3A
:1043000080F464B207E0FFF7FDFD54FA80F464B274
:10431000D7E74FF0FF349DF8060028B9204603B0D8
:1043200030BD4FF0FF34F6E7FFF7ECFD54FA80F4B0
:1043300064B2F3E76FF07E04F0E700BF44040020AE
:1043400030B583B000238DF807308DF806302B4B45
:104350001B68002B4FD005460DF10600FFF7A4FDAA
:104360000446002833D19DF806301BB944B14FF004
:10437000FF342EE0FFF7C6FD54FA80F464B2F5E78F
:104380000120FFF715FC50BB042D2BD81B4B1868E0
:10439000046901230DF107020821407AA047044671
:1043A000B8B99DF8070020F0030043B205F0030000
:1043B000184302AA02F8010D104B1868C5680123C2
:1043C0000821407AA84754FA80F464B201E04FF023
:1043D000FF349DF8060040B9204603B030BD4FF0D1
:1043E000FF34F6E76FF00104F3E7FFF78BFD54FAB3
:1043F00080F464B2F0E76FF07E04EDE7440400203F
:1044000000220270427082808260027302824261E6
:1044100002768283026280F824200285C26280F8DC
:10442000302080F8382080F83920C26380F8482096
:1044300080F84920C26480F8582080F8592002662C
:1044400080F8682080F86920026780F8782080F87A
:104450007920C0F8802080F8882080F88920C0F872
:10446000902080F8982080F89920C0F8A02080F84B
:10447000A82080F8A920022180F8B91080F8BA207D
:1044800080F8BB2080F8BC20C0F8C020C0F8C42051
:10449000C0F8C820C0F8CC20C0F8D020C0F8D42084
:1044A00080F8AA207047A1F14103DBB2052B07D9A0
:1044B000A1F16103DBB2052B05D9A1F130007047F2
:1044C000A1F137007047A1F15700704738B5044695
:1044D00005782D2D0CD020460DF001F8642303FB48
:1044E00000F02378A3F13002092A03D80134F8E759
:1044F0000134F0E72E2B02D02D2D10D038BD63787B
:10450000A3F13002092AF7D802EB82035A001044C3
:10451000A378A3F13002092AEED81044ECE7404218
:10452000ECE7000038B504460D460CF0D8FF184AF9
:10453000A2FB00325309642101FB130399B2154B0E
:1045400003FB01F3C2F34F122A802278A2F130015B
:10455000092901D80134F8E72E2A0AD003EB830396
:1045600001330D4AA2FB03235B086B6000232B720F
:1045700038BD084914F8012FA2F130000928EDD800
:104580000648A0FB0101C908303A01FB0233F1E7FC
:104590001F85EB5180969800ABAAAAAACDCCCCCCB3
:1045A00010B50446034653F81C0F59686060A160BB
:1045B0001B7A2373234653F8280F596820616161E1
:1045C0001B7A237602F0CEFD6063012363702370B3
:1045D00010BD08B50B4600F11C011846FFF7A2FFFD
:1045E00008BD08B50B4600F128011846FFF79AFFF1
:1045F00008BD10B504468368436002F0B3FDE06077
:1046000001236370237010BD10B5044683684360B6
:1046100002F0A8FDE06001236370237010BD10B5A7
:1046200004460846FFF752FFA06010BD10B50446CF
:1046300008460CF054FFA06010BD10B50446C368D6
:10464000836002F08FFD606001236370237010BDF2
:1046500010B504460846FFF739FFE06010BD10B5FD
:104660000446C368836002F07DFD606001236370CF
:10467000237010BD10B5044608460CF030FFE06012
:1046800010BD10B50446014610300DF008FA02F0D6
:1046900069FD2062012384F8253084F8243010BDA0
:1046A00008B510220DF003FA08BD0000F8B5044665
:1046B00090F8A960002E6AD090F8AA10FFF7F3FED8
:1046C0000001C5B294F8AB102046FFF7ECFE55FA96
:1046D00080F0C0B294F8A830834207D0D4F8D0302C
:1046E0000133C4F8D03000263046F8BDD4F8D430B9
:1046F0000133C4F8D43094F8BC3023B1D4F8CC30B2
:104700000133C4F8CC3094F8B930C3B1012B25D1B2
:1047100004F13800FFF76DFF04F14800FFF774FF64
:1047200094F8BC30D3B12046FFF73AFF04F15800AB
:10473000FFF783FF04F16800FFF77FFF0EE004F14D
:104740004800FFF761FF94F8BC30C3B904F188005A
:10475000FFF785FF04F19800FFF76FFFD4F8C4500E
:10476000002DC1D0D4F8C430996AA86AFBF750FD77
:104770000028B9D12846FFF784FF2D6BF0E72046CB
:10478000FFF70EFF04F17800FFF757FFDEE790F820
:10479000BA30002B3FD100F1AA0766493846FBF733
:1047A00037FD20B164493846FBF732FD98B9012343
:1047B00084F8B930D4F8C030C4F8C430D4F8C45048
:1047C000DDB13946A86AFBF723FD002815DA2B6B0B
:1047D000C4F8C430F2E759493846FBF719FD20B157
:1047E00057493846FBF714FD18B9002384F8B9304F
:1047F000E0E7022384F8B930DCE7002D3FF474AF22
:104800003946A86AFBF704FD00287FF76DAF002347
:10481000C4F8C43068E790F8B920022A23D090F891
:10482000AA1001B343EA4213013B282B1BD8DFE84F
:1048300003F015242930354E555B611A1A1A1A1ADD
:104840001A1A1A1A1A1A1A1A1A1A1A1A1A1A1A1AC8
:104850001A1A151D242930353C42480000F1AA01DE
:104860004830FFF7DCFED4F8C4504AE0412914BFB9
:104870000021012180F8BC10F5E700F1AA01FFF743
:10488000A8FEF0E7532914BF0021012180F824106D
:10489000E9E700F1AA01FFF7A4FEE4E7572914BFF6
:1048A0000021012180F83010DDE700F1AA01583025
:1048B000FFF7CEFED7E700F1AA016830FFF7C8FE88
:1048C000D1E700F1AA013830FFF7B0FECBE730297D
:1048D00094BF0021012180F8BC10C4E700F1AA01B7
:1048E0008830FFF7C7FEBEE700F1AA019830FFF756
:1048F000AFFEB8E700F1AA017830FFF7A9FEB2E7F2
:104900002D6B002D3FF4F0AED4F8C430996AA86A3C
:10491000FBF77EFC00287FF4E7AEEA6A94F8BA3031
:104920009A423FF7E1AEEBD104F1AA012846FFF726
:10493000B7FEE5E7482A0108502A0108582A01086D
:10494000602A010838B50446D0F8C8200132C0F802
:10495000C820A1F10A02222A44D8DFE802F0174356
:104960004317434343434343434343434343434343
:104970004343434343434343344343434343174342
:10498000120090F8A8204A4080F8A8200D4694F81C
:10499000BB300E2B0FD9002094F8BA30013384F8C5
:1049A000BA30002384F8BB302A2D14BF0021012126
:1049B00084F8A91038BD2344002283F8AA20204699
:1049C000FFF774FEE8E7002084F8BB0084F8BA0023
:1049D00084F8A800022284F8B92084F8A90084F899
:1049E000BC00E7E790F8BB200D2A05D8501C84F8DE
:1049F000BB00224482F8AA1094F8A90028B994F8C0
:104A0000A820514084F8A810D4E70020D2E7000085
:104A1000012800D0704708B54FF6FF73994200D0C7
:104A200008BD0248FFF7ECFCFAE700BF480400208D
:104A300008B50C4BD3F8E431FF2B0BD80948D0F85C
:104A4000E4315A1CC0F8E421034493F8E010FFF766
:104A500079FFEEE7034B0022C3F8E021C3F8E4211D
:104A600008BD00BF48040020014BD3F8D8007047B0
:104A70004804002008B54FF6FF710120FFF7C8FF7A
:104A800008BD08B507F09DFF08BD0000F0B585B072
:104A900004460D4616461F4609F046FA03230293C4
:104AA0000197009601232A4604FA03F1044803F013
:104AB000A5FE044609F0D8FA60B205B0F0BD00BF0B
:104AC000485B0120F0B585B004460D4616461F46EA
:104AD00009F02AFA032302930197009601232A463C
:104AE00004FA03F1044803F0D5FD044609F0BCFACA
:104AF00060B205B0F0BD00BF485B012010B50C46A8
:104B000039B900231A464FF4FA71FEF7BDF9204671
:104B100010BD002332221946FEF7B6F9F7E7000070
:104B200008B51B487623437001238370194B4360FB
:104B3000194B8360194BC360FEF77EFE034608B134
:104B4000184608BD1248FEF72AFE03460028F7D192
:104B50000F49002381F83B30042281F838200122DC
:104B600081F8392081F83C301F20FEF7B8FE03465B
:104B70000028E5D106490320FEF7EBFE034600229C
:104B800007490A7007490A6007490A60D8E700BF69
:104B9000F85701208D4A0008C54A0008834A0008DA
:104BA0003006002070590120F457012008B50F4845
:104BB0000F4BC3600F4B03610F4B436128234372BC
:104BC000FEF766FF034608B1184608BDFFF764FB11
:104BD00003460028F8D10720FFF794F90346002880
:104BE000F2D10320FFF7ACFB0346EDE7BC570120F1
:104BF000C54A00088D4A0008834A000870B582B093
:104C00002E4A2F490720FEF714FF0446002833D10F
:104C10002C4B1B78B3B92A4B1B682B4AA2FB0332DF
:104C20002A490B6803EB52130B6029490A680132C9
:104C30000A60802A09D1DB09244A1360214B012232
:104C40001A7002E01F4B5B780BB31D4D6E6802F0CB
:104C500089FA02460C213046FDF7C6FC2D6802F0A9
:104C600081FA194BA3FB0535024600216809FDF7BF
:104C7000BBFC144B5B78A3B1124B5B780133DBB206
:104C80001D2B18D80F4A5370204602B070BD0F4B31
:104C90001D6802F067FA02460D212846FDF7A4FCC4
:104CA000D3E707494B680A688968009109490A48AF
:104CB0000CF092FEE0E70023E4E700BFF857012084
:104CC000D8570120300600201F85EB51F4570120F2
:104CD00070590120A82A0108445801202DE9F04309
:104CE0002DED048B85B06448FFF7EEF9C4B263483C
:104CF000FFF746F854FA80F4E4B26148FFF77CFA13
:104D000054FA80F464B274B15E4B9B780133DBB229
:104D1000092B00F2AE805B4A9370204605B0BDECD3
:104D2000048BBDE8F083544D95ED008ABDEEC88A32
:104D300002F018FA0246012118EE100AFDF754FCA1
:104D400095ED018ABDEEC88A02F00CFA02460221F6
:104D500018EE100AFDF748FC95ED028ABDEEC88AF0
:104D600002F000FA0246032118EE100AFDF73CFC9F
:104D7000434DD5ED008A9FED449A68EE898AFDEE99
:104D8000E88A02F0EFF90246042118EE900AFDF7D6
:104D90002BFCD5ED018A68EE898AFDEEE88A02F0E7
:104DA000E1F90246052118EE900AFDF71DFC95ED8C
:104DB000028A28EE098ABDEEC88A02F0D3F90246BB
:104DC000062118EE100AFDF70FFC2E4B9B78002BE6
:104DD0009AD1294BD3F80480D3F808901868FBF7D0
:104DE000E3FB06460F46294D4846FBF7DDFBCDE9C0
:104DF00002014046FBF7D8FBCDE9000132463B46B5
:104E0000234928460CF0E8FD1D4BD3F80480D3F865
:104E100008901868FBF7C8FB06460F464846FBF7A4
:104E2000C3FBCDE902014046FBF7BEFBCDE9000123
:104E300032463B46174928460CF0CEFD0F4BD3F8BF
:104E40000480D3F808901868FBF7AEFB06460F46BF
:104E50004846FBF7A9FBCDE902014046FBF7A4FB5E
:104E6000CDE9000132463B460B4928460CF0B4FD23
:104E70004AE700234FE700BFE8570120745901209B
:104E8000385801203006002000007A4444580120A0
:104E9000C82A0108E02A0108F42A010870B54FF475
:104EA000FA7007F08EFDFDF7D5FF214B1860FDF776
:104EB000D1FF204B18600024254605B31C4B1E680B
:104EC000FFF70CFFB0FA80F149093046FFF716FEF4
:104ED0000CB3184B1E68FFF791FEB0FA80F1490938
:104EE0003046FFF70BFE0A2007F06BFD002CE4D1E3
:104EF000002DE2D14FF47A7007F063FDDDE70C4B33
:104F00001D68FFF753FEB0FA80F149092846FFF704
:104F1000F5FD0546DCE7074B1C68FFF701FEB0FA1C
:104F200080F149092046FFF7E9FD0446DBE700BFB1
:104F3000E4570120D457012010B50322002101209D
:104F400008F054FA0A4C206003220021012008F0E6
:104F50004DFA606003220021012008F047FAA060AA
:104F600003220021012008F041FAE06010BD00BFDB
:104F70003406002010B584B004AC04E90F00284BBF
:104F80001B69B3F5FC7F37D8009A254B1969481C7B
:104F90001861100E194408751969481C1861C2F38C
:104FA0000740194408751969481C1861C2F30720A5
:104FB000194408751969481C1861D2B219440A7558
:104FC0001A69511C19619DF804101A441175029A4E
:104FD0001969481C1861C2F307401944087519691A
:104FE000481C1861C2F30720194408751969481C48
:104FF0001861D2B20B441A75094B1B69B3F5007FD7
:1050000001D204B010BD064C206800231A46194690
:1050100008F034FA60680A2108F05AFCF1E700BF92
:10502000340600202DE9F0438DB0FDF713FF044650
:1050300000F0BCF881463F4909F028FF804600286F
:105040006DD101223B49484609F07CFE804600288C
:1050500065D100231A4632212046FDF715FF4FF493
:105060007A7007F0AEFCF4E700231A46322120469E
:10507000FDF70AFF4FF47A7007F0A3FCF4E72E4B1C
:105080001344197D83F8141201322B4B1B69934290
:10509000F5D8294F3B69C7F8143400263E6178687B
:1050A00033463246314608F0E9F9D7F8141407F5CB
:1050B0000570079B9847D7F814341D4432231A46CD
:1050C00031462046FDF7E0FE1B4B93F8183473B9C8
:1050D000194E30684FF0FF3108F0FAFB3369B3F531
:1050E000007F02D94FF4007232610022CDE72946D9
:1050F0001248FDF7ABFE019B98471148FDF7A6FE4D
:105100000D4DA86800231A46194608F0B7F9E8685B
:105110004FF0FF3108F0DCFB0A48FDF797FE012352
:1051200042464946684609F0FFFE079B002B9BD08C
:105130000025C9E7402B010834060020482B010850
:10514000702B0108982B010808B501460148FDF7AE
:105150007DFE08BD0C2C010810B50D4C0D492046F4
:1051600009F0A0FA4FF480534FF080720A492046AC
:1051700009F0B8FA094B0A4A0A49204609F09CFA94
:10518000204609F061FB084B01221A7010BD00BFD8
:10519000540A002049510008102C01084F2400082F
:1051A00091230008A3220008500A0020034B1B781B
:1051B0000BB1034870470020704700BF500A002021
:1051C000540A002008B500214FF4807008F035F92A
:1051D000014B186008BD00BF404C002070B5FDF7C2
:1051E00039FE064605E00023AA22FF213046FDF7DE
:1051F0004BFE0B4C20684FF0FF3108F069FB09486B
:105200000CF08EFB6368DA6862609D685A68186803
:105210009047A8476368002BE5D1A2686260E2E787
:10522000404C00201C2C010870B506460C4600219D
:10523000134B186808F04CFB01281DD1104B5B681C
:105240002344B3F5007F15D3002400231A461946E2
:105250000B48006808F012F9204670BD094A106832
:1052600007494A68551C4D60F15C81540133A342E3
:10527000F4DBEAE70023FAE74FF0FF30EDE700BF89
:105280004C4C00200800002080EA2120034B33F919
:10529000100080EA012080B2704700BFA0270108FB
:1052A000C04380B2704710B403895C1C828894426A
:1052B00002DC02680481D1545DF8044B704770B57C
:1052C0000546144617318180402007F09BFC28607A
:1052D00030B300232B8121462846FFF7E4FF452108
:1052E0002846FFF7E0FF50212846FFF7DCFF462164
:1052F0002846FFF7D8FF4C212846FFF7D4FF4FF68A
:10530000FF73EB802E89741F24B2B4420ADA2B6833
:10531000E988185DFFF7B8FFE880013424B2F4E7AC
:10532000AB882B81284670BD2DE9F04180460D46A3
:1053300017242E893746B44208DA2B68E988185DAD
:10534000FFF7A2FFE880013424B2F2E7E888FFF714
:10535000A7FFE8800237AB889F4205DC2B6840BA84
:1053600098532B8902332B812B68C8F80030AB8807
:10537000A8F804304046BDE8F0810000F0B585B0E3
:1053800005460C4616461F460A9B0322282101A803
:10539000FFF795FFBDF80C20111DBDF808309942AC
:1053A00007DC3FBA019B9F50BDF80C300433ADF8C9
:1053B0000C30604A1368591C1160BDF80C20101D98
:1053C000BDF80810884207DC1BBA01998B50BDF864
:1053D0000C300433ADF80C302268BDF80C30181DC9
:1053E000BDF80810884207DC12BA0199CA50BDF80E
:1053F0000C300433ADF80C306268BDF80C30181D69
:10540000BDF80810884207DC12BA0199CA50BDF8ED
:105410000C300433ADF80C30A268BDF80C30181D08
:10542000BDF80810884207DC12BA0199CA50BDF8CD
:105430000C300433ADF80C30E268BDF80C30181DA8
:10544000BDF80810884207DC12BA0199CA50BDF8AD
:105450000C300433ADF80C302269BDF80C30181D47
:10546000BDF80810884207DC12BA0199CA50BDF88D
:105470000C300433ADF80C306269BDF80C30181DE7
:10548000BDF80810884207DC12BA0199CA50BDF86D
:105490000C300433ADF80C303268BDF80C30181DF8
:1054A000BDF80810884207DC12BA0199CA50BDF84D
:1054B0000C300433ADF80C307268BDF80C30181D98
:1054C000BDF80810884207DC12BA0199CA50BDF82D
:1054D0000C300433ADF80C30FDF7F6F910EE102A5D
:1054E000BDF80C30181DBDF80810884207DC12BA50
:1054F0000199CA50BDF80C300433ADF80C30FDF7FB
:10550000DDF910EE103ABDF80C20101DBDF80810A2
:10551000884207DC1BBA01998B50BDF80C3004336C
:10552000ADF80C3001A92846FFF7FEFE284605B06D
:10553000F0BD00BF6450002084B0F0B585B00AAC67
:1055400084E80F0001F00EFE07461B4E06F114041E
:105550000AAD0FCD0FC495E8070084E80700336B50
:10556000FB1A642B05D8002005B0BDE8F04004B05C
:1055700070473446B3685A1CB26002AD00933B4694
:1055800006F13C0206F114012846FFF7F7FE343419
:1055900095E8030084E803000A222146074B1868B7
:1055A00007F05AFA18B9044B1F630120DCE7706B4F
:1055B00007F0A2FBF7E700BF6450002088590120E4
:1055C00084B0F0B585B00AAC84E80F0001F0CAFDE4
:1055D00007461A4E06F13C040AAD0FCD0FC42B68E6
:1055E0002360336BFB1A642B05D8002005B0BDE89F
:1055F000F04004B070473446B3685A1CB26002AD44
:1056000000933B4606F13C0206F114012846FFF7E1
:10561000B5FE503495E8030084E803000A222146D1
:10562000074B186807F018FA18B9044B1F630120DC
:10563000DCE7306D07F060FBF7E700BF6450002047
:105640008859012008B5054B1B68834200D008BD6E
:10565000034B186807F0BEF9F9E700BF185B01209B
:1056600084590120DFF834D0002103E00C4B5B5853
:10567000435004310B480C4B42189A42F6D30B4A64
:1056800002E0002342F8043B094B9A42F9D301F0AF
:105690001DFD0BF0F9FF00F051FB704700000220E8
:1056A00050350108000000200C0200200C020020F0
:1056B0006C660120FEE7000030B597B0002413941B
:1056C000149415940E940F941094119412940A94B7
:1056D0000B940C940D9406940794089409943E4BF3
:1056E0005A6C42F480725A645A6C02F480720392CB
:1056F000039A1A6B42F001021A631A6B02F001025C
:105700000292029A1A6B42F004021A631B6B03F0B6
:1057100004030193019B0C2304930325059504A91D
:105720002E4806F02FFB10230493059508940DEBEB
:1057300003012B4806F026FB139414941594294D6D
:1057400013A9284606F0D4FA0E940F9410941194DD
:1057500012940EA9284606F0E7FAAB6843F480637A
:10576000AB606B6823F020036B600A940B940AA96A
:105770001D4806F08FFA1D494FF4407393FAA3F3C6
:10578000B3FA83F34FF40072DA4051F8223023F079
:105790001F0343F0020341F822300C354FF0007331
:1057A00093FAA3F2B2FA82F2D34055F823204FF0D5
:1057B000F87191FAA1F4B4FA84F44FF4C00020FA1D
:1057C00004F40720A04022EA000291FAA1F145F872
:1057D000232017B030BD00BF003802400000024057
:1057E0000008024000200140002301402C2001401D
:1057F00030B593B000240F94109411940A940B9434
:105800000C940D940E9406940794089409943A4BC2
:105810005A6C42F400725A645A6C02F40072039299
:10582000039A1A6B42F004021A631A6B02F0040224
:105830000292029A1A6B42F001021A631B6B03F088
:1058400001030193019B03250495059504A92B48A9
:1058500006F098FA302304930595089404A9284883
:1058600006F090FA0F9410941194264D0FA9284633
:1058700006F03EFA0A940B940C940D940E940AA927
:10588000284606F051FAAB6843F48063AB606B685E
:1058900023F020036B601C494FF4407393FAA3F389
:1058A000B3FA83F34FF40072DA4051F8223023F058
:1058B0001F0343F0040341F822300C354FF000730E
:1058C00093FAA3F2B2FA82F2D34055F823204FF0B4
:1058D000F87191FAA1F4B4FA84F44FF4400020FA7C
:1058E00004F40720A04022EA000291FAA1F145F851
:1058F000232013B030BD00BF003802400008024032
:1059000000000240002101402C21014008B50D4853
:105910000D4B03600923436000238360C3604FF491
:10592000402202614FF4801242610376437683760F
:10593000C3760377437701F02FFC00B908BD00F070
:1059400049FAFBE71C5B012000640040F0B589B018
:105950000023039304930593069307930268234B54
:105960009A4201D009B0F0BD0024009403F5EA3357
:105970001A6C42F000721A641A6C02F00072009203
:10598000009A01941A6B42F001021A631A6B02F03A
:1059900001020192019A02941A6B42F002021A6308
:1059A0001B6B03F002030293029B4FF4805303939B
:1059B00002270497032606960925079503A90C4894
:1059C00002F08EFA4FF480730393049705940696C1
:1059D000079503A9074802F083FA224605211420FF
:1059E00001F0D4FF142002F005F8BBE7006400408A
:1059F000000002400004024010B582B00024009470
:105A0000224B1A6B42F480021A631A6B02F4800272
:105A10000092009A01941A6B42F400121A631B6BF5
:105A200003F400130193019B224605210C2001F091
:105A3000ADFF0C2001F0DEFF224605210D2001F014
:105A4000A5FF0D2001F0D6FF224605210F2001F011
:105A50009DFF0F2001F0CEFF224605213B2001F0E3
:105A600095FF3B2001F0C6FF22460521452001F0AD
:105A70008DFF452001F0BEFF22460521462001F0A2
:105A800085FF462001F0B6FF02B010BD003802408D
:105A900008B501F031F9012006F093FFFBE70000A3
:105AA000034B036054330B6080231360704700BFC7
:105AB0000451002030B589B0FDF73AF901AC084D2A
:105AC0000FCD0FC495E8070084E80700002101A866
:105AD00006F041FF034B1860FDF730F909B030BD07
