:020000040800F2
:10000000000002205D220008F52E0008F72E0008EF
:10001000F92E0008FB2E0008FD2E0008000000004D
:100020000000000000000000000000001192000825
:10003000FF2E000800000000B19200081593000890
:10004000AD220008AD220008AD220008AD22000854
:10005000AD220008AD220008AD220008AD22000844
:10006000AD220008AD220008AD220008AD22000834
:10007000012F0008112F0008AD220008212F0008D1
:10008000AD220008AD220008AD220008AD22000814
:10009000312F0008AD220008AD220008AD22000873
:1000A000AD220008AD220008AD220008AD220008F4
:1000B000AD220008AD220008AD220008AD220008E4
:1000C000AD220008AD220008AD220008AD220008D4
:1000D000AD220008412F0008AD220008AD22000823
:1000E000AD220008AD220008AD220008AD220008B4
:1000F000AD220008512F0008AD220008AD220008F3
:10010000AD220008612F0008AD220008AD220008D2
:10011000AD220008AD220008AD220008AD22000883
:10012000AD220008712F0008AD220008812F0008C1
:10013000AD2200080000000000000000AD22000811
:10014000AD220008AD220008AD220008AD22000853
:10015000AD220008912F0008A12F0008AD22000851
:10016000AD220008AD220008AD220008AD22000833
:10017000AD220008AD220008AD22000800000000FA
:1001800000000000AD220008000000000000000098
:10019000AD2200080000000000000000AD220008B1
:1001A000000000000000000000000000AD22000878
:1001B000B12F0008AD220008AD220008AD220008D2
:0401C000AD22000864
:1001D00010B5054C237833B9044B13B10448AFF381
:1001E00000800123237010BDF801002000000000F2
:1001F00094D6000808B5034B1BB103490348AFF37D
:10020000008008BD00000000FC01002094D600081A
:1002100010F8012B11F8013B012A28BF9A42F7D0B0
:10022000D01A704781F0004102E000BF83F0004324
:1002300030B54FEA41044FEA430594EA050F08BF81
:1002400090EA020F1FBF54EA000C55EA020C7FEA45
:10025000645C7FEA655C00F0E2804FEA5454D4EBC2
:100260005555B8BF6D420CDD2C4480EA020281EA8C
:10027000030382EA000083EA010180EA020281EAC4
:100280000303362D88BF30BD11F0004F4FEA013116
:100290004FF4801C4CEA113102D0404261EB410125
:1002A00013F0004F4FEA03334CEA133302D05242AB
:1002B00063EB430394EA050F00F0A780A4F1010467
:1002C000D5F1200E0DDB02FA0EFC22FA05F28018A1
:1002D00041F1000103FA0EF2801843FA05F3594187
:1002E0000EE0A5F120050EF1200E012A03FA0EFC06
:1002F00028BF4CF0020C43FA05F3C01851EBE37130
:1003000001F0004507D54FF0000EDCF1000C7EEB4C
:1003100000006EEB0101B1F5801F1BD3B1F5001F8A
:100320000CD349085FEA30004FEA3C0C04F10104A9
:100330004FEA445212F5800F80F09A80BCF1004FD2
:1003400008BF5FEA500C50F1000041EB045141EA54
:10035000050130BD5FEA4C0C404141EB010111F455
:10036000801FA4F10104E9D191F0000F04BF014600
:100370000020B1FA81F308BF2033A3F10B03B3F1DE
:1003800020020CDA0C3208DD02F1140CC2F10C026E
:1003900001FA0CF021FA02F10CE002F11402D8BFCC
:1003A000C2F1200C01FA02F120FA0CFCDCBF41EA98
:1003B0000C019040E41AA2BF01EB0451294330BD67
:1003C0006FEA04041F3C1CDA0C340EDC04F1140444
:1003D000C4F1200220FA04F001FA02F340EA03001B
:1003E00021FA04F345EA030130BDC4F10C04C4F161
:1003F000200220FA02F001FA04F340EA0300294641
:1004000030BD21FA04F0294630BD94F0000F83F48A
:10041000801306BF81F480110134013D4EE77FEA6D
:10042000645C18BF7FEA655C29D094EA050F08BFB9
:1004300090EA020F05D054EA000C04BF194610469A
:1004400030BD91EA030F1EBF0021002030BD5FEADE
:10045000545C05D14000494128BF41F0004130BD06
:1004600014F580043CBF01F5801130BD01F000455A
:1004700045F0FE4141F470014FF0000030BD7FEACD
:10048000645C1ABF194610467FEA655C1CBF0B46C8
:10049000024650EA013406BF52EA033591EA030FDF
:1004A00041F4002130BD00BF90F0000F04BF0021D7
:1004B000704730B54FF4806404F132044FF000050A
:1004C0004FF0000150E700BF90F0000F04BF002183
:1004D000704730B54FF4806404F1320410F00045E9
:1004E00048BF40424FF000013EE700BF42004FEAE4
:1004F000E2014FEA31014FEA02701FBF12F07F4361
:1005000093F07F4F81F06051704732F07F4208BF17
:10051000704793F07F4F04BF41F40021704730B51E
:100520004FF4607401F0004521F000411CE700BF6A
:1005300050EA010208BF704730B54FF000050AE0ED
:1005400050EA010208BF704730B511F0004502D5EE
:10055000404261EB41014FF4806404F132045FEAF0
:10056000915C3FF4D8AE4FF003025FEADC0C18BF99
:1005700003325FEADC0C18BF033202EBDC02C2F18B
:10058000200300FA03FC20FA02F001FA03FE40EA1D
:100590000E0021FA02F11444BDE600BF70B54FF021
:1005A000FF0C4CF4E06C1CEA11541DBF1CEA1355FF
:1005B00094EA0C0F95EA0C0F00F0DEF82C4481EA67
:1005C000030621EA4C5123EA4C5350EA013518BF87
:1005D00052EA033541F4801143F4801338D0A0FB74
:1005E00002CE4FF00005E1FB02E506F00042E0FB21
:1005F00003E54FF00006E1FB03569CF0000F18BF27
:100600004EF0010EA4F1FF04B6F5007F64F54074CE
:1006100004D25FEA4E0E6D4146EB060642EAC62161
:1006200041EA55514FEAC52040EA5E504FEACE2ECE
:10063000B4F1FD0C88BFBCF5E06F1ED8BEF1004FD1
:1006400008BF5FEA500E50F1000041EB045170BD4D
:1006500006F0004646EA010140EA020081EA030191
:10066000B4EB5C04C2BFD4EB0C0541EA045170BD8D
:1006700041F480114FF0000E013C00F3AB8014F107
:10068000360FDEBF002001F0004170BDC4F1000450
:10069000203C35DA0C341BDC04F11404C4F12005D1
:1006A00000FA05F320FA04F001FA05F240EA02002C
:1006B00001F0004221F0004110EBD37021FA04F662
:1006C00042EB06015EEA430E08BF20EAD37070BD1C
:1006D000C4F10C04C4F1200500FA04F320FA05F07B
:1006E00001FA04F240EA020001F0004110EBD3707D
:1006F00041F100015EEA430E08BF20EAD37070BDED
:10070000C4F1200500FA05F24EEA020E20FA04F3C5
:1007100001FA05F243EA020321FA04F001F0004174
:1007200021FA04F220EA020000EBD3705EEA430EE5
:1007300008BF20EAD37070BD94F0000F0FD101F014
:100740000046400041EB010111F4801F08BF013C4D
:10075000F7D041EA060195F0000F18BF704703F08B
:100760000046520043EB030313F4801F08BF013D12
:10077000F7D043EA0603704794EA0C0F0CEA1355CE
:1007800018BF95EA0C0F0CD050EA410618BF52EA88
:100790004306D1D181EA030101F000414FF000008E
:1007A00070BD50EA410606BF1046194652EA43069C
:1007B00019D094EA0C0F02D150EA013613D195EA10
:1007C0000C0F05D152EA03361CBF104619460AD158
:1007D00081EA030101F0004141F0FE4141F4700162
:1007E0004FF0000070BD41F0FE4141F4780170BD52
:1007F00070B54FF0FF0C4CF4E06C1CEA11541DBFB7
:100800001CEA135594EA0C0F95EA0C0F00F0A7F8B8
:10081000A4EB050481EA030E52EA03354FEA0131E5
:1008200000F088804FEA03334FF0805545EA1313F8
:1008300043EA12634FEA022245EA111545EA1065C0
:100840004FEA00260EF000419D4208BF964244F157
:10085000FD0404F5407402D25B084FEA3202B61A76
:1008600065EB03055B084FEA32024FF480104FF44A
:10087000002CB6EB020E75EB030E22BFB61A7546BE
:1008800040EA0C005B084FEA3202B6EB020E75EB51
:10089000030E22BFB61A754640EA5C005B084FEAB9
:1008A0003202B6EB020E75EB030E22BFB61A754686
:1008B00040EA9C005B084FEA3202B6EB020E75EB91
:1008C000030E22BFB61A754640EADC0055EA060E52
:1008D00018D04FEA051545EA16754FEA06164FEA95
:1008E000C30343EA52734FEAC2025FEA1C1CC0D141
:1008F00011F4801F0BD141EA00014FF000004FF0CE
:10090000004CB6E711F4801F04BF01430020B4F18E
:10091000FD0C88BFBCF5E06F3FF6AFAEB5EB030C46
:1009200004BFB6EB020C5FEA500C50F1000041EB43
:10093000045170BD0EF0004E4EEA113114EB5C0410
:10094000C2BFD4EB0C0541EA045170BD41F48011E3
:100950004FF0000E013C90E645EA060E8DE60CEAEB
:10096000135594EA0C0F08BF95EA0C0F3FF43BAF08
:1009700094EA0C0F0AD150EA01347FF434AF95EABF
:100980000C0F7FF425AF104619462CE795EA0C0FA3
:1009900006D152EA03353FF4FDAE1046194622E770
:1009A00050EA410618BF52EA43067FF4C5AE50EA4A
:1009B00041047FF40DAF52EA43057FF4EBAE12E73A
:1009C0004FF0FF3C06E000BF4FF0010C02E000BF1B
:1009D0004FF0010C4DF804CD4FEA410C7FEA6C5CFE
:1009E0004FEA430C18BF7FEA6C5C1BD001B050EAA1
:1009F000410C0CBF52EA430C91EA030F02BF90EA8C
:100A0000020F0020704710F1000F91EA030F58BF4A
:100A1000994208BF90422CBFD8176FEAE37040F0AC
:100A2000010070474FEA410C7FEA6C5C02D150EA4A
:100A3000013C07D14FEA430C7FEA6C5CD6D152EA05
:100A4000033CD3D05DF8040B704700BF84461046CA
:100A500062468C461946634600E000BF01B5FFF7C9
:100A6000B7FF002848BF10F1000F01BD4DF808ED99
:100A7000FFF7F4FF0CBF012000205DF808FB00BF6A
:100A80004DF808EDFFF7EAFF34BF012000205DF8C4
:100A900008FB00BF4DF808EDFFF7E0FF94BF012011
:100AA00000205DF808FB00BF4DF808EDFFF7CEFF12
:100AB00094BF012000205DF808FB00BF4DF808ED51
:100AC000FFF7C4FF34BF012000205DF808FB00BF22
:100AD0004FEA410C7FEA6C5C02D150EA013C0AD13A
:100AE0004FEA430C7FEA6C5C02D152EA033C02D12C
:100AF0004FF0000070474FF0010070474FEA41028D
:100B0000B2F1E04324BFB3F5001CDCF1FE5C0DD96B
:100B100001F0004C4FEAC0024CEA5070B2F1004FB5
:100B200040EB830008BF20F00100704711F0804FB8
:100B300021D113F13872BCBF01F00040704741F47D
:100B400080114FEA5252C2F11802C2F1200C10FA81
:100B50000CF320FA02F018BF40F001004FEAC12365
:100B60004FEAD32303FA0CFC40EA0C0023FA02F309
:100B70004FEA4303CCE77FEA625307D150EA0133DF
:100B80001EBF4FF0FE4040F44000704701F00040AF
:100B900040F0FE4040F40000704700BF53B94AB92E
:100BA000002908BF00281CBF4FF0FF314FF0FF3075
:100BB00000F072B9ADF1080C6DE904CE00F006F852
:100BC000DDF804E0DDE9022304B070472DE9F047C9
:100BD000089E04468846002B4BD18A42154667D9A9
:100BE000B2FA82F24AB1C2F1200701FA02F320FA06
:100BF00007F7954047EA030894404FEA154E230C47
:100C0000B8FBFEF71FFA85FC0EFB178843EA084382
:100C100007FB0CF1994209D9EB1807F1FF3080F07E
:100C20001B81994240F21881023F2B445B1AA4B207
:100C3000B3FBFEF00EFB103344EA034400FB0CFC54
:100C4000A44509D92C1900F1FF3380F00781A44590
:100C500040F2048102382C4440EA0740A4EB0C0423
:100C600000271EB1D4400023C6E900433946BDE841
:100C7000F0878B4209D9002E00F0EB800027C6E9EF
:100C8000000138463946BDE8F087B3FA83F7002FF4
:100C900047D18B4202D3824200F2FA80841A61EB80
:100CA000030301209846002EE0D0C6E90048DDE7A6
:100CB00002B9FFDEB2FA82F2002A40F08F80491BAF
:100CC0004FEA154E1FFA85F80127B1FBFEFC230CF5
:100CD0000EFB1C1143EA014308FB0CF1994207D9B2
:100CE000EB180CF1FF3002D2994200F2CD8084461D
:100CF000591AA3B2B1FBFEF00EFB101443EA0444F0
:100D000008FB00F8A04507D92C1900F1FF3302D2E7
:100D1000A04500F2B6801846A4EB080440EA0C4057
:100D20009FE7C7F1200CBB4022FA0CFE4EEA030EEF
:100D300001FA07F420FA0CF521FA0CF34FEA1E48E9
:100D40002543B3FBF8F92C0C08FB19331FFA8EFA74
:100D500044EA034309FB0AF49C4202FA07F200FA50
:100D600007F10BD91EEB030309F1FF3080F08780F8
:100D70009C4240F28480A9F1020973441B1BADB26E
:100D8000B3FBF8F008FB103345EA034400FB0AFA12
:100D9000A24508D91EEB040400F1FF336BD2A24533
:100DA00069D90238744440EA0940A0FB0289A4EBE7
:100DB0000A044C45C2464B4654D351D0002E69D04C
:100DC000B1EB0A0564EB030404FA0CFCFD40FC40A3
:100DD0004CEA0505C6E90054002747E7C2F12003A5
:100DE00020FA03F7954001FA02F021FA03F34FEAE3
:100DF000154E3843010CB3FBFEF71FFA85F80EFBC6
:100E0000173341EA034107FB08F38B4204FA02F46B
:100E100007D9691807F1FF3C2FD28B422DD9023F29
:100E20002944CB1A81B2B3FBFEF00EFB103341EA2A
:100E3000034100FB08F38B4207D9691800F1FF3C1E
:100E400017D28B4215D902382944C91A40EA0747FC
:100E50003BE73746304609E70746E7E61846FBE634
:100E60004145ABD2B8EB020A69EB0E0201381346DA
:100E7000A4E76046E9E7184695E76746D1E781466B
:100E80007CE702382C4447E7ACF1020C2B442FE7F7
:100E9000384608E73746E9E6704700BF704700B5B7
:100EA00091B002A800F02DF9012102A800F03CF950
:100EB000702102A800F03EF948B10DF1070000F0E2
:100EC00073F948B19DF8070011B05DF804FB4FF2CB
:100ED000FF20FFF7E3FFF0E74FF2FD20FFF7DEFF13
:100EE000F0E730B59DB00EA800F00BF906210EA872
:100EF00000F020F9034610B918461DB030BD684611
:100F000000F0FFF80EAD6C460FCC0FC50FCC0FC52F
:100F10000FCC0FC594E8030085E8030001210EA85B
:100F200000F002F901231A4605210EA800F010F97D
:100F30000346E1E700B58FB0684600F0E2F806210D
:100F4000684600F0F7F80FB05DF804FB70B58EB09E
:100F500006460C461546684600F0D3F8314668460A
:100F600000F0DAF82946684600F0DEF8032168460A
:100F700000F0E0F828B1204600F016F930B10EB0CC
:100F800070BD4FF2FF20FFF789FFF4E74FF2FD201D
:100F9000FFF784FFF3E770B59CB006460C46154694
:100FA000FFF79FFF0EA800F0ACF831460EA800F046
:100FB000B3F829460EA800F0B7F802210EA800F0F9
:100FC000B9F820B3204600F0E1F828B3684600F0F5
:100FD00098F80EAD6C460FCC0FC50FCC0FC50FCCDB
:100FE0000FC594E8030085E8030001210EA800F076
:100FF0009BF80123072270210EA800F0A9F880B108
:10100000FFF74DFF10F0100F10D11CB070BD44F66B
:10101000FF70FFF743FFD5E744F6BF70FFF73EFFD1
:10102000D4E74EF2BD70FFF739FFE9E7FFF782FF23
:1010300044F6BD70FFF732FFE7E770B505460E4690
:1010400014460BE04FF4807231462846FFF7A3FFA9
:1010500006F5807605F58075A4F58074B4F5807F7B
:10106000F0D8224631462846FFF795FF70BD30B5CF
:101070009DB004460D46FFF734FF0EA800F041F87E
:1010800029460EA800F048F821460EA800F052F8B4
:1010900000B3684600F035F80EAD6C460FCC0FC5B6
:1010A0000FCC0FC50FCC0FC594E8030085E80300F3
:1010B00001210EA800F038F80123072270210EA8A4
:1010C00000F046F858B1FFF7EAFE10F0200F0BD100
:1010D0001DB030BD4EF2FF70FFF7E0FED9E74EF2D3
:1010E000BD70FFF7DBFEEEE7FFF724FF4EF2BD70A9
:1010F000FFF7D4FEECE708B501462020FFF7B7FF65
:1011000008BD10B50446382200210CF0EAF94FF46E
:101110008073A361204610BD4FF48063C3614FF418
:101120000053C360416070474FF080734362816237
:101130007047000008B501604FF4FA6201460348A9
:1011400003F08AFFB0FA80F0400908BDC013012007
:1011500030B587B00024049401240394102502952F
:101160004FF48005059593400093944001940160ED
:101170004FF4FA636A460146034803F0B9FFB0FA38
:1011800080F0400907B030BDC013012008B54FF40E
:10119000FA620146034804F072F8B0FA80F04009A0
:1011A00008BD00BFC013012008B54FF4FA62014624
:1011B000034804F0CCF8B0FA80F0400908BD00BF45
:1011C000C0130120013000E0401A8842FCD2704771
:1011D00070B584B06C4684E80F00104E3368104D33
:1011E00005EB031594E80F0085E80F0030684021F7
:1011F000FFF7E8FF3060326873689A4201D004B0AC
:1012000070BD70684021FFF7DDFF7060322300225F
:1012100019460448006800F00FFCF0E714020020B3
:10122000880B01200000002070B58AB0064600241B
:101230000594069401230793009401940294039467
:10124000049408930E2309930E4D6946284602F034
:10125000CFFE284602F062FF0221284603F039F84B
:10126000094B1E605E60DC609C6008221A611C7580
:1012700023460A2221460548006800F0DDFB0AB03B
:1012800070BD00BFAC120120540B012000000020F3
:1012900010B5094B1C685B68E41A02D41CB12046E7
:1012A00010BD4034FAE700230A22194603480068BB
:1012B00000F0C2FBF3E700BF140200200000002092
:1012C00038B504460023036043608360C360FFF7C2
:1012D000DFFF08B9204638BD064D6A68064B03EBB0
:1012E00002130FCB84E80F0068684021FFF76AFF04
:1012F0006860EFE714020020880B012070B5002120
:101300001C4802F0D3FF054608B9284670BD1A4CA8
:101310001A4E234632460021164802F02DFF184B84
:10132000002119601A68207802EB00621A601A68BE
:10133000607802EB00421A601A68A07802EB002283
:101340001A601A68E07802441A6022791A7199606A
:101350009A68617902EB01429A609A68A17902EB7E
:1013600001229A609A68E1790A449A603268DA60E8
:10137000CBE700BFAC1201204C0B01206C0B01200D
:10138000380B012008B5FFF7B9FF024B0FCBFFF771
:101390001FFF08BD380B0120062800D87047072022
:1013A000FCE784B08DE80F00002004B07047000017
:1013B00084B030B402AC84E80F000B4A13680133E8
:1013C000136003F00703C3EBC3039A00074C1444F4
:1013D00002AD0FCD0FC495E8070084E80700012097
:1013E00030BC04B0704700BF34090020880F0120D2
:1013F00084B038B504AC84E80F000598FFF776F8A0
:101400002FA3D3E90023FFF7F3F99FED291B41EC4C
:10141000100B0AF02DFF53EC102B00202A49FEF789
:1014200005FF25A3D3E90023FFF7B8F8FFF766FB14
:101430000690DDED077AF5EEC07AF1EE10FA1CDDCC
:1014400017EE900AFFF752F81DA3D3E90023FFF728
:10145000CFF99FED171B41EC100B0AF009FF53EC7D
:10146000102B00201849FEF7E1FE13A3D3E9002357
:10147000FFF794F8FFF742FB0890144A1368013312
:10148000136003F0070303EB83039A00104C14442A
:1014900004AD0FCD0FC42B68236002F0E9FC0D4BA7
:1014A00018600020BDE8384004B07047AFF30080FA
:1014B000EBE2361AC05BC83F0000000040A5E540E3
:1014C000CDCCCCCCCCD48F400000F03F30090020F4
:1014D000681001202C09002070B5ADF5187DE022C0
:1014E00000215CA80BF0FDFFA0242246002134A8B7
:1014F0000BF0F7FF224600210CA80BF0F2FF0025AD
:101500000A950B95089509950695079504950595F7
:101510004FF4FA7007F00DFCA2E194A8FFF7D0FE9B
:101520009798FFF739FF9DF85432322B00F29881DB
:10153000DFE813F033006600760086009900A5000E
:10154000B100BD00D600E600F600FE0046005600E1
:101550009601960196012701960196019601960142
:1015600096019601960196019601960196019601C3
:1015700096019601960196019601960196019601B3
:1015800096019601960196010F01960196011B01A5
:1015900096019601960196010A01DDED947AF8EE26
:1015A000E77ADFEDB36A87EEA67A00EB800293005C
:1015B00034AA134483ED017A08AB01221A544FE197
:1015C000DDED947AF8EEE77ADFEDA96A87EEA67A88
:1015D00000EB8000830034AA134483ED007A3FE1DE
:1015E000DDED947AF8EEE77ADFEDA16A87EEA67A70
:1015F00000EB8000830034AA134483ED037A2FE1CB
:10160000DDED947AF8EEE77ADFED9A6A87EEA67A56
:10161000C0EBC000830098AA134403ED3C7A1FE19D
:10162000DDED947AF8EEE77ADFED926A87EEA67A3E
:10163000C0EBC000830098AA134403ED3B7A0FE18E
:10164000DDED947AF8EEE77ADFED8A6A87EEA67A26
:10165000C0EBC002930098AA134403ED3A7A06AB9C
:1016600001221A54FCE0DDED947AF8EEE77AC0EB43
:10167000C000830098AA134443ED397AF0E0DDED11
:10168000947AF8EEE77AC0EBC000830098AA13447E
:1016900043ED387AE4E0DDED947AF8EEE77AC0EBDA
:1016A000C000830098AA134443ED377AD8E0DDEDFB
:1016B000947AF8EEE77A00EB800293000CAA1344C8
:1016C000DFED6C6A87EEA67A83ED007A0AAB1B5CCD
:1016D000002B40F0C5800AAB01221A541544BFE02C
:1016E000DDED947AF8EEE77A00EB800083000CAA37
:1016F0001344DFED616A87EEA67A83ED017AAFE0ED
:10170000DDED947AF8EEE77A00EB800083000CAA16
:101710001344DFED596A87EEA67A83ED027A9FE0E3
:1017200000EB800083000CAA1344949ADA6097E0DF
:101730009DF8501200EB800293000CAA1344197418
:1017400004AB01221A548BE09DF850224B4B1A70C7
:1017500086E0DDED947AF8EEE77ADFED466A87EE13
:10176000A67A474B83ED007A7AE0DDED947AF8EEC5
:10177000E77ADFED406A87EEA67A414B83ED017A86
:101780006EE0949A3F4B1A606AE004EB8402930087
:101790000CAA13441A6900920FCBFFF702FE78B12E
:1017A000A200224493000CAA1344374A1A605A60DC
:1017B0009A604FF0FF32DA6000221A7404AB1A55B7
:1017C00008AB1B5D2BBB06AB1B5D002B30D101347E
:1017D000072C42DC04AB1B5D002BF1D004EB840230
:1017E00093000CAA1344D868FEF76EFE0022274B24
:1017F000FFF73CF930B10AAB1B5D1BB1013D0AABF1
:1018000000221A550AAB1B5D002BBED1002DD7DC80
:10181000BBE704EB8402930034AA13441A690092D4
:101820000FCBFFF7E5FD80F0010008AB1855CAE7C4
:10183000C4EBC402930098AA1344A3F1F006E03B62
:1018400093E807008DE8070096E80F00FFF7B0FD6A
:1018500080F0010006AB1855B9E70A2007F069FAD5
:10186000FFF716FD00287FF458AE0024B0E700BF54
:101870000000C84200007A44002474493C0900205A
:101880001C02002004000020000080BF0000F0BF08
:1018900010B5044600F082FC844204D000F0D8FC6D
:1018A000844203D010BD00F05DFCFBE700F0BAFC01
:1018B000F8E7000070B590B0C82007F03AFA00F0E1
:1018C000A1F8054603220021012007F047FF464BFF
:1018D000186043F2FC0007F04DFB04464FF48053C0
:1018E0004FF08072414909F049F8414B414A424961
:1018F000204609F021F8204609F06CF83F492046BF
:1019000009F00AFB024688B901223C49204609F049
:101910004BFA024650B900231A463221284600F0FD
:101920008BF84FF47A7007F004FAF4E701232146AC
:1019300005A809F053FB0B9B53B900231A4632212B
:10194000284600F079F84FF47A7007F0F2F9F4E7DE
:10195000254B186800231A46194607F027FF3CE07C
:10196000274B03EB061303F5017404330FCB84E814
:101970000F000136224B1B68B342F1D8204B1A6886
:10198000C3F8042400241C60174B18682346224621
:10199000214607F00BFF15E0194800EB041000F595
:1019A000017001AE0FC886E80F000E9B98479DF8A6
:1019B00008000C9B984704980E9B984703980E9B31
:1019C000984701340E4BD3F80434A342E4D83223B1
:1019D0001A460021284600F02FF8034B1868012111
:1019E00008F00EF90026C5E70811012000DC000808
:1019F000F71000083B1000084D0F00080CDC000831
:101A0000A80200204FF0500383F31188BFF36F8FBB
:101A1000BFF34F8F074B1B68092B07DC054B18687A
:101A2000421C1A60002383F3118870474FF0FF3087
:101A3000704700BFB006002000280DDB10B4074C33
:101A40002468844205DD054C04EB4000818002835C
:101A500083855DF8044B7047704700BFB0060020D7
:101A6000024B58639963DA63704700BF000401407A
:101A700008B5134B1A6A42F004021A621A6A42F05D
:101A800040021A621A6A42F480621A625A6C42F484
:101A900080425A641A6842F001021A6003F57C43DE
:101AA00080229A6103F580634FF480429A614FF47B
:101AB00000429A61002211461046FFF7D1FF08BD8F
:101AC0000004014010B5FFF7D3FF002211464FF488
:101AD0007A70FFF7C5FF4FF47A7007F02AF90022F9
:101AE00011461046FFF7BCFF642007F022F91CE006
:101AF0000F4B03EB44039888198B9A8DFFF7B0FFC7
:101B00004FF4967007F015F9002211461046FFF7C2
:101B1000A7FF642007F00DF90134054B1B68A342B1
:101B2000E6DC4FF4FA7007F004F90024F5E700BF93
:101B3000B006002000220270427082808260027330
:101B40000282426102768283026280F8242002854A
:101B5000C26280F8302080F8382080F83920C263D3
:101B600080F8482080F84920C26480F8582080F826
:101B70005920026680F8682080F86920026780F8A2
:101B8000782080F87920C0F8802080F8882080F8BC
:101B90008920C0F8902080F8982080F89920C0F81B
:101BA000A02080F8A82080F8A920022180F8B91090
:101BB00080F8BA2080F8BB2080F8BC20C0F8C02094
:101BC000C0F8C420C0F8C820C0F8CC20C0F8D0208D
:101BD000C0F8D42080F8AA207047A1F14103DBB2FD
:101BE000052B07D9A1F16103DBB2052B05D9A1F1C2
:101BF00030007047A1F137007047A1F157007047DE
:101C000038B5044605782D2D0CD020460BF030FC5D
:101C1000642303FB00F02378A3F13002092A03D8E0
:101C20000134F8E70134F0E72E2B02D02D2D10D02F
:101C300038BD6378A3F13002092AF7D802EB82039A
:101C40005A001044A378A3F13002092AEED81044B8
:101C5000ECE74042ECE7000038B504460D460BF0D7
:101C600007FC184AA2FB00325309642101FB13034D
:101C700099B2154B03FB01F3C2F34F122A8022786D
:101C8000A2F13001092901D80134F8E72E2A0AD03F
:101C900003EB830301330D4AA2FB03235B086B6054
:101CA00000232B7238BD084914F8012FA2F130002F
:101CB0000928EDD80648A0FB0101C908303A01FB0C
:101CC0000233F1E71F85EB5180969800ABAAAAAAD0
:101CD000CDCCCCCC10B50446034653F81C0F596844
:101CE0006060A1601B7A2373234653F8280F59685C
:101CF000206161611B7A237602F0BAF860630123E8
:101D00006370237010BD08B50B4600F11C01184626
:101D1000FFF7A2FF08BD08B50B4600F128011846E1
:101D2000FFF79AFF08BD10B504468368436002F0D0
:101D30009FF8E06001236370237010BD10B5044666
:101D40008368436002F094F8E060012363702370BD
:101D500010BD10B504460846FFF752FFA06010BD45
:101D600010B5044608460BF083FBA06010BD10B50B
:101D70000446C368836002F07BF8606001236370EF
:101D8000237010BD10B504460846FFF739FFE06028
:101D900010BD10B50446C368836002F069F8606046
:101DA00001236370237010BD10B5044608460BF084
:101DB0005FFBE06010BD10B50446014610300BF02B
:101DC00098FB02F055F82062012384F8253084F84E
:101DD000243010BD08B510220BF093FB08BD0000A5
:101DE000F8B5044690F8A960002E6AD090F8AA10C1
:101DF000FFF7F3FE0001C5B294F8AB102046FFF7E1
:101E0000ECFE55FA80F0C0B294F8A830834207D0B7
:101E1000D4F8D0300133C4F8D03000263046F8BDB5
:101E2000D4F8D4300133C4F8D43094F8BC3023B1A2
:101E3000D4F8CC300133C4F8CC3094F8B930C3B105
:101E4000012B25D104F13800FFF76DFF04F14800A4
:101E5000FFF774FF94F8BC30D3B12046FFF73AFF88
:101E600004F15800FFF783FF04F16800FFF77FFFDC
:101E70000EE004F14800FFF761FF94F8BC30C3B9ED
:101E800004F18800FFF785FF04F19800FFF76FFF6A
:101E9000D4F8C450002DC1D0D4F8C430996AA86ACF
:101EA000FEF7B6F90028B9D12846FFF784FF2D6B5D
:101EB000F0E72046FFF70EFF04F17800FFF757FF29
:101EC000DEE790F8BA30002B3FD100F1AA0766494F
:101ED0003846FEF79DF920B164493846FEF798F977
:101EE00098B9012384F8B930D4F8C030C4F8C430AC
:101EF000D4F8C450DDB13946A86AFEF789F9002844
:101F000015DA2B6BC4F8C430F2E759493846FEF7AE
:101F10007FF920B157493846FEF77AF918B90023FE
:101F200084F8B930E0E7022384F8B930DCE7002D0B
:101F30003FF474AF3946A86AFEF76AF900287FF7C4
:101F40006DAF0023C4F8C43068E790F8B920022AC6
:101F500023D090F8AA1001B343EA4213013B282B87
:101F60001BD8DFE803F015242930354E555B611A84
:101F70001A1A1A1A1A1A1A1A1A1A1A1A1A1A1A1AC1
:101F80001A1A1A1A1A1A151D242930353C4248000B
:101F900000F1AA014830FFF7DCFED4F8C4504AE053
:101FA000412914BF0021012180F8BC10F5E700F1A0
:101FB000AA01FFF7A8FEF0E7532914BF0021012171
:101FC00080F82410E9E700F1AA01FFF7A4FEE4E796
:101FD000572914BF0021012180F83010DDE700F1FE
:101FE000AA015830FFF7CEFED7E700F1AA0168300A
:101FF000FFF7C8FED1E700F1AA013830FFF7B0FEC5
:10200000CBE7302994BF0021012180F8BC10C4E740
:1020100000F1AA018830FFF7C7FEBEE700F1AA0170
:102020009830FFF7AFFEB8E700F1AA017830FFF76C
:10203000A9FEB2E72D6B002D3FF4F0AED4F8C4300A
:10204000996AA86AFEF7E4F800287FF4E7AEEA6A26
:1020500094F8BA309A423FF7E1AEEBD104F1AA010D
:102060002846FFF7B7FEE5E718DC000820DC00088B
:1020700028DC000830DC000838B50446D0F8C82059
:102080000132C0F8C820A1F10A02222A44D8DFE8B0
:1020900002F01743431743434343434343434343FC
:1020A000434343434343434343434343344343430F
:1020B00043431743120090F8A8204A4080F8A82014
:1020C0000D4694F8BB300E2B0FD9002094F8BA308F
:1020D000013384F8BA30002384F8BB302A2D14BFB2
:1020E0000021012184F8A91038BD2344002283F87F
:1020F000AA202046FFF774FEE8E7002084F8BB0022
:1021000084F8BA0084F8A800022284F8B92084F880
:10211000A90084F8BC00E7E790F8BB200D2A05D899
:10212000501C84F8BB00224482F8AA1094F8A9003D
:1021300028B994F8A820514084F8A810D4E70020CA
:10214000D2E70000012800D0704708B54FF6FF73B2
:10215000994200D008BD0248FFF7ECFCFAE700BF47
:10216000F006002008B50C4BD3F8E431FF2B0BD858
:102170000948D0F8E4315A1CC0F8E421034493F82C
:10218000E010FFF779FFEEE7034B0022C3F8E021F0
:10219000C3F8E42108BD00BFF0060020014BD3F8CE
:1021A000D8007047F006002008B54FF6FF710120F7
:1021B000FFF7C8FF08BD000008B5054B1B68834248
:1021C00000D008BD034B186806F0BCFDF9E700BF5E
:1021D000A412012010110120114B1A6801321A605B
:1021E0001B797BB90D280ED00A280CD00C4B5B79DB
:1021F00043B10B4A936801339360012B09D0084B1C
:1022000000225A717047064B01225A7100229A60CF
:1022100070474F28F6D1134601221A71704700BF4C
:102220004809002008B507E0084BDA68511CD9605E
:102230001344187CFFF7D0FF044BDB683F2BF3D926
:10224000024B00221A65DA6008BD00BF4809002071
:10225000014B1868704700BFA8120120DFF834D086
:10226000002103E00C4B5B58435004310B480C4BEE
:1022700042189A42F6D30B4A02E0002342F8043B8C
:10228000094B9A42F9D301F0A7FD0BF0FBF800F0DF
:10229000BDFB70470000022058DE0008000000204F
:1022A000F8010020F8010020D81D0120FEE7000001
:1022B00030B597B000241394149415940E940F9491
:1022C0001094119412940A940B940C940D94069407
:1022D0000794089409943E4B5A6C42F480725A64F5
:1022E0005A6C02F480720392039A1A6B42F0010254
:1022F0001A631A6B02F001020292029A1A6B42F000
:1023000004021A631B6B03F004030193019B0C236B
:1023100004930325059504A92E4805F0EBFE102330
:102320000493059508940DEB03012B4805F0E2FE9C
:10233000139414941594294D13A9284605F090FE82
:102340000E940F941094119412940EA9284605F03F
:10235000A3FEAB6843F48063AB606B6823F020039B
:102360006B600A940B940AA91D4805F04BFE1D49A9
:102370004FF4407393FAA3F3B3FA83F34FF400726C
:10238000DA4051F8223023F01F0343F0020341F8F2
:1023900022300C354FF0007393FAA3F2B2FA82F2B6
:1023A000D34055F823204FF0F87191FAA1F4B4FA14
:1023B00084F44FF4C00020FA04F40720A04022EA7D
:1023C000000291FAA1F145F8232017B030BD00BFFB
:1023D0000038024000000240000802400020014096
:1023E000002301402C20014030B593B000240F940D
:1023F000109411940A940B940C940D940E940694DA
:102400000794089409943A4B5A6C42F400725A6447
:102410005A6C02F400720392039A1A6B42F004029F
:102420001A631A6B02F004020292029A1A6B42F0CB
:1024300001021A631B6B03F001030193019B032547
:102440000495059504A92B4805F054FE3023049308
:102450000595089404A9284805F04CFE0F941094A3
:102460001194264D0FA9284605F0FAFD0A940B9405
:102470000C940D940E940AA9284605F00DFEAB6845
:1024800043F48063AB606B6823F020036B601C49EE
:102490004FF4407393FAA3F3B3FA83F34FF400724B
:1024A000DA4051F8223023F01F0343F0040341F8CF
:1024B00022300C354FF0007393FAA3F2B2FA82F295
:1024C000D34055F823204FF0F87191FAA1F4B4FAF3
:1024D00084F44FF4400020FA04F40720A04022EADC
:1024E000000291FAA1F145F8232013B030BD00BFDE
:1024F0000038024000080240000002400021014074
:102500002C21014008B50E480E4B0360092343609F
:1025100000238360C3604FF4402202614FF48012B5
:1025200042610376437683760122C276037743774E
:1025300001F0B8FC00B908BD00F0ACFAFBE700BF41
:10254000AC12012000640040F0B589B00023039371
:1025500004930593069307930268234B9A4201D094
:1025600009B0F0BD0024009403F5EA331A6C42F080
:1025700000721A641A6C02F000720092009A0194C0
:102580001A6B42F001021A631A6B02F00102019207
:10259000019A02941A6B42F002021A631B6B03F059
:1025A00002030293029B4FF4805303930227049784
:1025B000032606960925079503A90C4802F090FA10
:1025C0004FF480730393049705940696079503A927
:1025D000074802F085FA22460521142001F0D6FFB3
:1025E000142002F007F8BBE700640040000002403E
:1025F0000004024010B582B000240094264B1A6BF0
:1026000042F480021A631A6B02F480020092009A6C
:1026100001941A6B42F400121A631B6B03F400134B
:102620000193019B224605210C2001F0AFFF0C20F5
:1026300001F0E0FF224605210D2001F0A7FF0D204B
:1026400001F0D8FF224605210F2001F09FFF0F2047
:1026500001F0D0FF22460521392001F097FF3920F3
:1026600001F0C8FF224605213B2001F08FFF3B20EF
:1026700001F0C0FF22460521452001F087FF4520DB
:1026800001F0B8FF22460521462001F07FFF4620D9
:1026900001F0B0FF02B010BD0038024008B501F0F3
:1026A000B1F9012006F045FBFBE708B54FF47A705D
:1026B00006F03FFB4FF47A7006F03BFBFAE708B5F3
:1026C0004FF47A7006F035FBFAE70000034B036025
:1026D00054330B6080231360704700BFE80900206B
:1026E00070B5AAB02D4C23AD26460FCE0FC596E887
:1026F000070085E80700002123A806F0E4FA284B2C
:1027000018601CAD04F11C060FCE0FC596E807003B
:1027100085E8070000211CA806F0D5FA214B1860B7
:1027200015AD04F138060FCE0FC596E8070085E811
:102730000700002115A806F0C6FA1B4B18600EAD65
:1027400004F154060FCE0FC596E8070085E8070090
:1027500000210EA806F0B7FA144B186007AD04F17B
:1027600070060FCE0FC596E8070085E80700002128
:1027700007A806F0A8FA0E4B18606D468C340FCCF3
:102780000FC594E8070085E807000021684606F0B9
:102790009AFA084B18602AB070BD00BFB0D6000886
:1027A000D4120120D812012004130120E8120120C4
:1027B000E4120120F012012086B0002201921A4B8F
:1027C000196B41F004011963196B01F004010191C7
:1027D00001990292196B41F080011963196B01F0A4
:1027E0008001029102990392196B41F00101196372
:1027F000196B01F00101039103990492196B41F0E7
:1028000002011963196B01F0020104910499059208
:102810001A6B42F008021A631B6B03F0080305935E
:10282000059B06B0704700BF0038024008B50B4852
:102830000B4B03600B4B436000238360C3604FF47A
:102840008042026143618361C361036202F026FA40
:1028500000B908BD00F01EF9FBE700BF0C13012012
:10286000005C0040A08601002DE9F04788B00023FD
:10287000039304930593069307930268314B9A429E
:1028800002D008B0BDE8F0870446002500952E4E22
:10289000336B43F001033363336B03F001030093A5
:1028A000009B0195336B43F002033363336B03F0FA
:1028B00002030193019B4FF4807303934FF0120ABC
:1028C000CDF810A04FF00109CDF814904FF0030897
:1028D000CDF818800427079703A91C4802F000F9D7
:1028E00010230393CDF810A0CDF81490CDF81880E4
:1028F000079703A9164802F0F3F80295336C43F4E6
:1029000000033364336C03F400030293029B114809
:10291000114B03604FF0C06343608560C5604FF4A6
:102920008063036145618561C5610562456201F0AF
:10293000EBFE18B9074BA3639C63A2E700F0AAF86B
:10294000F8E700BF005C0040003802400000024091
:1029500000040240601301204060024030B5ADB079
:10296000342200211FA80AF0BCFD00241A941B94F5
:102970001C941D941E945C22214603A80AF0B1FD0C
:102980000194204B1A6C42F080521A641B6C03F0C5
:1029900080530193019B02941B4A136823F4404324
:1029A00043F480431360136803F440430293029B93
:1029B00002251F9501232293102323932595269406
:1029C0000823279348232893299503232A932B959B
:1029D0001FA803F0D9FA0F231A931B951C944FF4E8
:1029E00080531D931E9429461AA802F0DDFE4FF471
:1029F000407303931894149403A802F0C5FF2DB0FC
:102A000030BD00BF003802400070004008B501F042
:102A100009FAFFF7A3FFFFF7CFFEFFF7EBFDFFF784
:102A200047FCFFF7E1FCFFF76DFDFFF7FFFE00F04D
:102A300033F800F0B5F800F08FF900F0F5FC00F085
:102A400063FD00F0BDFA00F0B1FD00F005FE00F0FE
:102A50000BFB00F055FE00F06DFE00F085FEFFF769
:102A600007F800221146FF20FEF7FAFF0720FEF7C5
:102A7000DBFBFFF735FE06F00EF9FEE708B502684E
:102A8000034B9A4200D008BD01F0E6F9FBE700BF16
:102A9000002000407047000008B50B480B4B036056
:102AA000FF234360012383600023C3601A22026175
:102AB00043618361C361036202F012FE00B908BD85
:102AC000FFF7E8FFFBE700BFC0130120001000A0E4
:102AD0002DE9F04188B000230393049305930693F6
:102AE000079302682A4B9A4202D008B0BDE8F081F1
:102AF00000240094274B9A6B42F002029A639A6B6F
:102B000002F002020092009A01941A6B42F0020253
:102B10001A631A6B02F002020192019A02941A6B74
:102B200042F004021A631B6B03F004030293029B3E
:102B30000423039302260496032506954FF0090803
:102B4000CDF81C80144F03A9384601F0C9FF4FF49B
:102B5000C0630393049605940695CDF81C8003A9E1
:102B60000E4801F0BDFF402303930496059406959B
:102B70000A23079303A9384601F0B2FF2246052134
:102B80005C2001F003FD5C2001F034FDADE700BFE7
:102B9000001000A00038024000040240000802407B
:102BA000054B064A1A6000225A609A60DA601A6180
:102BB0005A619A61704700BFCC140120002C01407B
:102BC0002DE9F0438BB000230593069307930893F8
:102BD00009930268584B9A4202D00BB0BDE8F083CB
:102BE00004460025019503F586335A6C42F40062D1
:102BF0005A645A6C02F400620192019A02951A6BAF
:102C000042F002021A631A6B02F002020292029A66
:102C100003951A6B42F004021A631A6B02F0040265
:102C20000392039A04951A6B42F008021A631B6B15
:102C300003F008030493049B032605964FF0020853
:102C4000CDF8188008960C27099705A93B4801F094
:102C500047FF4FF4C8530593CDF8188007950896A1
:102C6000099705A9364801F03BFF4FF00409CDF85C
:102C70001490CDF8188007950896099705A9314852
:102C800001F02EFF3048314B03604FF0006343608A
:102C90008560C5604FF4806303614FF480534361E6
:102CA0004FF4804383612023C3610562C0F8249000
:102CB00086624FF40003C3624FF40013036301F014
:102CC00023FD002831D1204BE3639C632048214B36
:102CD00003604FF000634360402383600023C360C0
:102CE0004FF4806202614FF4805242614FF480429F
:102CF00082612022C2610362042343620323836250
:102D00004FF40003C3624FF40013036301F0FCFCB3
:102D100070B90F4B23649C6300220521312001F020
:102D200035FC312001F066FC57E7FFF7B3FECAE738
:102D3000FFF7B0FEEDE700BF002C014000040240A9
:102D400000080240000C02400C140120A064024064
:102D50006C1401205864024008B50D480D4B036007
:102D60004FF48273436000238360C3600361436157
:102D70004FF400728261C3610362436283620A237B
:102D8000C36204F02FF900B908BDFFF783FEFBE72B
:102D90005015012000380040F0B589B0002303939E
:102DA000049305930693079302681F4B9A4201D040
:102DB00009B0F0BD0024009403F500331A6C42F40E
:102DC00080421A641A6C02F480420092009A0194C4
:102DD0001A6B42F004021A631A6B02F004020192A9
:102DE000019A02941A6B42F002021A631B6B03F001
:102DF00002030293029B0C230393022704970326EA
:102E00000696052507950DEB0301084801F068FEBD
:102E10004FF400530393049705940696079503A96E
:102E2000034801F05DFEC3E700380040000802409F
:102E30000004024000B583B0002200920D4B596C93
:102E400041F480415964596C01F48041009100992A
:102E50000192196C41F0805119641B6C03F080538E
:102E60000193019B0F216FF0010001F08FFB03B074
:102E70005DF804FB0038024010B588B0002201461E
:102E80002D2001F083FB2D2001F0B4FB00240194E0
:102E9000144B1A6C42F480721A641B6C03F4807336
:102EA0000193019B02A903A802F050FD02F02EFD40
:102EB00043000D48A0FB03239B0C013B0B480C4A2D
:102EC000026040F2E732C26043600461846004F053
:102ED00011FB10B1012008B010BD044804F0D2F974
:102EE000F9E700BF0038024083DE1B43A81501202C
:102EF000002000407047FEE7FEE7FEE7FEE7704770
:102F000008B5024801F0FEFC08BD00BF881701208B
:102F100008B5024801F0F6FC08BD00BF60130120AF
:102F200008B5024801F0EEFC08BD00BF28180120DA
:102F300008B5024801F0EBF908BD00BFAC12012052
:102F400008B5024804F0C6FF08BD00BFE81801201C
:102F500008B5024804F0ADF908BD00BFA81501206E
:102F600008B5024803F05EFF08BD00BFCC14012085
:102F700008B5024801F0C6FC08BD00BF28170120B3
:102F800008B5024801F0BEFC08BD00BF6C1401206A
:102F900008B5024801F0B6FC08BD00BF0C140120C2
:102FA00008B5024801F0AEFC08BD00BF881801203A
:102FB00008B5024802F074FA08BD00BFC013012032
:102FC00000B58DB000230793089309930A930B93E0
:102FD0000593069301930293039304932048214A97
:102FE000026043608360C3600361836104F082FA1E
:102FF00038BB1B4804F0B0FA30BB072307935023BB
:103000000893002309930B9307A9154804F080FC4B
:10301000E8B900230593069305A9114804F0A4FC20
:10302000C0B9002301930122029203930493042266
:103030000DEB02010A4804F04DFB70B90DB05DF8CC
:1030400004FBFFF727FDD4E7FFF724FDD5E7FFF7E3
:1030500021FDDEE7FFF71EFDE3E7FFF71BFDEDE7D0
:1030600068160120000400402DE9F0439DB00024C3
:103070001794189419941A941B94202221460FA88F
:103080000AF02FFA09940A940B940C940D940E9460
:10309000039404940594069407940894534E736C17
:1030A00043F002037364736C03F002030293029B08
:1030B0004F4BDB684F4B83F82D434FF40058C3F858
:1030C00004804FF00109ADF85C9018944FF47A73C6
:1030D00019931A948DF86C40474D17A9284605F0AE
:1030E00005FD2B6823F080032B60AB6823F480433D
:1030F00023F00703AB60414FAB6943F00803AB61BA
:1031000070230F93109411941294139414941594A3
:1031100016940FAA4946284605F04CFDAB6923F0EA
:103120000403AB61AB6943F40063AB611094119489
:103130000FAA1021284605F03DFDAB6923F48063FA
:10314000AB617B6843F008037B60109411940FAA75
:103150004FF48071284605F02DFD7B6823F00403B1
:103160007B606B6823F070036B60AB6823F08003B7
:10317000AB6009940A940B948DF83040ADF832405E
:10318000CDF834800E9409A9284605F031FD336B43
:1031900043EA09033363336B03EA09030193019B99
:1031A000336B43F002033363336B03F0020300938A
:1031B000009B8023039302260496059406940794AB
:1031C0000325089503A90E4804F094FF4FF44043EB
:1031D00003930496059406940794089503A9094857
:1031E00004F088FF1DB0BDE8F08300BF0038024046
:1031F00000ED00E000E100E000040140180401409F
:10320000000002400004024030B58DB00023079357
:10321000089309930A930B9303683C4A934218D08E
:10322000B3F1804F23D03A4A93422DD0394A93428A
:103230005ED0394A934218D100230693374B1A6C5B
:1032400042F008021A641B6C03F008030693069B05
:103250000BE000230093314B5A6C42F001025A6498
:103260005B6C03F001030093009B0DB030BD0023A5
:1032700001932A4B1A6C42F001021A641B6C03F092
:1032800001030193019BF0E700240294234B1A6C85
:1032900042F002021A641A6C02F002020292029ACE
:1032A00003941A6B42F001021A631A6B02F00102D6
:1032B0000392039A04941A6B42F002021A631B6B86
:1032C00003F002030493049B40230793022508950F
:1032D0000B9507A9124801F003FC202307930895DA
:1032E00009940A940B9507A90E4801F0F9FBBCE775
:1032F00000230593094B1A6C42F004021A641B6CFC
:1033000003F004030593059BAFE700BF00000140F5
:103310000004004000080040000C0040003802405B
:10332000000002400004024000B58BB0002305936A
:1033300006930793089309930368354A93420BD089
:10334000B3F1804F20D0334A934235D0324A934272
:1033500048D00BB05DF804FB002301932F4B1A6B90
:1033600042F001021A631B6B03F001030193019BFE
:103370004FF400630593022306930123099305A9E3
:10338000274801F0ADFBE4E700230293234B1A6BBF
:1033900042F001021A631B6B03F001030293029BCC
:1033A0004FF400430593022306930123099305A9D3
:1033B0001B4801F095FBCCE700230393174B1A6BD6
:1033C00042F002021A631B6B03F002030393039B98
:1033D0008023059302230693099305A9114801F060
:1033E0007FFBB6E7002304930C4B1A6B42F00102FB
:1033F0001A631B6B03F001030493049B01230593E1
:1034000002230693099305A9054801F069FBA0E78B
:103410000000014000080040000C0040003802405D
:10342000000002400004024010B596B0002412943F
:103430001394149415941094119409940A940B9471
:103440000C940D940E940F942022214601A80AF0AA
:1034500048F82B482B4B036044608460C4600461CF
:103460004461846104F046F8002837D116A94FF46E
:10347000805341F8103D224804F098F9002830D1DB
:103480001F4804F050F800282ED100231093119308
:1034900010A91B4804F068FA48BB002309930A935B
:1034A0000B930D930E930F930C2209A9144804F06B
:1034B000A5F8F8B9002301930293039304930593AD
:1034C0004FF400520692089301A90D4804F06FFAD8
:1034D00098B90B48FFF728FF16B010BDFFF7DAFACE
:1034E000C4E7FFF7D7FACBE7FFF7D4FACDE7FFF74A
:1034F000D1FAD2E7FFF7CEFADCE7FFF7CBFAE8E73D
:10350000A81601200000014000B58FB000230A93E7
:103510000B930C930D9308930993019302930393D8
:1035200004930593069307931F484FF0804202606F
:1035300043608360C3600361836103F0DBFF20BBF2
:103540000EA94FF4805341F8103D174804F02EF9AE
:10355000F0B9154803F0E7FFE8B900230893099391
:1035600008A9114804F000FAC0B9002201920292A1
:103570000392059201A90C4804F040F888B90A4862
:10358000FFF7D2FE0FB05DF804FBFFF783FAD7E731
:10359000FFF780FADDE7FFF77DFADEE7FFF77AFA5B
:1035A000E3E7FFF777FAEAE7E816012000B58FB006
:1035B00000230A930B930C930D93089309930193A3
:1035C0000293039304930593069307932048214A9B
:1035D000026043608360C3600361836103F08AFF1C
:1035E00030BB0EA94FF4805341F8103D184804F049
:1035F000DDF800BB164803F096FFF8B900230893E6
:10360000099308A9124804F0AFF9D0B90023019337
:1036100002930393059304220DEB02010C4803F07F
:10362000EDFF88B90A48FFF77FFE0FB05DF804FB95
:10363000FFF730FAD5E7FFF72DFADBE7FFF72AFAB5
:10364000DCE7FFF727FAE1E7FFF724FAEAE700BF34
:10365000E81501200008004000B58FB000230A9350
:103660000B930C930D930893099301930293039387
:1036700004930593069307931F48204A0260436012
:103680008360C3600361836103F034FF20BB0EA934
:103690004FF4805341F8103D174804F087F8F0B913
:1036A000154803F040FFE8B900230893099308A9DF
:1036B000114804F059F9C0B9002201920292039214
:1036C000059201A90C4803F099FF88B90A48FFF751
:1036D0002BFE0FB05DF804FBFFF7DCF9D7E7FFF72F
:1036E000D9F9DDE7FFF7D6F9DEE7FFF7D3F9E3E72E
:1036F000FFF7D0F9EAE700BF28160120000C0040D0
:1037000008B50A480A4B03604FF416534360002380
:103710008360C36003610C2242618361C36104F072
:103720004DFB00B908BDFFF7B5F9FBE7E81801202C
:103730000010014008B50A480A4B03604FF41653C5
:10374000436000238360C36003610C224261836194
:10375000C36104F033FB00B908BDFFF79BF9FBE739
:10376000E81701200048004008B50A480A4B0360EA
:103770004FF41653436000238360C36003610C223F
:1037800042618361C36104F019FB00B908BDFFF712
:1037900081F9FBE728190120001401402DE9F047C9
:1037A0008CB0044600230793089309930A930B9364
:1037B0000368854A934209D0844A93424ED0844A92
:1037C000934200F0C0800CB0BDE8F0870025009562
:1037D000804B5A6C42F010025A645A6C02F010028C
:1037E0000092009A01951A6B42F001021A631B6B5A
:1037F00003F001030193019B4FF4C063079302237D
:1038000008930123099303230A9307230B9307A922
:10381000714801F065F97148714B03604FF0006326
:10382000436040238360C5604FF48063036145615A
:103830008561C5610562456200F066FF58B9674B56
:1038400023639C6300220521252000F09FFE252094
:1038500000F0D0FEB7E7FFF71DF9F0E7002502956D
:103860005C4B1A6C42F480221A641A6C02F48022B7
:103870000292029A03951A6B42F004021A631A6BC1
:1038800002F004020392039A04951A6B42F00202BA
:103890001A631B6B03F002030493049B202307931A
:1038A0004FF0020ACDF820A04FF00109CDF8249086
:1038B0004FF00308CDF8288007270B9707A9494840
:1038C00001F00EF94FF480660796CDF820A0CDF8F0
:1038D0002490CDF828800B9707A9434801F000F900
:1038E0004248434B03604FF0006343608560C5600E
:1038F000066145618561C5610562456200F004FFAE
:10390000D8B93A4B63639C633A483B4B03604FF032
:1039100060634360402383600023C3604FF4806290
:10392000026143618361C3610362436200F0ECFEA4
:1039300030B9304B23639C6345E7FFF7ABF8E0E712
:10394000FFF7A8F8F5E700250595224B5A6C42F0E1
:1039500020025A645A6C02F020020592059A0695DC
:103960001A6B42F004021A631B6B03F00403069304
:10397000069BC02307930223089301230993032383
:103980000A9308230B9307A9164801F0A9F81B48CE
:103990001B4B03604FF0206343608560C5604FF4AC
:1039A00080630361456185614FF48073C361056283
:1039B000456200F0A9FE18B9104B63639C6302E7EF
:1039C000FFF768F8F8E700BF00100140004800402A
:1039D0000014014000380240000002408818012015
:1039E000B864024000080240000402408817012029
:1039F000286002402818012070600240281701202A
:103A00002864024008B50349034805F033F9034B25
:103A1000187008BD6C19012068D7000868190120CA
:103A200008B513460A460146024802F017FE00B1E7
:103A3000012008BDCC14012008B513460A460146F2
:103A4000024802F093FE00B1012008BDCC14012011
:103A500008B5034803F05DF9043818BF012008BD1C
:103A6000CC14012008B50146014803F0F0F808BD68
:103A7000CC140120704708B5FFF7FCFF08BD08B55E
:103A800000F092F908BD08B500F09AF908BD82B0BF
:103A900001238DF807309DF8070002B07047000041
:103AA00010B5FFF7F4FF012802D00124204610BD15
:103AB000074803F0B3F804460028F7D14FF400613B
:103AC000034803F0D6F80028F0D00124EEE700BF49
:103AD000CC14012008B5074B01221A70FFF7B8FF7C
:103AE00020B9044A137803F0FE031370014B1878D1
:103AF00008BD00BF0800002010B584B00446144B78
:103B000001221A7005F0CCF818B9114B187804B0DE
:103B100010BDFFF7C5FFA0B10D4B1B78DBB2012B29
:103B2000F3D00C4B1B68002BEFD10B4B6C460FCB2B
:103B300084E80F000021204605F032F9054B18609B
:103B4000E3E72046FFF7C6FF014B1870E4E700BF2C
:103B5000080000203C0C002058D7000808B5FFF7EB
:103B6000B9FF08BD38B5054605F0A3F8044605F0D1
:103B7000A0F8001BA84205D2FFF76AFF0028F6D183
:103B8000002001E04FF0FF3038BD00002DE9F04784
:103B900088B0894614461F4647F23050FFF7E2FFCF
:103BA000002851DB19F0030F01D000251AE03A4636
:103BB00021464846FFF734FF08B1012045E047F2AF
:103BC0003052244B196805A805F032F9059B102BDB
:103BD00001D0012039E0069B012B39D0012034E0CF
:103BE00001353446AA46BD4223D2661C0122214635
:103BF0001948FFF715FF8046D8B96C4647F2305296
:103C0000144B1968204605F013F994E8070008AB37
:103C100003E90700059B102BE2D1069B012BDFD1A6
:103C20004FF400720C49484609F050FC09F5007940
:103C3000D6E7BA4501D0012007E0B8F1000F01D165
:103C4000002002E0012000E0012008B0BDE8F0877C
:103C50000020FAE73C0C0020400C00202DE9F04742
:103C600088B0894614461F4647F23050FFF77AFF66
:103C7000002862DB19F0030F01D000252BE03A4643
:103C800021464846FFF7D8FE08B1012056E047F22A
:103C900030522C4B196805A805F0CAF8059B102B6B
:103CA00001D001204AE0069B022B01D0012045E013
:103CB00004F0FFFF00F5EA44303404F0FAFFA042BC
:103CC00005D2FFF7C5FE0028F7D1002036E001201D
:103CD00034E001353446AA46BD4223D2661C012297
:103CE00021461948FFF7A8FE8046D8B96C4647F22E
:103CF0003052144B1968204605F09AF894E80700F2
:103D000008AB03E90700059B102BE2D1069B022BB1
:103D1000DFD14FF400720C49484609F0D7FB09F592
:103D20000079D6E7BA4501D0012007E0B8F1000FCD
:103D300001D1002002E0012000E0012008B0BDE830
:103D4000F08700BF3C0C0020400C0020154B1B7876
:103D500013F0010F21D110B588B0144603291ED8E5
:103D6000DFE801F002050C13002008B010BD684622
:103D7000FFF778FE069B23600020F6E76846FFF712
:103D800071FE079B23800020EFE76846FFF76AFE7D
:103D9000079B5B0A23600020E7E7032070470420AD
:103DA000E3E700BF0800002008B54FF0FF32022112
:103DB000024B186805F008F808BD00BF3C0C002055
:103DC00008B54FF0FF320121024B186804F0FCFFE8
:103DD00008BD00BF3C0C00200F49D1F8883043F4E7
:103DE0007003C1F888300D4B1A6842F001021A6066
:103DF000002098601A6822F0847222F480321A60DF
:103E0000074A5A601A6822F480221A60D8604FF07C
:103E100000638B60704700BF00ED00E00038024097
:103E20001030002408B50B4B1A6842F400721A6077
:103E30001A6842F480621A601A6842F480721A604A
:103E4000032000F091FB0020FFF716F8FEF7F2FFC9
:103E5000002008BD003C0240034A1168034B1B7858
:103E60000B441360704700BFD41D012010000020D8
:103E7000014B1868704700BFD41D012038B50446B7
:103E8000FFF7F6FF0546B4F1FF3F02D0044B1B7865
:103E90001C44FFF7EDFF401BA042FAD338BD00BF22
:103EA00010000020002800F0A18038B5044690F8EA
:103EB0002030D3B12268136823F002031360FFF7A8
:103EC000D7FF054623685A6812F0020F10D0FFF79B
:103ED000CFFF401B0A28F5D9636A43F400336362BD
:103EE000052384F82030012038BDFEF72DFBE1E7E3
:103EF0001A6842F001021A60FFF7BAFF054623680C
:103F00005A6812F0010F0DD1FFF7B2FF401B0A28CB
:103F1000F5D9636A43F400336362052384F82030E3
:103F20000120E1E7227E012A3DD01A6822F08002BA
:103F30001A60637E012B3BD02268136823F0400394
:103F40001360A37E012B39D02268136823F020036D
:103F50001360E37E012B37D02268136843F010030F
:103F60001360237F012B35D02268136823F00803E8
:103F70001360637F012B33D02268136823F004039E
:103F80001360A368E2681343226913436269134311
:103F90006268013A21681343CB610020606201230B
:103FA00084F82030A0E71A6842F080021A60C0E767
:103FB0002268136843F040031360C2E72268136865
:103FC00043F020031360C4E72268136823F0100352
:103FD0001360C6E72268136843F008031360C8E75C
:103FE0002268136843F004031360CAE70120704796
:103FF00090F82030013BDBB2012B05D9436A43F432
:10400000802343620120704770B4434BD3F80022F1
:1040100042F00102C3F80022D3F8002222F47C52BD
:10402000C3F80022D3F80022486A42EA0022C3F80B
:1040300000224A6902F01F02012000FA02F2D3F8BE
:104040001C42D0430440C3F81C42CB69B3B9324B85
:10405000D3F80C420440C3F80C42CE688D884C69FA
:1040600045EA0645483443F834508E680C884D695B
:1040700044EA0644483503EBC5035C60CB69012B79
:104080001DD08B69002B32D1234CD4F8043203406D
:10409000C4F804320B698BBB1F4BD3F81442204089
:1040A000C3F814020B6A012B2FD01B4AD2F800323E
:1040B00023F00103C2F80032002070BC7047164B99
:1040C000D3F80C421443C3F80C420E688D884C6937
:1040D00045EA0645483443F834508E688C894D696A
:1040E00044EA0644483503EBC5035C60C9E70A4C63
:1040F000D4F804321343C4F80432CBE70648D0F8AE
:1041000014321343C0F81432CCE70349D1F81C32FF
:104110001A43C1F81C22C8E70064004038B590F883
:104120002030DBB2012B05D0436A43F40023436205
:10413000012038BD0446022380F82030026813684D
:1041400023F001031360FFF793FE054623685B68C5
:1041500013F0010F0DD0FFF78BFE401B0A28F5D995
:10416000636A43F400336362052384F8203001203E
:10417000DFE700206062DCE730B490F82040013CCB
:10418000E4B2012C06D9436A43F480234362012040
:1041900030BC704700296FD10468E46814F0030F45
:1041A00064D0056801F11B0424012C5904F00404B7
:1041B0009460002C6BD1056801F11B0424012C597B
:1041C000640D1460056801F11B0424012D59C5F329
:1041D0004005D560056825446D6805F00F0515613B
:1041E000056825446D68C5F30725956105682C446D
:1041F0006468240C546104680A011444D4F8B8417A
:104200001C7004681444D4F8B841C4F307245C70EB
:1042100004681444D4F8B841C4F307449C7004689B
:104220001444D4F8B841240EDC7004681444D4F863
:10423000BC411C7104681444D4F8BC41C4F3072485
:104240005C7104681444D4F8BC41C4F307449C7105
:1042500004682244D2F8BC21120EDA71F9B902685E
:10426000D36843F02003D360002091E7436A43F40E
:104270000013436201208BE70468246914F0030FE4
:104280008FD1436A43F400134362012080E705683D
:1042900001F11B0424012C59E408546092E70268E0
:1042A000136943F020031361002071E790F8203078
:1042B000013BDBB2012B01D90020704721B103681B
:1042C000186900F0030070470368D86800F0030025
:1042D000704790F82030013BDBB2012B05D9436ACF
:1042E00043F48023436201207047026853691943F5
:1042F00051610020704770477047704770477047A2
:1043000070477047704770477047704770472DE996
:10431000F84F054603685C695F689E68D3F80C90A7
:10432000D3F81080D3F818A014F0010F5AD016F06B
:10433000010F17D001229A6016F0020F08D116F073
:10434000040F30D116F0080F07D04FF4805B0BE05C
:10435000FFF7D1FF4FF0000B06E0FFF7CFFF4FF064
:10436000000B01E04FF0000B16F4807F0BD02B68A0
:104370004FF480729A6016F4007F17D116F4806FA4
:1043800018D04BF4005B16F4803F2DD02B684FF40F
:1043900080329A6016F4003F16D116F4802F17D0A1
:1043A0004BF4004B20E04FF4006BDDE72846FFF7AD
:1043B000A3FFE8E716F4006F02D04BF4804BE2E76E
:1043C0002846FFF79CFFDEE72846FFF796FF0BE045
:1043D00016F4002F02D04BF4803B05E02846FFF78F
:1043E0008FFF01E04FF0000B14F0080F07D019F019
:1043F000100F04D04BF4007B2B681022DA6014F00D
:10440000040F02D019F0080F60D114F0020F04D08D
:104410002B68DB6813F0030F5FD114F0400F07D057
:1044200018F0100F04D04BF4806B2B6810221A6127
:1044300014F0200F02D018F0080F52D114F0100F12
:1044400004D02B681B6913F0030F51D114F4003F03
:1044500002D017F0100F4FD114F4803F02D017F0A4
:10446000080F50D114F4004F67D017F0040F61D03B
:1044700014F4807F04D01AF0010F01D04BF0010B2F
:1044800014F4007F04D01AF0020F01D04BF0020B9D
:1044900014F4806F04D01AF0040F01D04BF0040B19
:1044A00014F4006F46D01AF0700A43D0BAF1300FFE
:1044B00048D02FD9BAF1500F47D0BAF1600F47D08A
:1044C000BAF1400F31D14BF0400B2EE02B6808229F
:1044D000DA602846FFF715FF97E72846FCF752FFFA
:1044E0009BE72B6808221A612846FFF70CFFA5E717
:1044F0002846FFF707FFA9E72B6810225A602846D5
:10450000FFF702FFA8E72B6808225A602846FFF74A
:10451000FCFEA7E7BAF1100F05D0BAF1200F04D1C5
:104520004BF0100B01E04BF0080B2A68936923F065
:10453000700393612B6804225A60BBF1000F0AD10B
:10454000BDE8F88F4BF0200BEFE74BF0800BECE76A
:104550004BF4807BE9E76B6A43EA0B036B62284606
:10456000FFF7D4FEECE70000074AD36823F4E063CA
:104570001B041B0C000200F4E060184340F0BF6015
:1045800040F40030D060704700ED00E030B4174BCD
:10459000DB68C3F30223C3F10704042C28BF0424FF
:1045A0001D1D062D18D9033B4FF0FF3505FA04F405
:1045B00021EA0401994005FA03F322EA03031943AF
:1045C00000280BDB0901C9B200F1604000F5614031
:1045D00080F8001330BC70470023E5E700F00F00BF
:1045E0000901C9B2024B1954F4E700BF00ED00E025
:1045F00014ED00E0002807DB00F01F024009012352
:104600009340024A42F82030704700BF00E100E0CA
:1046100030B405682C6824F480242C60046863603E
:104620008368402B05D0036899600368DA6030BC6A
:10463000704703689A600368D960F8E70268D3B2EC
:10464000103B0B49A1FB03131B090A49C95CC16557
:10465000032B06D822F47F7222F003028265806D5C
:10466000704722F47F7222F0030204328265F6E77B
:10467000ABAAAAAA94D70008836A826992B9012BCF
:104680000AD01BB1022B01D000207047C36A13F07F
:10469000807F2CD100207047C36AB3F1C07F28D03F
:1046A00000207047B2F5005F05D0022B29D9032BFB
:1046B00015D000207047032B03D8DFE803F01C045B
:1046C0001C0A00207047C36A13F0807F15D10020B8
:1046D0007047C36AB3F1C07F11D000207047C36A2E
:1046E00013F0807F01D00120704700207047012027
:1046F000704701207047012070470120704701205A
:10470000704701207047000070B50446FFF7B0FB0A
:10471000002C5BD00546002384F83430022384F853
:1047200035302268136823F00103136023681A6888
:1047300012F0010F0AD0FFF79BFB401B0528F5D9AB
:1047400020236365032084F8350070BD1A68204873
:1047500010406168A2680A43E1680A4321690A437C
:1047600061690A43A1690A43E1690A43216A0A436C
:104770000243616A04291ED01A602668756925F013
:104780000705636A1D43042B07D1A36A1D43E36A2F
:104790001BB12046FFF770FF90B975612046FFF707
:1047A0004DFFE26D3F23934083600020606501234D
:1047B00084F83530C9E7E16A206B01430A43DBE73F
:1047C00040236365012084F83500BEE70120BCE783
:1047D0003F8010F038B5856D90F83440012C31D011
:1047E000012480F8344090F83540E4B2012C04D024
:1047F000002380F83430022038BD0446022084F8BB
:104800003500002060652046FFF702FFE26D3F2380
:104810009340AB602268136843F01603136022686C
:10482000536943F080035361236C23B122681368FA
:1048300043F0080313602268136843F00103136018
:104840000020D9E70220D7E770B50446866DFFF750
:104850000FFB94F83530DBB2022B06D08023636562
:10486000002384F83430012070BD054622681368A7
:1048700023F0160313602268536923F08003536109
:10488000236CE3B12268136823F0080313602268E5
:10489000136823F00103136023681B6813F0010FF2
:1048A00011D0FFF7E5FA401B0528F5D920236365F1
:1048B000002384F83430032084F83500D4E7A36C57
:1048C000002BDFD1E3E7E26D3F239340B36000208C
:1048D00084F83400012384F83530C5E790F835308A
:1048E000DBB2022B03D080234365012070470523F0
:1048F00080F835300268136823F00103136000204C
:1049000070470000F0B583B0044600230193724B5A
:104910001D68724BA3FB0535AD0A876D3E68C26DFD
:1049200008239340334210D003681A6812F0040F32
:104930000BD01A6822F004021A60C26D082393405B
:10494000BB60436D43F001034365E26D0123934077
:10495000334209D02268526912F0800F04D0BB6044
:10496000636D43F002036365E26D042393403342B9
:1049700009D02268126812F0020F04D0BB60636D88
:1049800043F004036365E26D10239340334224D067
:104990002268126812F0080F1FD0BB6023681A68E3
:1049A00012F4802F0DD01B6813F4002F04D1236C58
:1049B0009BB12046984710E0A36C73B120469847FE
:1049C0000BE01A6812F4807F03D11A6822F0080203
:1049D0001A60236C0BB120469847E26D2023934068
:1049E000334255D02268126812F0100F50D0BB60CD
:1049F00094F83530DBB2052B0ED023681A6812F418
:104A0000802F33D01B6813F4002F2AD1636C002B46
:104A10003ED0204698473BE02268136823F01603F7
:104A200013602268536923F080035361236CA3B1A0
:104A30002268136823F008031360E26D3F2393405C
:104A4000BB60002384F83430012384F83530236DB3
:104A5000002B3FD0204698473CE0A36C002BE7D1C9
:104A6000EBE7E36BA3B12046984711E01A6812F414
:104A7000807F09D11A6822F010021A60002384F89E
:104A80003430012384F83530E36B0BB1204698476E
:104A9000636DFBB1636D13F0010F17D0052384F82C
:104AA00035302268136823F001031360019B013342
:104AB0000193AB4204D823681B6813F0010FF5D1B2
:104AC000002384F83430012384F83530E36C0BB1D3
:104AD0002046984703B0F0BD0C000020B5814E1B66
:104AE00000230F2B00F2D180F0B482B039E006220F
:104AF00000E00022B2403A430234644E46F82420DB
:104B0000634A1468EA4302EA04064F6817F4803FD8
:104B100001D045EA04065E4C2660646802EA040699
:104B20004F6817F4003F01D045EA0406584C666010
:104B3000A46802EA04064F6817F4801F01D045EA12
:104B40000406534CA660E46822404E6816F4001F29
:104B500001D045EA04024E4CE26001330F2B00F213
:104B6000918001229A400C6804EA0205AA42F4D11D
:104B70004C68022C01D0122C10D1DE08083650F8F7
:104B800026C003F00704A7000F24BC402CEA040C45
:104B90000C69BC4044EA0C0440F8264004685F00FD
:104BA0000326BE40F64306EA040C4C6804F00304F6
:104BB000BC4044EA0C0404604C6804F1FF3CBCF1C6
:104BC000010F03D9112C01D0122C10D1846806EAF0
:104BD000040CCC68BC4044EA0C048460446824EAB9
:104BE00002024C68C4F300149C4014434460C26841
:104BF00016408A68BA403243C2604A6812F0805F49
:104C0000ABD000220192234A546C44F48044546493
:104C1000526C02F480420192019A9C08A61C1B4A25
:104C200052F8267003F0030296000F22B24027EAE2
:104C30000207194A90423FF45CAF02F5806290424D
:104C400016D002F58062904214D002F58062904244
:104C500012D002F58062904210D002F5806290423C
:104C60000ED002F5806290423FF441AF072241E747
:104C700001223FE702223DE703223BE7042239E716
:104C8000052237E702B0F0BC70477047003801409A
:104C9000003C01400038024000000240002800F0C3
:104CA000BE80F8B5044690F83D30002B6BD024232D
:104CB00084F83D302268136823F00103136000F08C
:104CC00025FE6268584B9A4262D8584B98428CBF76
:104CD00000230123002B40F0A480554BA3FB0023AD
:104CE0009B0C21684A6822F03F021A434A602568FB
:104CF0002A6A22F03F0266684B498E424ED8013341
:104D000013432B622568E96921F44F4121F0FF012B
:104D10006368454A93424BD801385B00B0FBF3F31C
:104D20000133C3F30B03042B38BF04230B43EB61A4
:104D300021680B6823F0C003E269206A0243134331
:104D40000B6021688B6823F4034323F0FF0322697F
:104D5000E068024313438B602168CB6823F0FF03B4
:104D60006269A06902431343CB602268136843F071
:104D70000103136000202064202384F83D30206369
:104D800084F83E00F8BD80F83C30FDF76DFD8EE7FD
:104D9000284B98428CBF002301239BE74FF4967168
:104DA00001FB03F32449A1FB03139B090133A7E78C
:104DB000A268BAB9461E03EB4307B6FBF7F6013605
:104DC000C6F30B06B6FA86F6760936BBC2B90138C9
:104DD00003EB4303B0FBF3F30133C3F30B0242F4E1
:104DE0000043A3E7461E03EB830707EB8707B6FBE9
:104DF000F7F60136C6F30B06B6FA86F67609E4E74F
:104E0000013803EB830303EB8303B0FBF3F20132BE
:104E1000C2F30B0242F4404388E7012386E70120F6
:104E200070470120AEE700BFA08601007F841E000E
:104E300083DE1B43FF083D00D34D6210F0B44B6A84
:104E400033B1B2F1406F03D08B6A0468013B236138
:104E50008C69002C6ED00E6A002E3BD003688C68E3
:104E6000DC61CC69F4B1CB6A0D6B2B434D6B2B43EA
:104E70004D6A2B434D6943EA85430D692B430D6A07
:104E80002B43CD682B4323438C6923430C68234376
:104E9000046813436361B2F1406F19D003684A6834
:104EA0009A6115E0CB6A0D6B2B434D6B2B434D6A1A
:104EB0002B434D6943EA85430D692B430D6A2B4310
:104EC00023438C6923430C68234301681A434A61D6
:104ED000F0BC7047CD69D5B1CB6A0F6B3B434F6BCC
:104EE0003B434F6A3B434F6943EA87433343CE68B2
:104EF00033432B4323430C68234304681343636108
:104F0000B2F1406FE4D003684A689A61E0E7CB6A87
:104F10000F6B3B434F6B3B434F6A3B434F6943EA45
:104F2000874333432B4323430C68234301681A43CD
:104F30004A61CDE70E6A002E36D003688C68DC61CA
:104F4000CD69E5B1CB6A0C6B23434C6B23434C6AB0
:104F500023434C6943EA84430C6923430C6A23438B
:104F6000CC6823432B438C69234304681343636158
:104F7000B2F1406FACD003684A689A61A8E7CC6A86
:104F80000B6B1C434B6B1C434B6A1C434B6944EA41
:104F900083440B691C430B6A1C432C438D692C43CF
:104FA000036822435A6193E7CF69CFB1CD6A0B6B97
:104FB0001D434B6B2B434D6A2B434D6943EA85439D
:104FC0003343CD682B433B4323430468134363615E
:104FD000B2F1406F3FF47CAF03684A689A6177E7AB
:104FE000D1F824C0BCF1000F3FF472AFCD6A0B6B57
:104FF0001D434B6B1D434CEA0503496943EA81435A
:1050000033433B43234301681A434A6160E72DE978
:10501000F04105460F4616469846069C2B689B684D
:105020003B4214BF01230023B34212D0B4F1FF3F2F
:10503000F4D02CB1FEF71CFFA0EB0800A042EDD984
:10504000042385F841306B6C43F001036B6401204D
:1050500000E00020BDE8F0812DE9F04182B0044677
:105060000F461646FEF704FF94F84030DBB2012BE2
:105070003BD00546012384F8403094F84130DBB240
:10508000012B08D04FF00208002384F8403040463E
:1050900002B0BDE8F08100226264022384F841304E
:1050A0000096034620212046FFF7B1FF80460028E6
:1050B000EAD1002239462046FFF7C0FE7B6A1BB1C9
:1050C000012384F84130DFE700962B4601220221BC
:1050D0002046FFF79CFF80460028D5D12368022296
:1050E000DA60012384F84130CEE74FF00208CEE7C2
:1050F0002DE9F04182B00446884615461F46FEF76A
:10510000B7FE94F84030DBB2012B4AD006460123AB
:1051100084F8403094F84130DBB2012B07D00223F1
:10512000002284F84020184602B0BDE8F081002239
:105130006264422384F841300097034620212046D0
:10514000FFF765FF03460028EAD123682A689A62C0
:1051500023686A685A622368AA68DA622268136858
:1051600023F4400329690B4343F480031360EB6885
:10517000C8F828304FF0006241462046FFF75EFE37
:1051800000973346012208212046FFF740FF0346DF
:105190000028C5D122680821D160012284F841206D
:1051A000BEE70223BFE7704708B5806B0023836327
:1051B000C36290F84130DBB2082B05D0012380F8A0
:1051C0004130FFF7F0FF08BD03680222DA60026891
:1051D000136843F4003313600268136843F002035A
:1051E0001360F0E77047704770477047704770472B
:1051F000704730B583B00446FEF73AFE94F841306C
:1052000013F0020F37D00546002384F8403023689E
:105210001A6812F0040F13D12268136843F00203D6
:105220001360A36C00932B46012202212046FFF756
:10523000EEFE034690B1FBB9012284F841201BE049
:105240001A6822F004021A60E06BFFF7FDFA0028EA
:10525000E2D0636C43F004036364DDE72368022259
:10526000DA60A36C00932B46002220212046FFF732
:10527000CEFE0346DFE70023184603B030BD2DE91C
:10528000F04182B0044688461746FEF7F1FD2568D6
:1052900094F84030DBB2012B57D00646012384F846
:1052A000403094F84130DBB2012B07D002220023BA
:1052B00084F84030104602B0BDE8F08100236364FA
:1052C000B8F1000F3BD0122384F841302B69013331
:1052D000E3622B690133A362C4F824806B6923F075
:1052E00040636B610022E36A93B100973346012269
:1052F00004212046FFF78BFE024648B9636A591C19
:1053000061621B7885F82030E36A013BE362EAE7DB
:105310001AB1012384F84130C9E7009733460122CE
:1053200002212046FFF773FE02460028F1D12368D0
:105330000222DA602046FFF75CFF0246E9E7636C71
:1053400043F0080363640122B1E70222B2E72DE9CA
:10535000F04182B0044688461746FEF789FD25686D
:10536000AA6994F84030DBB2012B5BD006460123DA
:1053700084F8403094F84130DBB2012B07D0022290
:10538000002384F84030104602B0BDE8F0810023CD
:105390006364B8F1000F3FD0222384F841302B69B9
:1053A0000133A3632B6901336363C4F830806B69F5
:1053B00023F0406343F080636B6123689A610022AD
:1053C000A36B93B100973346012206212046FFF7D5
:1053D0001EFE024648B9236B591C216395F8201024
:1053E0001970A36B013BA363EAE71AB1012384F8A8
:1053F0004130C5E700973346012202212046FFF7DE
:1054000006FE02460028F1D123680222DA60204617
:10541000FFF7EFFE0246E9E7636C43F008036364BD
:105420000122ADE70222AEE790F8413013F0020FFF
:105430001BD0002380F84030082380F841300268F8
:10544000136823F4F813136003681A6812F0040F4A
:105450000DD10222DA600268136843F4003313604E
:105460000268136843F0020313600020704710B510
:1054700004461A6822F004021A60C36B074A1A65D0
:10548000C06BFFF72BFA08B9002010BD012384F888
:1054900041302046FFF7A6FEF6E700BFA9510008FD
:1054A00010B5044603689A68196812F0040F3DD0DD
:1054B00011F4802F3AD090F84120D2B2122A0DD0A8
:1054C00090F84120D2B2222A23D02046FFF78EFE48
:1054D00010BD136823F480231360F6E722689168F7
:1054E00011F0040FF1D0E16A0029F2D0626A511C78
:1054F0006162127883F82020E26A013AE262EDE705
:10550000226B511C216393F820101170A26B013A99
:10551000A2632268916811F0040FD6D0A16B002914
:10552000EED1136823F480231360CEE712F0020F4C
:1055300076D011F4003F73D00222DA60226813683B
:1055400023F4E023136094F84130DBB2122B18D01F
:1055500094F84130DBB2222B2CD094F84130DBB2EE
:10556000022B52D094F84130DBB2082BB0D101238A
:1055700084F84130636C002B4ED12046FFF732FE99
:10558000A6E723681A6812F0040F09D01A6822F0FF
:1055900004021A60E36B1A68136823F001031360B6
:1055A0002046FFF741FF012384F841302046FFF7F2
:1055B0001CFE8DE72268136813F0040F13D01368E4
:1055C00023F004031360E36B1A68136823F00103EC
:1055D00013602046FFF728FF012384F8413020465E
:1055E000FFF702FE74E723689B6813F47C5FF0D03A
:1055F000A36B002BEDD0236B591C216392F8201074
:105600001970A36B013BA363EDE7012384F84130DC
:105610002046FFF7E8FD5BE72046FFF7C4FD57E7AC
:1056200012F0080F14D011F4002F11D00822DA6004
:1056300023681A6812F4800F06D01A6822F4102228
:105640001A60012384F841302046FFF7D0FD3FE780
:1056500012F0010F31D011F4803F2ED00122DA6018
:105660002268136823F470231360636C43F0020311
:10567000636423681A6812F0040F17D01A6822F0C6
:1056800004021A60E36B144A1A65E06BFFF726F90F
:1056900000283FF41DAF636C43F0040363640123EF
:1056A00084F841302046FFF77EFD11E7012384F89E
:1056B00041302046FFF777FD0AE712F0100F3FF464
:1056C00007AF11F4801F3FF403AF1022DA602046C9
:1056D000FFF78EFDFCE600BFA9510008816470470A
:1056E00030B583B00446FEF7C3FB002C56D0054608
:1056F00094F84030DBB2012B52D0012384F84030C3
:1057000094F84130002B3ED021680B6823F4F85305
:10571000A268013A43EA02230B60A36C00932B4674
:10572000002220212046FFF772FC014628BB20689A
:10573000036823F07F4323F0D0036568E26842EA00
:105740000562E5692A43256A2A43134303602068FA
:105750004268144B13402569626942EA0542A56913
:105760002A43134343602268136843F00103136024
:1057700000236364012384F84130002384F840301F
:10578000084603B030BD84F840302046FDF7A0F94C
:1057900041F288312046FFF7A1FFB5E70121EFE78D
:1057A0000221EDE7FEF8E0FF002800F09D8070B5D3
:1057B00004464F4B1B6803F00F038B4209D2CBB258
:1057C0004B4A1370136803F00F038B4201D0012082
:1057D00070BD236813F0020F17D013F0040F04D02C
:1057E000444A936843F4E0539360236813F0080F2E
:1057F00004D0404A936843F4604393603D4A936801
:1058000023F0F003A068034393600D46236813F070
:10581000010F32D06368012B21D09A1E012A25D9AD
:10582000344A126812F0020F60D032498A6822F0BE
:10583000030213438B60FEF71BFB06462D4B9B6850
:1058400003F00C036268B3EB820F16D0FEF710FB77
:10585000801B41F288339842F0D90320B8E7254AEB
:10586000126812F4003FE0D10120B1E7214A12682A
:1058700012F0007FD9D10120AAE71D4B1B6803F06D
:105880000F03AB4209D9EAB2194B1A701B6803F037
:105890000F03AB4201D001209AE7236813F0040FF5
:1058A00006D0144A936823F4E053E1680B439360F5
:1058B000236813F0080F07D00E4A936823F460435F
:1058C000216943EAC103936000F09CFA094B9B688D
:1058D000C3F30313084AD35CD840084B1860002078
:1058E000FDF7CAFA002073E70120704701206FE737
:1058F000003C0240003802407CD700080C00002029
:10590000014B1868704700BF0C00002008B5FFF776
:10591000F7FF044B9B68C3F38223034AD35CD84050
:1059200008BD00BF003802408CD7000808B5FFF75B
:10593000E7FF044B9B68C3F34233034AD35CD84070
:1059400008BD00BF003802408CD700080F23036059
:105950000B4B9A6802F0030242609A6802F0F00270
:1059600082609A6802F4E052C2609B68DB0803F42C
:10597000E0530361034B1B6803F00F030B60704798
:1059800000380240003C0240F0B583B00446036892
:1059900013F0010F0CD0964AD2F88C3023F0C0637C
:1059A000816B0B43C2F88C30836B3BB3002600E065
:1059B0000026236813F0020F0BD08D4AD2F88C30EA
:1059C00023F0C053E16B0B43C2F88C30E36B03B997
:1059D0000126236813F0040F14D0854AD2F88C30C6
:1059E00023F44013216B0B43C2F88C30236BB3F5C7
:1059F000801F05D0002B7BD0002504E00126D8E7CE
:105A00000126F7E70025236813F0080F0ED0784A27
:105A1000D2F88C3023F44003616B0B43C2F88C3016
:105A2000636BB3F5800F65D003B90125236813F0CC
:105A3000200F61D1236813F0100F03D094F8582081
:105A40006C4B1A60236813F0800F08D0684AD2F8B4
:105A5000943023F44003E16C0B43C2F89430236884
:105A600013F0400F08D0624AD2F8943023F08063DC
:105A7000A16C0B43C2F89430236813F4807F0DD0DF
:105A80005B4AD2F8943023F00063616D0B43C2F897
:105A90009430636DB3F1006F00F09580236813F4C8
:105AA000007F08D0524AD2F8943023F08053616CC2
:105AB0000B43C2F89430236813F4806F0CD04C4A27
:105AC000D2F8943023F00053216D0B43C2F8943088
:105AD000236DB3F1005F78D0002E76D12368B3F543
