:020000040800F2
:1000000000000220C95100089D5D00089F5D0008A6
:10001000A15D0008A35D0008A55D000800000000C8
:1000200000000000000000000000000011CA0008ED
:10003000A75D000800000000B1CA000815CB000849
:1000400019520008195200081952000819520008E4
:1000500019520008195200081952000819520008D4
:1000600019520008195200081952000819520008C4
:10007000A95D0008B95D000819520008C95D0008B3
:1000800019520008195200081952000819520008A4
:10009000D95D0008195200081952000819520008C9
:1000A0001952000819520008195200081952000884
:1000B0001952000819520008195200081952000874
:1000C0001952000819520008195200081952000864
:1000D00019520008E95D0008195200081952000879
:1000E0001952000819520008195200081952000844
:1000F00019520008F95D0008195200081952000849
:1001000019520008095E0008195200081952000827
:100110001952000819520008195200081952000813
:1001200019520008195E0008195200081D5E0008E7
:1001300019520008000000000000000019520008D9
:1001400019520008195200081952000819520008E3
:10015000195200082D5E00083D5E00081952000883
:1001600019520008195200081952000819520008C3
:100170001952000819520008195200080000000026
:1001800000000000195200080000000000000000FC
:100190001952000800000000000000001952000879
:1001A00000000000000000000000000019520008DC
:1001B0004D5E000819520008195200081952000833
:0401C00019520008C8
:1001D00010B5054C237833B9044B13B10448AFF381
:1001E00000800123237010BD0C02002000000000DD
:1001F0005417010808B5034B1BB103490348AFF37B
:10020000008008BD00000000100200205417010803
:1002100010F8012B11F8013B012A28BF9A42F7D0B0
:10022000D01A7047034613F8012B002AFBD1181A85
:100230000138704781F0004102E000BF83F00043C5
:1002400030B54FEA41044FEA430594EA050F08BF71
:1002500090EA020F1FBF54EA000C55EA020C7FEA35
:10026000645C7FEA655C00F0E2804FEA5454D4EBB2
:100270005555B8BF6D420CDD2C4480EA020281EA7C
:10028000030382EA000083EA010180EA020281EAB4
:100290000303362D88BF30BD11F0004F4FEA013106
:1002A0004FF4801C4CEA113102D0404261EB410115
:1002B00013F0004F4FEA03334CEA133302D052429B
:1002C00063EB430394EA050F00F0A780A4F1010457
:1002D000D5F1200E0DDB02FA0EFC22FA05F2801891
:1002E00041F1000103FA0EF2801843FA05F3594177
:1002F0000EE0A5F120050EF1200E012A03FA0EFCF6
:1003000028BF4CF0020C43FA05F3C01851EBE3711F
:1003100001F0004507D54FF0000EDCF1000C7EEB3C
:1003200000006EEB0101B1F5801F1BD3B1F5001F7A
:100330000CD349085FEA30004FEA3C0C04F1010499
:100340004FEA445212F5800F80F09A80BCF1004FC2
:1003500008BF5FEA500C50F1000041EB045141EA44
:10036000050130BD5FEA4C0C404141EB010111F445
:10037000801FA4F10104E9D191F0000F04BF0146F0
:100380000020B1FA81F308BF2033A3F10B03B3F1CE
:1003900020020CDA0C3208DD02F1140CC2F10C025E
:1003A00001FA0CF021FA02F10CE002F11402D8BFBC
:1003B000C2F1200C01FA02F120FA0CFCDCBF41EA88
:1003C0000C019040E41AA2BF01EB0451294330BD57
:1003D0006FEA04041F3C1CDA0C340EDC04F1140434
:1003E000C4F1200220FA04F001FA02F340EA03000B
:1003F00021FA04F345EA030130BDC4F10C04C4F151
:10040000200220FA02F001FA04F340EA0300294630
:1004100030BD21FA04F0294630BD94F0000F83F47A
:10042000801306BF81F480110134013D4EE77FEA5D
:10043000645C18BF7FEA655C29D094EA050F08BFA9
:1004400090EA020F05D054EA000C04BF194610468A
:1004500030BD91EA030F1EBF0021002030BD5FEACE
:10046000545C05D14000494128BF41F0004130BDF6
:1004700014F580043CBF01F5801130BD01F000454A
:1004800045F0FE4141F470014FF0000030BD7FEABD
:10049000645C1ABF194610467FEA655C1CBF0B46B8
:1004A000024650EA013406BF52EA033591EA030FCF
:1004B00041F4002130BD00BF90F0000F04BF0021C7
:1004C000704730B54FF4806404F132044FF00005FA
:1004D0004FF0000150E700BF90F0000F04BF002173
:1004E000704730B54FF4806404F1320410F00045D9
:1004F00048BF40424FF000013EE700BF42004FEAD4
:10050000E2014FEA31014FEA02701FBF12F07F4350
:1005100093F07F4F81F06051704732F07F4208BF07
:10052000704793F07F4F04BF41F40021704730B50E
:100530004FF4607401F0004521F000411CE700BF5A
:1005400050EA010208BF704730B54FF000050AE0DD
:1005500050EA010208BF704730B511F0004502D5DE
:10056000404261EB41014FF4806404F132045FEAE0
:10057000915C3FF4D8AE4FF003025FEADC0C18BF89
:1005800003325FEADC0C18BF033202EBDC02C2F17B
:10059000200300FA03FC20FA02F001FA03FE40EA0D
:1005A0000E0021FA02F11444BDE600BF70B54FF011
:1005B000FF0C4CF4E06C1CEA11541DBF1CEA1355EF
:1005C00094EA0C0F95EA0C0F00F0DEF82C4481EA57
:1005D000030621EA4C5123EA4C5350EA013518BF77
:1005E00052EA033541F4801143F4801338D0A0FB64
:1005F00002CE4FF00005E1FB02E506F00042E0FB11
:1006000003E54FF00006E1FB03569CF0000F18BF16
:100610004EF0010EA4F1FF04B6F5007F64F54074BE
:1006200004D25FEA4E0E6D4146EB060642EAC62151
:1006300041EA55514FEAC52040EA5E504FEACE2EBE
:10064000B4F1FD0C88BFBCF5E06F1ED8BEF1004FC1
:1006500008BF5FEA500E50F1000041EB045170BD3D
:1006600006F0004646EA010140EA020081EA030181
:10067000B4EB5C04C2BFD4EB0C0541EA045170BD7D
:1006800041F480114FF0000E013C00F3AB8014F1F7
:10069000360FDEBF002001F0004170BDC4F1000440
:1006A000203C35DA0C341BDC04F11404C4F12005C1
:1006B00000FA05F320FA04F001FA05F240EA02001C
:1006C00001F0004221F0004110EBD37021FA04F652
:1006D00042EB06015EEA430E08BF20EAD37070BD0C
:1006E000C4F10C04C4F1200500FA04F320FA05F06B
:1006F00001FA04F240EA020001F0004110EBD3706D
:1007000041F100015EEA430E08BF20EAD37070BDDC
:10071000C4F1200500FA05F24EEA020E20FA04F3B5
:1007200001FA05F243EA020321FA04F001F0004164
:1007300021FA04F220EA020000EBD3705EEA430ED5
:1007400008BF20EAD37070BD94F0000F0FD101F004
:100750000046400041EB010111F4801F08BF013C3D
:10076000F7D041EA060195F0000F18BF704703F07B
:100770000046520043EB030313F4801F08BF013D02
:10078000F7D043EA0603704794EA0C0F0CEA1355BE
:1007900018BF95EA0C0F0CD050EA410618BF52EA78
:1007A0004306D1D181EA030101F000414FF000007E
:1007B00070BD50EA410606BF1046194652EA43068C
:1007C00019D094EA0C0F02D150EA013613D195EA00
:1007D0000C0F05D152EA03361CBF104619460AD148
:1007E00081EA030101F0004141F0FE4141F4700152
:1007F0004FF0000070BD41F0FE4141F4780170BD42
:1008000070B54FF0FF0C4CF4E06C1CEA11541DBFA6
:100810001CEA135594EA0C0F95EA0C0F00F0A7F8A8
:10082000A4EB050481EA030E52EA03354FEA0131D5
:1008300000F088804FEA03334FF0805545EA1313E8
:1008400043EA12634FEA022245EA111545EA1065B0
:100850004FEA00260EF000419D4208BF964244F147
:10086000FD0404F5407402D25B084FEA3202B61A66
:1008700065EB03055B084FEA32024FF480104FF43A
:10088000002CB6EB020E75EB030E22BFB61A7546AE
:1008900040EA0C005B084FEA3202B6EB020E75EB41
:1008A000030E22BFB61A754640EA5C005B084FEAA9
:1008B0003202B6EB020E75EB030E22BFB61A754676
:1008C00040EA9C005B084FEA3202B6EB020E75EB81
:1008D000030E22BFB61A754640EADC0055EA060E42
:1008E00018D04FEA051545EA16754FEA06164FEA85
:1008F000C30343EA52734FEAC2025FEA1C1CC0D131
:1009000011F4801F0BD141EA00014FF000004FF0BD
:10091000004CB6E711F4801F04BF01430020B4F17E
:10092000FD0C88BFBCF5E06F3FF6AFAEB5EB030C36
:1009300004BFB6EB020C5FEA500C50F1000041EB33
:10094000045170BD0EF0004E4EEA113114EB5C0400
:10095000C2BFD4EB0C0541EA045170BD41F48011D3
:100960004FF0000E013C90E645EA060E8DE60CEADB
:10097000135594EA0C0F08BF95EA0C0F3FF43BAFF8
:1009800094EA0C0F0AD150EA01347FF434AF95EAAF
:100990000C0F7FF425AF104619462CE795EA0C0F93
:1009A00006D152EA03353FF4FDAE1046194622E760
:1009B00050EA410618BF52EA43067FF4C5AE50EA3A
:1009C00041047FF40DAF52EA43057FF4EBAE12E72A
:1009D0004FF0FF3C06E000BF4FF0010C02E000BF0B
:1009E0004FF0010C4DF804CD4FEA410C7FEA6C5CEE
:1009F0004FEA430C18BF7FEA6C5C1BD001B050EA91
:100A0000410C0CBF52EA430C91EA030F02BF90EA7B
:100A1000020F0020704710F1000F91EA030F58BF3A
:100A2000994208BF90422CBFD8176FEAE37040F09C
:100A3000010070474FEA410C7FEA6C5C02D150EA3A
:100A4000013C07D14FEA430C7FEA6C5CD6D152EAF5
:100A5000033CD3D05DF8040B704700BF84461046BA
:100A600062468C461946634600E000BF01B5FFF7B9
:100A7000B7FF002848BF10F1000F01BD4DF808ED89
:100A8000FFF7F4FF0CBF012000205DF808FB00BF5A
:100A90004DF808EDFFF7EAFF34BF012000205DF8B4
:100AA00008FB00BF4DF808EDFFF7E0FF94BF012001
:100AB00000205DF808FB00BF4DF808EDFFF7CEFF02
:100AC00094BF012000205DF808FB00BF4DF808ED41
:100AD000FFF7C4FF34BF012000205DF808FB00BF12
:100AE0004FEA410C7FEA6C5C02D150EA013C0AD12A
:100AF0004FEA430C7FEA6C5C02D152EA033C02D11C
:100B00004FF0000070474FF0010070474FEA41027C
:100B1000B2F1E04324BFB3F5001CDCF1FE5C0DD95B
:100B200001F0004C4FEAC0024CEA5070B2F1004FA5
:100B300040EB830008BF20F00100704711F0804FA8
:100B400021D113F13872BCBF01F00040704741F46D
:100B500080114FEA5252C2F11802C2F1200C10FA71
:100B60000CF320FA02F018BF40F001004FEAC12355
:100B70004FEAD32303FA0CFC40EA0C0023FA02F3F9
:100B80004FEA4303CCE77FEA625307D150EA0133CF
:100B90001EBF4FF0FE4040F44000704701F000409F
:100BA00040F0FE4040F40000704700BF7BB972B9CE
:100BB0000029BEBF00204FF0004106E008BF00281A
:100BC0001CBF6FF000414FF0FF3001F043B9ADF1B1
:100BD000080C6DE904CE002909DB002B1ADB00F0BC
:100BE0004DF8DDF804E0DDE9022304B0704740422F
:100BF00061EB4101002B1BDB00F040F8DDF804E065
:100C0000DDE9022304B0404261EB4101524263EB53
:100C100043037047524263EB430300F02FF8DDF8C3
:100C200004E0DDE9022304B0404261EB410170477A
:100C3000524263EB430300F021F8DDF804E0DDE904
:100C4000022304B0524263EB4303704753B94AB9DD
:100C5000002908BF00281CBF4FF0FF314FF0FF30C4
:100C600001F0F8B8ADF1080C6DE904CE00F006F81B
:100C7000DDF804E0DDE9022304B070472DE9F04718
:100C8000089E04468846002B4BD18A42154667D9F8
:100C9000B2FA82F24AB1C2F1200701FA02F320FA55
:100CA00007F7954047EA030894404FEA154E230C96
:100CB000B8FBFEF71FFA85FC0EFB178843EA0843D2
:100CC00007FB0CF1994209D9EB1807F1FF3080F0CE
:100CD0001B81994240F21881023F2B445B1AA4B257
:100CE000B3FBFEF00EFB103344EA034400FB0CFCA4
:100CF000A44509D92C1900F1FF3380F00781A445E0
:100D000040F2048102382C4440EA0740A4EB0C0472
:100D100000271EB1D4400023C6E900433946BDE890
:100D2000F0878B4209D9002E00F0EB800027C6E93E
:100D3000000138463946BDE8F087B3FA83F7002F43
:100D400047D18B4202D3824200F2FA80841A61EBCF
:100D5000030301209846002EE0D0C6E90048DDE7F5
:100D600002B9FFDEB2FA82F2002A40F08F80491BFE
:100D70004FEA154E1FFA85F80127B1FBFEFC230C44
:100D80000EFB1C1143EA014308FB0CF1994207D901
:100D9000EB180CF1FF3002D2994200F2CD8084466C
:100DA000591AA3B2B1FBFEF00EFB101443EA04443F
:100DB00008FB00F8A04507D92C1900F1FF3302D237
:100DC000A04500F2B6801846A4EB080440EA0C40A7
:100DD0009FE7C7F1200CBB4022FA0CFE4EEA030E3F
:100DE00001FA07F420FA0CF521FA0CF34FEA1E4839
:100DF0002543B3FBF8F92C0C08FB19331FFA8EFAC4
:100E000044EA034309FB0AF49C4202FA07F200FA9F
:100E100007F10BD91EEB030309F1FF3080F0878047
:100E20009C4240F28480A9F1020973441B1BADB2BD
:100E3000B3FBF8F008FB103345EA034400FB0AFA61
:100E4000A24508D91EEB040400F1FF336BD2A24582
:100E500069D90238744440EA0940A0FB0289A4EB36
:100E60000A044C45C2464B4654D351D0002E69D09B
:100E7000B1EB0A0564EB030404FA0CFCFD40FC40F2
:100E80004CEA0505C6E90054002747E7C2F12003F4
:100E900020FA03F7954001FA02F021FA03F34FEA32
:100EA000154E3843010CB3FBFEF71FFA85F80EFB15
:100EB000173341EA034107FB08F38B4204FA02F4BB
:100EC00007D9691807F1FF3C2FD28B422DD9023F79
:100ED0002944CB1A81B2B3FBFEF00EFB103341EA7A
:100EE000034100FB08F38B4207D9691800F1FF3C6E
:100EF00017D28B4215D902382944C91A40EA07474C
:100F00003BE73746304609E70746E7E61846FBE683
:100F10004145ABD2B8EB020A69EB0E020138134629
:100F2000A4E76046E9E7184695E76746D1E78146BA
:100F30007CE702382C4447E7ACF1020C2B442FE746
:100F4000384608E73746E9E603685A004CBF43F0E5
:100F5000004323F000431844704700BF61B32DE9FC
:100F6000F84F01F1FF3A90460646D146002707EBBD
:100F7000090404EBD4746410E50071190846FFF706
:100F8000E3FFA245834605F10800304409D0FFF78E
:100F9000DBFFC34500F1FF3005D8404509D2671C8F
:100FA000E5E7C34505D9A74202D004F1FF39DEE7E2
:100FB00000210846BDE8F88F08467047012807D091
:100FC000022807D0044B00280CBF184600207047A9
:100FD0000248704702487047A9160008AD1600087D
:100FE000B116000830B5254B83B004468D1E4BB3B7
:100FF00001A92846AFF30080F0B101992A46FFF716
:10100000ADFF0146C0B1FFF79FFF4B68A064012B05
:101010002ED0002B01F1040026DBFFF795FF002303
:10102000C4E913030368002B12DBFFF78DFF0023D5
:101030002061184603B030BD002323610923184600
:1010400003B030BD0E490F48091AC9100191D5E708
:10105000C3F30360FFF7B2FF002814BF0023092386
:101060002061184603B030BD0123C4E91303D9E75A
:10107000002323610523184603B030BD00000000A3
:10108000C4210108942001080368DA0710B504465A
:1010900006D49B0700F1480009D500F05FFC2368E7
:1010A000590709D51A070ED5DB0613D510BD00F078
:1010B0004DFC23685907F5D404F1D00000F056FC2C
:1010C00023681A07F0D404F5A87000F057FC2368D1
:1010D000DB06EBD404F5E870BDE8104000F092BCEC
:1010E000036803B103441846704700BF09207047E6
:1010F000704700BF70B504460D4608E02B6C636175
:101100002A462369214601209847082808D1296CDE
:101110002046FFF767FF06460028EFD00FF038FDA6
:101120000728FBD13046296CFFF7E2FF281D00F0AD
:1011300001FC00BF2DE9F0470C1D054617460FCCFA
:10114000ADF5727D03AE0FC60FCC0FC60FCC0FC628
:1011500094E80F0002ACD5F80C80D5F8189086E81A
:101160000F000023236021E0236C6B614FF4F072C9
:1011700021467AA80FF01CFE2B697AAA2946304630
:101180009847889BCDE900498246636431462B46E7
:101190002A460120C0470746F8B94FF4F0727AA9F1
:1011A00020460FF005FEBAF1080F1CD1216C28462D
:1011B000FFF718FF002F08BF0926074618BF0A26A9
:1011C0000028D1D0A36B46F01001CDE900492A4692
:1011D000636401202B46C04700B1092738460DF54E
:1011E000727DBDE8F087BAF1070FF6D13846216C61
:1011F000FFF77EFF03A800F09DFB00BF406C704727
:10120000F0B5CB6B0B640D1D0F4606460FCDF9B044
:1012100001AC0FC40FCD0FC40FCD0FC495E80F0064
:101220004FF0FF3584E80F00009506E033696A4609
:10123000314698470828044608D110993046FFF7F0
:10124000D1FE0028F2D0092079B0F0BD6846FFF742
:101250001BFF062CF7D139463046FFF74BFF00BF86
:1012600030B4DD6BC160826119461D64002230BC60
:1012700060E700BF70B5C66843690B64BEB9036917
:101280000A4604460D46014602209847072807D023
:10129000082803D129462046FFF72CFF0FF078FCE1
:1012A0003046296CFFF724FF281D00F043FB012284
:1012B000FFF740FF0FF06CFCC2681AB1CA6B0A64FA
:1012C000002237E79CE700BF704700BF836813B177
:1012D0000146012018477047042907D8DFE801F0CC
:1012E0000308060808000BB90F2A03D9022070472B
:1012F0000120704700EB820218465368009A136081
:10130000704700BF10B584B0002303AC0A460094B8
:101310001946FFF7E1FF039804B010BD042907D870
:10132000DFE801F00308060808000BB90F2A03D90B
:10133000022070470120704700EB8200009A12687B
:1013400042601846704700BF10B584B004AC00235B
:1013500044F8042D0A4600941946FFF7DFFF04B055
:1013600010BD00BFF0B5D36B1364151D07460E46C4
:101370000FCDADF50F7D17AC0FC40FCD0FC40FCD42
:101380000FC495E80F004FF0FF3584E80F00169565
:1013900010E016A8FFF7D8FF314616A8B84716AADE
:1013A000694678B9049B08209847052804460AD066
:1013B000092807D026996846FFF714FE6A460C21D3
:1013C0000028E6D0092416A8FFF75EFE20460DF59A
:1013D0000F7DF0BD2DE9F04F0D46C96C89B00C1D95
:1013E000164600F0030B0A6806941F46002B68D0CF
:1013F000130CD9B212048DF81D30022304EB8104C2
:1014000005928DF81C302B6DBBF1020F08BFAC6B41
:1014100013F0010346D1019300F008030093D4F8C0
:101420000090B9F1000F00F0F380022F45D0B4F81E
:101430000090B4F802800434AB6C28F0010A0F214C
:1014400030469A44FFF75EFF824534D829F0010305
:101450005344834294BF002001204FEA480808F01B
:10146000020809F0010948EA0908B8F1010F3AD069
:1014700031D3B8F1020F1AD1236823F0004ABBF12F
:10148000000F66D130B1009A002A6CD0BAF1000F7B
:1014900000F09080002B00DA04340AF1010304EB21
:1014A0008304BCE7304605A900F046FB78B109206B
:1014B00009B0BDE8F08F0020CFE7D4F804800834ED
:1014C000BAE7120203230592ADF81C309BE708200F
:1014D00009B0BDE8F08FBBF1000F02D0002840F04A
:1014E000B48004349BE7BBF1000F18D1A8B1D4E954
:1014F0000023991C4FEAD272D9D005F1580101336B
:10150000049100F0B580201DFFF7EAFD04AB014611
:1015100028460EF085F8002867D108347FE70D21B2
:101520003046D5F82080FFF7EDFE8045F5D1AB6A57
:101530009C42F2D12046FFF707FD0F2102463046BC
:10154000FFF702FF30462A460021FFF7FDFE072085
:10155000AEE70D213046D5F82080FFF7D3FE804559
:1015600032D0236896E7BAF1000F23D005F1580373
:1015700004F10408CDF808B0DDF800900397A34605
:101580001C4602E05745B94640D040460494FFF758
:10159000A7FD04AB0146002228460EF041F809F1F0
:1015A000010708F104080028ECD0D1455C46DDE9CC
:1015B00002B7D6D130460D21FFF7A4FE049B286266
:1015C000C5E90934062073E7AB6A9C42C9D10422FD
:1015D0004FF00008A318C5E90AA8C5E90C23236841
:1015E00043454DDB0123019357E780460D213046EB
:1015F000FFF788FEB8F1020F28623ED12B46049A0D
:1016000043F82C2F6B62AC62062051E75C46D1E7B1
:1016100005A9304600F090FA00287FF448AF019BFE
:10162000002B3FF454AF0F213046FFF76BFE0E2125
:1016300002463046FFF788FE30461A4A0F21FFF770
:1016400083FE072009B0BDE8F08F2046FFF77CFC41
:1016500004340746AC6328460EF040F800283FF4F7
:1016600026AF30463A460F21FFF76EFE07201FE7F0
:1016700030460D21FFF746FE2862049B6B62C2E7ED
:101680000AF1010004EB8000FFF75EFC0F21024627
:101690003046FFF759FE30462A464146FFF754FED2
:1016A000072005E7D7F80008002393E6012391E619
:1016B00002238FE62DE9F0410546C4B0042906D87F
:1016C000DFE801F04D2B05030900032B5FD002205A
:1016D00044B0BDE8F081002BF9D1102AF7D82B686F
:1016E000DC0600F1F48022AC2046019200F094F96F
:1016F000A86B019A0023012606FA03F1114203D0D8
:10170000016844F8231004300133042BF4D1A8639A
:10171000204600F077F90020DAE7012B4FEA124665
:1017200097B252D0052BD2D106EB0708B8F1200FA3
:10173000CDD80F2E40F29980B846002F40F0DB80C4
:10174000AA6BAA630F2E40F2BE80B8F1000F02D040
:1017500002A800F00BF9002044B0BDE8F081002B96
:10176000B5D1AC6B97B2281D012606FA03F13942B8
:1017700003F1010302D0216801600434102B00F151
:101780000400F2D112F40050E5D1AC63A0E7160CCE
:1017900097B2F319102B9AD82B681A075DD422AC94
:1017A000204600F00DF904EBC601AB6B3FB103EB33
:1017B000C702186841F8040B04339342F9D120465C
:1017C000AB6300F0DBF8002082E7F219102A3FF645
:1017D0007EAF0F2E3FF67BAF2A68D10708D528468B
:1017E00022F0030240F8482B019300F0B3F8019B6C
:1017F000019322AC204600F0ADF8A96B019B002FAD
:1018000000F095807F0004EBC6044FF00008043C14
:1018100001EB870251F8040B44F8040F9142F9D10F
:10182000B8F1000F0FD002AC102E314638BF102196
:1018300004EBC101843902EBC80452F8040B41F8EF
:10184000040F9442F9D1012B7FF47BAF22AC043218
:10185000AA63204600F07AF87DE723F008032B60A6
:1018600005F5A87000F0ACF899E7B8F1100F2A68F8
:1018700043D9D007A8F110080BD5284622F0010261
:1018800042F0020240F8482B019300F06BF82A68FE
:10189000019B510725D40F2E04D822A8019300F0F4
:1018A00061F8019B019302AC204600F063F8C6F199
:1018B00010010029AA6B019BB6DD22AC4F0004EB9E
:1018C000C6041146A3E722A800F048F83DE723F03C
:1018D00010032B6005F5E870019200F09DF8019A65
:1018E00001E7284622F0040240F8D02B019300F0D3
:1018F00041F8019BCFE72A68CBE7D0070AD52846F5
:1019000022F0010242F0020240F8482B019300F05D
:1019100029F8019B019322AC204600F023F8B84639
:10192000A96B019B002F7FF46DAF0A4609E70A46B9
:101930008DE700BF00F1340191E838009C46A646CF
:101940004CF8045D90E8FF0FE54600BD90EC210BDC
:10195000704700BF80EC210B704700BF90EC200B5C
:10196000704700BF80EC200B704700BFD0EC200B0D
:10197000704700BFC0EC200B704700BFF0EC0201C5
:10198000F0EC0211F0EC0221F0EC0231F0EC02413B
:10199000F0EC0251F0EC0261F0EC0271F0EC02812B
:1019A000F0EC0291F0EC02A1F0EC02B1F0EC02C11B
:1019B000F0EC02D1F0EC02E1F0EC02F1704700BF74
:1019C000E0EC0201E0EC0211E0EC0221E0EC02317B
:1019D000E0EC0241E0EC0251E0EC0261E0EC02716B
:1019E000E0EC0281E0EC0291E0EC02A1E0EC02B15B
:1019F000E0EC02C1E0EC02D1E0EC02E1E0EC02F14B
:101A0000704700BFB0FC0181B0FC0191B0FC01A1A6
:101A1000B0FC01B1704700BFA0FC0181A0FC0191A6
:101A2000A0FC01A1A0FC01B1704700BFEC4600B5CD
:101A30002DE900502DE9FF1F4FF000032DE90C00A8
:101A400001A9FFF7DDFBDDF840E012B0704700BFF1
:101A5000EC4600B52DE900502DE9FF1F4FF00003C3
:101A60002DE90C0001A9FFF705FCDDF840E012B0FC
:101A7000704700BFEC4600B52DE900502DE9FF1F6F
:101A80004FF000032DE90C0001A9FFF715FCDDF86C
:101A900040E012B0704700BFEC4600B52DE90050A1
:101AA0002DE9FF1F4FF000032DE90C0001ABFFF7FC
:101AB000D7FBDDF840E012B0704700BFEC4600B540
:101AC0002DE900502DE9FF1F4FF000032DE90C0018
:101AD00001AAFFF747FCDDF840E012B0704700BFF5
:101AE000027A82B9437AABB14268013B10B44372C7
:101AF00013680321141D01721A02446002605DF82C
:101B0000044B180E70470368013A02721A02026011
:101B1000180E7047B020704700B585B003AA0023A7
:101B2000009219460C22FFF7D7FB039805B05DF829
:101B300004FB00BFF0E700BF2DE9F043054685B088
:101B40000E464FF000083046FFF7CAFFB0280446A3
:101B500000F0B180070620D500F0F003802B65D09F
:101B6000902B36D0A02B78D0B02B47D0C02B00F0D4
:101B70008A8000F0F803D02B0BD100F0070201326D
:101B800042F40022052301212846FFF793FD002897
:101B9000D9D0092005B0BDE8F0830DF10C09002370
:101BA00019468700CDF800900D222846FFF794FBD8
:101BB000FFB2039BCDF80090043760064CBFDF1BDB
:101BC000FF18002319460D2228460397FFF7A6FBAE
:101BD000B9E700F00D030D2BDBD003AF002300F0BD
:101BE0000F02194600972846FFF776FB002300975F
:101BF00019460D222846FFF791FBA4E7B1285FD0D4
:101C0000B22800F0CC80B3287ED000F0FC03B42BC7
:101C1000BFD000F007020132012342F4002219462E
:101C20002846FFF747FD00288DD0B2E73046FFF782
:101C300057FF24020443B4F5004FAAD02401002327
:101C4000A2B219462846FFF735FD0028A1D114F4A9
:101C5000004F18BF4FF0010875E7C24302F00703B9
:101C60004FF47F621A41010702F47F624FF00003D4
:101C700048BF42F4804219462846FFF71BFD002862
:101C80003FF461AF85E7C62851D0C7285AD000F08D
:101C9000F803C02B69D0C82875D0C9287FF479AF64
:101CA0003046FFF71DFF020300F00F0002F4702220
:101CB0000130024366E7B8F1000F14D0002069E755
:101CC0003046FFF70DFF00283FF463AF10F0F0033C
:101CD0007FF45FAF024619462846FFF7EBFC002869
:101CE0003FF431AF55E703AC43460E224146009422
:101CF0002846FFF7F1FA0094284643460F22414652
:101D0000FFF70CFB404645E73046FFF7E9FE0103CD
:101D100000F00F0001F47021421C01230A43284601
:101D20001946FFF7C7FC00283FF40DAF31E73046F6
:101D3000FFF7D6FE010300F00F0001F47021421CF2
:101D40000323EBE73046FFF7CBFE024600283FF4C3
:101D500020AF10F0F0037FF41CAF04212846FFF7FA
:101D6000A9FC00283FF4EFAE13E700F00F020132A8
:101D7000032342F4202219462846FFF79BFC002843
:101D80003FF4E1AE05E73046FFF7AAFE00F0F002AF
:101D900000F00F031032013343EA0232F2E600236F
:101DA0000DF10C090D221946CDF800902846FFF7D9
:101DB00093FA3046FFF794FE02064FF002070CD567
:101DC000039B00F07F00B840034430460393FFF7C5
:101DD00087FE030607F10707F2D4039BCDF80090B6
:101DE00000F07F0403F50172BC400023144419463F
:101DF0000D2228460394FFF791FAA4E610B5C36CB0
:101E000084B05A6803208DF80C00DC798DF80D4001
:101E100012020833084601A901920293FFF78CFED3
:101E200004B010BD08B5FFF785FE806C08BD00BF8B
:101E300008B5FFF77FFEC06CC37900EB8300083064
:101E400008BD00BF08B50EF0A3FE00BF08B5FFF740
:101E5000F9FF00BF704700BF0A4B10B50446186871
:101E600018B183690BB90EF0E5FE132C07D80648AC
:101E700050F83430013302D000EBC40010BD002014
:101E8000FCE700BF3C000020DC4A0120F8B5431C01
:101E9000054609D10EF088FE132406460027204689
:101EA0003946ABBE044634602846F8BDF8B5054651
:101EB0000EF07AFE13240646002720463946ABBEB4
:101EC000044634602846F8BD30B585B0CDE901013F
:101ED0000392062401AD20462946ABBE04462046A7
:101EE000FFF7D4FF05B030BD70B50E461546FFF7BD
:101EF000B3FF044630B90EF057FE092303604FF0DC
:101F0000FF3070BD2A4631460068FFF7DDFF431CF5
:101F10001FBF6368281A1B186360F2E7F7B50C4609
:101F20001646FFF799FF054640B90EF03DFE09231E
:101F300003604FF0FF34204603B0F0BD022E03D9FA
:101F40000EF032FE1623F3E7012E12D14368E41897
:101F5000F6D42B680A26CDE900346F463046394660
:101F6000ABBE06463046FFF791FF0028E1DB6C6010
:101F7000E1E7022EEDD102AF036847F8083D0C26D9
:101F800030463946ABBE06463046FFF77FFF431C5E
:101F9000CFD00444DDE7FFF7C1BF30B585B0CDE950
:101FA00001010392052401AD20462946ABBE04463B
:101FB0002046FFF76BFF05B030BD70B50E461546E5
:101FC000FFF74AFF044630B90EF0EEFD0923036027
:101FD0004FF0FF3070BD2A4631460068FFF7DDFF45
:101FE000021EF5DB6368A81A0344AA426360F1D1BC
:101FF0000020BDE87040FFF759BF37B502AD02249D
:1020000045F8040D20462946ABBE04462046FFF79E
:102010003DFF03B030BD000038B50546FFF71CFF9B
:10202000044630B90EF0C0FD092303604FF0FF30C5
:1020300038BD013D012D09D8094B9A681B699A42A8
:1020400004D14FF0FF3303600020F1E72068FFF771
:10205000D4FF0028ECD14FF0FF332360E8E700BF46
:10206000DC4A0120012070470D4B196810B502466B
:1020700009B90C4919601868694602448A4206D8B1
:1020800009490A4C0968A14208D08A4206D90EF0D3
:102090008BFD0C2303604FF0FF3010BD1A60FCE78E
:1020A000CC4A01205060012024000020ADDEFECA91
:1020B00070B50C46FFF7D0FE064630B90EF074FD41
:1020C000092303604FF0FF3070BD636843F4005391
:1020D00063604FF4806363640C2528463146ABBED1
:1020E00005462846FFF7D2FE431C1CBF2061002096
:1020F000EAE70B4610B500210446582218460EF0B8
:1021000062FE01462046BDE81040FFF7D1BF38B55A
:102110000D4604465822002128460EF054FE204663
:10212000002100F011F8431C04460BD06B6843F407
:1021300001436B602946FFF7BBFF05462046FFF7CA
:102140006BFF2C46204638BD2DE9F0472B4B96B04F
:1021500082460E460025984653F83540611C4FEAEA
:10216000C50736D00135142DF6D10EF01DFD18230C
:1021700003604FF0FF343CE0C6F3004440F20163DB
:10218000B20748BF44F002041E4218BF44F00404E2
:10219000330748BF24F00404504648BF44F0080405
:1021A000CDF800A0FEF73EF8CDE90140012420461D
:1021B0004946ABBE0446002C06DB4744002348F8E2
:1021C00035407B602C4614E02046FFF76FFE044646
:1021D0000FE006F42063B3F5206FE946CCD1494601
:1021E0005046FFF794FF0130C6D00EF0DDFC1123FE
:1021F0000360204616B0BDE8F08700BFDC4A01202E
:102200002DE9F74307468846294800211546FFF780
:102210009BFF2A460446002138460EF0D4FD631C7D
:1022200015D02046FFF718FE0C2681463046494659
:10223000ABBE06463046FFF729FE032802DD033811
:10224000A84208DC2046FFF7E7FE4FF0FF342046A7
:1022500003B0BDE8F08304220DEB02012046FFF736
:1022600043FE0328EEDD9DF80430532BEAD19DF8A0
:102270000530482BE6D19DF80630462BE2D19DF87B
:102280000730422BDED1012241462046FFF746FEB1
:102290000028D7DB2A4639462046FFF725FE0546AB
:1022A0002046FFF7B9FE2846FFF7F0FD0446CEE7CB
:1022B0004018010837B50A4D0A4C0021012201A837
:1022C00029602260FFF79CFF002807DD9DF804309D
:1022D00003F0010203F002032A60236003B030BD63
:1022E000280000202C00002010B5044C2268002A91
:1022F00001DAFFF7DFFF206810BD00BF2C000020CF
:102300002DE9F04F85B0DFF8B090CDF804900323AD
:10231000002403930DF10408029401252846414648
:10232000ABBE0546204E214A356023464FF0FF31B3
:10233000144642F833100133142BFAD1FFF7D4FFBF
:102340001B4DD0B14FF0030A0423CDF804900127B0
:10235000CDF80CA0029338464146ABBE8346154BE0
:10236000CDF80490C3F800B00823CDF80CA0029378
:1023700038464146ABBE07462F602B68013302BF8B
:102380000C4B1B682B603368236000266660FFF7E8
:10239000ABFF30B1074B1B68C4E902362B68C4E9B8
:1023A000043605B0BDE8F08FD44A0120DC4A012094
:1023B000D04A0120D84A01205618010870B5FFF70D
:1023C0004BFD0925044620B90EF0EEFB05602046C2
:1023D00070BD28462146ABBE0446012CF7D00EF056
:1023E000E3FB00240646132528462146ABBE0546DE
:1023F0003560ECE7704700B591B002A800F02EF907
:10240000012102A800F03DF9702102A800F03EF978
:1024100048B10DF1070000F073F948B19DF80700CD
:1024200011B05DF804FB4FF2FF20FFF7E3FFF0E788
:102430004FF2FD20FFF7DEFFF0E730B59DB00EA8AC
:1024400000F00CF906210EA800F020F9034610B99F
:1024500018461DB030BD684600F000F90EAD6C4660
:102460000FCC0FC50FCC0FC50FCC0FC594E80300E0
:1024700085E8030001210EA800F003F901231A46A4
:1024800005210EA800F010F90346E1E700B58FB072
:10249000684600F0E3F80621684600F0F7F80FB050
:1024A0005DF804FB70B58EB006460C4615466846CE
:1024B00000F0D4F83146684600F0DBF8294668465B
:1024C00000F0DFF80321684600F0E0F828B120466C
:1024D00000F016F930B10EB070BD4FF2FF20FFF7DB
:1024E00089FFF4E74FF2FD20FFF784FFF3E770B5B3
:1024F0009CB006460C461546FFF79FFF0EA800F05D
:10250000ADF831460EA800F0B4F829460EA800F048
:10251000B8F802210EA800F0B9F820B3204600F068
:10252000E1F828B3684600F099F80EAD6C460FCC80
:102530000FC50FCC0FC50FCC0FC594E8030085E87D
:10254000030001210EA800F09CF80123072270214E
:102550000EA800F0A9F880B1FFF74DFF10F0100FA2
:1025600010D11CB070BD44F6FF70FFF743FFD5E7F4
:1025700044F6BF70FFF73EFFD4E74EF2BD70FFF7A1
:1025800039FFE9E7FFF782FF44F6BD70FFF732FF3E
:10259000E7E7F8B505460F461646C4B20AE0C4F5AB
:1025A0008074224639462846FFF7A1FF2744254478
:1025B000361B00243319B3F5807FF0D832463946F4
:1025C0002846FFF794FFF8BD30B59DB004460D4690
:1025D000FFF733FF0EA800F041F829460EA800F0DF
:1025E00048F821460EA800F051F800B3684600F004
:1025F00035F80EAD6C460FCC0FC50FCC0FC50FCC08
:102600000FC594E8030085E8030001210EA800F03F
:1026100038F80123072270210EA800F045F858B1C0
:10262000FFF7E9FE10F0200F0BD11DB030BD4EF2C8
:10263000FF70FFF7DFFED9E74EF2BD70FFF7DAFE5D
:10264000EEE7FFF723FF4EF2BD70FFF7D3FEECE796
:1026500008B501462020FFF7B7FF08BD10B50446B6
:10266000382200210EF0AFFB4FF48073A3612046A7
:1026700010BD4FF48063C3614FF40053C3604160E9
:1026800070474FF0807343628162704708B5016004
:102690004FF4FA620146034806F0DAF8B0FA80F027
:1026A000400908BD9456012030B587B00024049439
:1026B00001240394102502954FF48005059593405D
:1026C00000939440019401604FF4FA636A46014616
:1026D000034806F009F9B0FA80F0400907B030BDB0
:1026E0009456012008B54FF4FA620146034806F0FB
:1026F000C2F9B0FA80F0400908BD00BF945601202D
:1027000008B54FF4FA620146034806F01CFAB0FA25
:1027100080F0400908BD00BF945601200130B0FB95
:10272000F1F301FB1300704770B584B06C4684E888
:102730000F00104E3368104D05EB031594E80F00A1
:1027400085E80F0030684021FFF7E8FF306032680D
:1027500073689A4201D004B070BD70684021FFF7E1
:10276000DDFF70603223002219460448006800F043
:1027700055FCF0E728020020F04B0120000000206B
:1027800070B58AB006460024059406940123079389
:102790000094019402940394049408930E230993E3
:1027A0000F4D6946284604F051FB284604F0E4FB2F
:1027B0000221284604F042FD0A4B1E605E60DC6088
:1027C0009C6008221A611C7500F00EFC064B186014
:1027D00023460A22214600F021FC0AB070BD00BF4A
:1027E00000550120BC4B01200000002070B586B0D0
:1027F00004460E461546030E8DF81030C0F307430D
:102800008DF81130C0F307238DF812308DF81300C6
:102810008DF81410C2F307438DF81530C2F3072367
:102820008DF816308DF81720114B1968114804F0F7
:1028300046FC0028F8D100948DF8046002950E4CF7
:102840002368039300F02EFB094B04AA2146094894
:1028500004F0C0FB08B106B070BD6C4694E80F00F0
:1028600002F0ECFB94E80F00FFF75EFFF3E700BF18
:10287000B04B012000550120BC4B012010B5094B85
:102880001C685B68E41A02D41CB1204610BD4034B9
:10289000FAE700230A2219460348006800F0BEFB4D
:1028A000F3E700BF280200200000002038B50446EE
:1028B0000023036043608360C360FFF7DFFF60B104
:1028C000074D6A68074B03EB02130FCB84E80F0038
:1028D00068684021FFF722FF6860204638BD00BFCE
:1028E00028020020F04B012070B500211C4804F0A4
:1028F00092FC054608B9284670BD1A4C1A4E23466C
:1029000032460021164804F0ECFB184B00211960F8
:102910001A68207802EB00621A601A68607802EB8D
:1029200000421A601A68A07802EB00221A601A6846
:10293000E07802441A6022791A7199609A68617984
:1029400002EB01429A609A68A17902EB01229A6037
:102950009A68E1790A449A603268DA60CBE700BF8E
:1029600000550120B44B0120D44B0120A04B012085
:1029700008B5FFF7B9FF024B0FCBFFF7D5FE08BD37
:10298000A04B0120062800D870470720FCE784B040
:102990008DE80F00002004B07047000084B030B410
:1029A00002AC84E80F000B4A13680133136003F094
:1029B0000703C3EBC3039A00074C144402AD0FCDC9
:1029C0000FC495E8070084E80700012030BC04B07C
:1029D000704700BF58490020F04F01200000000060
:1029E00084B038B504AC84E80F000598FDF786FD87
:1029F0002FA3D3E90023FDF703FF9FED291B41EC33
:102A0000100B0CF0C5FF53EC102B00202A49FDF7EA
:102A100015FC25A3D3E90023FDF7C8FDFEF776F8E2
:102A20000690DDED077AF5EEC07AF1EE10FA1CDDC6
:102A300017EE900AFDF762FD1DA3D3E90023FDF711
:102A4000DFFE9FED171B41EC100B0CF0A1FF53ECC8
:102A5000102B00201849FDF7F1FB13A3D3E9002345
:102A6000FDF7A4FDFEF752F80890144A13680133ED
:102A7000136003F0070303EB83039A00104C144424
:102A800004AD0FCD0FC42B68236004F01FF90D4B6C
:102A900018600020BDE8384004B07047AFF30080F4
:102AA000EBE2361AC05BC83F0000000040A5E540DD
:102AB000CDCCCCCCCCD48F400000F03F544900208A
:102AC000D05001205049002070B5ADF5187DE022AE
:102AD00000215CA80EF077F9A0242246002134A83A
:102AE0000EF071F9224600210CA80EF06CF90025B9
:102AF0000A950B95089509950695079504950595F2
:102B00004FF4FA7009F011FDA2E194A8FFF7CEFE90
:102B10009798FFF737FF9DF85432322B00F29881D7
:102B2000DFE813F033006600760086009900A50008
:102B3000B100BD00D600E600F600FE0046005600DB
:102B4000960196019601270196019601960196013C
:102B500096019601960196019601960196019601BD
:102B600096019601960196019601960196019601AD
:102B700096019601960196010F01960196011B019F
:102B800096019601960196010A01DDED947AF8EE20
:102B9000E77ADFEDB36A87EEA67A00EB8002930056
:102BA00034AA134483ED017A08AB01221A544FE191
:102BB000DDED947AF8EEE77ADFEDA96A87EEA67A82
:102BC00000EB8000830034AA134483ED007A3FE1D8
:102BD000DDED947AF8EEE77ADFEDA16A87EEA67A6A
:102BE00000EB8000830034AA134483ED037A2FE1C5
:102BF000DDED947AF8EEE77ADFED9A6A87EEA67A51
:102C0000C0EBC000830098AA134403ED3C7A1FE197
:102C1000DDED947AF8EEE77ADFED926A87EEA67A38
:102C2000C0EBC000830098AA134403ED3B7A0FE188
:102C3000DDED947AF8EEE77ADFED8A6A87EEA67A20
:102C4000C0EBC002930098AA134403ED3A7A06AB96
:102C500001221A54FCE0DDED947AF8EEE77AC0EB3D
:102C6000C000830098AA134443ED397AF0E0DDED0B
:102C7000947AF8EEE77AC0EBC000830098AA134478
:102C800043ED387AE4E0DDED947AF8EEE77AC0EBD4
:102C9000C000830098AA134443ED377AD8E0DDEDF5
:102CA000947AF8EEE77A00EB800293000CAA1344C2
:102CB000DFED6C6A87EEA67A83ED007A0AAB1B5CC7
:102CC000002B40F0C5800AAB01221A541544BFE026
:102CD000DDED947AF8EEE77A00EB800083000CAA31
:102CE0001344DFED616A87EEA67A83ED017AAFE0E7
:102CF000DDED947AF8EEE77A00EB800083000CAA11
:102D00001344DFED596A87EEA67A83ED027A9FE0DD
:102D100000EB800083000CAA1344949ADA6097E0D9
:102D20009DF8501200EB800293000CAA1344197412
:102D300004AB01221A548BE09DF850224B4B1A70C1
:102D400086E0DDED947AF8EEE77ADFED466A87EE0D
:102D5000A67A474B83ED007A7AE0DDED947AF8EEBF
:102D6000E77ADFED406A87EEA67A414B83ED017A80
:102D70006EE0949A3F4B1A606AE004EB8402930081
:102D80000CAA13441A6900920FCBFFF700FE78B12A
:102D9000A200224493000CAA1344374A1A605A60D6
:102DA0009A604FF0FF32DA6000221A7404AB1A55B1
:102DB00008AB1B5D2BBB06AB1B5D002B30D1013478
:102DC000072C42DC04AB1B5D002BF1D004EB84022A
:102DD00093000CAA1344D868FDF77EFB0022274B12
:102DE000FDF74CFE30B10AAB1B5D1BB1013D0AABD8
:102DF00000221A550AAB1B5D002BBED1002DD7DC7B
:102E0000BBE704EB8402930034AA13441A690092CE
:102E10000FCBFFF7E5FD80F0010008AB1855CAE7BE
:102E2000C4EBC402930098AA1344A3F1F006E03B5C
:102E300093E807008DE8070096E80F00FFF7AEFD66
:102E400080F0010006AB1855B9E70A2009F06DFBC8
:102E5000FFF714FD00287FF458AE0024B0E700BF50
:102E60000000C84200007A440024744960490020F0
:102E70003002002004000020000080BF0000F0BFEE
:102E800010B5044601F0DCFE844204D000F0A6F840
:102E9000844203D010BD01F0B7FEFBE700F088F8D4
:102EA000F8E7000010B5044603F010FF064B53F896
:102EB00024301B1A3233002B05DD034A42F824006C
:102EC000184609F032FB10BDC002002008B502F020
:102ED00039F902F095F808BDF0B59DB01D4C15AD5F
:102EE00026460FCE0FC596E8070085E807000021AB
:102EF00015A809F0E4FA184B18600EAD04F11C0691
:102F00000FCE0FC596E8070085E8070000210EA840
:102F100009F0D5FA114F386007AD04F138060FCE2D
:102F20000FC596E8070085E80700002107A809F00B
:102F3000C6FA38606D4654340FCC0FC594E80700CC
:102F400085E807000021684609F0B9FA044B1860CB
:102F50001DB0F0BD701701087C510120785101208F
:102F600070510120114B1A6801321A601B797BB92C
:102F70000D280ED00A280CD00C4B5B7943B10B4ABC
:102F8000936801339360012B09D0084B00225A71DA
:102F90007047064B01225A7100229A6070474F28F1
:102FA000F6D1134601221A71704700BFE0020020DB
:102FB00008B507E0084BDA68511CD9601344187C47
:102FC000FFF7D0FF044BDB683F2BF3D9024B002205
:102FD0001A65DA6008BD00BFE0020020014B1868E6
:102FE000704700BF9C5101204FF0500383F31188BC
:102FF000BFF36F8FBFF34F8F074B1B681F2B07DC8F
:10300000054B1868421C1A60002383F3118870472F
:103010004FF0FF30704700BF8003002000280FDB17
:1030200010B4084C2468844207DD064C04EB4000D1
:103030008180A0F84420A0F884305DF8044B7047EC
:10304000704700BF80030020024B58639963DA6326
:10305000704700BF0004014008B5134B1A6A42F0E4
:1030600004021A621A6A42F040021A621A6A42F4B0
:1030700080621A625A6C42F480425A641A6842F0C2
:1030800001021A6003F57C4380229A6103F5806394
:103090004FF480429A614FF400429A610022114637
:1030A0001046FFF7D1FF08BD0004014010B5FFF73F
:1030B000D3FF1EE0104B03EB44039888B3F8441091
:1030C000B3F88420FFF7C0FF4FF4967009F02DFA93
:1030D000002211461046FFF7B7FF642009F025FAD9
:1030E0000134054B1B68A342E4DC4FF4FA7009F08D
:1030F0001CFA0024F5E700BF8003002090F900309F
:1031000023F01C03CA78920002F01C0213430370E0
:10311000704790F9003003F01F030A7943EA421325
:103120000370704790F9003023F01C030A78920076
:1031300002F01C0213430370704790F9003003F053
:103140001F034A7843EA421303707047037803F081
:1031500007038B708378C3F382030B7083785B095A
:103160004B70C378C3F38203CB70C3785B090B71D8
:103170007047000010B442680B885800C0EBD200C2
:10318000B1F9024000FB04F000281FDBC012C3EBC2
:10319000121303FB03F3002B1BDB1B13B1F90420F9
:1031A00002FB03F3002B17DB00EBA330486200EBBC
:1031B0008000803014D4001210F57A6F12DB42F2D6
:1031C0003413984210DC5DF8044B704700F2FF7036
:1031D000DCE703F6FF73E0E703F57F533F33E3E7F4
:1031E000FF30E8E70248EEE742F23410EBE700BFB9
:1031F00060F0FFFF2DE9F04F83B086468C464A6AA7
:10320000D317B2F5FA3A43F1FF3B0AFB0BF1AAFBE5
:103210000A4505EB4105BCF910804FEAE87904FB4B
:1032200009F108FB0511A4FB08898944BCF90E00CB
:10323000C11700FB0BF60AFB0166A0FB0A01314433
:103240004F0447EAD037460416EB080247EB090360
:10325000BCF90C8000204FEAC801161843EB0107A7
:10326000BCF90A20D31704FB03F102FB0511A4FBF0
:1032700002450D44A046A946002C75F10003C0F29A
:10328000DE804FEA182444EA096300934FEA2923B9
:103290000193BCF90810CA1701FB0BF30AFB0235B6
:1032A000A1FB0A232B441D0345EA12551403DDE953
:1032B00000010019694110F1000841F50049BCF80E
:1032C0000620A8FB024502FB09552946002C75F192
:1032D0000003C0F2B9804A10CB1752EA030100F094
:1032E000D980E146DEF80010C1F580114D08CC0709
:1032F000A41B65EB0705A246AB4624196D4114EBF0
:103300000A0045EB0B0105460E46B10141EA956105
:10331000A80137462E184F41B90041EA9671B00016
:1033200010EB0A0441EB0B05A90041EA9471A000DF
:1033300010EB0A0041EB0B01FDF738FC82468B468F
:10334000B9F91640E51701465A46BAF1000F7BF16C
:1033500000037EDB4B0B43EAC243521304FB02F62D
:1033600003FB0566A4FB0301314403FB01F502FBEB
:103370000055A3FB00232B4414461D46002A73F17D
:1033800000016EDB630E43EAC5166F16B9F91440EF
:10339000E51704FB0BF30AFB0533A4FB0A451D44A8
:1033A00020462946002C75F1000363DBC20C42EA7B
:1033B0004134CD141AEB06004BEB0701061941EB23
:1033C000050734463D46002E77F1000358DB210AFD
:1033D00041EA05622B12B9F91240E517290141EAC9
:1033E00014712001141843EB0105E90F621845F12F
:1033F000000359104FEA3200021841EB010316187E
:1034000043EB01077D0145EAD6657401321947EBAC
:103410000503141843EB010520462946002C75F1DD
:10342000000332DBC30943EA416318461C4A934256
:1034300032D91C4A934231D803B0BDE8F08F14F161
:10344000FF0845F100091CE714F1FF3045F10101C7
:1034500041E741F6FF76002716EB0A0147EB0B0226
:1034600078E76FF07E440025A01845EB0301044681
:103470000D4687E70C4A0023101943EB050195E739
:1034800016F1FF0447F10005A1E714F17F0045F1B3
:103490000001C7E70548CFE70448CDE70148CBE77F
:1034A000BFC62D00C0D8A700FFFF0700C0C62D0073
:1034B00010B44C6AA4F596348268B1F91E00000578
:1034C000B1F92030C0EB823004FB130313F58043C5
:1034D00042D4D81391F9222004FB02F2002A3FDBE8
:1034E00092120B7F04FB03F4002C3CDBE41204F586
:1034F000004402FB04F2002A38DB931203F50013A8
:10350000B1F91A2003FB02F313F5005331D49B13D6
:1035100003FB00F31A46002B2FDBD21302FB02F24F
:10352000002A2EDBD211097E02FB01F2002A2ADBDF
:10353000A3EB221323EAE373B3F1C85FA8BF4FF0F4
:10354000C8531A46002B20DB13131846B3F5C83FA7
:103550001ED85DF8044B704703F5FF437F33B8E78F
:1035600002F2FF32BCE704F2FF74BFE702F2FF325F
:10357000C3E703F57F533F33C9E703F5FF427F32CB
:10358000CBE77F32CEE70F32D2E703F6FF72DBE7FD
:103590004FF4C830DDE770B4012408E06500013D58
:1035A000065D4E55155D01F814500134E4B29C429D
:1035B000F4D370BC70474278037843EA02230B824D
:1035C000C278837843EA02234B824279037943EA43
:1035D00002238B82C279837943EA0223CB82427A27
:1035E000037A43EA02230B83C27A837A43EA0223F3
:1035F0004B83427B037B43EA02238B83C27B837B27
:1036000043EA0223CB83427C037C43EA02230B84FC
:10361000C27C837C43EA02234B84427D037D43EAE0
:1036200002238B84C27D837D43EA0223CB84437EC5
:1036300081F8283070474278037843EA02234B85AB
:10364000837881F82C3090F903309BB21B011BB2B8
:10365000027902F00F021343CB8590F905309BB23B
:103660001B011BB2027943EA12130B8690F9063054
:1036700081F832307047084201D1002070470120A4
:10368000704750B142685AB1826862B1C3680BB1E9
:10369000002070474FF0FF3070474FF0FF30704709
:1036A0004FF0FF3070474FF0FF3070472DE9F04189
:1036B0000546884617461C461846FFF7E2FF0346B4
:1036C00060B9A378012B01D045F0800566683B46C0
:1036D000424629466078B047034610B91846BDE80F
:1036E000F0816FF00303F9E730B589B00446002399
:1036F000019302930393049305930693ADF81C3052
:1037000003461A2201A98820FFF7D0FF054610B111
:10371000284609B030BD214601A8FFF74CFF2346DB
:10372000072201A9E120FFF7C1FF05460028EFD1DC
:10373000214601A8FFF77FFFEAE7F0B587B005460D
:103740000F4614461E460A2A00D90A243046FFF7BF
:1037500098FF48BB5DB36FB37CB33B788DF8043002
:10376000B378012B09D0002205E0A95C01F07F01AC
:10377000A9540132D2B29442F7D8012C0AD8A3B28C
:10378000B46801AA29787078A0470346C0B91846E2
:1037900007B0F0BD23463A4601A92846FFF7FBFED5
:1037A0006400013CA3B2EBE74FF0FF33EFE74FF0CB
:1037B000FF33ECE74FF0FF33E9E76FF00203E6E792
:1037C0006FF00303E3E710B582B00C46F2238DF8E7
:1037D0000530837803F0070302A901F8013D234671
:1037E00001220DF10500FFF7A8FF034610B11846AE
:1037F00002B010BDF4208DF80500234601220DF122
:103800000601FFF753FF03460028F0D123460122AB
:103810000DF106010DF10500FFF78FFF0346E6E706
:1038200070B582B005460E461446F4208DF80700A8
:10383000134601220DF10601FFF738FF034670B968
:1038400015F0010F0ED115F0020F11D12346012200
:103850000DF106010DF10700FFF76FFF0346184653
:1038600002B070BD31460DF10600FFF75BFCEAE7E0
:1038700031460DF10600FFF760FCE7E770B504463E
:103880000D46164610F0040F04D1012014F0030F6A
:1038900005D170BD11462846FFF795FFF6E7324681
:1038A00029462046FFF7BCFFF3E770B582B0054616
:1038B0000E461446F5208DF80700134601220DF13F
:1038C0000601FFF7F3FE034670B915F0080F0ED19D
:1038D00015F0100F11D1234601220DF106010DF153
:1038E0000700FFF72AFF0346184602B070BD3146B5
:1038F0000DF10600FFF702FCEAE731460DF1060084
:10390000FFF707FCE7E738B504460D460A460146CF
:103910001F20FFF7B3FF034608B1184638BD2A46FB
:1039200021461F20FFF7C1FF0346F6E730B583B0FD
:1039300005460C46F4208DF807000B4601220DF1D8
:103940000601FFF7B3FE034610B1184603B030BDC1
:103950009DF8060020F0030040B205F0030528435F
:1039600002A901F8020D234601220DF10700FFF71D
:10397000E4FE0346E9E730B583B00546FFF781FE74
:10398000044610B1204603B030BD2B4604220DEB97
:103990000201F220FFF78AFE04460028F2D105F169
:1039A000380101A8FFF7D2FBECE738B505460C4615
:1039B0000846FFF766FE034608B1184638BD2346A1
:1039C00001222946F420FFF771FE03462A7802F00F
:1039D00003022A70F1E730B583B00546E0238DF885
:1039E0000730B6238DF80630FFF74BFE044610B1C2
:1039F000204603B030BD2B4601220DF106010DF12A
:103A00000700FFF79AFE0446EB6802209847EFE7AD
:103A100070B582B0054600238DF80730FFF731FE00
:103A2000064620BB052409E02846FFF75DFE064652
:103A30001CE0EB6801209847013CE4B2B4B12B468E
:103A400001220DF10701D020FFF730FE06460028C5
:103A5000EFD19DF80730602B01D0582BE9D12B70A6
:103A60002846FFF7B8FF06460028DDD014B13046DF
:103A700002B070BD6FF00106F9E710B584B00446DE
:103A80000346042203A9F220FFF710FE034610B1FB
:103A9000184604B010BD01A903A8FFF757FB204644
:103AA000FFF799FF03460028F2D1214601A8FFF74E
:103AB0002AFF0346ECE770B582B006460D4608467D
:103AC000FFF7DFFD044610B1204602B070BD294665
:103AD0000DF10700FFF769FF044610B99DF80730A4
:103AE000B3B9002CF0D131460720FFF7C4FDA0B9CF
:103AF000002CE9D131461820FFF7BDFD0028E3D0A6
:103B00002A4605F138013046FFF7CFFE0446DBE7D1
:103B10002846FFF7B2FF0446E3E72A4605F13801DD
:103B20003046FFF7ABFE0446E2E730B583B005460A
:103B30000C460846FFF7A5FD034610B1184603B032
:103B400030BD21460DF10700FFF72FFF034610B9E6
:103B50009DF807203AB9002BF0D121462846FFF7FF
:103B6000E5FE0346EAE72046FFF787FF0346F2E754
:103B700010B4047843781B01827843EA043343EAA3
:103B800012130B60C47803791B01427943EA0433B2
:103B900043EA12134B608279C37943EA02238B60B4
:103BA0005DF8044B704729B3F8B50F462AB33BB311
:103BB0001E4614460546002353601360936010F0C0
:103BC000070F11D115F0010F04D031463846FFF729
:103BD00011FB206015F0040F15D031463846FFF771
:103BE00067FCA0600020F8BD31463846FFF7C2FAF6
:103BF0006060E7E74FF0FF3070474FF0FF30F2E7CB
:103C00004FF0FF30EFE70020EDE770B586B00646D5
:103C10000D461446002304930593019302930393E6
:103C20001046FFF72EFDC0B9D5B12346082204A9DE
:103C3000F720FFF73BFD034610B1184606B070BDF4
:103C400001A904A8FFF794FF04F110032A4601A973
:103C50003046FFF7A8FF0346EFE74FF0FF33ECE7EE
:103C60004FF0FF33E9E70000F0B583B000268DF890
:103C700007608DF806608DF804608DF80560394D99
:103C80002860C46801230DF106020721407AA0478D
:103C900004462868076901230DF107023146407A7E
:103CA000B84754FA80F4E4B228689DF807300370EE
:103CB000066901230DF107021946407AB04754FA0C
:103CC00080F4E4B228689DF8073043710669012347
:103CD0000DF107020221407AB04754FA80F4E4B2B1
:103CE00028689DF807308371066901230DF10702EA
:103CF0000321407AB04754FA80F4E4B228689DF872
:103D00000730C371066901230DF107020621407ACD
:103D1000B04754FA80F4E4B228689DF80730037283
:103D20000669022301AA0421407AB04754FA80F4BC
:103D3000E4B29DF805209DF80430286843EA022388
:103D40004380066901230DF107020721407AB0473D
:103D500054FA80F02B689DF807201A7140B203B026
:103D6000F0BD00BF4404002038B5064B1C6834B1D8
:103D700013460A460146E568607AA84738BD6FF0E9
:103D80007E00FBE74404002070B582B000238DF86C
:103D90000730134B1C68E4B10546266901230DF179
:103DA00007020721607AB0470446A8B902AA02F8C0
:103DB000015D0B4B1868C66801230721407AB047A4
:103DC00054FA80F040B210B9054B1B681D7102B067
:103DD00070BD6FF07E00FAE74FF0FF30F7E700BFED
:103DE0004404002030B583B000230093ADF80430C4
:103DF0001A4B1B685BB304461B7913BB174B1B683C
:103E00001B793BBB154B1868056906236A460821D8
:103E1000407AA8479DF901209DF8003043EA02232B
:103E200023809DF903209DF8023043EA022363803A
:103E30009DF905209DF8043043EA0223A38003B0D6
:103E400030BD0020FFF7A0FF0028DBD0D6E76FF0E1
:103E50007E00F4E74FF0FF30F1E700BF440400209C
:103E600030B583B000230093ADF804301A4B1B68C3
:103E70005BB304461B7913BB174B1B681B793BBB19
:103E8000154B1868056906236A460E21407AA84733
:103E90009DF901209DF8003043EA022323809DF91B
:103EA00003209DF8023043EA022363809DF9052038
:103EB0009DF8043043EA0223A38003B030BD002004
:103EC000FFF762FF0028DBD0D6E76FF07E00F4E753
:103ED0004FF0FF30F1E700BF4404002030B583B05D
:103EE00000230093ADF804301A4B1B685BB3044603
:103EF0001B7913BB174B1B681B793BBB154B186811
:103F0000056906236A461421407AA8479DF90120D5
:103F10009DF8003043EA022323809DF903209DF899
:103F2000023043EA022363809DF905209DF80430A6
:103F300043EA0223A38003B030BD0020FFF724FF33
:103F40000028DBD0D6E76FF07E00F4E74FF0FF30BB
:103F5000F1E700BF4404002030B583B004460023DD
:103F6000ADF80030ADF80230ADF804306846FFF728
:103F700077FF20BB0546BDF90000FCF7ADFA002233
:103F8000104BFCF713FBFCF7C1FD2060BDF90200EC
:103F9000FCF7A2FA00220B4BFCF708FBFCF7B6FD7E
:103FA0006060BDF90400FCF797FA0022054BFCF7AE
:103FB000FDFAFCF7ABFDA060284603B030BD4FF022
:103FC000FF35F9E70000B03F70B582B000238DF8EF
:103FD0000730134B1B68E3B105461B799BB9104BA7
:103FE0001B681B79C3B90E4B1C68266901230DF1B0
:103FF00007023B21607AB0479DF8073003F00103C8
:104000002B7002B070BD0020FFF7BEFE0028EAD082
:10401000E5E76FF07E00F4E74FF0FF30F1E700BF17
:104020004404002070B582B000238DF80730134B94
:104030001B68E3B105461B799BB9104B1B681B79C4
:10404000C3B90E4B1C68266901230DF107023B2101
:10405000607AB0479DF80730C3F340032B7002B07D
:1040600070BD0020FFF790FE0028EAD0E5E76FF072
:104070007E00F4E74FF0FF30F1E700BF440400207A
:1040800070B582B000238DF80730134B1B68E3B185
:1040900005461B799BB9104B1B681B79C3B90E4BA6
:1040A0001C68266901230DF107023D21607AB047A3
:1040B0009DF8073003F00F032B7002B070BD002095
:1040C000FFF762FE0028EAD0E5E76FF07E00F4E734
:1040D0004FF0FF30F1E700BF4404002070B582B01C
:1040E00000238DF807308DF80630424B1B68002BFB
:1040F00079D005460DF10600FFF7C2FF002875D103
:104100009DF806303BBB3B4B1868046901230DF159
:1041100007023D21407AA0470446C8B99DF8073000
:1041200023F00F035BB205F00F051D4302AA02F84E
:10413000015D304D2868C66801233D21407AB047B3
:1041400054FA80F464B22B685B694FF41670984798
:10415000204602B070BD274B1868046901230DF199
:1041600007023D21407AA047044640B3002DEFD01E
:10417000204B1868046901230DF107023D21407AA4
:10418000A04704460028E3D19DF8070020F00F0067
:1041900040B205F00F05054302AA02F8015D154D76
:1041A0002868C66801233D21407AB04754FA80F45C
:1041B00064B22B685B694FF416709847C8E79DF8A6
:1041C000073003F0F00302A901F8013D01223D2070
:1041D000FFF7CAFD54FA80F464B2064B1B685B69B2
:1041E00014209847C2E76FF07E04B1E74FF0FF3428
:1041F000AEE700BF4404002030B583B000238DF843
:1042000007308DF80630254B1B68002B42D0054641
:104210000DF10600FFF734FF044650BB9DF8063051
:104220000BBB74BB1D4B1868046901230DF1070219
:104230003B21407AA0470446E8B99DF8073023F0B7
:1042400001035BB205F00100184302AA02F8010D58
:10425000124B1868C56801233B21407AA84754FADD
:1042600080F464B207E0FFF739FF54FA80F464B2D7
:10427000D7E74FF0FF349DF8060028B9204603B079
:1042800030BD4FF0FF34F6E7FFF728FF54FA80F413
:1042900064B2F3E76FF07E04F0E700BF440400204F
:1042A00030B585B005460023ADF80830ADF80A30CA
:1042B000ADF80C3004A800F8093DFFF785FE044670
:1042C0009DF80730012B21D13CBB02A8FFF78AFDE6
:1042D00054FA80F040B218BBBDF9083007EE903AAE
:1042E000F8EEE77AC5ED007ABDF90A3007EE903AAC
:1042F000F8EEE77AC5ED017ABDF90C3007EE903A99
:10430000F8EEE77AC5ED027A05B030BD0120FFF77F
:1043100073FF54FA80F464B2D6E74FF0FF30F3E74E
:104320004FF0FF30F0E7000030B583B000228DF889
:1043300007208DF80620254A1268002A43D005463A
:104340000DF10600FFF79CFE044658BB9DF80630B1
:1043500013BB7CBB1D4B1868046901230DF10702D8
:104360003B21407AA0470446F0B99DF8072022F08F
:10437000020252B26B0003F00203134302AA02F8D6
:10438000013D124B1868C56801233B21407AA847BC
:1043900054FA80F464B207E0FFF7A0FE54FA80F408
:1043A00064B2D6E74FF0FF349DF8060028B92046E6
:1043B00003B030BD4FF0FF34F6E7FFF78FFE54FA3D
:1043C00080F464B2F3E76FF07E04F0E74404002069
:1043D00030B585B005460023ADF80830ADF80A3099
:1043E000ADF80C3004A800F8093DFFF71BFE0446A9
:1043F0009DF80730012B2BD18CBB02A8FFF76EFD77
:1044000054FA80F464B26CBBBDF90800FCF764F8A0
:104410000022164BFCF7F4F9FCF778FB2860BDF995
:104420000A00FCF759F80022104BFCF7E9F9FCF7F9
:104430006DFB6860BDF90C00FCF74EF800220B4BD9
:10444000FCF7DEF9FCF762FBA860204605B030BD42
:104450000120FFF769FF54FA80F464B2CCE74FF013
:10446000FF34F2E74FF0FF34EFE700BF00208C404D
:1044700030B583B000238DF807308DF80630254B1A
:104480001B68002B42D005460DF10600FFF7F8FD32
:10449000044650BB9DF806300BBB74BB1D4B18681F
:1044A000046901230DF107023E21407AA04704462A
:1044B000E8B99DF8073023F003035BB205F0030071
:1044C000184302AA02F8010D124B1868C5680123AF
:1044D0003E21407AA84754FA80F464B207E0FFF71F
:1044E000FDFD54FA80F464B2D7E74FF0FF349DF835
:1044F000060028B9204603B030BD4FF0FF34F6E780
:10450000FFF7ECFD54FA80F464B2F3E76FF07E0439
:10451000F0E700BF4404002030B583B000238DF8DD
:1045200007308DF806302B4B1B68002B4FD005460B
:104530000DF10600FFF7A4FD0446002833D19DF8D5
:1045400006301BB944B14FF0FF342EE0FFF7C6FD33
:1045500054FA80F464B2F5E70120FFF715FC50BB74
:10456000042D2BD81B4B1868046901230DF1070299
:104570000821407AA0470446B8B99DF8070020F00A
:10458000030043B205F00300184302AA02F8010D2C
:10459000104B1868C56801230821407AA84754FACF
:1045A00080F464B201E04FF0FF349DF8060040B99A
:1045B000204603B030BD4FF0FF34F6E76FF0010442
:1045C000F3E7FFF78BFD54FA80F464B2F0E76FF085
:1045D0007E04EDE7440400200022027042708280D5
:1045E000826002730282426102768283026280F8F4
:1045F00024200285C26280F8302080F8382080F8BC
:104600003920C26380F8482080F84920C26480F8CD
:10461000582080F85920026680F8682080F86920C8
:10462000026780F8782080F87920C0F8802080F830
:10463000882080F88920C0F8902080F8982080F8A1
:104640009920C0F8A02080F8A82080F8A920022195
:1046500080F8B91080F8BA2080F8BB2080F8BC2020
:10466000C0F8C020C0F8C420C0F8C820C0F8CC20D2
:10467000C0F8D020C0F8D42080F8AA207047A1F15B
:104680004103DBB2052B07D9A1F16103DBB2052B96
:1046900005D9A1F130007047A1F137007047A1F1B1
:1046A0005700704738B5044605782D2D0CD02046AC
:1046B0000CF075FA642303FB00F02378A3F13002B9
:1046C000092A03D80134F8E70134F0E72E2B02D091
:1046D0002D2D10D038BD6378A3F13002092AF7D808
:1046E00002EB82035A001044A378A3F13002092A96
:1046F000EED81044ECE74042ECE7000038B5044641
:104700000D460CF04CFA184AA2FB00325309642102
:1047100001FB130399B2154B03FB01F3C2F34F12D4
:104720002A802278A2F13001092901D80134F8E762
:104730002E2A0AD003EB830301330D4AA2FB032385
:104740005B086B6000232B7238BD084914F8012FF9
:10475000A2F130000928EDD80648A0FB0101C908E4
:10476000303A01FB0233F1E71F85EB518096980048
:10477000ABAAAAAACDCCCCCC10B50446034653F8BC
:104780001C0F59686060A1601B7A2373234653F89D
:10479000280F5968206161611B7A237602F096FA2E
:1047A000606301236370237010BD08B50B4600F1F0
:1047B0001C011846FFF7A2FF08BD08B50B4600F123
:1047C00028011846FFF79AFF08BD10B50446836814
:1047D000436002F07BFAE06001236370237010BD38
:1047E00010B504468368436002F070FAE06001236C
:1047F0006370237010BD10B504460846FFF752FFE2
:10480000A06010BD10B5044608460CF0C8F9A060C1
:1048100010BD10B50446C368836002F057FA6060AB
:1048200001236370237010BD10B504460846FFF7DE
:1048300039FFE06010BD10B50446C368836002F024
:1048400045FA606001236370237010BD10B5044603
:1048500008460CF0A4F9E06010BD10B5044601460E
:1048600010300CF05CFC02F031FA2062012384F875
:10487000253084F8243010BD08B510220CF057FC08
:1048800008BD0000F8B5044690F8A960002E6AD073
:1048900090F8AA10FFF7F3FE0001C5B294F8AB1030
:1048A0002046FFF7ECFE55FA80F0C0B294F8A8302D
:1048B000834207D0D4F8D0300133C4F8D03000267A
:1048C0003046F8BDD4F8D4300133C4F8D43094F86D
:1048D000BC3023B1D4F8CC300133C4F8CC3094F8D8
:1048E000B930C3B1012B25D104F13800FFF76DFFBA
:1048F00004F14800FFF774FF94F8BC30D3B12046B0
:10490000FFF73AFF04F15800FFF783FF04F1680056
:10491000FFF77FFF0EE004F14800FFF761FF94F816
:10492000BC30C3B904F18800FFF785FF04F198009B
:10493000FFF76FFFD4F8C450002DC1D0D4F8C430B5
:10494000996AA86AFBF764FC0028B9D12846FFF7EA
:1049500084FF2D6BF0E72046FFF70EFF04F178008F
:10496000FFF757FFDEE790F8BA30002B3FD100F198
:10497000AA0766493846FBF74BFC20B16449384624
:10498000FBF746FC98B9012384F8B930D4F8C0305D
:10499000C4F8C430D4F8C450DDB13946A86AFBF776
:1049A00037FC002815DA2B6BC4F8C430F2E75949FC
:1049B0003846FBF72DFC20B157493846FBF728FC59
:1049C00018B9002384F8B930E0E7022384F8B9303D
:1049D000DCE7002D3FF474AF3946A86AFBF718FCFA
:1049E00000287FF76DAF0023C4F8C43068E790F863
:1049F000B920022A23D090F8AA1001B343EA421347
:104A0000013B282B1BD8DFE803F015242930354E55
:104A1000555B611A1A1A1A1A1A1A1A1A1A1A1A1A33
:104A20001A1A1A1A1A1A1A1A1A1A151D242930359E
:104A30003C42480000F1AA014830FFF7DCFED4F800
:104A4000C4504AE0412914BF0021012180F8BC1064
:104A5000F5E700F1AA01FFF7A8FEF0E7532914BF1C
:104A60000021012180F82410E9E700F1AA01FFF7F5
:104A7000A4FEE4E7572914BF0021012180F830107B
:104A8000DDE700F1AA015830FFF7CEFED7E700F1CD
:104A9000AA016830FFF7C8FED1E700F1AA0138305B
:104AA000FFF7B0FECBE7302994BF0021012180F849
:104AB000BC10C4E700F1AA018830FFF7C7FEBEE7CB
:104AC00000F1AA019830FFF7AFFEB8E700F1AA01A4
:104AD0007830FFF7A9FEB2E72D6B002D3FF4F0AE62
:104AE000D4F8C430996AA86AFBF792FB00287FF4D7
:104AF000E7AEEA6A94F8BA309A423FF7E1AEEBD1FA
:104B000004F1AA012846FFF7B7FEE5E7901801086F
:104B100098180108A0180108A818010838B504461B
:104B2000D0F8C8200132C0F8C820A1F10A02222A18
:104B300044D8DFE802F0174343174343434343435A
:104B40004343434343434343434343434343434335
:104B50003443434343431743120090F8A8204A408C
:104B600080F8A8200D4694F8BB300E2B0FD90020FA
:104B700094F8BA30013384F8BA30002384F8BB309B
:104B80002A2D14BF0021012184F8A91038BD234427
:104B9000002283F8AA202046FFF774FEE8E70020F1
:104BA00084F8BB0084F8BA0084F8A800022284F8D4
:104BB000B92084F8A90084F8BC00E7E790F8BB208E
:104BC0000D2A05D8501C84F8BB00224482F8AA1094
:104BD00094F8A90028B994F8A820514084F8A810A6
:104BE000D4E70020D2E70000012800D0704708B5C4
:104BF0004FF6FF73994200D008BD0248FFF7ECFC66
:104C0000FAE700BF4804002008B50C4BD3F8E431A4
:104C1000FF2B0BD80948D0F8E4315A1CC0F8E42126
:104C2000034493F8E010FFF779FFEEE7034B00220F
:104C3000C3F8E021C3F8E42108BD00BF4804002008
:104C4000014BD3F8D80070474804002008B54FF650
:104C5000FF710120FFF7C8FF08BD08B507F065FC2C
:104C600008BD0000F0B585B004460D4616461F4647
:104C700008F012FF032302930197009601232A46AE
:104C800004FA03F1044803F06DFB044608F0A4FFA6
:104C900060B205B0F0BD00BF2C550120F0B585B065
:104CA00004460D4616461F4608F0F6FE03230293FF
:104CB0000197009601232A4604FA03F1044803F001
:104CC0009DFA044608F088FF60B205B0F0BD00BF51
:104CD0002C55012010B50C4639B900231A464FF463
:104CE000FA71FEF79BF9204610BD002332221946C7
:104CF000FEF794F9F7E7000008B51B4876234370E8
:104D000001238370194B4360194B8360194BC360B7
:104D1000FEF77EFE034608B1184608BD1248FEF7AE
:104D20002AFE03460028F7D10F49002381F83B30C3
:104D3000042281F83820012281F8392081F83C30A2
:104D40001F20FEF7B8FE03460028E5D106490320E0
:104D5000FEF7EBFE0346002207490A7007490A6086
:104D600007490A60D8E700BFDC510120654C000804
:104D70009D4C00085B4C0008300600205453012075
:104D8000D851012008B50F480F4BC3600F4B03618A
:104D90000F4B436128234372FEF766FF034608B1B9
:104DA000184608BDFFF764FB03460028F8D107202A
:104DB000FFF794F903460028F2D10320FFF7ACFB7C
:104DC0000346EDE7A05101209D4C0008654C00080A
:104DD0005B4C000838B51D4A1D490720FEF715FF3A
:104DE0000446E0B91B4B1B78B3B9194B1B681A4A30
:104DF000A2FB033219490B6803EB52130B601849ED
:104E00000A6801320A60802A09D1DB09134A13605B
:104E1000104B01221A7002E00E4B5B784BB10D4B28
:104E20005B780133DBB21D2B0DD80A4A5370204644
:104E300038BD0A4B1D6801F049FF02460D21284686
:104E4000FDF7D4FCEBE70023EFE700BFDC510120C6
:104E5000BC510120300600201F85EB51D8510120A4
:104E60005453012038B52DED048B3948FFF718FA5B
:104E7000C4B23848FFF770F854FA80F4E4B2364808
:104E8000FFF7A6FA54FA80F464B25CB1334B9B7816
:104E90000133DBB2092B58D8304A93702046BDEC61
:104EA000048B38BD2A4D95ED008ABDEEC88A01F00D
:104EB0000DFF0246012118EE100AFDF797FC95ED53
:104EC000018ABDEEC88A01F001FF0246022118EEF8
:104ED000100AFDF78BFC95ED028ABDEEC88A01F041
:104EE000F5FE0246032118EE100AFDF77FFC1A4D6D
:104EF000D5ED008A9FED1A9A68EE898AFDEEE88A60
:104F000001F0E4FE0246042118EE900AFDF76EFC63
:104F1000D5ED018A68EE898AFDEEE88A01F0D6FEB9
:104F20000246052118EE900AFDF760FC95ED028A15
:104F300028EE098ABDEEC88A01F0C8FE02460621A5
:104F400018EE100AFDF752FCA0E70023A4E700BF0B
:104F5000CC510120585301201C5201203006002062
:104F600000007A4470B54FF4FA7007F0DEFAFEF7ED
:104F70003BF8214B1860FEF737F8204B18600024EF
:104F8000254605B31C4B1E68FFF76CFFB0FA80F195
:104F900049093046FFF79EFE0CB3184B1E68FFF719
:104FA00019FFB0FA80F149093046FFF793FE0A2055
:104FB00007F0BBFA002CE4D1002DE2D14FF47A7057
:104FC00007F0B3FADDE70C4B1D68FFF7DBFEB0FA24
:104FD00080F149092846FFF77DFE0546DCE7074BCF
:104FE0001C68FFF789FEB0FA80F149092046FFF7F7
:104FF00071FE0446DBE700BFC8510120B851012013
:1050000010B503220021012007F0A8FF0A4C206000
:1050100003220021012007F0A1FF6060032200218C
:10502000012007F09BFFA06003220021012007F070
:1050300095FFE06010BD00BF3406002010B584B0BD
:1050400004AC04E90F00274B1B69382B37D8009AB2
:10505000244B1969481C1861100E19440875196908
:10506000481C1861C2F30740194408751969481CA7
:105070001861C2F30720194408751969481C1861A2
:10508000D2B219440A751A69511C19619DF80410AD
:105090001A441175029A1969481C1861C2F3074035
:1050A000194408751969481C1861C2F3072019448E
:1050B00008751969481C1861D2B20B441A75094B5E
:1050C0001B693F2B01D804B010BD064C206800239B
:1050D0001A46194607F08AFF60680A2108F0B0F9FD
:1050E000F1E700BF3406002008B50BF079FF08BDDA
:1050F00010B50D4C0D49204609F040F84FF480538F
:105100004FF080720A49204609F058F8094B0A4AC4
:105110000A49204609F03CF8204609F001F9084BFD
:1051200001221A7010BD00BFD4060020E95000080B
:10513000F01801085126000893250008A52400084E
:10514000D006002008B500214FF4807007F02DFF35
:10515000014B186008BD00BFC048002070B5FDF7C6
:1051600043FF064605E00023AA22FF213046FDF753
:1051700055FF0B4C20684FF0FF3108F061F90948EA
:105180000BF02EFF6368DA6862609D685A681868E1
:105190009047A8476368002BE5D1A2686260E2E708
:1051A000C0480020FC18010808B5054B1B68834265
:1051B00000D008BD034B186807F0C0F9F9E700BF3D
:1051C000FC54012068530120DFF834D0002103E0B3
:1051D0000C4B5B58435004310B480C4B42189A421D
:1051E000F6D30B4A02E0002342F8043B094B9A42F3
:1051F000F9D301F01FFD0BF0A7FD00F051FB704744
:1052000000000220D4210108000000200C02002030
:105210000C02002050600120FEE7000030B597B07E
:1052200000241394149415940E940F9410941194D4
:1052300012940A940B940C940D9406940794089479
:1052400009943E4B5A6C42F480725A645A6C02F4D0
:1052500080720392039A1A6B42F001021A631A6B6E
:1052600002F001020292029A1A6B42F004021A63DF
:105270001B6B03F004030193019B0C230493032590
:10528000059504A92E4806F031FB102304930595DB
:1052900008940DEB03012B4806F028FB139414949B
:1052A0001594294D13A9284606F0D6FA0E940F94AA
:1052B0001094119412940EA9284606F0E9FAAB68EE
:1052C00043F48063AB606B6823F020036B600A9447
:1052D0000B940AA91D4806F091FA1D494FF440733A
:1052E00093FAA3F3B3FA83F34FF40072DA4051F860
:1052F000223023F01F0343F0020341F822300C3523
:105300004FF0007393FAA3F2B2FA82F2D34055F849
:1053100023204FF0F87191FAA1F4B4FA84F44FF419
:10532000C00020FA04F40720A04022EA000291FA0B
:10533000A1F145F8232017B030BD00BF003802406E
:10534000000002400008024000200140002301400C
:105350002C20014030B593B000240F941094119488
:105360000A940B940C940D940E940694079408944C
:1053700009943A4B5A6C42F400725A645A6C02F423
:1053800000720392039A1A6B42F004021A631A6BBA
:1053900002F004020292029A1A6B42F001021A63AE
:1053A0001B6B03F001030193019B032504950595F5
:1053B00004A92B4806F09AFA302304930595089423
:1053C00004A9284806F092FA0F9410941194264DDF
:1053D0000FA9284606F040FA0A940B940C940D94F9
:1053E0000E940AA9284606F053FAAB6843F480638A
:1053F000AB606B6823F020036B601C494FF4407373
:1054000093FAA3F3B3FA83F34FF40072DA4051F83E
:10541000223023F01F0343F0040341F822300C35FF
:105420004FF0007393FAA3F2B2FA82F2D34055F828
:1054300023204FF0F87191FAA1F4B4FA84F44FF4F8
:10544000400020FA04F40720A04022EA000291FA6A
:10545000A1F145F8232013B030BD00BF0038024051
:105460000008024000000240002101402C210140C0
:1054700008B50D480D4B036009234360002383608A
:10548000C3604FF4402202614FF480124261037600
:1054900043768376C3760377437701F031FC00B916
:1054A00008BD00F04BFAFBE7005501200064004006
:1054B000F0B589B0002303930493059306930793F3
:1054C0000268234B9A4201D009B0F0BD0024009439
:1054D00003F5EA331A6C42F000721A641A6C02F097
:1054E00000720092009A01941A6B42F001021A6352
:1054F0001A6B02F001020192019A02941A6B42F0B7
:1055000002021A631B6B03F002030293029B4FF427
:1055100080530393022704970326069609250795CF
:1055200003A90C4802F090FA4FF480730393049798
:1055300005940696079503A9074802F085FA2246C6
:105540000521142001F0D6FF142002F007F8BBE774
:1055500000640040000002400004024010B582B028
:1055600000240094224B1A6B42F480021A631A6BD7
:1055700002F480020092009A01941A6B42F4001225
:105580001A631B6B03F400130193019B2246052150
:105590000C2001F0AFFF0C2001F0E0FF22460521B6
:1055A0000D2001F0A7FF0D2001F0D8FF22460521B4
:1055B0000F2001F09FFF0F2001F0D0FF22460521B0
:1055C0003B2001F097FF3B2001F0C8FF2246052158
:1055D000452001F08FFF452001F0C0FF2246052144
:1055E000462001F087FF462001F0B8FF02B010BD51
:1055F0000038024008B501F033F9012006F095FFAC
:10560000FBE70000034B036054330B6080231360FF
:10561000704700BF6C49002030B589B0FDF756FCDB
:1056200001AC084D0FCD0FC495E8070084E80700D2
:10563000002101A806F043FF034B1860FDF74CFC66
:1056400009B030BDE01701082855012086B00022BE
:1056500001921A4B196B41F004011963196B01F0A7
:105660000401019101990292196B41F080011963C3
:10567000196B01F08001029102990392196B41F0BC
:1056800001011963196B01F001010391039904925F
:10569000196B41F002011963196B01F002010491C9
:1056A000049905921A6B42F008021A631B6B03F00F
:1056B00008030593059B06B0704700BF0038024001
:1056C00008B50B480B4B03600B4B43600023836012
:1056D000C3604FF48042026143618361C36103622E
:1056E00002F0BCFC00B908BD00F028F9FBE700BFE0
:1056F0002C550120005C0040A08601002DE9F047F8
:1057000088B00023039304930593069307930268DC
:10571000314B9A4202D008B0BDE8F087044600251C
:1057200000952E4E336B43F001033363336B03F06C
:1057300001030093009B0195336B43F00203336335
:10574000336B03F002030193019B4FF480730393C7
:105750004FF0120ACDF810A04FF00109CDF81490C7
:105760004FF00308CDF818800427079703A91C48B9
:1057700002F06AF910230393CDF810A0CDF814902D
:10578000CDF81880079703A9164802F05DF9029535
:10579000336C43F400033364336C03F4000302936B
:1057A000029B1148114B03604FF0C063436085605A
:1057B000C5604FF48063036145618561C561056221
:1057C000456201F055FF18B9074BA3639C63A2E73C
:1057D00000F0B4F8F8E700BF005C00400038024079
:1057E0000000024000040240805501204060024059
:1057F00030B5ADB0342200211FA80BF0E4FA00242C
:105800001A941B941C941D941E945C22214603A898
:105810000BF0D9FA0194204B1A6C42F080521A64B2
:105820001B6C03F080530193019B02941B4A136885
:1058300023F4404343F480431360136803F440436C
:105840000293029B02251F95012322931023239389
:1058500025952694082327934823289329950323E5
:105860002A932B951FA803F08BFF0F231A931B95E8
:105870001C944FF480531D931E9429461AA803F0DC
:105880008FFB4FF4407303931894149403A803F010
:1058900077FC2DB030BD00BF0038024000700040E2
:1058A00008B5FCF72DFD1E480BF09AFB01F0E8F956
:1058B000FFF79EFFFFF7CAFEFFF750FEFFF7AEFCB3
:1058C000FFF748FDFFF7D4FDFFF7FAFE00F038F8C8
:1058D00000F0BAF800F094F900F0F4FC00F062FD7A
:1058E00000F0BCFA00F0B0FD00F004FE00F00AFB8E
:1058F00000F054FE00F06CFE00F084FEFDF7ACFBFF
:10590000FF2211467F20FDF79FFB0020FCF738FFA8
:10591000FFF7EEFBFFF780FE06F0B9FDFEE700BFE4
:105920001819010808B50268034B9A4200D008BD57
:1059300001F0C0F9FBE700BF002000407047000005
:1059400008B50B480B4B0360FF23436001238360C2
:105950000023C3601A22026143618361C361036251
:1059600003F0BAFA00B908BDFFF7E8FFFBE700BF94
:1059700094560120001000A02DE9F04188B00023CA
:105980000393049305930693079302682A4B9A4264
:1059900002D008B0BDE8F08100240094274B9A6B38
:1059A00042F002029A639A6B02F002020092009A9D
:1059B00001941A6B42F002021A631A6B02F002029F
:1059C0000192019A02941A6B42F004021A631B6B53
:1059D00003F004030293029B04230393022604961C
:1059E000032506954FF00908CDF81C80144F03A934
:1059F000384602F029F84FF4C063039304960594E7
:105A00000695CDF81C8003A90E4802F01DF840232E
:105A100003930496059406950A23079303A9384631
:105A200002F012F8224605215C2001F063FD5C20A3
:105A300001F094FDADE700BF001000A00038024067
:105A40000004024000080240054B064A1A6000228A
:105A50005A609A60DA601A615A619A61704700BFB1
:105A6000A0570120002C01402DE9F0438BB000230A
:105A7000059306930793089309930268584B9A423B
:105A800002D00BB0BDE8F08304460025019503F574
:105A900086335A6C42F400625A645A6C02F4006213
:105AA0000192019A02951A6B42F002021A631A6B74
:105AB00002F002020292029A03951A6B42F004026B
:105AC0001A631A6B02F004020392039A04951A6B8C
:105AD00042F008021A631B6B03F008030493049B53
